{
  "abi": [
    {
      "inputs": [],
      "name": "ArbitrumCustomerBridge",
      "outputs": [
        {
          "internalType": "address",
          "name": "",
          "type": "address"
        }
      ],
      "stateMutability": "view",
      "type": "function"
    },
    {
      "inputs": [],
      "name": "ArbitrumWETH",
      "outputs": [
        {
          "internalType": "address",
          "name": "",
          "type": "address"
        }
      ],
      "stateMutability": "view",
      "type": "function"
    },
    {
      "inputs": [],
      "name": "DAI",
      "outputs": [
        {
          "internalType": "address",
          "name": "",
          "type": "address"
        }
      ],
      "stateMutability": "view",
      "type": "function"
    },
    {
      "inputs": [],
      "name": "ETHAddress",
      "outputs": [
        {
          "internalType": "address",
          "name": "",
          "type": "address"
        }
      ],
      "stateMutability": "view",
      "type": "function"
    },
    {
      "inputs": [],
      "name": "LineaCustomerBridge",
      "outputs": [
        {
          "internalType": "address",
          "name": "",
          "type": "address"
        }
      ],
      "stateMutability": "view",
      "type": "function"
    },
    {
      "inputs": [],
      "name": "LineaWETH",
      "outputs": [
        {
          "internalType": "address",
          "name": "",
          "type": "address"
        }
      ],
      "stateMutability": "view",
      "type": "function"
    },
    {
      "inputs": [],
      "name": "OP_LEGACY_ERC20_ETH",
      "outputs": [
        {
          "internalType": "address",
          "name": "",
          "type": "address"
        }
      ],
      "stateMutability": "view",
      "type": "function"
    },
    {
      "inputs": [],
      "name": "OptimismDAI",
      "outputs": [
        {
          "internalType": "address",
          "name": "",
          "type": "address"
        }
      ],
      "stateMutability": "view",
      "type": "function"
    },
    {
      "inputs": [],
      "name": "OptimismL1StandardBridge",
      "outputs": [
        {
          "internalType": "address",
          "name": "",
          "type": "address"
        }
      ],
      "stateMutability": "view",
      "type": "function"
    },
    {
      "inputs": [],
      "name": "OptimismL2StandardBridge",
      "outputs": [
        {
          "internalType": "address",
          "name": "",
          "type": "address"
        }
      ],
      "stateMutability": "view",
      "type": "function"
    },
    {
      "inputs": [],
      "name": "OptimismUSDC",
      "outputs": [
        {
          "internalType": "address",
          "name": "",
          "type": "address"
        }
      ],
      "stateMutability": "view",
      "type": "function"
    },
    {
      "inputs": [],
      "name": "OptimismUSDT",
      "outputs": [
        {
          "internalType": "address",
          "name": "",
          "type": "address"
        }
      ],
      "stateMutability": "view",
      "type": "function"
    },
    {
      "inputs": [],
      "name": "OptimismWETH",
      "outputs": [
        {
          "internalType": "address",
          "name": "",
          "type": "address"
        }
      ],
      "stateMutability": "view",
      "type": "function"
    },
    {
      "inputs": [],
      "name": "PolygonZkEVMDAI",
      "outputs": [
        {
          "internalType": "address",
          "name": "",
          "type": "address"
        }
      ],
      "stateMutability": "view",
      "type": "function"
    },
    {
      "inputs": [],
      "name": "PolygonZkEVML1Bridge",
      "outputs": [
        {
          "internalType": "address",
          "name": "",
          "type": "address"
        }
      ],
      "stateMutability": "view",
      "type": "function"
    },
    {
      "inputs": [],
      "name": "PolygonZkEVML2Bridge",
      "outputs": [
        {
          "internalType": "address",
          "name": "",
          "type": "address"
        }
      ],
      "stateMutability": "view",
      "type": "function"
    },
    {
      "inputs": [],
      "name": "PolygonZkEVMUSDC",
      "outputs": [
        {
          "internalType": "address",
          "name": "",
          "type": "address"
        }
      ],
      "stateMutability": "view",
      "type": "function"
    },
    {
      "inputs": [],
      "name": "PolygonZkEVMUSDT",
      "outputs": [
        {
          "internalType": "address",
          "name": "",
          "type": "address"
        }
      ],
      "stateMutability": "view",
      "type": "function"
    },
    {
      "inputs": [],
      "name": "PolygonZkEVMWETH",
      "outputs": [
        {
          "internalType": "address",
          "name": "",
          "type": "address"
        }
      ],
      "stateMutability": "view",
      "type": "function"
    },
    {
      "inputs": [],
      "name": "ScrollDAI",
      "outputs": [
        {
          "internalType": "address",
          "name": "",
          "type": "address"
        }
      ],
      "stateMutability": "view",
      "type": "function"
    },
    {
      "inputs": [],
      "name": "ScrollL1MessageQueue",
      "outputs": [
        {
          "internalType": "address",
          "name": "",
          "type": "address"
        }
      ],
      "stateMutability": "view",
      "type": "function"
    },
    {
      "inputs": [],
      "name": "ScrollL1StandardERC20Bridge",
      "outputs": [
        {
          "internalType": "address",
          "name": "",
          "type": "address"
        }
      ],
      "stateMutability": "view",
      "type": "function"
    },
    {
      "inputs": [],
      "name": "ScrollL1StandardETHBridge",
      "outputs": [
        {
          "internalType": "address",
          "name": "",
          "type": "address"
        }
      ],
      "stateMutability": "view",
      "type": "function"
    },
    {
      "inputs": [],
      "name": "ScrollL1StandardWETHBridge",
      "outputs": [
        {
          "internalType": "address",
          "name": "",
          "type": "address"
        }
      ],
      "stateMutability": "view",
      "type": "function"
    },
    {
      "inputs": [],
      "name": "ScrollL2StandardERC20Bridge",
      "outputs": [
        {
          "internalType": "address",
          "name": "",
          "type": "address"
        }
      ],
      "stateMutability": "view",
      "type": "function"
    },
    {
      "inputs": [],
      "name": "ScrollL2StandardWETHBridge",
      "outputs": [
        {
          "internalType": "address",
          "name": "",
          "type": "address"
        }
      ],
      "stateMutability": "view",
      "type": "function"
    },
    {
      "inputs": [],
      "name": "ScrollUSDC",
      "outputs": [
        {
          "internalType": "address",
          "name": "",
          "type": "address"
        }
      ],
      "stateMutability": "view",
      "type": "function"
    },
    {
      "inputs": [],
      "name": "ScrollUSDT",
      "outputs": [
        {
          "internalType": "address",
          "name": "",
          "type": "address"
        }
      ],
      "stateMutability": "view",
      "type": "function"
    },
    {
      "inputs": [],
      "name": "ScrollWETH",
      "outputs": [
        {
          "internalType": "address",
          "name": "",
          "type": "address"
        }
      ],
      "stateMutability": "view",
      "type": "function"
    },
    {
      "inputs": [],
      "name": "USDC",
      "outputs": [
        {
          "internalType": "address",
          "name": "",
          "type": "address"
        }
      ],
      "stateMutability": "view",
      "type": "function"
    },
    {
      "inputs": [],
      "name": "USDT",
      "outputs": [
        {
          "internalType": "address",
          "name": "",
          "type": "address"
        }
      ],
      "stateMutability": "view",
      "type": "function"
    },
    {
      "inputs": [],
      "name": "WETH",
      "outputs": [
        {
          "internalType": "address",
          "name": "",
          "type": "address"
        }
      ],
      "stateMutability": "view",
      "type": "function"
    }
  ],
  "bytecode": {
    "object": "0x61054161003a600b82828239805160001a60731461002d57634e487b7160e01b600052600060045260246000fd5b30600052607381538281f3fe73000000000000000000000000000000000000000030146080604052600436106101fa5760003560e01c806389a3027111610119578063bf11c76f116100ac578063ce5e83231161007b578063ce5e83231461049f578063da228a9b146104ba578063e07b1d49146104d5578063e0bab4c4146104f057600080fd5b8063bf11c76f1461044e578063c54e44eb14610469578063cc2333a614610484578063ccb25ee3146102d857600080fd5b8063a1fc15d2116100e8578063a1fc15d2146103ef578063a3f17f101461040a578063a7687a6e14610425578063ad5c46481461043357600080fd5b806389a30271146103835780638c125c961461039e5780638d9cb9a8146103b95780639df202fe146103d457600080fd5b806354887012116101915780636a98ccdd116101605780636a98ccdd1461033f5780636f3606e11461035a578063719137cf146102a25780637c72e53c1461036857600080fd5b806354887012146102e05780635723e7a6146102ee5780635ef7d9ef146103095780635fe1e74f1461032457600080fd5b806348f10d6a116101cd57806348f10d6a146102875780634d63b5c6146102a25780634df6cdfd146102bd5780634df75f67146102d857600080fd5b80630bd02071146101ff5780630f6d15ff146102365780634357966e1461025157806344da6c931461026c575b600080fd5b61021a7306efdbff2a14a7c8e15944d1f4a48f9f95f663a481565b6040516001600160a01b03909116815260200160405180910390f35b61021a737f2b8c31f88b6006c382775eea88297ec1e3e90581565b61021a73d8a791fe2be73eb6e6cf1eb0cb3f36adc9b3f8f981565b61021a730b2c639c533813f4aa9d7837caf62653d097ff8581565b61021a73f55bec9cafdbe8730f096aa55dad6d22d44099df81565b61021a732a3dd3eb832af982ec71669e178424b10dca2ede81565b61021a73a8ce8aee21bc2a48a5ef670afcc9274c7bbbc03581565b61021a600181565b61021a6010602160991b0181565b61021a730d7e906bd9cafa154b048cfa766cc1e54e39af9b81565b61021a73ca77eb3fefe3725dc33bccb54edefc3d9f764f9781565b61021a7382af49447d8a07e3bd95bd0d56f35241523fbab181565b61021a73da10009cbd5d07dd0cecc66161fc93d7c9000da181565b61021a6006602160991b0181565b61021a73deaddeaddeaddeaddeaddeaddeaddeaddead000081565b61021a73a0b86991c6218b36c1d19d4a2e9eb0ce3606eb4881565b61021a73c5015b9d9161dca7e18e32f6f25c4ad850731fd481565b61021a731e4a5963abfd975d8c9021ce480b42188849d41d81565b61021a737003e7b7186f0e6601203b99f7b8decbfa391cf981565b61021a7394b008aa00579c1307b0ef2c499ad98a8ce58e5881565b61021a737ac440cae8eb6328de4fa621163a792c1ea9d4fe81565b61021a6004605360981b0181565b61021a73c02aaa39b223fe8d0a0e5c4f27ead9083c756cc281565b61021a73e5d7c2a44ffddf6b295a15c148167daaaf5cf34f81565b61021a73dac17f958d2ee523a2206206994597c13d831ec781565b61021a7399c9fc46f92e8a1c0dec1b1747d010903e884be181565b61021a734f9a0e7fd2bf6067db6994cf12e4495df938e6e981565b61021a73eeeeeeeeeeeeeeeeeeeeeeeeeeeeeeeeeeeeeeee81565b61021a73e2b4795039517653c5ae8c2a9bfdd783b48f447a81565b61021a736b175474e89094c44da98b954eedeac495271d0f8156fea26469706673582212204d0120b1bb73e5b83d21da835162dee73520ae87d7ae742cec989ee5c64f94e764736f6c63430008140033",
    "linkReferences": {}
  },
  "methodIdentifiers": {
    "ArbitrumCustomerBridge()": "4df75f67",
    "ArbitrumWETH()": "5fe1e74f",
    "DAI()": "e0bab4c4",
    "ETHAddress()": "da228a9b",
    "LineaCustomerBridge()": "ccb25ee3",
    "LineaWETH()": "bf11c76f",
    "OP_LEGACY_ERC20_ETH()": "7c72e53c",
    "OptimismDAI()": "6a98ccdd",
    "OptimismL1StandardBridge()": "cc2333a6",
    "OptimismL2StandardBridge()": "54887012",
    "OptimismUSDC()": "44da6c93",
    "OptimismUSDT()": "a1fc15d2",
    "OptimismWETH()": "6f3606e1",
    "PolygonZkEVMDAI()": "8c125c96",
    "PolygonZkEVML1Bridge()": "4d63b5c6",
    "PolygonZkEVML2Bridge()": "719137cf",
    "PolygonZkEVMUSDC()": "4df6cdfd",
    "PolygonZkEVMUSDT()": "8d9cb9a8",
    "PolygonZkEVMWETH()": "ce5e8323",
    "ScrollDAI()": "5ef7d9ef",
    "ScrollL1MessageQueue()": "5723e7a6",
    "ScrollL1StandardERC20Bridge()": "4357966e",
    "ScrollL1StandardETHBridge()": "0f6d15ff",
    "ScrollL1StandardWETHBridge()": "a3f17f10",
    "ScrollL2StandardERC20Bridge()": "e07b1d49",
    "ScrollL2StandardWETHBridge()": "9df202fe",
    "ScrollUSDC()": "0bd02071",
    "ScrollUSDT()": "48f10d6a",
    "ScrollWETH()": "a7687a6e",
    "USDC()": "89a30271",
    "USDT()": "c54e44eb",
    "WETH()": "ad5c4648"
  },
  "id": 62
}