{"abi":[{"type":"function","name":"ArbitrumCustomerBridge","inputs":[],"outputs":[{"name":"","type":"address","internalType":"address"}],"stateMutability":"view"},{"type":"function","name":"ArbitrumWETH","inputs":[],"outputs":[{"name":"","type":"address","internalType":"address"}],"stateMutability":"view"},{"type":"function","name":"ETHAddress","inputs":[],"outputs":[{"name":"","type":"address","internalType":"address"}],"stateMutability":"view"},{"type":"function","name":"LineaCustomerBridge","inputs":[],"outputs":[{"name":"","type":"address","internalType":"address"}],"stateMutability":"view"},{"type":"function","name":"LineaWETH","inputs":[],"outputs":[{"name":"","type":"address","internalType":"address"}],"stateMutability":"view"},{"type":"function","name":"OP_LEGACY_ERC20_ETH","inputs":[],"outputs":[{"name":"","type":"address","internalType":"address"}],"stateMutability":"view"},{"type":"function","name":"OptimismTestnetL1StandardBridge","inputs":[],"outputs":[{"name":"","type":"address","internalType":"address"}],"stateMutability":"view"},{"type":"function","name":"OptimismTestnetL2StandardBridge","inputs":[],"outputs":[{"name":"","type":"address","internalType":"address"}],"stateMutability":"view"},{"type":"function","name":"OptimismWETH","inputs":[],"outputs":[{"name":"","type":"address","internalType":"address"}],"stateMutability":"view"},{"type":"function","name":"ScrollTestnetL1MessageQueue","inputs":[],"outputs":[{"name":"","type":"address","internalType":"address"}],"stateMutability":"view"},{"type":"function","name":"ScrollTestnetL1StandardERC20Bridge","inputs":[],"outputs":[{"name":"","type":"address","internalType":"address"}],"stateMutability":"view"},{"type":"function","name":"ScrollTestnetL1StandardETHBridge","inputs":[],"outputs":[{"name":"","type":"address","internalType":"address"}],"stateMutability":"view"},{"type":"function","name":"ScrollTestnetL1StandardWETHBridge","inputs":[],"outputs":[{"name":"","type":"address","internalType":"address"}],"stateMutability":"view"},{"type":"function","name":"ScrollTestnetL2StandardERC20Bridge","inputs":[],"outputs":[{"name":"","type":"address","internalType":"address"}],"stateMutability":"view"},{"type":"function","name":"ScrollTestnetL2StandardWETHBridge","inputs":[],"outputs":[{"name":"","type":"address","internalType":"address"}],"stateMutability":"view"},{"type":"function","name":"ScrollWETH","inputs":[],"outputs":[{"name":"","type":"address","internalType":"address"}],"stateMutability":"view"},{"type":"function","name":"WETH","inputs":[],"outputs":[{"name":"","type":"address","internalType":"address"}],"stateMutability":"view"}],"bytecode":{"object":"0x6102c761003a600b82828239805160001a60731461002d57634e487b7160e01b600052600060045260246000fd5b30600052607381538281f3fe73000000000000000000000000000000000000000030146080604052600436106101155760003560e01c8063a7687a6e116100ac578063c0f24da81161007b578063c0f24da814610240578063ccb25ee31461015f578063cee6ae29146101c6578063da228a9b1461025b578063e034423c1461027657600080fd5b8063a7687a6e146101e1578063a97b00e8146101ef578063ad5c46481461020a578063bf11c76f1461022557600080fd5b8063699ff0e5116100e8578063699ff0e5146101825780636f3606e11461019d5780637c72e53c146101ab57806392cc16ce146101c657600080fd5b8063181c6f841461011a57806343c97917146101445780634df75f671461015f5780635fe1e74f14610167575b600080fd5b6101286010602160991b0181565b6040516001600160a01b03909116815260200160405180910390f35b61012873f0b2293f5d834eae920c6974d50957a1732de76381565b610128600181565b6101287382af49447d8a07e3bd95bd0d56f35241523fbab181565b61012873fbb0621e0b23b5478b630bd55a5f21f67730b0f181565b6101286006602160991b0181565b61012873deaddeaddeaddeaddeaddeaddeaddeaddead000081565b610128738a54a2347da2562917304141ab67324615e9866d81565b6101286004605360981b0181565b61012873481b20a927206af7a754db8b904b052e2781ea2781565b610128737b79995e5f793a07bc00c21412e50ecae098e7f981565b61012873e5d7c2a44ffddf6b295a15c148167daaaf5cf34f81565b6101287365d123d6389b900d954677c26327bfc1c3e88a1381565b61012873eeeeeeeeeeeeeeeeeeeeeeeeeeeeeeeeeeeeeeee81565b61012873adca915971a336ea2f5b567e662f5bd74aef95828156fea2646970667358221220d6b6cfbd19c9ecf3436dbaac0d4d7e228eddb4b980e2bc697a0e1743e78de4c364736f6c63430008140033","linkReferences":{}},"methodIdentifiers":{"ArbitrumCustomerBridge()":"4df75f67","ArbitrumWETH()":"5fe1e74f","ETHAddress()":"da228a9b","LineaCustomerBridge()":"ccb25ee3","LineaWETH()":"bf11c76f","OP_LEGACY_ERC20_ETH()":"7c72e53c","OptimismTestnetL1StandardBridge()":"699ff0e5","OptimismTestnetL2StandardBridge()":"181c6f84","OptimismWETH()":"6f3606e1","ScrollTestnetL1MessageQueue()":"43c97917","ScrollTestnetL1StandardERC20Bridge()":"c0f24da8","ScrollTestnetL1StandardETHBridge()":"cee6ae29","ScrollTestnetL1StandardWETHBridge()":"92cc16ce","ScrollTestnetL2StandardERC20Bridge()":"e034423c","ScrollTestnetL2StandardWETHBridge()":"a97b00e8","ScrollWETH()":"a7687a6e","WETH()":"ad5c4648"},"id":54}