{
  "abi": [
    {
      "inputs": [],
      "name": "ArbitrumNovaL1ERC20Gateway",
      "outputs": [
        {
          "internalType": "address",
          "name": "",
          "type": "address"
        }
      ],
      "stateMutability": "view",
      "type": "function"
    },
    {
      "inputs": [],
      "name": "ArbitrumNovaL1GatewayRouter",
      "outputs": [
        {
          "internalType": "address",
          "name": "",
          "type": "address"
        }
      ],
      "stateMutability": "view",
      "type": "function"
    },
    {
      "inputs": [],
      "name": "ArbitrumNovaL1WETHGateway",
      "outputs": [
        {
          "internalType": "address",
          "name": "",
          "type": "address"
        }
      ],
      "stateMutability": "view",
      "type": "function"
    },
    {
      "inputs": [],
      "name": "ArbitrumNovaL2ERC20Gateway",
      "outputs": [
        {
          "internalType": "address",
          "name": "",
          "type": "address"
        }
      ],
      "stateMutability": "view",
      "type": "function"
    },
    {
      "inputs": [],
      "name": "ArbitrumNovaL2GatewayRouter",
      "outputs": [
        {
          "internalType": "address",
          "name": "",
          "type": "address"
        }
      ],
      "stateMutability": "view",
      "type": "function"
    },
    {
      "inputs": [],
      "name": "ArbitrumNovaL2WETHGateway",
      "outputs": [
        {
          "internalType": "address",
          "name": "",
          "type": "address"
        }
      ],
      "stateMutability": "view",
      "type": "function"
    },
    {
      "inputs": [],
      "name": "ArbitrumNovaWETH",
      "outputs": [
        {
          "internalType": "address",
          "name": "",
          "type": "address"
        }
      ],
      "stateMutability": "view",
      "type": "function"
    },
    {
      "inputs": [],
      "name": "ArbitrumOneL1ERC20Gateway",
      "outputs": [
        {
          "internalType": "address",
          "name": "",
          "type": "address"
        }
      ],
      "stateMutability": "view",
      "type": "function"
    },
    {
      "inputs": [],
      "name": "ArbitrumOneL1GatewayRouter",
      "outputs": [
        {
          "internalType": "address",
          "name": "",
          "type": "address"
        }
      ],
      "stateMutability": "view",
      "type": "function"
    },
    {
      "inputs": [],
      "name": "ArbitrumOneL1WETHGateway",
      "outputs": [
        {
          "internalType": "address",
          "name": "",
          "type": "address"
        }
      ],
      "stateMutability": "view",
      "type": "function"
    },
    {
      "inputs": [],
      "name": "ArbitrumOneL2ERC20Gateway",
      "outputs": [
        {
          "internalType": "address",
          "name": "",
          "type": "address"
        }
      ],
      "stateMutability": "view",
      "type": "function"
    },
    {
      "inputs": [],
      "name": "ArbitrumOneL2GatewayRouter",
      "outputs": [
        {
          "internalType": "address",
          "name": "",
          "type": "address"
        }
      ],
      "stateMutability": "view",
      "type": "function"
    },
    {
      "inputs": [],
      "name": "ArbitrumOneL2WETHGateway",
      "outputs": [
        {
          "internalType": "address",
          "name": "",
          "type": "address"
        }
      ],
      "stateMutability": "view",
      "type": "function"
    },
    {
      "inputs": [],
      "name": "ArbitrumOneWETH",
      "outputs": [
        {
          "internalType": "address",
          "name": "",
          "type": "address"
        }
      ],
      "stateMutability": "view",
      "type": "function"
    },
    {
      "inputs": [],
      "name": "DAI",
      "outputs": [
        {
          "internalType": "address",
          "name": "",
          "type": "address"
        }
      ],
      "stateMutability": "view",
      "type": "function"
    },
    {
      "inputs": [],
      "name": "ETHAddress",
      "outputs": [
        {
          "internalType": "address",
          "name": "",
          "type": "address"
        }
      ],
      "stateMutability": "view",
      "type": "function"
    },
    {
      "inputs": [],
      "name": "LineaCustomerBridge",
      "outputs": [
        {
          "internalType": "address",
          "name": "",
          "type": "address"
        }
      ],
      "stateMutability": "view",
      "type": "function"
    },
    {
      "inputs": [],
      "name": "LineaWETH",
      "outputs": [
        {
          "internalType": "address",
          "name": "",
          "type": "address"
        }
      ],
      "stateMutability": "view",
      "type": "function"
    },
    {
      "inputs": [],
      "name": "MantaL1Bridge",
      "outputs": [
        {
          "internalType": "address",
          "name": "",
          "type": "address"
        }
      ],
      "stateMutability": "view",
      "type": "function"
    },
    {
      "inputs": [],
      "name": "MantaL2Bridge",
      "outputs": [
        {
          "internalType": "address",
          "name": "",
          "type": "address"
        }
      ],
      "stateMutability": "view",
      "type": "function"
    },
    {
      "inputs": [],
      "name": "MantleETH",
      "outputs": [
        {
          "internalType": "address",
          "name": "",
          "type": "address"
        }
      ],
      "stateMutability": "view",
      "type": "function"
    },
    {
      "inputs": [],
      "name": "MantleL1Bridge",
      "outputs": [
        {
          "internalType": "address",
          "name": "",
          "type": "address"
        }
      ],
      "stateMutability": "view",
      "type": "function"
    },
    {
      "inputs": [],
      "name": "MantleL2Bridge",
      "outputs": [
        {
          "internalType": "address",
          "name": "",
          "type": "address"
        }
      ],
      "stateMutability": "view",
      "type": "function"
    },
    {
      "inputs": [],
      "name": "OP_LEGACY_ERC20_ETH",
      "outputs": [
        {
          "internalType": "address",
          "name": "",
          "type": "address"
        }
      ],
      "stateMutability": "view",
      "type": "function"
    },
    {
      "inputs": [],
      "name": "OptimismDAI",
      "outputs": [
        {
          "internalType": "address",
          "name": "",
          "type": "address"
        }
      ],
      "stateMutability": "view",
      "type": "function"
    },
    {
      "inputs": [],
      "name": "OptimismL1StandardBridge",
      "outputs": [
        {
          "internalType": "address",
          "name": "",
          "type": "address"
        }
      ],
      "stateMutability": "view",
      "type": "function"
    },
    {
      "inputs": [],
      "name": "OptimismL2StandardBridge",
      "outputs": [
        {
          "internalType": "address",
          "name": "",
          "type": "address"
        }
      ],
      "stateMutability": "view",
      "type": "function"
    },
    {
      "inputs": [],
      "name": "OptimismUSDC",
      "outputs": [
        {
          "internalType": "address",
          "name": "",
          "type": "address"
        }
      ],
      "stateMutability": "view",
      "type": "function"
    },
    {
      "inputs": [],
      "name": "OptimismUSDT",
      "outputs": [
        {
          "internalType": "address",
          "name": "",
          "type": "address"
        }
      ],
      "stateMutability": "view",
      "type": "function"
    },
    {
      "inputs": [],
      "name": "OptimismWETH",
      "outputs": [
        {
          "internalType": "address",
          "name": "",
          "type": "address"
        }
      ],
      "stateMutability": "view",
      "type": "function"
    },
    {
      "inputs": [],
      "name": "PolygonZkEVMDAI",
      "outputs": [
        {
          "internalType": "address",
          "name": "",
          "type": "address"
        }
      ],
      "stateMutability": "view",
      "type": "function"
    },
    {
      "inputs": [],
      "name": "PolygonZkEVML1Bridge",
      "outputs": [
        {
          "internalType": "address",
          "name": "",
          "type": "address"
        }
      ],
      "stateMutability": "view",
      "type": "function"
    },
    {
      "inputs": [],
      "name": "PolygonZkEVML2Bridge",
      "outputs": [
        {
          "internalType": "address",
          "name": "",
          "type": "address"
        }
      ],
      "stateMutability": "view",
      "type": "function"
    },
    {
      "inputs": [],
      "name": "PolygonZkEVMUSDC",
      "outputs": [
        {
          "internalType": "address",
          "name": "",
          "type": "address"
        }
      ],
      "stateMutability": "view",
      "type": "function"
    },
    {
      "inputs": [],
      "name": "PolygonZkEVMUSDT",
      "outputs": [
        {
          "internalType": "address",
          "name": "",
          "type": "address"
        }
      ],
      "stateMutability": "view",
      "type": "function"
    },
    {
      "inputs": [],
      "name": "PolygonZkEVMWETH",
      "outputs": [
        {
          "internalType": "address",
          "name": "",
          "type": "address"
        }
      ],
      "stateMutability": "view",
      "type": "function"
    },
    {
      "inputs": [],
      "name": "ScrollDAI",
      "outputs": [
        {
          "internalType": "address",
          "name": "",
          "type": "address"
        }
      ],
      "stateMutability": "view",
      "type": "function"
    },
    {
      "inputs": [],
      "name": "ScrollL1MessageQueue",
      "outputs": [
        {
          "internalType": "address",
          "name": "",
          "type": "address"
        }
      ],
      "stateMutability": "view",
      "type": "function"
    },
    {
      "inputs": [],
      "name": "ScrollL1StandardERC20Bridge",
      "outputs": [
        {
          "internalType": "address",
          "name": "",
          "type": "address"
        }
      ],
      "stateMutability": "view",
      "type": "function"
    },
    {
      "inputs": [],
      "name": "ScrollL1StandardETHBridge",
      "outputs": [
        {
          "internalType": "address",
          "name": "",
          "type": "address"
        }
      ],
      "stateMutability": "view",
      "type": "function"
    },
    {
      "inputs": [],
      "name": "ScrollL1StandardWETHBridge",
      "outputs": [
        {
          "internalType": "address",
          "name": "",
          "type": "address"
        }
      ],
      "stateMutability": "view",
      "type": "function"
    },
    {
      "inputs": [],
      "name": "ScrollL2StandardERC20Bridge",
      "outputs": [
        {
          "internalType": "address",
          "name": "",
          "type": "address"
        }
      ],
      "stateMutability": "view",
      "type": "function"
    },
    {
      "inputs": [],
      "name": "ScrollL2StandardWETHBridge",
      "outputs": [
        {
          "internalType": "address",
          "name": "",
          "type": "address"
        }
      ],
      "stateMutability": "view",
      "type": "function"
    },
    {
      "inputs": [],
      "name": "ScrollUSDC",
      "outputs": [
        {
          "internalType": "address",
          "name": "",
          "type": "address"
        }
      ],
      "stateMutability": "view",
      "type": "function"
    },
    {
      "inputs": [],
      "name": "ScrollUSDT",
      "outputs": [
        {
          "internalType": "address",
          "name": "",
          "type": "address"
        }
      ],
      "stateMutability": "view",
      "type": "function"
    },
    {
      "inputs": [],
      "name": "ScrollWETH",
      "outputs": [
        {
          "internalType": "address",
          "name": "",
          "type": "address"
        }
      ],
      "stateMutability": "view",
      "type": "function"
    },
    {
      "inputs": [],
      "name": "USDC",
      "outputs": [
        {
          "internalType": "address",
          "name": "",
          "type": "address"
        }
      ],
      "stateMutability": "view",
      "type": "function"
    },
    {
      "inputs": [],
      "name": "USDT",
      "outputs": [
        {
          "internalType": "address",
          "name": "",
          "type": "address"
        }
      ],
      "stateMutability": "view",
      "type": "function"
    },
    {
      "inputs": [],
      "name": "WETH",
      "outputs": [
        {
          "internalType": "address",
          "name": "",
          "type": "address"
        }
      ],
      "stateMutability": "view",
      "type": "function"
    },
    {
      "inputs": [],
      "name": "ZkSyncL1Bridge",
      "outputs": [
        {
          "internalType": "address",
          "name": "",
          "type": "address"
        }
      ],
      "stateMutability": "view",
      "type": "function"
    },
    {
      "inputs": [],
      "name": "ZkSyncL2Bridge",
      "outputs": [
        {
          "internalType": "address",
          "name": "",
          "type": "address"
        }
      ],
      "stateMutability": "view",
      "type": "function"
    },
    {
      "inputs": [],
      "name": "ZkSyncWETH",
      "outputs": [
        {
          "internalType": "address",
          "name": "",
          "type": "address"
        }
      ],
      "stateMutability": "view",
      "type": "function"
    }
  ],
  "bytecode": {
    "object": "0x61085e61003a600b82828239805160001a60731461002d57634e487b7160e01b600052600060045260246000fd5b30600052607381538281f3fe73000000000000000000000000000000000000000030146080604052600436106103165760003560e01c80638c125c96116101a7578063c54e44eb116100f3578063e04a2bdb116100ac578063e0bab4c411610086578063e0bab4c4146107bc578063e2a0f4c0146107d7578063e70fcd06146107f2578063fe9c602c1461080d57600080fd5b8063e04a2bdb1461076b578063e07b1d4914610786578063e0ac6b1b146107a157600080fd5b8063c54e44eb146106dc578063c911d861146106f7578063cc2333a614610712578063ccb25ee31461072d578063ce5e832314610735578063da228a9b1461075057600080fd5b8063a3f17f1011610160578063ad5c46481161013a578063ad5c46481461068b578063b540cbf31461040f578063beb5e094146106a6578063bf11c76f146106c157600080fd5b8063a3f17f1014610647578063a67a2c7614610662578063a7687a6e1461067d57600080fd5b80638c125c96146105a55780638d9cb9a8146105c05780638dd683b8146105db5780639118368f146105f65780639df202fe14610611578063a1fc15d21461062c57600080fd5b80634d63b5c6116102665780635ef7d9ef1161021f5780636f3606e1116101f95780636f3606e114610561578063719137cf146104895780637c72e53c1461056f57806389a302711461058a57600080fd5b80635ef7d9ef1461051057806368461b581461052b5780636a98ccdd1461054657600080fd5b80634d63b5c6146104895780634df6cdfd146104a4578063548870121461040f5780635723e7a6146104bf57806357a34542146104da5780635c7c3613146104f557600080fd5b806328cb3bc0116102d35780634029d917116102ad5780634029d9171461041d5780634357966e1461043857806344da6c931461045357806348f10d6a1461046e57600080fd5b806328cb3bc0146103d95780632c6ebc2e146103f457806338042ac71461040f57600080fd5b80630bd020711461031b5780630f6d15ff1461035257806312fd237f1461036d57806318671c69146103885780631c1900e3146103a3578063217b2487146103be575b600080fd5b6103367306efdbff2a14a7c8e15944d1f4a48f9f95f663a481565b6040516001600160a01b03909116815260200160405180910390f35b610336737f2b8c31f88b6006c382775eea88297ec1e3e90581565b6103367357891966931eb4bb6fb81430e6ce0a03aabde06381565b61033673a3a7b6f88361f48403514059f1f16c8e78d60eec81565b6103367311f943b2c77b743ab90f4a0ae7d5a4e7fca3e10281565b6103367372ce9c846789fdb6fc1f34ac4ad25dd9ef7031ef81565b6103367321903d3f8176b1a0c17e953cd896610be9ffdfa881565b61033673deaddeaddeaddeaddeaddeaddeaddeaddead111181565b6103366010602160991b0181565b61033673e4e2121b479017955be0b175305b35f312330bae81565b61033673d8a791fe2be73eb6e6cf1eb0cb3f36adc9b3f8f981565b610336730b2c639c533813f4aa9d7837caf62653d097ff8581565b61033673f55bec9cafdbe8730f096aa55dad6d22d44099df81565b610336732a3dd3eb832af982ec71669e178424b10dca2ede81565b61033673a8ce8aee21bc2a48a5ef670afcc9274c7bbbc03581565b610336730d7e906bd9cafa154b048cfa766cc1e54e39af9b81565b610336735aea5775959fbc2557cc8789bc1bf90a239d9a9181565b610336735288c571fd7ad117bea99bf60fe0846c4e84f93381565b61033673ca77eb3fefe3725dc33bccb54edefc3d9f764f9781565b6103367382af49447d8a07e3bd95bd0d56f35241523fbab181565b61033673da10009cbd5d07dd0cecc66161fc93d7c9000da181565b6103366006602160991b0181565b61033673deaddeaddeaddeaddeaddeaddeaddeaddead000081565b61033673a0b86991c6218b36c1d19d4a2e9eb0ce3606eb4881565b61033673c5015b9d9161dca7e18e32f6f25c4ad850731fd481565b610336731e4a5963abfd975d8c9021ce480b42188849d41d81565b61033673c840838bc438d73c16c2f8b22d2ce3669963cd4881565b61033673cf9bab7e53dde48a6dc4f286cb14e0529879925781565b610336737003e7b7186f0e6601203b99f7b8decbfa391cf981565b6103367394b008aa00579c1307b0ef2c499ad98a8ce58e5881565b610336737ac440cae8eb6328de4fa621163a792c1ea9d4fe81565b6103367395fc37a27a2f68e3a647cdc081f0a89bb47c301281565b6103366004605360981b0181565b61033673c02aaa39b223fe8d0a0e5c4f27ead9083c756cc281565b610336737626841cb6113412f9c88d3adc720c9fac88d9ed81565b61033673e5d7c2a44ffddf6b295a15c148167daaaf5cf34f81565b61033673dac17f958d2ee523a2206206994597c13d831ec781565b610336736c411ad3e74de3e7bd422b94a27770f5b86c623b81565b6103367399c9fc46f92e8a1c0dec1b1747d010903e884be181565b610336600181565b610336734f9a0e7fd2bf6067db6994cf12e4495df938e6e981565b61033673eeeeeeeeeeeeeeeeeeeeeeeeeeeeeeeeeeeeeeee81565b61033673d92023e9d9911199a6711321d1277285e6d4e2db81565b61033673e2b4795039517653c5ae8c2a9bfdd783b48f447a81565b61033673722e8bdd2ce80a4422e880164f2079488e11536581565b610336736b175474e89094c44da98b954eedeac495271d0f81565b6103367309e9222e96e7b4ae2a407b98d48e330053351eee81565b610336733b95bc951ee0f553ba487327278cac44f29715e581565b61033673b2535b988dce19f9d71dfb22db6da744acac21bf8156fea2646970667358221220df021e28a59cfb1817291dba21f03d8ea5bbc7155075329e82f65dd5a8bf9b1364736f6c63430008140033",
    "linkReferences": {}
  },
  "methodIdentifiers": {
    "ArbitrumNovaL1ERC20Gateway()": "fe9c602c",
    "ArbitrumNovaL1GatewayRouter()": "8dd683b8",
    "ArbitrumNovaL1WETHGateway()": "4029d917",
    "ArbitrumNovaL2ERC20Gateway()": "9118368f",
    "ArbitrumNovaL2GatewayRouter()": "28cb3bc0",
    "ArbitrumNovaL2WETHGateway()": "beb5e094",
    "ArbitrumNovaWETH()": "e0ac6b1b",
    "ArbitrumOneL1ERC20Gateway()": "18671c69",
    "ArbitrumOneL1GatewayRouter()": "217b2487",
    "ArbitrumOneL1WETHGateway()": "e04a2bdb",
    "ArbitrumOneL2ERC20Gateway()": "e2a0f4c0",
    "ArbitrumOneL2GatewayRouter()": "5c7c3613",
    "ArbitrumOneL2WETHGateway()": "c911d861",
    "ArbitrumOneWETH()": "68461b58",
    "DAI()": "e0bab4c4",
    "ETHAddress()": "da228a9b",
    "LineaCustomerBridge()": "ccb25ee3",
    "LineaWETH()": "bf11c76f",
    "MantaL1Bridge()": "e70fcd06",
    "MantaL2Bridge()": "38042ac7",
    "MantleETH()": "2c6ebc2e",
    "MantleL1Bridge()": "a67a2c76",
    "MantleL2Bridge()": "b540cbf3",
    "OP_LEGACY_ERC20_ETH()": "7c72e53c",
    "OptimismDAI()": "6a98ccdd",
    "OptimismL1StandardBridge()": "cc2333a6",
    "OptimismL2StandardBridge()": "54887012",
    "OptimismUSDC()": "44da6c93",
    "OptimismUSDT()": "a1fc15d2",
    "OptimismWETH()": "6f3606e1",
    "PolygonZkEVMDAI()": "8c125c96",
    "PolygonZkEVML1Bridge()": "4d63b5c6",
    "PolygonZkEVML2Bridge()": "719137cf",
    "PolygonZkEVMUSDC()": "4df6cdfd",
    "PolygonZkEVMUSDT()": "8d9cb9a8",
    "PolygonZkEVMWETH()": "ce5e8323",
    "ScrollDAI()": "5ef7d9ef",
    "ScrollL1MessageQueue()": "5723e7a6",
    "ScrollL1StandardERC20Bridge()": "4357966e",
    "ScrollL1StandardETHBridge()": "0f6d15ff",
    "ScrollL1StandardWETHBridge()": "a3f17f10",
    "ScrollL2StandardERC20Bridge()": "e07b1d49",
    "ScrollL2StandardWETHBridge()": "9df202fe",
    "ScrollUSDC()": "0bd02071",
    "ScrollUSDT()": "48f10d6a",
    "ScrollWETH()": "a7687a6e",
    "USDC()": "89a30271",
    "USDT()": "c54e44eb",
    "WETH()": "ad5c4648",
    "ZkSyncL1Bridge()": "12fd237f",
    "ZkSyncL2Bridge()": "1c1900e3",
    "ZkSyncWETH()": "57a34542"
  },
  "id": 62
}