{
  "abi": [
    {
      "inputs": [],
      "name": "foo",
      "outputs": [
        {
          "internalType": "uint256",
          "name": "",
          "type": "uint256"
        }
      ],
      "stateMutability": "pure",
      "type": "function"
    }
  ],
  "bytecode": {
    "object": "0x6080604052348015600f57600080fd5b50607780601d6000396000f3fe6080604052348015600f57600080fd5b506004361060285760003560e01c8063c298557814602d575b600080fd5b600060405190815260200160405180910390f3fea2646970667358221220ae59d2846d59a87af8c631274c76e05d7726ce646b32b5b6a89a8228fee3334064736f6c63430008140033",
    "linkReferences": {}
  },
  "methodIdentifiers": {
    "foo()": "c2985578"
  },
  "id": 55
}