{
  "abi": [
    {
      "inputs": [],
      "stateMutability": "nonpayable",
      "type": "constructor"
    },
    {
      "inputs": [],
      "name": "AccessControlBadConfirmation",
      "type": "error"
    },
    {
      "inputs": [
        {
          "internalType": "address",
          "name": "account",
          "type": "address"
        },
        {
          "internalType": "bytes32",
          "name": "neededRole",
          "type": "bytes32"
        }
      ],
      "name": "AccessControlUnauthorizedAccount",
      "type": "error"
    },
    {
      "inputs": [
        {
          "internalType": "address",
          "name": "target",
          "type": "address"
        }
      ],
      "name": "AddressEmptyCode",
      "type": "error"
    },
    {
      "inputs": [
        {
          "internalType": "address",
          "name": "account",
          "type": "address"
        }
      ],
      "name": "AddressInsufficientBalance",
      "type": "error"
    },
    {
      "inputs": [],
      "name": "AlreadyClaimed",
      "type": "error"
    },
    {
      "inputs": [
        {
          "internalType": "uint256",
          "name": "id",
          "type": "uint256"
        }
      ],
      "name": "ChainIdIsNotSupported",
      "type": "error"
    },
    {
      "inputs": [
        {
          "internalType": "uint256",
          "name": "chainId",
          "type": "uint256"
        }
      ],
      "name": "ChainIdNotSupported",
      "type": "error"
    },
    {
      "inputs": [],
      "name": "EnforcedPause",
      "type": "error"
    },
    {
      "inputs": [],
      "name": "ErrorBlockChain",
      "type": "error"
    },
    {
      "inputs": [],
      "name": "ExpectedPause",
      "type": "error"
    },
    {
      "inputs": [],
      "name": "FailedInnerCall",
      "type": "error"
    },
    {
      "inputs": [],
      "name": "InvalidInitialization",
      "type": "error"
    },
    {
      "inputs": [
        {
          "internalType": "uint256",
          "name": "minAmount",
          "type": "uint256"
        },
        {
          "internalType": "uint256",
          "name": "providedAmount",
          "type": "uint256"
        }
      ],
      "name": "LessThanMinStakeAmount",
      "type": "error"
    },
    {
      "inputs": [
        {
          "internalType": "uint256",
          "name": "MinTransferAmount",
          "type": "uint256"
        },
        {
          "internalType": "uint256",
          "name": "value",
          "type": "uint256"
        }
      ],
      "name": "LessThanMinTransferAmount",
      "type": "error"
    },
    {
      "inputs": [
        {
          "internalType": "uint256",
          "name": "amount",
          "type": "uint256"
        }
      ],
      "name": "LessThanZero",
      "type": "error"
    },
    {
      "inputs": [
        {
          "internalType": "uint256",
          "name": "PoolIndex",
          "type": "uint256"
        }
      ],
      "name": "NewPoolIsNotCreate",
      "type": "error"
    },
    {
      "inputs": [],
      "name": "NoReward",
      "type": "error"
    },
    {
      "inputs": [],
      "name": "NotEnoughETH",
      "type": "error"
    },
    {
      "inputs": [
        {
          "internalType": "address",
          "name": "ERC20Address",
          "type": "address"
        }
      ],
      "name": "NotEnoughToken",
      "type": "error"
    },
    {
      "inputs": [],
      "name": "NotInitializing",
      "type": "error"
    },
    {
      "inputs": [
        {
          "internalType": "uint256",
          "name": "PoolId",
          "type": "uint256"
        },
        {
          "internalType": "uint256",
          "name": "PoolLength",
          "type": "uint256"
        }
      ],
      "name": "OutOfRange",
      "type": "error"
    },
    {
      "inputs": [
        {
          "internalType": "uint256",
          "name": "poolIndex",
          "type": "uint256"
        }
      ],
      "name": "PoolIsCompleted",
      "type": "error"
    },
    {
      "inputs": [],
      "name": "ReentrancyGuardReentrantCall",
      "type": "error"
    },
    {
      "inputs": [
        {
          "internalType": "address",
          "name": "token",
          "type": "address"
        }
      ],
      "name": "SafeERC20FailedOperation",
      "type": "error"
    },
    {
      "inputs": [
        {
          "internalType": "address",
          "name": "ERC20Address",
          "type": "address"
        }
      ],
      "name": "StableCoinNotSupported",
      "type": "error"
    },
    {
      "inputs": [
        {
          "internalType": "address",
          "name": "token",
          "type": "address"
        },
        {
          "internalType": "bool",
          "name": "isSupported",
          "type": "bool"
        }
      ],
      "name": "TokenIsAlreadySupported",
      "type": "error"
    },
    {
      "inputs": [
        {
          "internalType": "address",
          "name": "token",
          "type": "address"
        }
      ],
      "name": "TokenIsNotSupported",
      "type": "error"
    },
    {
      "inputs": [],
      "name": "sourceChainIdError",
      "type": "error"
    },
    {
      "anonymous": false,
      "inputs": [
        {
          "indexed": true,
          "internalType": "address",
          "name": "user",
          "type": "address"
        },
        {
          "indexed": false,
          "internalType": "uint256",
          "name": "startPoolId",
          "type": "uint256"
        },
        {
          "indexed": false,
          "internalType": "uint256",
          "name": "endPoolId",
          "type": "uint256"
        },
        {
          "indexed": true,
          "internalType": "address",
          "name": "token",
          "type": "address"
        },
        {
          "indexed": false,
          "internalType": "uint256",
          "name": "amount",
          "type": "uint256"
        },
        {
          "indexed": false,
          "internalType": "uint256",
          "name": "fee",
          "type": "uint256"
        }
      ],
      "name": "ClaimEvent",
      "type": "event"
    },
    {
      "anonymous": false,
      "inputs": [
        {
          "indexed": false,
          "internalType": "address",
          "name": "_user",
          "type": "address"
        },
        {
          "indexed": false,
          "internalType": "uint256",
          "name": "startPoolId",
          "type": "uint256"
        },
        {
          "indexed": false,
          "internalType": "uint256",
          "name": "EndPoolId",
          "type": "uint256"
        },
        {
          "indexed": false,
          "internalType": "address",
          "name": "_token",
          "type": "address"
        },
        {
          "indexed": false,
          "internalType": "uint256",
          "name": "Reward",
          "type": "uint256"
        }
      ],
      "name": "ClaimReward",
      "type": "event"
    },
    {
      "anonymous": false,
      "inputs": [
        {
          "indexed": true,
          "internalType": "address",
          "name": "token",
          "type": "address"
        },
        {
          "indexed": false,
          "internalType": "uint256",
          "name": "poolIndex",
          "type": "uint256"
        }
      ],
      "name": "CompletePoolEvent",
      "type": "event"
    },
    {
      "anonymous": false,
      "inputs": [
        {
          "indexed": false,
          "internalType": "uint256",
          "name": "sourceChainId",
          "type": "uint256"
        },
        {
          "indexed": false,
          "internalType": "uint256",
          "name": "destChainId",
          "type": "uint256"
        },
        {
          "indexed": true,
          "internalType": "address",
          "name": "ERC20Address",
          "type": "address"
        },
        {
          "indexed": true,
          "internalType": "address",
          "name": "from",
          "type": "address"
        },
        {
          "indexed": true,
          "internalType": "address",
          "name": "to",
          "type": "address"
        },
        {
          "indexed": false,
          "internalType": "uint256",
          "name": "value",
          "type": "uint256"
        }
      ],
      "name": "FinalizeERC20",
      "type": "event"
    },
    {
      "anonymous": false,
      "inputs": [
        {
          "indexed": false,
          "internalType": "uint256",
          "name": "sourceChainId",
          "type": "uint256"
        },
        {
          "indexed": false,
          "internalType": "uint256",
          "name": "destChainId",
          "type": "uint256"
        },
        {
          "indexed": true,
          "internalType": "address",
          "name": "from",
          "type": "address"
        },
        {
          "indexed": true,
          "internalType": "address",
          "name": "to",
          "type": "address"
        },
        {
          "indexed": false,
          "internalType": "uint256",
          "name": "value",
          "type": "uint256"
        }
      ],
      "name": "FinalizeETH",
      "type": "event"
    },
    {
      "anonymous": false,
      "inputs": [
        {
          "indexed": false,
          "internalType": "uint256",
          "name": "sourceChainId",
          "type": "uint256"
        },
        {
          "indexed": false,
          "internalType": "uint256",
          "name": "destChainId",
          "type": "uint256"
        },
        {
          "indexed": true,
          "internalType": "address",
          "name": "from",
          "type": "address"
        },
        {
          "indexed": true,
          "internalType": "address",
          "name": "to",
          "type": "address"
        },
        {
          "indexed": false,
          "internalType": "uint256",
          "name": "value",
          "type": "uint256"
        }
      ],
      "name": "FinalizeWETH",
      "type": "event"
    },
    {
      "anonymous": false,
      "inputs": [
        {
          "indexed": false,
          "internalType": "uint64",
          "name": "version",
          "type": "uint64"
        }
      ],
      "name": "Initialized",
      "type": "event"
    },
    {
      "anonymous": false,
      "inputs": [
        {
          "indexed": false,
          "internalType": "uint256",
          "name": "sourceChainId",
          "type": "uint256"
        },
        {
          "indexed": false,
          "internalType": "uint256",
          "name": "destChainId",
          "type": "uint256"
        },
        {
          "indexed": true,
          "internalType": "address",
          "name": "ERC20Address",
          "type": "address"
        },
        {
          "indexed": true,
          "internalType": "address",
          "name": "from",
          "type": "address"
        },
        {
          "indexed": true,
          "internalType": "address",
          "name": "to",
          "type": "address"
        },
        {
          "indexed": false,
          "internalType": "uint256",
          "name": "value",
          "type": "uint256"
        }
      ],
      "name": "InitiateERC20",
      "type": "event"
    },
    {
      "anonymous": false,
      "inputs": [
        {
          "indexed": false,
          "internalType": "uint256",
          "name": "sourceChainId",
          "type": "uint256"
        },
        {
          "indexed": false,
          "internalType": "uint256",
          "name": "destChainId",
          "type": "uint256"
        },
        {
          "indexed": true,
          "internalType": "address",
          "name": "from",
          "type": "address"
        },
        {
          "indexed": true,
          "internalType": "address",
          "name": "to",
          "type": "address"
        },
        {
          "indexed": false,
          "internalType": "uint256",
          "name": "value",
          "type": "uint256"
        }
      ],
      "name": "InitiateETH",
      "type": "event"
    },
    {
      "anonymous": false,
      "inputs": [
        {
          "indexed": false,
          "internalType": "uint256",
          "name": "sourceChainId",
          "type": "uint256"
        },
        {
          "indexed": false,
          "internalType": "uint256",
          "name": "destChainId",
          "type": "uint256"
        },
        {
          "indexed": true,
          "internalType": "address",
          "name": "from",
          "type": "address"
        },
        {
          "indexed": true,
          "internalType": "address",
          "name": "to",
          "type": "address"
        },
        {
          "indexed": false,
          "internalType": "uint256",
          "name": "value",
          "type": "uint256"
        }
      ],
      "name": "InitiateWETH",
      "type": "event"
    },
    {
      "anonymous": false,
      "inputs": [
        {
          "indexed": false,
          "internalType": "address",
          "name": "account",
          "type": "address"
        }
      ],
      "name": "Paused",
      "type": "event"
    },
    {
      "anonymous": false,
      "inputs": [
        {
          "indexed": true,
          "internalType": "bytes32",
          "name": "role",
          "type": "bytes32"
        },
        {
          "indexed": true,
          "internalType": "bytes32",
          "name": "previousAdminRole",
          "type": "bytes32"
        },
        {
          "indexed": true,
          "internalType": "bytes32",
          "name": "newAdminRole",
          "type": "bytes32"
        }
      ],
      "name": "RoleAdminChanged",
      "type": "event"
    },
    {
      "anonymous": false,
      "inputs": [
        {
          "indexed": true,
          "internalType": "bytes32",
          "name": "role",
          "type": "bytes32"
        },
        {
          "indexed": true,
          "internalType": "address",
          "name": "account",
          "type": "address"
        },
        {
          "indexed": true,
          "internalType": "address",
          "name": "sender",
          "type": "address"
        }
      ],
      "name": "RoleGranted",
      "type": "event"
    },
    {
      "anonymous": false,
      "inputs": [
        {
          "indexed": true,
          "internalType": "bytes32",
          "name": "role",
          "type": "bytes32"
        },
        {
          "indexed": true,
          "internalType": "address",
          "name": "account",
          "type": "address"
        },
        {
          "indexed": true,
          "internalType": "address",
          "name": "sender",
          "type": "address"
        }
      ],
      "name": "RoleRevoked",
      "type": "event"
    },
    {
      "anonymous": false,
      "inputs": [
        {
          "indexed": true,
          "internalType": "address",
          "name": "token",
          "type": "address"
        },
        {
          "indexed": false,
          "internalType": "uint256",
          "name": "amount",
          "type": "uint256"
        }
      ],
      "name": "SetMinStakeAmountEvent",
      "type": "event"
    },
    {
      "anonymous": false,
      "inputs": [
        {
          "indexed": true,
          "internalType": "address",
          "name": "token",
          "type": "address"
        },
        {
          "indexed": false,
          "internalType": "bool",
          "name": "isSupport",
          "type": "bool"
        }
      ],
      "name": "SetSupportTokenEvent",
      "type": "event"
    },
    {
      "anonymous": false,
      "inputs": [
        {
          "indexed": true,
          "internalType": "address",
          "name": "user",
          "type": "address"
        },
        {
          "indexed": false,
          "internalType": "uint256",
          "name": "amount",
          "type": "uint256"
        }
      ],
      "name": "StakingETHEvent",
      "type": "event"
    },
    {
      "anonymous": false,
      "inputs": [
        {
          "indexed": true,
          "internalType": "address",
          "name": "user",
          "type": "address"
        },
        {
          "indexed": false,
          "internalType": "uint256",
          "name": "amount",
          "type": "uint256"
        }
      ],
      "name": "StakingWETHEvent",
      "type": "event"
    },
    {
      "anonymous": false,
      "inputs": [
        {
          "indexed": true,
          "internalType": "address",
          "name": "user",
          "type": "address"
        },
        {
          "indexed": true,
          "internalType": "address",
          "name": "token",
          "type": "address"
        },
        {
          "indexed": false,
          "internalType": "uint256",
          "name": "amount",
          "type": "uint256"
        }
      ],
      "name": "StarkingERC20Event",
      "type": "event"
    },
    {
      "anonymous": false,
      "inputs": [
        {
          "indexed": false,
          "internalType": "uint256",
          "name": "Blockchain",
          "type": "uint256"
        },
        {
          "indexed": true,
          "internalType": "address",
          "name": "token",
          "type": "address"
        },
        {
          "indexed": true,
          "internalType": "address",
          "name": "to",
          "type": "address"
        },
        {
          "indexed": false,
          "internalType": "uint256",
          "name": "amount",
          "type": "uint256"
        }
      ],
      "name": "TransferAssertTo",
      "type": "event"
    },
    {
      "anonymous": false,
      "inputs": [
        {
          "indexed": false,
          "internalType": "address",
          "name": "account",
          "type": "address"
        }
      ],
      "name": "Unpaused",
      "type": "event"
    },
    {
      "anonymous": false,
      "inputs": [
        {
          "indexed": false,
          "internalType": "address",
          "name": "_user",
          "type": "address"
        },
        {
          "indexed": false,
          "internalType": "uint256",
          "name": "startPoolId",
          "type": "uint256"
        },
        {
          "indexed": false,
          "internalType": "uint256",
          "name": "EndPoolId",
          "type": "uint256"
        },
        {
          "indexed": false,
          "internalType": "address",
          "name": "_token",
          "type": "address"
        },
        {
          "indexed": false,
          "internalType": "uint256",
          "name": "Amount",
          "type": "uint256"
        },
        {
          "indexed": false,
          "internalType": "uint256",
          "name": "Reward",
          "type": "uint256"
        }
      ],
      "name": "Withdraw",
      "type": "event"
    },
    {
      "inputs": [
        {
          "internalType": "uint256",
          "name": "sourceChainId",
          "type": "uint256"
        },
        {
          "internalType": "uint256",
          "name": "destChainId",
          "type": "uint256"
        },
        {
          "internalType": "address",
          "name": "to",
          "type": "address"
        },
        {
          "internalType": "address",
          "name": "ERC20Address",
          "type": "address"
        },
        {
          "internalType": "uint256",
          "name": "amount",
          "type": "uint256"
        },
        {
          "internalType": "uint256",
          "name": "_fee",
          "type": "uint256"
        },
        {
          "internalType": "uint256",
          "name": "_nonce",
          "type": "uint256"
        }
      ],
      "name": "BridgeFinalizeERC20",
      "outputs": [
        {
          "internalType": "bool",
          "name": "",
          "type": "bool"
        }
      ],
      "stateMutability": "nonpayable",
      "type": "function"
    },
    {
      "inputs": [
        {
          "internalType": "uint256",
          "name": "sourceChainId",
          "type": "uint256"
        },
        {
          "internalType": "uint256",
          "name": "destChainId",
          "type": "uint256"
        },
        {
          "internalType": "address",
          "name": "to",
          "type": "address"
        },
        {
          "internalType": "uint256",
          "name": "amount",
          "type": "uint256"
        },
        {
          "internalType": "uint256",
          "name": "_fee",
          "type": "uint256"
        },
        {
          "internalType": "uint256",
          "name": "_nonce",
          "type": "uint256"
        }
      ],
      "name": "BridgeFinalizeETH",
      "outputs": [
        {
          "internalType": "bool",
          "name": "",
          "type": "bool"
        }
      ],
      "stateMutability": "payable",
      "type": "function"
    },
    {
      "inputs": [
        {
          "internalType": "uint256",
          "name": "sourceChainId",
          "type": "uint256"
        },
        {
          "internalType": "uint256",
          "name": "destChainId",
          "type": "uint256"
        },
        {
          "internalType": "address",
          "name": "to",
          "type": "address"
        },
        {
          "internalType": "uint256",
          "name": "amount",
          "type": "uint256"
        },
        {
          "internalType": "uint256",
          "name": "_fee",
          "type": "uint256"
        },
        {
          "internalType": "uint256",
          "name": "_nonce",
          "type": "uint256"
        }
      ],
      "name": "BridgeFinalizeWETH",
      "outputs": [
        {
          "internalType": "bool",
          "name": "",
          "type": "bool"
        }
      ],
      "stateMutability": "nonpayable",
      "type": "function"
    },
    {
      "inputs": [
        {
          "internalType": "uint256",
          "name": "sourceChainId",
          "type": "uint256"
        },
        {
          "internalType": "uint256",
          "name": "destChainId",
          "type": "uint256"
        },
        {
          "internalType": "address",
          "name": "to",
          "type": "address"
        },
        {
          "internalType": "address",
          "name": "ERC20Address",
          "type": "address"
        },
        {
          "internalType": "uint256",
          "name": "value",
          "type": "uint256"
        }
      ],
      "name": "BridgeInitiateERC20",
      "outputs": [
        {
          "internalType": "bool",
          "name": "",
          "type": "bool"
        }
      ],
      "stateMutability": "nonpayable",
      "type": "function"
    },
    {
      "inputs": [
        {
          "internalType": "uint256",
          "name": "sourceChainId",
          "type": "uint256"
        },
        {
          "internalType": "uint256",
          "name": "destChainId",
          "type": "uint256"
        },
        {
          "internalType": "address",
          "name": "to",
          "type": "address"
        }
      ],
      "name": "BridgeInitiateETH",
      "outputs": [
        {
          "internalType": "bool",
          "name": "",
          "type": "bool"
        }
      ],
      "stateMutability": "payable",
      "type": "function"
    },
    {
      "inputs": [
        {
          "internalType": "uint256",
          "name": "sourceChainId",
          "type": "uint256"
        },
        {
          "internalType": "uint256",
          "name": "destChainId",
          "type": "uint256"
        },
        {
          "internalType": "address",
          "name": "to",
          "type": "address"
        },
        {
          "internalType": "uint256",
          "name": "value",
          "type": "uint256"
        }
      ],
      "name": "BridgeInitiateWETH",
      "outputs": [
        {
          "internalType": "bool",
          "name": "",
          "type": "bool"
        }
      ],
      "stateMutability": "nonpayable",
      "type": "function"
    },
    {
      "inputs": [],
      "name": "ClaimAllReward",
      "outputs": [],
      "stateMutability": "nonpayable",
      "type": "function"
    },
    {
      "inputs": [
        {
          "internalType": "uint256",
          "name": "i",
          "type": "uint256"
        }
      ],
      "name": "ClaimbyID",
      "outputs": [],
      "stateMutability": "nonpayable",
      "type": "function"
    },
    {
      "inputs": [
        {
          "components": [
            {
              "internalType": "uint32",
              "name": "startTimestamp",
              "type": "uint32"
            },
            {
              "internalType": "uint32",
              "name": "endTimestamp",
              "type": "uint32"
            },
            {
              "internalType": "address",
              "name": "token",
              "type": "address"
            },
            {
              "internalType": "uint256",
              "name": "TotalAmount",
              "type": "uint256"
            },
            {
              "internalType": "uint256",
              "name": "TotalFee",
              "type": "uint256"
            },
            {
              "internalType": "uint256",
              "name": "TotalFeeClaimed",
              "type": "uint256"
            },
            {
              "internalType": "bool",
              "name": "IsCompleted",
              "type": "bool"
            }
          ],
          "internalType": "struct IL1PoolManager.Pool[]",
          "name": "CompletePools",
          "type": "tuple[]"
        }
      ],
      "name": "CompletePoolAndNew",
      "outputs": [],
      "stateMutability": "payable",
      "type": "function"
    },
    {
      "inputs": [],
      "name": "DEFAULT_ADMIN_ROLE",
      "outputs": [
        {
          "internalType": "bytes32",
          "name": "",
          "type": "bytes32"
        }
      ],
      "stateMutability": "view",
      "type": "function"
    },
    {
      "inputs": [
        {
          "internalType": "address",
          "name": "_token",
          "type": "address"
        },
        {
          "internalType": "uint256",
          "name": "_amount",
          "type": "uint256"
        }
      ],
      "name": "DepositAndStaking",
      "outputs": [],
      "stateMutability": "payable",
      "type": "function"
    },
    {
      "inputs": [
        {
          "internalType": "address",
          "name": "_token",
          "type": "address"
        },
        {
          "internalType": "uint256",
          "name": "_amount",
          "type": "uint256"
        }
      ],
      "name": "DepositAndStakingERC20",
      "outputs": [],
      "stateMutability": "nonpayable",
      "type": "function"
    },
    {
      "inputs": [],
      "name": "DepositAndStakingETH",
      "outputs": [],
      "stateMutability": "payable",
      "type": "function"
    },
    {
      "inputs": [
        {
          "internalType": "uint256",
          "name": "amount",
          "type": "uint256"
        }
      ],
      "name": "DepositAndStakingWETH",
      "outputs": [],
      "stateMutability": "nonpayable",
      "type": "function"
    },
    {
      "inputs": [
        {
          "internalType": "address",
          "name": "",
          "type": "address"
        }
      ],
      "name": "FeePoolValue",
      "outputs": [
        {
          "internalType": "uint256",
          "name": "",
          "type": "uint256"
        }
      ],
      "stateMutability": "view",
      "type": "function"
    },
    {
      "inputs": [
        {
          "internalType": "uint256",
          "name": "chainId",
          "type": "uint256"
        }
      ],
      "name": "IsSupportChainId",
      "outputs": [
        {
          "internalType": "bool",
          "name": "",
          "type": "bool"
        }
      ],
      "stateMutability": "view",
      "type": "function"
    },
    {
      "inputs": [
        {
          "internalType": "address",
          "name": "ERC20Address",
          "type": "address"
        }
      ],
      "name": "IsSupportStableCoin",
      "outputs": [
        {
          "internalType": "bool",
          "name": "",
          "type": "bool"
        }
      ],
      "stateMutability": "view",
      "type": "function"
    },
    {
      "inputs": [
        {
          "internalType": "address",
          "name": "",
          "type": "address"
        }
      ],
      "name": "IsSupportToken",
      "outputs": [
        {
          "internalType": "bool",
          "name": "",
          "type": "bool"
        }
      ],
      "stateMutability": "view",
      "type": "function"
    },
    {
      "inputs": [],
      "name": "L2WETH",
      "outputs": [
        {
          "internalType": "address",
          "name": "",
          "type": "address"
        }
      ],
      "stateMutability": "view",
      "type": "function"
    },
    {
      "inputs": [
        {
          "internalType": "address",
          "name": "",
          "type": "address"
        }
      ],
      "name": "MinStakeAmount",
      "outputs": [
        {
          "internalType": "uint256",
          "name": "",
          "type": "uint256"
        }
      ],
      "stateMutability": "view",
      "type": "function"
    },
    {
      "inputs": [],
      "name": "MinTransferAmount",
      "outputs": [
        {
          "internalType": "uint256",
          "name": "",
          "type": "uint256"
        }
      ],
      "stateMutability": "view",
      "type": "function"
    },
    {
      "inputs": [],
      "name": "PerFee",
      "outputs": [
        {
          "internalType": "uint256",
          "name": "",
          "type": "uint256"
        }
      ],
      "stateMutability": "view",
      "type": "function"
    },
    {
      "inputs": [
        {
          "internalType": "address",
          "name": "",
          "type": "address"
        },
        {
          "internalType": "uint256",
          "name": "",
          "type": "uint256"
        }
      ],
      "name": "Pools",
      "outputs": [
        {
          "internalType": "uint32",
          "name": "startTimestamp",
          "type": "uint32"
        },
        {
          "internalType": "uint32",
          "name": "endTimestamp",
          "type": "uint32"
        },
        {
          "internalType": "address",
          "name": "token",
          "type": "address"
        },
        {
          "internalType": "uint256",
          "name": "TotalAmount",
          "type": "uint256"
        },
        {
          "internalType": "uint256",
          "name": "TotalFee",
          "type": "uint256"
        },
        {
          "internalType": "uint256",
          "name": "TotalFeeClaimed",
          "type": "uint256"
        },
        {
          "internalType": "bool",
          "name": "IsCompleted",
          "type": "bool"
        }
      ],
      "stateMutability": "view",
      "type": "function"
    },
    {
      "inputs": [
        {
          "internalType": "address",
          "name": "_token",
          "type": "address"
        },
        {
          "internalType": "address",
          "name": "to",
          "type": "address"
        },
        {
          "internalType": "uint256",
          "name": "_amount",
          "type": "uint256"
        }
      ],
      "name": "QuickSendAssertToUser",
      "outputs": [],
      "stateMutability": "nonpayable",
      "type": "function"
    },
    {
      "inputs": [],
      "name": "ReLayer",
      "outputs": [
        {
          "internalType": "bytes32",
          "name": "",
          "type": "bytes32"
        }
      ],
      "stateMutability": "view",
      "type": "function"
    },
    {
      "inputs": [
        {
          "internalType": "address",
          "name": "_token",
          "type": "address"
        },
        {
          "internalType": "bool",
          "name": "_isSupport",
          "type": "bool"
        },
        {
          "internalType": "uint32",
          "name": "startTimes",
          "type": "uint32"
        }
      ],
      "name": "SetSupportToken",
      "outputs": [],
      "stateMutability": "nonpayable",
      "type": "function"
    },
    {
      "inputs": [
        {
          "internalType": "uint256",
          "name": "",
          "type": "uint256"
        }
      ],
      "name": "SupportTokens",
      "outputs": [
        {
          "internalType": "address",
          "name": "",
          "type": "address"
        }
      ],
      "stateMutability": "view",
      "type": "function"
    },
    {
      "inputs": [
        {
          "internalType": "uint256",
          "name": "Blockchain",
          "type": "uint256"
        },
        {
          "internalType": "address",
          "name": "_token",
          "type": "address"
        },
        {
          "internalType": "address",
          "name": "_to",
          "type": "address"
        },
        {
          "internalType": "uint256",
          "name": "_amount",
          "type": "uint256"
        }
      ],
      "name": "TransferAssertToBridge",
      "outputs": [],
      "stateMutability": "nonpayable",
      "type": "function"
    },
    {
      "inputs": [
        {
          "internalType": "address",
          "name": "",
          "type": "address"
        },
        {
          "internalType": "uint256",
          "name": "",
          "type": "uint256"
        }
      ],
      "name": "Users",
      "outputs": [
        {
          "internalType": "bool",
          "name": "isWithdrawed",
          "type": "bool"
        },
        {
          "internalType": "address",
          "name": "token",
          "type": "address"
        },
        {
          "internalType": "uint256",
          "name": "StartPoolId",
          "type": "uint256"
        },
        {
          "internalType": "uint256",
          "name": "EndPoolId",
          "type": "uint256"
        },
        {
          "internalType": "uint256",
          "name": "Amount",
          "type": "uint256"
        }
      ],
      "stateMutability": "view",
      "type": "function"
    },
    {
      "inputs": [],
      "name": "WithdrawAll",
      "outputs": [],
      "stateMutability": "nonpayable",
      "type": "function"
    },
    {
      "inputs": [
        {
          "internalType": "uint256",
          "name": "i",
          "type": "uint256"
        }
      ],
      "name": "WithdrawByID",
      "outputs": [],
      "stateMutability": "nonpayable",
      "type": "function"
    },
    {
      "inputs": [
        {
          "internalType": "address",
          "name": "",
          "type": "address"
        }
      ],
      "name": "balances",
      "outputs": [
        {
          "internalType": "uint256",
          "name": "",
          "type": "uint256"
        }
      ],
      "stateMutability": "view",
      "type": "function"
    },
    {
      "inputs": [
        {
          "internalType": "address",
          "name": "_token",
          "type": "address"
        },
        {
          "internalType": "uint256",
          "name": "_index",
          "type": "uint256"
        }
      ],
      "name": "getPool",
      "outputs": [
        {
          "components": [
            {
              "internalType": "uint32",
              "name": "startTimestamp",
              "type": "uint32"
            },
            {
              "internalType": "uint32",
              "name": "endTimestamp",
              "type": "uint32"
            },
            {
              "internalType": "address",
              "name": "token",
              "type": "address"
            },
            {
              "internalType": "uint256",
              "name": "TotalAmount",
              "type": "uint256"
            },
            {
              "internalType": "uint256",
              "name": "TotalFee",
              "type": "uint256"
            },
            {
              "internalType": "uint256",
              "name": "TotalFeeClaimed",
              "type": "uint256"
            },
            {
              "internalType": "bool",
              "name": "IsCompleted",
              "type": "bool"
            }
          ],
          "internalType": "struct IL1PoolManager.Pool",
          "name": "",
          "type": "tuple"
        }
      ],
      "stateMutability": "view",
      "type": "function"
    },
    {
      "inputs": [
        {
          "internalType": "address",
          "name": "_token",
          "type": "address"
        }
      ],
      "name": "getPoolLength",
      "outputs": [
        {
          "internalType": "uint256",
          "name": "",
          "type": "uint256"
        }
      ],
      "stateMutability": "view",
      "type": "function"
    },
    {
      "inputs": [
        {
          "internalType": "bytes32",
          "name": "role",
          "type": "bytes32"
        }
      ],
      "name": "getRoleAdmin",
      "outputs": [
        {
          "internalType": "bytes32",
          "name": "",
          "type": "bytes32"
        }
      ],
      "stateMutability": "view",
      "type": "function"
    },
    {
      "inputs": [
        {
          "internalType": "address",
          "name": "_user",
          "type": "address"
        }
      ],
      "name": "getUser",
      "outputs": [
        {
          "components": [
            {
              "internalType": "bool",
              "name": "isWithdrawed",
              "type": "bool"
            },
            {
              "internalType": "address",
              "name": "token",
              "type": "address"
            },
            {
              "internalType": "uint256",
              "name": "StartPoolId",
              "type": "uint256"
            },
            {
              "internalType": "uint256",
              "name": "EndPoolId",
              "type": "uint256"
            },
            {
              "internalType": "uint256",
              "name": "Amount",
              "type": "uint256"
            }
          ],
          "internalType": "struct IL1PoolManager.User[]",
          "name": "",
          "type": "tuple[]"
        }
      ],
      "stateMutability": "view",
      "type": "function"
    },
    {
      "inputs": [
        {
          "internalType": "address",
          "name": "_user",
          "type": "address"
        },
        {
          "internalType": "uint256",
          "name": "_index",
          "type": "uint256"
        }
      ],
      "name": "getUser",
      "outputs": [
        {
          "components": [
            {
              "internalType": "bool",
              "name": "isWithdrawed",
              "type": "bool"
            },
            {
              "internalType": "address",
              "name": "token",
              "type": "address"
            },
            {
              "internalType": "uint256",
              "name": "StartPoolId",
              "type": "uint256"
            },
            {
              "internalType": "uint256",
              "name": "EndPoolId",
              "type": "uint256"
            },
            {
              "internalType": "uint256",
              "name": "Amount",
              "type": "uint256"
            }
          ],
          "internalType": "struct IL1PoolManager.User",
          "name": "",
          "type": "tuple"
        }
      ],
      "stateMutability": "view",
      "type": "function"
    },
    {
      "inputs": [
        {
          "internalType": "address",
          "name": "_user",
          "type": "address"
        }
      ],
      "name": "getUserLength",
      "outputs": [
        {
          "internalType": "uint256",
          "name": "",
          "type": "uint256"
        }
      ],
      "stateMutability": "view",
      "type": "function"
    },
    {
      "inputs": [
        {
          "internalType": "bytes32",
          "name": "role",
          "type": "bytes32"
        },
        {
          "internalType": "address",
          "name": "account",
          "type": "address"
        }
      ],
      "name": "grantRole",
      "outputs": [],
      "stateMutability": "nonpayable",
      "type": "function"
    },
    {
      "inputs": [
        {
          "internalType": "bytes32",
          "name": "role",
          "type": "bytes32"
        },
        {
          "internalType": "address",
          "name": "account",
          "type": "address"
        }
      ],
      "name": "hasRole",
      "outputs": [
        {
          "internalType": "bool",
          "name": "",
          "type": "bool"
        }
      ],
      "stateMutability": "view",
      "type": "function"
    },
    {
      "inputs": [
        {
          "internalType": "address",
          "name": "_MultisigWallet",
          "type": "address"
        },
        {
          "internalType": "address",
          "name": "_messageManager",
          "type": "address"
        }
      ],
      "name": "initialize",
      "outputs": [],
      "stateMutability": "nonpayable",
      "type": "function"
    },
    {
      "inputs": [],
      "name": "messageManager",
      "outputs": [
        {
          "internalType": "contract IMessageManager",
          "name": "",
          "type": "address"
        }
      ],
      "stateMutability": "view",
      "type": "function"
    },
    {
      "inputs": [],
      "name": "pause",
      "outputs": [],
      "stateMutability": "nonpayable",
      "type": "function"
    },
    {
      "inputs": [],
      "name": "paused",
      "outputs": [
        {
          "internalType": "bool",
          "name": "",
          "type": "bool"
        }
      ],
      "stateMutability": "view",
      "type": "function"
    },
    {
      "inputs": [],
      "name": "periodTime",
      "outputs": [
        {
          "internalType": "uint32",
          "name": "",
          "type": "uint32"
        }
      ],
      "stateMutability": "view",
      "type": "function"
    },
    {
      "inputs": [
        {
          "internalType": "bytes32",
          "name": "role",
          "type": "bytes32"
        },
        {
          "internalType": "address",
          "name": "callerConfirmation",
          "type": "address"
        }
      ],
      "name": "renounceRole",
      "outputs": [],
      "stateMutability": "nonpayable",
      "type": "function"
    },
    {
      "inputs": [
        {
          "internalType": "bytes32",
          "name": "role",
          "type": "bytes32"
        },
        {
          "internalType": "address",
          "name": "account",
          "type": "address"
        }
      ],
      "name": "revokeRole",
      "outputs": [],
      "stateMutability": "nonpayable",
      "type": "function"
    },
    {
      "inputs": [
        {
          "internalType": "address",
          "name": "_token",
          "type": "address"
        },
        {
          "internalType": "uint256",
          "name": "_amount",
          "type": "uint256"
        }
      ],
      "name": "setMinStakeAmount",
      "outputs": [],
      "stateMutability": "nonpayable",
      "type": "function"
    },
    {
      "inputs": [
        {
          "internalType": "uint256",
          "name": "_MinTransferAmount",
          "type": "uint256"
        }
      ],
      "name": "setMinTransferAmount",
      "outputs": [],
      "stateMutability": "nonpayable",
      "type": "function"
    },
    {
      "inputs": [
        {
          "internalType": "uint256",
          "name": "_PerFee",
          "type": "uint256"
        }
      ],
      "name": "setPerFee",
      "outputs": [],
      "stateMutability": "nonpayable",
      "type": "function"
    },
    {
      "inputs": [
        {
          "internalType": "address",
          "name": "ERC20Address",
          "type": "address"
        },
        {
          "internalType": "bool",
          "name": "isValid",
          "type": "bool"
        }
      ],
      "name": "setSupportStableCoin",
      "outputs": [],
      "stateMutability": "nonpayable",
      "type": "function"
    },
    {
      "inputs": [
        {
          "internalType": "uint256",
          "name": "chainId",
          "type": "uint256"
        },
        {
          "internalType": "bool",
          "name": "isValid",
          "type": "bool"
        }
      ],
      "name": "setValidChainId",
      "outputs": [],
      "stateMutability": "nonpayable",
      "type": "function"
    },
    {
      "inputs": [
        {
          "internalType": "bytes4",
          "name": "interfaceId",
          "type": "bytes4"
        }
      ],
      "name": "supportsInterface",
      "outputs": [
        {
          "internalType": "bool",
          "name": "",
          "type": "bool"
        }
      ],
      "stateMutability": "view",
      "type": "function"
    },
    {
      "inputs": [],
      "name": "unpause",
      "outputs": [],
      "stateMutability": "nonpayable",
      "type": "function"
    }
  ],
  "bytecode": {
    "object": "0x60806040523480156200001157600080fd5b506200001c62000022565b620000d6565b7ff0c57e16840df040f15088dc2f81fe391c3923bec73e23a9662efc9c229c6a00805468010000000000000000900460ff1615620000735760405163f92ee8a960e01b815260040160405180910390fd5b80546001600160401b0390811614620000d35780546001600160401b0319166001600160401b0390811782556040519081527fc7f505b2f371ae2175ee4913f4499e1f2633a7b5936321eed1cdaeb6115181d29060200160405180910390a15b50565b615b4f80620000e66000396000f3fe6080604052600436106103355760003560e01c80636f77926b116101ab578063cb314fab116100f7578063ed06da8711610095578063f91fa9a81161006f578063f91fa9a814610aab578063fa86184814610acb578063faeb96a514610ae0578063ff2bf64f14610b0057600080fd5b8063ed06da8714610a1c578063f62a89cf14610a55578063f8fcc2aa14610a7557600080fd5b8063d547741f116100d1578063d547741f14610996578063d73f14e5146109b6578063dac29568146109d6578063dd0c346014610a0657600080fd5b8063cb314fab14610920578063cb4f04ad14610940578063cd01c6651461097657600080fd5b80639ab0b65211610164578063b1887e9b1161013e578063b1887e9b146108ab578063b33280dd146108c0578063b92e6396146108e0578063bc42493d1461090057600080fd5b80639ab0b652146108705780639b44238014610883578063a217fddf1461089657600080fd5b80636f77926b146107b657806372fe6a7e146107e35780638456cb591461081357806391d148541461082857806392d847381461084857806396f984e61461086857600080fd5b806336568abe1161028557806354dc027e116102235780635b5b9ea2116101fd5780635b5b9ea2146106ca5780635c975abb14610751578063626417b514610776578063650c22761461079657600080fd5b806354dc027e146106685780635765a4eb146106955780635a648bc5146106b557600080fd5b80633f4ba83a1161025f5780633f4ba83a146105a65780634663cdc8146105bb578063485cc955146106285780634dfaef841461064857600080fd5b806336568abe1461055357806338731c47146105735780633b0230f01461058657600080fd5b8063248a9ca3116102f25780632f2ff15d116102cc5780632f2ff15d146104e0578063325e5d43146105005780633338562c1461052057806334d34ef51461053357600080fd5b8063248a9ca31461047c57806327e235e31461049c5780632c37388b146104c957600080fd5b806301ffc9a71461033a57806309dc480c1461036f57806310875a131461039357806313e8544e146103cb5780631ca2f1731461041d5780631d31fac01461044a575b600080fd5b34801561034657600080fd5b5061035a6103553660046151fa565b610b2d565b60405190151581526020015b60405180910390f35b34801561037b57600080fd5b5061038560015481565b604051908152602001610366565b34801561039f57600080fd5b506000546103b3906001600160a01b031681565b6040516001600160a01b039091168152602001610366565b3480156103d757600080fd5b506103eb6103e636600461523b565b610b64565b6040805195151586526001600160a01b039094166020860152928401919091526060830152608082015260a001610366565b34801561042957600080fd5b50610385610438366004615265565b600c6020526000908152604090205481565b34801561045657600080fd5b506007546104679063ffffffff1681565b60405163ffffffff9091168152602001610366565b34801561048857600080fd5b50610385610497366004615280565b610bbe565b3480156104a857600080fd5b506103856104b7366004615265565b60096020526000908152604090205481565b3480156104d557600080fd5b506104de610be0565b005b3480156104ec57600080fd5b506104de6104fb366004615299565b610c5a565b34801561050c57600080fd5b506104de61051b3660046152c5565b610c7c565b6104de61052e366004615393565b610cdc565b34801561053f57600080fd5b506104de61054e366004615280565b611057565b34801561055f57600080fd5b506104de61056e366004615299565b6110e1565b61035a6105813660046154ad565b611114565b34801561059257600080fd5b5061035a6105a13660046154fe565b6112f8565b3480156105b257600080fd5b506104de6115fc565b3480156105c757600080fd5b506105db6105d636600461523b565b61160f565b6040805163ffffffff98891681529790961660208801526001600160a01b03909416948601949094526060850191909152608084015260a0830191909152151560c082015260e001610366565b34801561063457600080fd5b506104de61064336600461554c565b611684565b34801561065457600080fd5b506104de61066336600461523b565b6117c0565b34801561067457600080fd5b50610385610683366004615265565b60066020526000908152604090205481565b3480156106a157600080fd5b5061035a6106b03660046154ad565b611a5e565b3480156106c157600080fd5b506104de611c9f565b3480156106d657600080fd5b506106ea6106e536600461523b565b611d01565b6040516103669190815163ffffffff9081168252602080840151909116908201526040808301516001600160a01b031690820152606080830151908201526080808301519082015260a0808301519082015260c09182015115159181019190915260e00190565b34801561075d57600080fd5b50600080516020615ada8339815191525460ff1661035a565b34801561078257600080fd5b506103b3610791366004615280565b611de5565b3480156107a257600080fd5b506104de6107b1366004615280565b611e0f565b3480156107c257600080fd5b506107d66107d1366004615265565b611e20565b60405161036691906155ae565b3480156107ef57600080fd5b5061035a6107fe366004615280565b60009081526003602052604090205460ff1690565b34801561081f57600080fd5b506104de611ed0565b34801561083457600080fd5b5061035a610843366004615299565b611ee3565b34801561085457600080fd5b5061035a6108633660046155fc565b611f1b565b6104de612126565b6104de61087e36600461523b565b612448565b61035a61089136600461565d565b6124b7565b3480156108a257600080fd5b50610385600081565b3480156108b757600080fd5b506103b36126cb565b3480156108cc57600080fd5b506104de6108db366004615692565b61273a565b3480156108ec57600080fd5b506104de6108fb366004615280565b612771565b34801561090c57600080fd5b506104de61091b366004615280565b6127c5565b34801561092c57600080fd5b506104de61093b36600461523b565b612b51565b34801561094c57600080fd5b5061038561095b366004615265565b6001600160a01b03166000908152600b602052604090205490565b34801561098257600080fd5b5061035a6109913660046156c9565b612bb6565b3480156109a257600080fd5b506104de6109b1366004615299565b612f47565b3480156109c257600080fd5b506104de6109d1366004615706565b612f63565b3480156109e257600080fd5b5061035a6109f1366004615265565b60086020526000908152604090205460ff1681565b348015610a1257600080fd5b5061038560025481565b348015610a2857600080fd5b5061035a610a37366004615265565b6001600160a01b031660009081526004602052604090205460ff1690565b348015610a6157600080fd5b506104de610a70366004615280565b612f8f565b348015610a8157600080fd5b50610385610a90366004615265565b6001600160a01b03166000908152600a602052604090205490565b348015610ab757600080fd5b506104de610ac636600461572b565b612ff6565b348015610ad757600080fd5b50610385613126565b348015610aec57600080fd5b506104de610afb36600461575f565b61316e565b348015610b0c57600080fd5b50610b20610b1b36600461523b565b613469565b604051610366919061579b565b60006001600160e01b03198216637965db0b60e01b1480610b5e57506301ffc9a760e01b6001600160e01b03198316145b92915050565b600b6020528160005260406000208181548110610b8057600080fd5b6000918252602090912060049091020180546001820154600283015460039093015460ff831695506101009092046001600160a01b03169350919085565b6000908152600080516020615aba833981519152602052604090206001015490565b610be8613532565b610bf061356a565b60005b600d54811015610c4057610c2e33600d8381548110610c1457610c146157a9565b60009182526020822001546001600160a01b03169061359b565b80610c38816157d5565b915050610bf3565b50610c586001600080516020615afa83398151915255565b565b610c6382610bbe565b610c6c81613ca6565b610c768383613cb0565b50505050565b60ff19610c986001600080516020615a9a8339815191526157ee565b604051602001610caa91815260200190565b6040516020818303038152906040528051906020012016610cca81613ca6565b610cd5848484613d5c565b5050505050565b60ff19610cf86001600080516020615a9a8339815191526157ee565b604051602001610d0a91815260200190565b6040516020818303038152906040528051906020012016610d2a81613ca6565b60005b8251811015611052576000838281518110610d4a57610d4a6157a9565b602002602001015160400151905060006001600a6000846001600160a01b03166001600160a01b0316815260200190815260200160002080549050610d8f91906157ee565b6001600160a01b0383166000908152600a60205260409020805491925060019183908110610dbf57610dbf6157a9565b906000526020600020906005020160040160006101000a81548160ff021916908315150217905550848381518110610df957610df96157a9565b602002602001015160800151600a6000846001600160a01b03166001600160a01b031681526020019081526020016000208281548110610e3b57610e3b6157a9565b9060005260206000209060050201600201819055506000600a6000846001600160a01b03166001600160a01b031681526020019081526020016000208281548110610e8857610e886157a9565b600091825260208083206005909202909101546001600160a01b0386168352600a8252604092839020835160e0810190945263ffffffff6401000000009092048216808552600754909550909392830191610ee4911685615801565b63ffffffff168152602001856001600160a01b03168152602001600a6000876001600160a01b03166001600160a01b031681526020019081526020016000208581548110610f3457610f346157a9565b6000918252602080832060059283020160019081015485528482018490526040808601859052606095860185905287548083018955978552938290208651979093029092018054868301518786015163ffffffff998a1667ffffffffffffffff1990931692909217640100000000999091169890980297909717600160401b600160e01b031916600160401b6001600160a01b039889160217815593850151918401919091556080840151600284015560a0840151600384015560c0909301516004909201805460ff19169215159290921790915551848152918516917fb6f449f07ceaf55392c9899e0797c6529908ae827c2d498c682e90d42c241167910160405180910390a2505050808061104a906157d5565b915050610d2d565b505050565b61105f613532565b61106761356a565b336000908152600b602052604090205481106110bb57336000908152600b60205260409081902054905163abe5c32f60e01b81526110b2918391600401918252602082015260400190565b60405180910390fd5b6110c733826000613ed4565b6110de6001600080516020615afa83398151915255565b50565b6001600160a01b038116331461110a5760405163334bd91960e11b815260040160405180910390fd5b6110528282614542565b600060ff196111326001600080516020615a9a8339815191526157ee565b60405160200161114491815260200190565b604051602081830303815290604052805190602001201661116481613ca6565b46871461118457604051631a26aa4d60e21b815260040160405180910390fd5b60008881526003602052604090205460ff166111b657604051632ef6974160e11b8152600481018990526024016110b2565b6040516001600160a01b0387169086156108fc029087906000818181858888f193505050501580156111ec573d6000803e3d6000fd5b5073eeeeeeeeeeeeeeeeeeeeeeeeeeeeeeeeeeeeeeee60009081526005602052600080516020615a3a833981519152805487929061122b9084906157ee565b9091555050600054604051631eb65ffb60e01b81526001600160a01b0390911690631eb65ffb9061126a908b908b908b908b908b908b9060040161581e565b600060405180830381600087803b15801561128457600080fd5b505af1158015611298573d6000803e3d6000fd5b5050604080518b8152602081018b90529081018890526001600160a01b03891692503091507f61d99af9dd09bd984d42cc07939d4cba4388e85aa29b3cc88df954e4ca719f329060600160405180910390a3506001979650505050505050565b600046861461131a57604051631a26aa4d60e21b815260040160405180910390fd5b60008581526003602052604090205460ff1661134c57604051632ef6974160e11b8152600481018690526024016110b2565b6001600160a01b03831660009081526004602052604090205460ff1661139057604051631e859bc960e01b81526001600160a01b03841660048201526024016110b2565b6040516370a0823160e01b81523060048201526000906001600160a01b038516906370a0823190602401602060405180830381865afa1580156113d7573d6000803e3d6000fd5b505050506040513d601f19601f820116820180604052508101906113fb919061584f565b90506114126001600160a01b0385163330866145be565b6040516370a0823160e01b81523060048201526000906001600160a01b038616906370a0823190602401602060405180830381865afa158015611459573d6000803e3d6000fd5b505050506040513d601f19601f8201168201806040525081019061147d919061584f565b9050600061148b83836157ee565b73eeeeeeeeeeeeeeeeeeeeeeeeeeeeeeeeeeeeeeee60009081526005602052600080516020615a3a833981519152805492935087929091906114ce908490615868565b9091555050600254600090620f4240906114e8908461587b565b6114f29190615892565b90506114fe81836157ee565b6001600160a01b03881660009081526006602052604081208054929450839290919061152b908490615868565b909155505060005460405163305f478560e21b81526001600160a01b039091169063c17d1e1490611568908d908d908d908c9088906004016158b4565b600060405180830381600087803b15801561158257600080fd5b505af1158015611596573d6000803e3d6000fd5b5050604080518d8152602081018d90529081018590526001600160a01b03808c1693503392508a16907fece797608c81cc46a09f9859cf8ef650ec541b5da6989f30acb30dba9b8a40a49060600160405180910390a45060019998505050505050505050565b600061160781613ca6565b6110de614618565b600a602052816000526040600020818154811061162b57600080fd5b60009182526020909120600590910201805460018201546002830154600384015460049094015463ffffffff80851697506401000000008504169550600160401b9093046001600160a01b031693919290919060ff1687565b7ff0c57e16840df040f15088dc2f81fe391c3923bec73e23a9662efc9c229c6a008054600160401b810460ff16159067ffffffffffffffff166000811580156116ca5750825b905060008267ffffffffffffffff1660011480156116e75750303b155b9050811580156116f5575080155b156117135760405163f92ee8a960e01b815260040160405180910390fd5b845467ffffffffffffffff19166001178555831561173d57845460ff60401b1916600160401b1785555b611745614678565b61174d614680565b611755614690565b61175f87876146a0565b6007805463ffffffff1916621baf8017905583156117b757845460ff60401b19168555604051600181527fc7f505b2f371ae2175ee4913f4499e1f2633a7b5936321eed1cdaeb6115181d29060200160405180910390a15b50505050505050565b6117c8613532565b6117d061356a565b6001600160a01b03821660009081526008602052604090205460ff16611814576040516305fd61ad60e01b81526001600160a01b03831660048201526024016110b2565b6001600160a01b0382166000908152600c6020526040902054811015611872576001600160a01b0382166000908152600c6020526040908190205490516327500c6d60e21b81526004810191909152602481018290526044016110b2565b6118876001600160a01b0383163330846145be565b6001600160a01b0382166000908152600a60205260408120546118ac906001906157ee565b6001600160a01b0384166000908152600a6020526040902080549192504291839081106118db576118db6157a9565b600091825260209091206005909102015463ffffffff1611156119e657336000908152600b60209081526040808320815160a0810183528481526001600160a01b0388811682860181815283860189815260608501898152608086018c8152875460018082018a55988c528a8c2097516004909102909701805494516001600160a81b0319909516971515610100600160a81b03191697909717610100949096169390930294909417855551948401949094559051600283015591516003909101558352600a90915290208054839190839081106119bb576119bb6157a9565b906000526020600020906005020160010160008282546119db9190615868565b90915550611a029050565b604051637d58ebb960e01b8152600481018290526024016110b2565b6040518281526001600160a01b0384169033907f3ac7d3823c11677fba9479ed26f696a3f17e16a5a5c39162fa6d183905aa67359060200160405180910390a350611a5a6001600080516020615afa83398151915255565b5050565b600060ff19611a7c6001600080516020615a9a8339815191526157ee565b604051602001611a8e91815260200190565b6040516020818303038152906040528051906020012016611aae81613ca6565b468714611ace57604051631a26aa4d60e21b815260040160405180910390fd5b60008881526003602052604090205460ff16611b0057604051632ef6974160e11b8152600481018990526024016110b2565b6000611b0a6126cb565b6040516323b872dd60e01b81529091506001600160a01b038216906323b872dd90611b3d9030908b908b906004016158e0565b6020604051808303816000875af1158015611b5c573d6000803e3d6000fd5b505050506040513d601f19601f82011682018060405250810190611b809190615904565b5073c02aaa39b223fe8d0a0e5c4f27ead9083c756cc2600090815260056020527fa550ba85c46b24b567d2e17cd597f2283877afab43603f46d5de7858f1bdb7318054889290611bd19084906157ee565b9091555050600054604051631eb65ffb60e01b81526001600160a01b0390911690631eb65ffb90611c10908c908c908c908c908c908c9060040161581e565b600060405180830381600087803b158015611c2a57600080fd5b505af1158015611c3e573d6000803e3d6000fd5b5050604080518c8152602081018c90529081018990526001600160a01b038a1692503091507f7dc80be13e04000533f3763be4b9359a36a0aeb0daabbf09fd96c3a275c1cc149060600160405180910390a350600198975050505050505050565b611ca7613532565b611caf61356a565b60005b600d54811015610c4057611cef33600d8381548110611cd357611cd36157a9565b6000918252602090912001546001600160a01b0316600161359b565b80611cf9816157d5565b915050611cb2565b6040805160e08101825260008082526020808301829052828401829052606083018290526080830182905260a0830182905260c083018290526001600160a01b0386168252600a905291909120805483908110611d6057611d606157a9565b60009182526020918290206040805160e081018252600593909302909101805463ffffffff808216855264010000000082041694840194909452600160401b9093046001600160a01b0316908201526001820154606082015260028201546080820152600382015460a082015260049091015460ff16151560c0820152905092915050565b600d8181548110611df557600080fd5b6000918252602090912001546001600160a01b0316905081565b6000611e1a81613ca6565b50600255565b6001600160a01b0381166000908152600b60209081526040808320805482518185028101850190935280835260609492939192909184015b82821015611ec55760008481526020908190206040805160a08101825260048602909201805460ff81161515845261010090046001600160a01b03168385015260018082015492840192909252600281015460608401526003015460808301529083529092019101611e58565b505050509050919050565b6000611edb81613ca6565b6110de6146e9565b6000918252600080516020615aba833981519152602090815260408084206001600160a01b0393909316845291905290205460ff1690565b600060ff19611f396001600080516020615a9a8339815191526157ee565b604051602001611f4b91815260200190565b6040516020818303038152906040528051906020012016611f6b81613ca6565b468814611f8b57604051631a26aa4d60e21b815260040160405180910390fd5b60008981526003602052604090205460ff16611fbd57604051632ef6974160e11b8152600481018a90526024016110b2565b6001600160a01b03861660009081526004602052604090205460ff1661200157604051631e859bc960e01b81526001600160a01b03871660048201526024016110b2565b6120166001600160a01b0387163089886145be565b73eeeeeeeeeeeeeeeeeeeeeeeeeeeeeeeeeeeeeeee60009081526005602052600080516020615a3a83398151915280548792906120549084906157ee565b9091555050600054604051631eb65ffb60e01b81526001600160a01b0390911690631eb65ffb90612093908c908c908c908b908b908b9060040161581e565b600060405180830381600087803b1580156120ad57600080fd5b505af11580156120c1573d6000803e3d6000fd5b5050604080518c8152602081018c90529081018890526001600160a01b03808b1693503092508916907f0f50ec03884adc78b9840a90cf8805a70ffe160f18d6b83198103b6fade443fe9060600160405180910390a450600198975050505050505050565b61212e613532565b61213661356a565b73eeeeeeeeeeeeeeeeeeeeeeeeeeeeeeeeeeeeeeee600052600c6020527f36dda7fac5d19118789d83982ba89ab2ea0a81d18d22af2919c731e22f75f227543410156121de5773eeeeeeeeeeeeeeeeeeeeeeeeeeeeeeeeeeeeeeee600052600c6020527f36dda7fac5d19118789d83982ba89ab2ea0a81d18d22af2919c731e22f75f227546040516327500c6d60e21b815260048101919091523460248201526044016110b2565b73eeeeeeeeeeeeeeeeeeeeeeeeeeeeeeeeeeeeeeee6000908152600a602052600080516020615a7a83398151915254612219906001906157ee565b73eeeeeeeeeeeeeeeeeeeeeeeeeeeeeeeeeeeeeeee6000908152600a602052600080516020615a7a833981519152549192500361226c57604051637d58ebb960e01b8152600160048201526024016110b2565b73eeeeeeeeeeeeeeeeeeeeeeeeeeeeeeeeeeeeeeee600052600a602052600080516020615a7a8339815191528054429190839081106122ad576122ad6157a9565b600091825260209091206005909102015463ffffffff1611156123d457336000908152600b60209081526040808320815160a08101835284815273eeeeeeeeeeeeeeeeeeeeeeeeeeeeeeeeeeeeeeee818501818152938201878152606083018781523460808501818152865460018082018955978b52898b2096516004909102909601805498516001600160a81b0319909916961515610100600160a81b031916969096176101006001600160a01b03909916989098029790971785559151948401949094559251600283015592516003909101559252600a9052600080516020615a7a8339815191528054839081106123a9576123a96157a9565b906000526020600020906005020160010160008282546123c99190615868565b909155506123fb9050565b6123df816001615868565b604051637d58ebb960e01b81526004016110b291815260200190565b60405134815233907fe7466ea83435490635fc76a5f33da4815758ab48b1d45858f0452ca6465569379060200160405180910390a250610c586001600080516020615afa83398151915255565b61245061356a565b341561245e57611a5a612126565b73c02aaa39b223fe8d0a0e5c4f27ead9083c756cc1196001600160a01b0383160161248c57611a5a816127c5565b6001600160a01b03821660009081526008602052604090205460ff1615611a5a57611a5a82826117c0565b60004684146124d957604051631a26aa4d60e21b815260040160405180910390fd5b60008381526003602052604090205460ff1661250b57604051632ef6974160e11b8152600481018490526024016110b2565b60015434101561253b576001546040516358f8331360e11b815260048101919091523460248201526044016110b2565b73eeeeeeeeeeeeeeeeeeeeeeeeeeeeeeeeeeeeeeee60009081526005602052600080516020615a3a8339815191528054349290612579908490615868565b9091555050600254600090620f424090612593903461587b565b61259d9190615892565b905060006125ab82346157ee565b73eeeeeeeeeeeeeeeeeeeeeeeeeeeeeeeeeeeeeeee600090815260066020527fa2e5aefc6e2cbe2917a296f0fd89c5f915c487c803db1d98eccb43f14012d71180549293508492909190612600908490615868565b909155505060005460405163305f478560e21b81526001600160a01b039091169063c17d1e149061263d90469089908990349089906004016158b4565b600060405180830381600087803b15801561265757600080fd5b505af115801561266b573d6000803e3d6000fd5b505060408051898152602081018990529081018490526001600160a01b03871692503391507f0b671089787b6d29f730bc690214e6a7e28064fef5a3cdbb9b930a22fac01dc59060600160405180910390a36001925050505b9392505050565b600046620827508190036126e7576004605360981b0191505090565b8061044d0361270b57734f9a0e7fd2bf6067db6994cf12e4495df938e6e991505090565b80600a03612721576006602160991b0191505090565b604051639474dee160e01b815260040160405180910390fd5b600061274581613ca6565b506001600160a01b03919091166000908152600460205260409020805460ff1916911515919091179055565b60ff1961278d6001600080516020615a9a8339815191526157ee565b60405160200161279f91815260200190565b60405160208183030381529060405280519060200120166127bf81613ca6565b50600155565b6127cd613532565b6127d561356a565b73c02aaa39b223fe8d0a0e5c4f27ead9083c756cc2600052600c6020527fc87f3dae70d3ac23e82424b4132d779583ae145fc334a52160c2d1a246c2bc2b5481101561286a5760008052600c6020527f13649b2456f1b42fef0f0040b3aaeabcd21a76a0f3f5defd4f583839455116e8546040516327500c6d60e21b81526004810191909152602481018290526044016110b2565b6040516323b872dd60e01b815273c02aaa39b223fe8d0a0e5c4f27ead9083c756cc2906323b872dd906128a5903390309086906004016158e0565b6020604051808303816000875af11580156128c4573d6000803e3d6000fd5b505050506040513d601f19601f820116820180604052508101906128e89190615904565b5073c02aaa39b223fe8d0a0e5c4f27ead9083c756cc26000908152600a602052600080516020615a5a83398151915254612924906001906157ee565b73c02aaa39b223fe8d0a0e5c4f27ead9083c756cc2600052600a602052600080516020615a5a83398151915280549192509082908110612966576129666157a9565b600091825260209091206004600590920201015460ff161561299e576040516311cf1b0760e31b8152600481018290526024016110b2565b73c02aaa39b223fe8d0a0e5c4f27ead9083c756cc2600052600a602052600080516020615a5a8339815191528054429190839081106129df576129df6157a9565b600091825260209091206005909102015463ffffffff161115612b0457336000908152600b60209081526040808320815160a08101835284815273c02aaa39b223fe8d0a0e5c4f27ead9083c756cc281850181815293820187815260608301878152608084018a8152855460018181018855968a52888a2095516004909102909501805497516001600160a01b031661010002610100600160a81b0319961515969096166001600160a81b0319909816979097179490941786559051938501939093559151600284015551600390920191909155909152600a9052600080516020615a5a833981519152805483919083908110612ade57612ade6157a9565b90600052602060002090600502016001016000828254612afe9190615868565b90915550505b60405182815233907fc138e3bd6d13eefa5cb01c0d35c5794001141efaf4e5ad888cad059935f833839060200160405180910390a2506110de6001600080516020615afa83398151915255565b6000612b5c81613ca6565b6001600160a01b0383166000818152600c602052604090819020849055517ff54d3b756d286b6b08e5d4eda6dfe5b135664abf029e58e637cbf013c442c95090612ba99085815260200190565b60405180910390a2505050565b6000468514612bd857604051631a26aa4d60e21b815260040160405180910390fd5b60008481526003602052604090205460ff16612c0a576040516363b5c9db60e01b8152600481018590526024016110b2565b6000612c146126cb565b6040516370a0823160e01b81523060048201529091506000906001600160a01b038316906370a0823190602401602060405180830381865afa158015612c5e573d6000803e3d6000fd5b505050506040513d601f19601f82011682018060405250810190612c82919061584f565b6040516323b872dd60e01b81529091506001600160a01b038316906323b872dd90612cb5903390309089906004016158e0565b6020604051808303816000875af1158015612cd4573d6000803e3d6000fd5b505050506040513d601f19601f82011682018060405250810190612cf89190615904565b506040516370a0823160e01b81523060048201526000906001600160a01b038416906370a0823190602401602060405180830381865afa158015612d40573d6000803e3d6000fd5b505050506040513d601f19601f82011682018060405250810190612d64919061584f565b90506000612d7283836157ee565b9050600154811015612da5576001546040516358f8331360e11b81526004810191909152602481018290526044016110b2565b73c02aaa39b223fe8d0a0e5c4f27ead9083c756cc2600090815260056020527fa550ba85c46b24b567d2e17cd597f2283877afab43603f46d5de7858f1bdb7318054839290612df5908490615868565b9091555050600254600090620f424090612e0f908461587b565b612e199190615892565b9050612e2581836157ee565b73c02aaa39b223fe8d0a0e5c4f27ead9083c756cc2600090815260066020527f5e5777fab7622aff3c042c1ece74307c2e9d699a9da444f416c35f2e1def28a580549294508392909190612e7a908490615868565b909155505060005460405163305f478560e21b81526001600160a01b039091169063c17d1e1490612eb7908d908d908d908d9088906004016158b4565b600060405180830381600087803b158015612ed157600080fd5b505af1158015612ee5573d6000803e3d6000fd5b5050604080518d8152602081018d90529081018590526001600160a01b038b1692503391507fcb9e641636f35317739cff2833f1831bf3a25b930b5615ada09367c080d64a899060600160405180910390a35060019998505050505050505050565b612f5082610bbe565b612f5981613ca6565b610c768383614542565b6000612f6e81613ca6565b50600091825260036020526040909120805460ff1916911515919091179055565b612f97613532565b612f9f61356a565b336000908152600b60205260409020548110612fea57336000908152600b60205260409081902054905163abe5c32f60e01b81526110b2918391600401918252602082015260400190565b6110c733826001613ed4565b60ff196130126001600080516020615a9a8339815191526157ee565b60405160200161302491815260200190565b604051602081830303815290604052805190602001201661304481613ca6565b6001600160a01b03841660009081526008602052604090205460ff16613088576040516305fd61ad60e01b81526001600160a01b03851660048201526024016110b2565b8462082750036130a25761309d848484614732565b6130c9565b8461044d036130b65761309d848484614b63565b84600a036127215761309d848484614cd9565b826001600160a01b0316846001600160a01b03167f08ffba656e4ac665e1aa4bb6a342e1a69d4cc12fd751ac862fa3fe27b0c7524a8785604051613117929190918252602082015260400190565b60405180910390a35050505050565b60ff196131426001600080516020615a9a8339815191526157ee565b60405160200161315491815260200190565b604051602081830303815290604052805190602001201681565b600061317981613ca6565b6001600160a01b03841660009081526008602052604090205460ff16156131c65760405163411befff60e11b81526001600160a01b038516600482015283151560248201526044016110b2565b6001600160a01b0384166000908152600860209081526040808320805460ff1916871515179055600a90915290819020815160e0810190925260075490919081906132179063ffffffff1686615921565b63ffffffff908116825285811660208084018290526001600160a01b03808b166040808701829052600060608089018290526080808a0183905260a0808b0184905260c09a8b018490528c5460018181018f559d85528885208d5160059092020180548e8b01518f890151909a16600160401b02600160401b600160e01b03199a8e166401000000000267ffffffffffffffff19909216938e16939093171798909816178755918b01519b86019b909b5599890151600285015598880151600384015596909501516004909101805491151560ff19909216919091179055928552600a835293839020835160e081019094529383526007549183019161331e911686615801565b63ffffffff90811682526001600160a01b038881166020808501829052600060408087018290526060808801839052608080890184905260a09889018490528a5460018082018d559b85528585208b5160059092020180548c8801518d870151938c1667ffffffffffffffff199092169190911764010000000091909b160299909917600160401b600160e01b031916600160401b9190981602969096178755880151868a015593870151600286015594860151600385015560c0909501516004909301805460ff191693151593909317909255600d805495860181559092527fd7b6990105719101dabeb77144f2a3385c8033acd3af97e9423a695e81ad1eb590930180546001600160a01b031916841790555185151581527fc8c34f23fafb34e68119c1d231ef03d0d47225b15e2c4de3efbefa14b0181d86910160405180910390a250505050565b6134a66040518060a0016040528060001515815260200160006001600160a01b031681526020016000815260200160008152602001600081525090565b6001600160a01b0383166000908152600b602052604090208054839081106134d0576134d06157a9565b60009182526020918290206040805160a081018252600493909302909101805460ff81161515845261010090046001600160a01b0316938301939093526001830154908201526002820154606082015260039091015460808201529392505050565b600080516020615afa83398151915280546001190161356457604051633ee5aeb560e01b815260040160405180910390fd5b60029055565b600080516020615ada8339815191525460ff1615610c585760405163d93c066560e01b815260040160405180910390fd5b6001600160a01b0382166000908152600a602052604081205490036135d657604051637d58ebb960e01b8152600060048201526024016110b2565b60005b6001600160a01b0384166000908152600b6020526040902054811015610c76576001600160a01b038481166000908152600b6020526040902080548392861691908390811061362a5761362a6157a9565b600091825260209091206004909102015461010090046001600160a01b031603613c7e576001600160a01b0385166000908152600b60205260409020805482908110613678576136786157a9565b600091825260209091206004909102015460ff16156136975750613c80565b6001600160a01b0384166000908152600a60205260408120546136bc906001906157ee565b6001600160a01b0387166000908152600b60205260409020805491925090839081106136ea576136ea6157a9565b906000526020600020906004020160030154600a6000876001600160a01b03166001600160a01b031681526020019081526020016000208281548110613732576137326157a9565b9060005260206000209060050201600101600082825461375291906157ee565b90915550506001600160a01b0386166000908152600b60205260408120805482919085908110613784576137846157a9565b90600052602060002090600402016003015490506000600b60008a6001600160a01b03166001600160a01b0316815260200190815260200160002085815481106137d0576137d06157a9565b9060005260206000209060040201600101549050838111156138055760405163374c934360e11b815260040160405180910390fd5b805b84811015613965576001600160a01b0389166000908152600a6020526040902054613834906001906157ee565b81111561385757604051637d58ebb960e01b8152600481018290526024016110b2565b6001600160a01b0389166000908152600a60205260408120805483908110613881576138816157a9565b906000526020600020906005020160010154600a60008c6001600160a01b03166001600160a01b0316815260200190815260200160002083815481106138c9576138c96157a9565b906000526020600020906005020160020154856138e6919061587b565b6138f09190615892565b90506138fc8186615868565b6001600160a01b038b166000908152600a60205260409020805491965082918490811061392b5761392b6157a9565b9060005260206000209060050201600301600082825461394b9190615868565b9091555082915061395d9050816157d5565b915050613807565b50600083116139a25760405162461bcd60e51b8152602060048201526009602482015268139bc814995dd85c9960ba1b60448201526064016110b2565b6139ac8383615868565b91508615613c79576001600160a01b0389166000908152600b60205260409020805460019190879081106139e2576139e26157a9565b60009182526020909120600490910201805460ff1916911515919091179055613a0c888a85613d5c565b506001600160a01b0389166000908152600b602052604090205460011015613bd2576001600160a01b0389166000908152600b602052604090208054613a54906001906157ee565b81548110613a6457613a646157a9565b9060005260206000209060040201600b60008b6001600160a01b03166001600160a01b031681526020019081526020016000208681548110613aa857613aa86157a9565b600091825260208083208454600490930201805460ff909316151560ff1984168117825585546001600160a01b03610100918290048116909102610100600160a81b03199092166001600160a81b03199095169490941717815560018086015490820155600280860154908201556003948501549401939093558b168152600b90915260409020805480613b3e57613b3e61593e565b60008281526020812060046000199093019283020180546001600160a81b0319168155600181018290556002810182905560030155905585613b7f81615954565b96507f0ad30059d4072ae2525ebaaa5b6878f1c50df5f3b921615031c7d0f12dc4a77b90508982868b613bb288886157ee565b88604051613bc596959493929190615971565b60405180910390a1613c79565b6001600160a01b0389166000908152600b60205260409020805485919087908110613bff57613bff6157a9565b906000526020600020906004020160010181905550613c1f888a84613d5c565b50604080516001600160a01b038b81168252602082018490528183018790528a1660608201526080810185905290517f7e6fedb6f824b2112ac0626ced32f6be6324d554cc03efd112aa021ee4d740ac9181900360a00190a15b505050505b505b80613c8a816159ab565b9150506135d9565b6001600080516020615afa83398151915255565b6110de8133614e66565b6000600080516020615aba833981519152613ccb8484611ee3565b613d4b576000848152602082815260408083206001600160a01b03871684529091529020805460ff19166001179055613d013390565b6001600160a01b0316836001600160a01b0316857f2f8788117e7eff1d82e926ec794901d17c78024a50270940304540a733656f0d60405160405180910390a46001915050610b5e565b6000915050610b5e565b5092915050565b6001600160a01b03831660009081526004602052604081205460ff16613da057604051631e859bc960e01b81526001600160a01b03851660048201526024016110b2565b73eeeeeeeeeeeeeeeeeeeeeeeeeeeeeeeeeeeeeeed196001600160a01b03851601613e225781471015613de657604051632c1d501360e11b815260040160405180910390fd5b6040516001600160a01b0384169083156108fc029084906000818181858888f19350505050158015613e1c573d6000803e3d6000fd5b50613eca565b6040516370a0823160e01b815230600482015282906001600160a01b038616906370a0823190602401602060405180830381865afa158015613e68573d6000803e3d6000fd5b505050506040513d601f19601f82011682018060405250810190613e8c919061584f565b1015613eb6576040516311745b6160e21b81526001600160a01b03851660048201526024016110b2565b613eca6001600160a01b0385168484614e9f565b5060019392505050565b6001600160a01b0383166000908152600b60205260408120805484908110613efe57613efe6157a9565b600091825260208083206004909202909101546001600160a01b0361010090910416808352600a9091526040822054909250613f3c906001906157ee565b6001600160a01b0386166000908152600b6020526040902080549192509085908110613f6a57613f6a6157a9565b906000526020600020906004020160030154600a6000846001600160a01b03166001600160a01b031681526020019081526020016000208281548110613fb257613fb26157a9565b90600052602060002090600502016001016000828254613fd291906157ee565b90915550506001600160a01b0385166000908152600b60205260408120805482919087908110614004576140046157a9565b90600052602060002090600402016003015490506000600b6000896001600160a01b03166001600160a01b031681526020019081526020016000208781548110614050576140506157a9565b9060005260206000209060040201600101549050838111156140855760405163374c934360e11b815260040160405180910390fd5b805b848110156141e5576001600160a01b0386166000908152600a60205260409020546140b4906001906157ee565b8111156140d757604051637d58ebb960e01b8152600481018290526024016110b2565b6001600160a01b0386166000908152600a60205260408120805483908110614101576141016157a9565b906000526020600020906005020160010154600a6000896001600160a01b03166001600160a01b031681526020019081526020016000208381548110614149576141496157a9565b90600052602060002090600502016002015485614166919061587b565b6141709190615892565b905061417c8186615868565b6001600160a01b0388166000908152600a6020526040902080549196508291849081106141ab576141ab6157a9565b906000526020600020906005020160030160008282546141cb9190615868565b909155508291506141dd9050816157d5565b915050614087565b50600083116142225760405162461bcd60e51b8152602060048201526009602482015268139bc814995dd85c9960ba1b60448201526064016110b2565b61422c8383615868565b6001600160a01b0389166000908152600b6020526040902080549193506001918990811061425c5761425c6157a9565b60009182526020909120600490910201805460ff19169115159190911790558515614538576001600160a01b0388166000908152600b60205260409020805460019190899081106142af576142af6157a9565b60009182526020909120600490910201805460ff19169115159190911790556142d9858985613d5c565b506001600160a01b0388166000908152600b602052604090205460011015614491576001600160a01b0388166000908152600b602052604090208054614321906001906157ee565b81548110614331576143316157a9565b9060005260206000209060040201600b60008a6001600160a01b03166001600160a01b031681526020019081526020016000208881548110614375576143756157a9565b600091825260208083208454600490930201805460ff909316151560ff1984168117825585546001600160a01b03610100918290048116909102610100600160a81b03199092166001600160a81b03199095169490941717815560018086015490820155600280860154908201556003948501549401939093558a168152600b9091526040902080548061440b5761440b61593e565b60008281526020812060046000199093019283020180546001600160a81b031916815560018101829055600281018290556003015590557f0ad30059d4072ae2525ebaaa5b6878f1c50df5f3b921615031c7d0f12dc4a77b8882868861447188886157ee565b8860405161448496959493929190615971565b60405180910390a1614538565b6001600160a01b0388166000908152600b602052604090208054859190899081106144be576144be6157a9565b9060005260206000209060040201600101819055506144de858984613d5c565b50604080516001600160a01b038a8116825260208201849052818301879052871660608201526080810185905290517f7e6fedb6f824b2112ac0626ced32f6be6324d554cc03efd112aa021ee4d740ac9181900360a00190a15b5050505050505050565b6000600080516020615aba83398151915261455d8484611ee3565b15613d4b576000848152602082815260408083206001600160a01b0387168085529252808320805460ff1916905551339287917ff6391f5c32d9c69d2a47ea670b442974b53935d1edc7fd64eb21e047a839171b9190a46001915050610b5e565b610c7684856001600160a01b03166323b872dd8686866040516024016145e6939291906158e0565b604051602081830303815290604052915060e01b6020820180516001600160e01b038381831617835250505050614ed0565b614620614f33565b600080516020615ada833981519152805460ff191681557f5db9ee0a495bf2e6ff9c91a7834c1ba4fdd244a5e8aa4e537bd38aeae4b073aa335b6040516001600160a01b03909116815260200160405180910390a150565b610c58614f63565b614688614f63565b610c58614fac565b614698614f63565b610c58614fb4565b6146a8614f63565b67016345785d8a00006001556127106002556146c5600083613cb0565b50600080546001600160a01b0319166001600160a01b039290921691909117905550565b6146f161356a565b600080516020615ada833981519152805460ff191660011781557f62e78cea01bee320cd4e420270b5ea74000d11b0c9f74754ebdbfc544b05a2583361465a565b73eeeeeeeeeeeeeeeeeeeeeeeeeeeeeeeeeeeeeeed196001600160a01b0384160161486457604051636bb825d760e11b8152620298106004820152600090730d7e906bd9cafa154b048cfa766cc1e54e39af9b9063d7704bae90602401602060405180830381865afa1580156147ac573d6000803e3d6000fd5b505050506040513d601f19601f820116820180604052508101906147d0919061584f565b9050737f2b8c31f88b6006c382775eea88297ec1e3e90563ce0b63ce6147f68385615868565b6040516001600160e01b031960e084901b1681526001600160a01b0387166004820152602481018690526202981060448201526064016000604051808303818588803b15801561484557600080fd5b505af1158015614859573d6000803e3d6000fd5b505050505050505050565b73c02aaa39b223fe8d0a0e5c4f27ead9083c756cc1196001600160a01b03841601614a0b57604051636bb825d760e11b8152614e206004820152600090730d7e906bd9cafa154b048cfa766cc1e54e39af9b9063d7704bae90602401602060405180830381865afa1580156148dd573d6000803e3d6000fd5b505050506040513d601f19601f82011682018060405250810190614901919061584f565b60405163095ea7b360e01b8152737ac440cae8eb6328de4fa621163a792c1ea9d4fe6004820152602481018490529091506001600160a01b0385169063095ea7b3906044016020604051808303816000875af1158015614965573d6000803e3d6000fd5b505050506040513d601f19601f820116820180604052508101906149899190615904565b5060405163790cfd3360e11b81526001600160a01b0380861660048301528416602482015260448101839052614e206064820152737ac440cae8eb6328de4fa621163a792c1ea9d4fe9063f219fa66906084015b600060405180830381600087803b1580156149f757600080fd5b505af1158015614538573d6000803e3d6000fd5b604051636bb825d760e11b8152614e206004820152600090730d7e906bd9cafa154b048cfa766cc1e54e39af9b9063d7704bae90602401602060405180830381865afa158015614a5f573d6000803e3d6000fd5b505050506040513d601f19601f82011682018060405250810190614a83919061584f565b60405163095ea7b360e01b8152737ac440cae8eb6328de4fa621163a792c1ea9d4fe6004820152602481018490529091506001600160a01b0385169063095ea7b3906044016020604051808303816000875af1158015614ae7573d6000803e3d6000fd5b505050506040513d601f19601f82011682018060405250810190614b0b9190615904565b5060405163790cfd3360e11b81526001600160a01b0380861660048301528416602482015260448101839052614e20606482015273d8a791fe2be73eb6e6cf1eb0cb3f36adc9b3f8f99063f219fa66906084016149dd565b73eeeeeeeeeeeeeeeeeeeeeeeeeeeeeeeeeeeeeeed196001600160a01b03841601614be45760405163cd58657960e01b8152732a3dd3eb832af982ec71669e178424b10dca2ede9063cd586579908390614bcb906001908790849060009081906004016159c3565b6000604051808303818588803b1580156149f757600080fd5b60405163095ea7b360e01b8152732a3dd3eb832af982ec71669e178424b10dca2ede6004820152602481018290526001600160a01b0384169063095ea7b3906044016020604051808303816000875af1158015614c45573d6000803e3d6000fd5b505050506040513d601f19601f82011682018060405250810190614c699190615904565b5060405163cd58657960e01b8152732a3dd3eb832af982ec71669e178424b10dca2ede9063cd58657990614cab906001908690869089906000906004016159c3565b600060405180830381600087803b158015614cc557600080fd5b505af11580156117b7573d6000803e3d6000fd5b73eeeeeeeeeeeeeeeeeeeeeeeeeeeeeeeeeeeeeeed196001600160a01b03841601614d5557604051639a2ac6d560e01b81526001600160a01b03831660048201526000602482018190526060604483015260648201527399c9fc46f92e8a1c0dec1b1747d010903e884be190639a2ac6d5908390608401614bcb565b6000614d6084614fd5565b60405163095ea7b360e01b81527399c9fc46f92e8a1c0dec1b1747d010903e884be16004820152602481018490529091506001600160a01b0385169063095ea7b3906044016020604051808303816000875af1158015614dc4573d6000803e3d6000fd5b505050506040513d601f19601f82011682018060405250810190614de89190615904565b507399c9fc46f92e8a1c0dec1b1747d010903e884be163838b2520858386865a6040516001600160e01b031960e088901b1681526001600160a01b0395861660048201529385166024850152939091166044830152606482015263ffffffff91909116608482015260c060a4820152600060c482015260e4016149dd565b614e708282611ee3565b611a5a5760405163e2517d3f60e01b81526001600160a01b0382166004820152602481018390526044016110b2565b6040516001600160a01b0383811660248301526044820183905261105291859182169063a9059cbb906064016145e6565b6000614ee56001600160a01b038416836150f3565b90508051600014158015614f0a575080806020019051810190614f089190615904565b155b1561105257604051635274afe760e01b81526001600160a01b03841660048201526024016110b2565b600080516020615ada8339815191525460ff16610c5857604051638dfc202b60e01b815260040160405180910390fd5b7ff0c57e16840df040f15088dc2f81fe391c3923bec73e23a9662efc9c229c6a0054600160401b900460ff16610c5857604051631afcd79f60e31b815260040160405180910390fd5b613c92614f63565b614fbc614f63565b600080516020615ada833981519152805460ff19169055565b600073c02aaa39b223fe8d0a0e5c4f27ead9083c756cc1196001600160a01b0383160161500a57506006602160991b01919050565b73dac17f958d2ee523a2206206994597c13d831ec6196001600160a01b0383160161504a57507394b008aa00579c1307b0ef2c499ad98a8ce58e58919050565b73a0b86991c6218b36c1d19d4a2e9eb0ce3606eb47196001600160a01b0383160161508a5750730b2c639c533813f4aa9d7837caf62653d097ff85919050565b736b175474e89094c44da98b954eedeac495271d0e196001600160a01b038316016150ca575073da10009cbd5d07dd0cecc66161fc93d7c9000da1919050565b6040516305fd61ad60e01b81526001600160a01b03831660048201526024016110b2565b919050565b60606126c48383600084600080856001600160a01b031684866040516151199190615a0a565b60006040518083038185875af1925050503d8060008114615156576040519150601f19603f3d011682016040523d82523d6000602084013e61515b565b606091505b509150915061516b868383615175565b9695505050505050565b60608261518a57615185826151d1565b6126c4565b81511580156151a157506001600160a01b0384163b155b156151ca57604051639996b31560e01b81526001600160a01b03851660048201526024016110b2565b50806126c4565b8051156151e15780518082602001fd5b604051630a12f52160e11b815260040160405180910390fd5b60006020828403121561520c57600080fd5b81356001600160e01b0319811681146126c457600080fd5b80356001600160a01b03811681146150ee57600080fd5b6000806040838503121561524e57600080fd5b61525783615224565b946020939093013593505050565b60006020828403121561527757600080fd5b6126c482615224565b60006020828403121561529257600080fd5b5035919050565b600080604083850312156152ac57600080fd5b823591506152bc60208401615224565b90509250929050565b6000806000606084860312156152da57600080fd5b6152e384615224565b92506152f160208501615224565b9150604084013590509250925092565b634e487b7160e01b600052604160045260246000fd5b60405160e0810167ffffffffffffffff8111828210171561533a5761533a615301565b60405290565b604051601f8201601f1916810167ffffffffffffffff8111828210171561536957615369615301565b604052919050565b803563ffffffff811681146150ee57600080fd5b80151581146110de57600080fd5b600060208083850312156153a657600080fd5b823567ffffffffffffffff808211156153be57600080fd5b818501915085601f8301126153d257600080fd5b8135818111156153e4576153e4615301565b6153f2848260051b01615340565b818152848101925060e091820284018501918883111561541157600080fd5b938501935b828510156154a15780858a03121561542e5760008081fd5b615436615317565b61543f86615371565b815261544c878701615371565b87820152604061545d818801615224565b90820152606086810135908201526080808701359082015260a0808701359082015260c08087013561548e81615385565b9082015284529384019392850192615416565b50979650505050505050565b60008060008060008060c087890312156154c657600080fd5b86359550602087013594506154dd60408801615224565b9350606087013592506080870135915060a087013590509295509295509295565b600080600080600060a0868803121561551657600080fd5b853594506020860135935061552d60408701615224565b925061553b60608701615224565b949793965091946080013592915050565b6000806040838503121561555f57600080fd5b61556883615224565b91506152bc60208401615224565b8051151582526020808201516001600160a01b0316908301526040808201519083015260608082015190830152608090810151910152565b6020808252825182820181905260009190848201906040850190845b818110156155f0576155dd838551615576565b9284019260a092909201916001016155ca565b50909695505050505050565b600080600080600080600060e0888a03121561561757600080fd5b873596506020880135955061562e60408901615224565b945061563c60608901615224565b9699959850939660808101359560a0820135955060c0909101359350915050565b60008060006060848603121561567257600080fd5b833592506020840135915061568960408501615224565b90509250925092565b600080604083850312156156a557600080fd5b6156ae83615224565b915060208301356156be81615385565b809150509250929050565b600080600080608085870312156156df57600080fd5b84359350602085013592506156f660408601615224565b9396929550929360600135925050565b6000806040838503121561571957600080fd5b8235915060208301356156be81615385565b6000806000806080858703121561574157600080fd5b8435935061575160208601615224565b92506156f660408601615224565b60008060006060848603121561577457600080fd5b61577d84615224565b9250602084013561578d81615385565b915061568960408501615371565b60a08101610b5e8284615576565b634e487b7160e01b600052603260045260246000fd5b634e487b7160e01b600052601160045260246000fd5b6000600182016157e7576157e76157bf565b5060010190565b81810381811115610b5e57610b5e6157bf565b63ffffffff818116838216019080821115613d5557613d556157bf565b95865260208601949094526001600160a01b039290921660408501526060840152608083015260a082015260c00190565b60006020828403121561586157600080fd5b5051919050565b80820180821115610b5e57610b5e6157bf565b8082028115828204841417610b5e57610b5e6157bf565b6000826158af57634e487b7160e01b600052601260045260246000fd5b500490565b94855260208501939093526001600160a01b039190911660408401526060830152608082015260a00190565b6001600160a01b039384168152919092166020820152604081019190915260600190565b60006020828403121561591657600080fd5b81516126c481615385565b63ffffffff828116828216039080821115613d5557613d556157bf565b634e487b7160e01b600052603160045260246000fd5b6000600160ff1b8201615969576159696157bf565b506000190190565b6001600160a01b0396871681526020810195909552604085019390935293166060830152608082019290925260a081019190915260c00190565b60006001600160ff1b0182016157e7576157e76157bf565b63ffffffff9590951685526001600160a01b039384166020860152604085019290925290911660608301521515608082015260c060a0820181905260009082015260e00190565b6000825160005b81811015615a2b5760208186018101518583015201615a11565b50600092019182525091905056fea1829a9003092132f585b6ccdd167c19fe9774dbdea4260287e8a8e8ca8185d7d0bcf4df132c65dad73803c5e5e1c826f151a3342680034a8a4c8e5f8eb0c13c3e65e660a0d3d61f62bb0309259c5a3ded6558e90d0e8aff997e553e7b030a7533fe247d78fee2e7fd135c405eda4bd2911c0a73c0a81b36c3bcc967dd06e5ae02dd7bc7dec4dceedda775e58dd541e08a116c6c53815c0bd028192f7b626800cd5ed15c6e187e77e9aee88184c21f4f2182ab5827cb3b7e07fbedcd63f033009b779b17422d0df92223018b32b4d1fa46e071723d6817e2486d003becc55f00a264697066735822122045b75c9605341b8a861f571778543dacb05f14cdc1e846f7ea2b14fd06071abc64736f6c63430008140033",
    "linkReferences": {}
  },
  "methodIdentifiers": {
    "BridgeFinalizeERC20(uint256,uint256,address,address,uint256,uint256,uint256)": "92d84738",
    "BridgeFinalizeETH(uint256,uint256,address,uint256,uint256,uint256)": "38731c47",
    "BridgeFinalizeWETH(uint256,uint256,address,uint256,uint256,uint256)": "5765a4eb",
    "BridgeInitiateERC20(uint256,uint256,address,address,uint256)": "3b0230f0",
    "BridgeInitiateETH(uint256,uint256,address)": "9b442380",
    "BridgeInitiateWETH(uint256,uint256,address,uint256)": "cd01c665",
    "ClaimAllReward()": "2c37388b",
    "ClaimbyID(uint256)": "34d34ef5",
    "CompletePoolAndNew((uint32,uint32,address,uint256,uint256,uint256,bool)[])": "3338562c",
    "DEFAULT_ADMIN_ROLE()": "a217fddf",
    "DepositAndStaking(address,uint256)": "9ab0b652",
    "DepositAndStakingERC20(address,uint256)": "4dfaef84",
    "DepositAndStakingETH()": "96f984e6",
    "DepositAndStakingWETH(uint256)": "bc42493d",
    "FeePoolValue(address)": "54dc027e",
    "IsSupportChainId(uint256)": "72fe6a7e",
    "IsSupportStableCoin(address)": "ed06da87",
    "IsSupportToken(address)": "dac29568",
    "L2WETH()": "b1887e9b",
    "MinStakeAmount(address)": "1ca2f173",
    "MinTransferAmount()": "09dc480c",
    "PerFee()": "dd0c3460",
    "Pools(address,uint256)": "4663cdc8",
    "QuickSendAssertToUser(address,address,uint256)": "325e5d43",
    "ReLayer()": "fa861848",
    "SetSupportToken(address,bool,uint32)": "faeb96a5",
    "SupportTokens(uint256)": "626417b5",
    "TransferAssertToBridge(uint256,address,address,uint256)": "f91fa9a8",
    "Users(address,uint256)": "13e8544e",
    "WithdrawAll()": "5a648bc5",
    "WithdrawByID(uint256)": "f62a89cf",
    "balances(address)": "27e235e3",
    "getPool(address,uint256)": "5b5b9ea2",
    "getPoolLength(address)": "f8fcc2aa",
    "getRoleAdmin(bytes32)": "248a9ca3",
    "getUser(address)": "6f77926b",
    "getUser(address,uint256)": "ff2bf64f",
    "getUserLength(address)": "cb4f04ad",
    "grantRole(bytes32,address)": "2f2ff15d",
    "hasRole(bytes32,address)": "91d14854",
    "initialize(address,address)": "485cc955",
    "messageManager()": "10875a13",
    "pause()": "8456cb59",
    "paused()": "5c975abb",
    "periodTime()": "1d31fac0",
    "renounceRole(bytes32,address)": "36568abe",
    "revokeRole(bytes32,address)": "d547741f",
    "setMinStakeAmount(address,uint256)": "cb314fab",
    "setMinTransferAmount(uint256)": "b92e6396",
    "setPerFee(uint256)": "650c2276",
    "setSupportStableCoin(address,bool)": "b33280dd",
    "setValidChainId(uint256,bool)": "d73f14e5",
    "supportsInterface(bytes4)": "01ffc9a7",
    "unpause()": "3f4ba83a"
  },
  "id": 57
}