{"abi":[{"type":"constructor","inputs":[],"stateMutability":"nonpayable"},{"type":"function","name":"BridgeFinalizeERC20","inputs":[{"name":"sourceChainId","type":"uint256","internalType":"uint256"},{"name":"destChainId","type":"uint256","internalType":"uint256"},{"name":"to","type":"address","internalType":"address"},{"name":"ERC20Address","type":"address","internalType":"address"},{"name":"amount","type":"uint256","internalType":"uint256"},{"name":"_fee","type":"uint256","internalType":"uint256"},{"name":"_nonce","type":"uint256","internalType":"uint256"}],"outputs":[{"name":"","type":"bool","internalType":"bool"}],"stateMutability":"nonpayable"},{"type":"function","name":"BridgeFinalizeETH","inputs":[{"name":"sourceChainId","type":"uint256","internalType":"uint256"},{"name":"destChainId","type":"uint256","internalType":"uint256"},{"name":"to","type":"address","internalType":"address"},{"name":"amount","type":"uint256","internalType":"uint256"},{"name":"_fee","type":"uint256","internalType":"uint256"},{"name":"_nonce","type":"uint256","internalType":"uint256"}],"outputs":[{"name":"","type":"bool","internalType":"bool"}],"stateMutability":"payable"},{"type":"function","name":"BridgeFinalizeWETH","inputs":[{"name":"sourceChainId","type":"uint256","internalType":"uint256"},{"name":"destChainId","type":"uint256","internalType":"uint256"},{"name":"to","type":"address","internalType":"address"},{"name":"amount","type":"uint256","internalType":"uint256"},{"name":"_fee","type":"uint256","internalType":"uint256"},{"name":"_nonce","type":"uint256","internalType":"uint256"}],"outputs":[{"name":"","type":"bool","internalType":"bool"}],"stateMutability":"nonpayable"},{"type":"function","name":"BridgeInitiateERC20","inputs":[{"name":"sourceChainId","type":"uint256","internalType":"uint256"},{"name":"destChainId","type":"uint256","internalType":"uint256"},{"name":"to","type":"address","internalType":"address"},{"name":"ERC20Address","type":"address","internalType":"address"},{"name":"value","type":"uint256","internalType":"uint256"}],"outputs":[{"name":"","type":"bool","internalType":"bool"}],"stateMutability":"nonpayable"},{"type":"function","name":"BridgeInitiateETH","inputs":[{"name":"sourceChainId","type":"uint256","internalType":"uint256"},{"name":"destChainId","type":"uint256","internalType":"uint256"},{"name":"to","type":"address","internalType":"address"}],"outputs":[{"name":"","type":"bool","internalType":"bool"}],"stateMutability":"payable"},{"type":"function","name":"BridgeInitiateWETH","inputs":[{"name":"sourceChainId","type":"uint256","internalType":"uint256"},{"name":"destChainId","type":"uint256","internalType":"uint256"},{"name":"to","type":"address","internalType":"address"},{"name":"value","type":"uint256","internalType":"uint256"}],"outputs":[{"name":"","type":"bool","internalType":"bool"}],"stateMutability":"nonpayable"},{"type":"function","name":"ClaimAllReward","inputs":[],"outputs":[],"stateMutability":"nonpayable"},{"type":"function","name":"ClaimbyID","inputs":[{"name":"i","type":"uint256","internalType":"uint256"}],"outputs":[],"stateMutability":"nonpayable"},{"type":"function","name":"CompletePoolAndNew","inputs":[{"name":"CompletePools","type":"tuple[]","internalType":"struct IL1PoolManager.Pool[]","components":[{"name":"startTimestamp","type":"uint32","internalType":"uint32"},{"name":"endTimestamp","type":"uint32","internalType":"uint32"},{"name":"token","type":"address","internalType":"address"},{"name":"TotalAmount","type":"uint256","internalType":"uint256"},{"name":"TotalFee","type":"uint256","internalType":"uint256"},{"name":"TotalFeeClaimed","type":"uint256","internalType":"uint256"},{"name":"IsCompleted","type":"bool","internalType":"bool"}]}],"outputs":[],"stateMutability":"payable"},{"type":"function","name":"DEFAULT_ADMIN_ROLE","inputs":[],"outputs":[{"name":"","type":"bytes32","internalType":"bytes32"}],"stateMutability":"view"},{"type":"function","name":"DepositAndStaking","inputs":[{"name":"_token","type":"address","internalType":"address"},{"name":"_amount","type":"uint256","internalType":"uint256"}],"outputs":[],"stateMutability":"payable"},{"type":"function","name":"DepositAndStakingERC20","inputs":[{"name":"_token","type":"address","internalType":"address"},{"name":"_amount","type":"uint256","internalType":"uint256"}],"outputs":[],"stateMutability":"nonpayable"},{"type":"function","name":"DepositAndStakingETH","inputs":[],"outputs":[],"stateMutability":"payable"},{"type":"function","name":"DepositAndStakingWETH","inputs":[{"name":"amount","type":"uint256","internalType":"uint256"}],"outputs":[],"stateMutability":"nonpayable"},{"type":"function","name":"FeePoolValue","inputs":[{"name":"","type":"address","internalType":"address"}],"outputs":[{"name":"","type":"uint256","internalType":"uint256"}],"stateMutability":"view"},{"type":"function","name":"IsSupportChainId","inputs":[{"name":"chainId","type":"uint256","internalType":"uint256"}],"outputs":[{"name":"","type":"bool","internalType":"bool"}],"stateMutability":"view"},{"type":"function","name":"IsSupportStableCoin","inputs":[{"name":"ERC20Address","type":"address","internalType":"address"}],"outputs":[{"name":"","type":"bool","internalType":"bool"}],"stateMutability":"view"},{"type":"function","name":"IsSupportToken","inputs":[{"name":"","type":"address","internalType":"address"}],"outputs":[{"name":"","type":"bool","internalType":"bool"}],"stateMutability":"view"},{"type":"function","name":"L2WETH","inputs":[],"outputs":[{"name":"","type":"address","internalType":"address"}],"stateMutability":"view"},{"type":"function","name":"MinStakeAmount","inputs":[{"name":"","type":"address","internalType":"address"}],"outputs":[{"name":"","type":"uint256","internalType":"uint256"}],"stateMutability":"view"},{"type":"function","name":"MinTransferAmount","inputs":[],"outputs":[{"name":"","type":"uint256","internalType":"uint256"}],"stateMutability":"view"},{"type":"function","name":"PerFee","inputs":[],"outputs":[{"name":"","type":"uint256","internalType":"uint256"}],"stateMutability":"view"},{"type":"function","name":"Pools","inputs":[{"name":"","type":"address","internalType":"address"},{"name":"","type":"uint256","internalType":"uint256"}],"outputs":[{"name":"startTimestamp","type":"uint32","internalType":"uint32"},{"name":"endTimestamp","type":"uint32","internalType":"uint32"},{"name":"token","type":"address","internalType":"address"},{"name":"TotalAmount","type":"uint256","internalType":"uint256"},{"name":"TotalFee","type":"uint256","internalType":"uint256"},{"name":"TotalFeeClaimed","type":"uint256","internalType":"uint256"},{"name":"IsCompleted","type":"bool","internalType":"bool"}],"stateMutability":"view"},{"type":"function","name":"QuickSendAssertToUser","inputs":[{"name":"_token","type":"address","internalType":"address"},{"name":"to","type":"address","internalType":"address"},{"name":"_amount","type":"uint256","internalType":"uint256"}],"outputs":[],"stateMutability":"nonpayable"},{"type":"function","name":"ReLayer","inputs":[],"outputs":[{"name":"","type":"bytes32","internalType":"bytes32"}],"stateMutability":"view"},{"type":"function","name":"SetSupportToken","inputs":[{"name":"_token","type":"address","internalType":"address"},{"name":"_isSupport","type":"bool","internalType":"bool"},{"name":"startTimes","type":"uint32","internalType":"uint32"}],"outputs":[],"stateMutability":"nonpayable"},{"type":"function","name":"SupportTokens","inputs":[{"name":"","type":"uint256","internalType":"uint256"}],"outputs":[{"name":"","type":"address","internalType":"address"}],"stateMutability":"view"},{"type":"function","name":"TransferAssertToBridge","inputs":[{"name":"Blockchain","type":"uint256","internalType":"uint256"},{"name":"_token","type":"address","internalType":"address"},{"name":"_to","type":"address","internalType":"address"},{"name":"_amount","type":"uint256","internalType":"uint256"}],"outputs":[],"stateMutability":"nonpayable"},{"type":"function","name":"Users","inputs":[{"name":"","type":"address","internalType":"address"},{"name":"","type":"uint256","internalType":"uint256"}],"outputs":[{"name":"isWithdrawed","type":"bool","internalType":"bool"},{"name":"token","type":"address","internalType":"address"},{"name":"StartPoolId","type":"uint256","internalType":"uint256"},{"name":"EndPoolId","type":"uint256","internalType":"uint256"},{"name":"Amount","type":"uint256","internalType":"uint256"}],"stateMutability":"view"},{"type":"function","name":"WithdrawAll","inputs":[],"outputs":[],"stateMutability":"nonpayable"},{"type":"function","name":"WithdrawByID","inputs":[{"name":"i","type":"uint256","internalType":"uint256"}],"outputs":[],"stateMutability":"nonpayable"},{"type":"function","name":"balances","inputs":[{"name":"","type":"address","internalType":"address"}],"outputs":[{"name":"","type":"uint256","internalType":"uint256"}],"stateMutability":"view"},{"type":"function","name":"getPool","inputs":[{"name":"_token","type":"address","internalType":"address"},{"name":"_index","type":"uint256","internalType":"uint256"}],"outputs":[{"name":"","type":"tuple","internalType":"struct IL1PoolManager.Pool","components":[{"name":"startTimestamp","type":"uint32","internalType":"uint32"},{"name":"endTimestamp","type":"uint32","internalType":"uint32"},{"name":"token","type":"address","internalType":"address"},{"name":"TotalAmount","type":"uint256","internalType":"uint256"},{"name":"TotalFee","type":"uint256","internalType":"uint256"},{"name":"TotalFeeClaimed","type":"uint256","internalType":"uint256"},{"name":"IsCompleted","type":"bool","internalType":"bool"}]}],"stateMutability":"view"},{"type":"function","name":"getPoolLength","inputs":[{"name":"_token","type":"address","internalType":"address"}],"outputs":[{"name":"","type":"uint256","internalType":"uint256"}],"stateMutability":"view"},{"type":"function","name":"getRoleAdmin","inputs":[{"name":"role","type":"bytes32","internalType":"bytes32"}],"outputs":[{"name":"","type":"bytes32","internalType":"bytes32"}],"stateMutability":"view"},{"type":"function","name":"getUser","inputs":[{"name":"_user","type":"address","internalType":"address"}],"outputs":[{"name":"","type":"tuple[]","internalType":"struct IL1PoolManager.User[]","components":[{"name":"isWithdrawed","type":"bool","internalType":"bool"},{"name":"token","type":"address","internalType":"address"},{"name":"StartPoolId","type":"uint256","internalType":"uint256"},{"name":"EndPoolId","type":"uint256","internalType":"uint256"},{"name":"Amount","type":"uint256","internalType":"uint256"}]}],"stateMutability":"view"},{"type":"function","name":"getUser","inputs":[{"name":"_user","type":"address","internalType":"address"},{"name":"_index","type":"uint256","internalType":"uint256"}],"outputs":[{"name":"","type":"tuple","internalType":"struct IL1PoolManager.User","components":[{"name":"isWithdrawed","type":"bool","internalType":"bool"},{"name":"token","type":"address","internalType":"address"},{"name":"StartPoolId","type":"uint256","internalType":"uint256"},{"name":"EndPoolId","type":"uint256","internalType":"uint256"},{"name":"Amount","type":"uint256","internalType":"uint256"}]}],"stateMutability":"view"},{"type":"function","name":"getUserLength","inputs":[{"name":"_user","type":"address","internalType":"address"}],"outputs":[{"name":"","type":"uint256","internalType":"uint256"}],"stateMutability":"view"},{"type":"function","name":"grantRole","inputs":[{"name":"role","type":"bytes32","internalType":"bytes32"},{"name":"account","type":"address","internalType":"address"}],"outputs":[],"stateMutability":"nonpayable"},{"type":"function","name":"hasRole","inputs":[{"name":"role","type":"bytes32","internalType":"bytes32"},{"name":"account","type":"address","internalType":"address"}],"outputs":[{"name":"","type":"bool","internalType":"bool"}],"stateMutability":"view"},{"type":"function","name":"initialize","inputs":[{"name":"_MultisigWallet","type":"address","internalType":"address"},{"name":"_messageManager","type":"address","internalType":"address"}],"outputs":[],"stateMutability":"nonpayable"},{"type":"function","name":"messageManager","inputs":[],"outputs":[{"name":"","type":"address","internalType":"contract IMessageManager"}],"stateMutability":"view"},{"type":"function","name":"pause","inputs":[],"outputs":[],"stateMutability":"nonpayable"},{"type":"function","name":"paused","inputs":[],"outputs":[{"name":"","type":"bool","internalType":"bool"}],"stateMutability":"view"},{"type":"function","name":"periodTime","inputs":[],"outputs":[{"name":"","type":"uint32","internalType":"uint32"}],"stateMutability":"view"},{"type":"function","name":"renounceRole","inputs":[{"name":"role","type":"bytes32","internalType":"bytes32"},{"name":"callerConfirmation","type":"address","internalType":"address"}],"outputs":[],"stateMutability":"nonpayable"},{"type":"function","name":"revokeRole","inputs":[{"name":"role","type":"bytes32","internalType":"bytes32"},{"name":"account","type":"address","internalType":"address"}],"outputs":[],"stateMutability":"nonpayable"},{"type":"function","name":"setMinStakeAmount","inputs":[{"name":"_token","type":"address","internalType":"address"},{"name":"_amount","type":"uint256","internalType":"uint256"}],"outputs":[],"stateMutability":"nonpayable"},{"type":"function","name":"setMinTransferAmount","inputs":[{"name":"_MinTransferAmount","type":"uint256","internalType":"uint256"}],"outputs":[],"stateMutability":"nonpayable"},{"type":"function","name":"setPerFee","inputs":[{"name":"_PerFee","type":"uint256","internalType":"uint256"}],"outputs":[],"stateMutability":"nonpayable"},{"type":"function","name":"setSupportStableCoin","inputs":[{"name":"ERC20Address","type":"address","internalType":"address"},{"name":"isValid","type":"bool","internalType":"bool"}],"outputs":[],"stateMutability":"nonpayable"},{"type":"function","name":"setValidChainId","inputs":[{"name":"chainId","type":"uint256","internalType":"uint256"},{"name":"isValid","type":"bool","internalType":"bool"}],"outputs":[],"stateMutability":"nonpayable"},{"type":"function","name":"supportsInterface","inputs":[{"name":"interfaceId","type":"bytes4","internalType":"bytes4"}],"outputs":[{"name":"","type":"bool","internalType":"bool"}],"stateMutability":"view"},{"type":"function","name":"unpause","inputs":[],"outputs":[],"stateMutability":"nonpayable"},{"type":"event","name":"ClaimEvent","inputs":[{"name":"user","type":"address","indexed":true,"internalType":"address"},{"name":"startPoolId","type":"uint256","indexed":false,"internalType":"uint256"},{"name":"endPoolId","type":"uint256","indexed":false,"internalType":"uint256"},{"name":"token","type":"address","indexed":true,"internalType":"address"},{"name":"amount","type":"uint256","indexed":false,"internalType":"uint256"},{"name":"fee","type":"uint256","indexed":false,"internalType":"uint256"}],"anonymous":false},{"type":"event","name":"ClaimReward","inputs":[{"name":"_user","type":"address","indexed":false,"internalType":"address"},{"name":"startPoolId","type":"uint256","indexed":false,"internalType":"uint256"},{"name":"EndPoolId","type":"uint256","indexed":false,"internalType":"uint256"},{"name":"_token","type":"address","indexed":false,"internalType":"address"},{"name":"Reward","type":"uint256","indexed":false,"internalType":"uint256"}],"anonymous":false},{"type":"event","name":"CompletePoolEvent","inputs":[{"name":"token","type":"address","indexed":true,"internalType":"address"},{"name":"poolIndex","type":"uint256","indexed":false,"internalType":"uint256"}],"anonymous":false},{"type":"event","name":"FinalizeERC20","inputs":[{"name":"sourceChainId","type":"uint256","indexed":false,"internalType":"uint256"},{"name":"destChainId","type":"uint256","indexed":false,"internalType":"uint256"},{"name":"ERC20Address","type":"address","indexed":true,"internalType":"address"},{"name":"from","type":"address","indexed":true,"internalType":"address"},{"name":"to","type":"address","indexed":true,"internalType":"address"},{"name":"value","type":"uint256","indexed":false,"internalType":"uint256"}],"anonymous":false},{"type":"event","name":"FinalizeETH","inputs":[{"name":"sourceChainId","type":"uint256","indexed":false,"internalType":"uint256"},{"name":"destChainId","type":"uint256","indexed":false,"internalType":"uint256"},{"name":"from","type":"address","indexed":true,"internalType":"address"},{"name":"to","type":"address","indexed":true,"internalType":"address"},{"name":"value","type":"uint256","indexed":false,"internalType":"uint256"}],"anonymous":false},{"type":"event","name":"FinalizeWETH","inputs":[{"name":"sourceChainId","type":"uint256","indexed":false,"internalType":"uint256"},{"name":"destChainId","type":"uint256","indexed":false,"internalType":"uint256"},{"name":"from","type":"address","indexed":true,"internalType":"address"},{"name":"to","type":"address","indexed":true,"internalType":"address"},{"name":"value","type":"uint256","indexed":false,"internalType":"uint256"}],"anonymous":false},{"type":"event","name":"Initialized","inputs":[{"name":"version","type":"uint64","indexed":false,"internalType":"uint64"}],"anonymous":false},{"type":"event","name":"InitiateERC20","inputs":[{"name":"sourceChainId","type":"uint256","indexed":false,"internalType":"uint256"},{"name":"destChainId","type":"uint256","indexed":false,"internalType":"uint256"},{"name":"ERC20Address","type":"address","indexed":true,"internalType":"address"},{"name":"from","type":"address","indexed":true,"internalType":"address"},{"name":"to","type":"address","indexed":true,"internalType":"address"},{"name":"value","type":"uint256","indexed":false,"internalType":"uint256"}],"anonymous":false},{"type":"event","name":"InitiateETH","inputs":[{"name":"sourceChainId","type":"uint256","indexed":false,"internalType":"uint256"},{"name":"destChainId","type":"uint256","indexed":false,"internalType":"uint256"},{"name":"from","type":"address","indexed":true,"internalType":"address"},{"name":"to","type":"address","indexed":true,"internalType":"address"},{"name":"value","type":"uint256","indexed":false,"internalType":"uint256"}],"anonymous":false},{"type":"event","name":"InitiateWETH","inputs":[{"name":"sourceChainId","type":"uint256","indexed":false,"internalType":"uint256"},{"name":"destChainId","type":"uint256","indexed":false,"internalType":"uint256"},{"name":"from","type":"address","indexed":true,"internalType":"address"},{"name":"to","type":"address","indexed":true,"internalType":"address"},{"name":"value","type":"uint256","indexed":false,"internalType":"uint256"}],"anonymous":false},{"type":"event","name":"Paused","inputs":[{"name":"account","type":"address","indexed":false,"internalType":"address"}],"anonymous":false},{"type":"event","name":"RoleAdminChanged","inputs":[{"name":"role","type":"bytes32","indexed":true,"internalType":"bytes32"},{"name":"previousAdminRole","type":"bytes32","indexed":true,"internalType":"bytes32"},{"name":"newAdminRole","type":"bytes32","indexed":true,"internalType":"bytes32"}],"anonymous":false},{"type":"event","name":"RoleGranted","inputs":[{"name":"role","type":"bytes32","indexed":true,"internalType":"bytes32"},{"name":"account","type":"address","indexed":true,"internalType":"address"},{"name":"sender","type":"address","indexed":true,"internalType":"address"}],"anonymous":false},{"type":"event","name":"RoleRevoked","inputs":[{"name":"role","type":"bytes32","indexed":true,"internalType":"bytes32"},{"name":"account","type":"address","indexed":true,"internalType":"address"},{"name":"sender","type":"address","indexed":true,"internalType":"address"}],"anonymous":false},{"type":"event","name":"SetMinStakeAmountEvent","inputs":[{"name":"token","type":"address","indexed":true,"internalType":"address"},{"name":"amount","type":"uint256","indexed":false,"internalType":"uint256"}],"anonymous":false},{"type":"event","name":"SetSupportTokenEvent","inputs":[{"name":"token","type":"address","indexed":true,"internalType":"address"},{"name":"isSupport","type":"bool","indexed":false,"internalType":"bool"}],"anonymous":false},{"type":"event","name":"StakingETHEvent","inputs":[{"name":"user","type":"address","indexed":true,"internalType":"address"},{"name":"amount","type":"uint256","indexed":false,"internalType":"uint256"}],"anonymous":false},{"type":"event","name":"StakingWETHEvent","inputs":[{"name":"user","type":"address","indexed":true,"internalType":"address"},{"name":"amount","type":"uint256","indexed":false,"internalType":"uint256"}],"anonymous":false},{"type":"event","name":"StarkingERC20Event","inputs":[{"name":"user","type":"address","indexed":true,"internalType":"address"},{"name":"token","type":"address","indexed":true,"internalType":"address"},{"name":"amount","type":"uint256","indexed":false,"internalType":"uint256"}],"anonymous":false},{"type":"event","name":"TransferAssertTo","inputs":[{"name":"Blockchain","type":"uint256","indexed":false,"internalType":"uint256"},{"name":"token","type":"address","indexed":true,"internalType":"address"},{"name":"to","type":"address","indexed":true,"internalType":"address"},{"name":"amount","type":"uint256","indexed":false,"internalType":"uint256"}],"anonymous":false},{"type":"event","name":"Unpaused","inputs":[{"name":"account","type":"address","indexed":false,"internalType":"address"}],"anonymous":false},{"type":"event","name":"Withdraw","inputs":[{"name":"_user","type":"address","indexed":false,"internalType":"address"},{"name":"startPoolId","type":"uint256","indexed":false,"internalType":"uint256"},{"name":"EndPoolId","type":"uint256","indexed":false,"internalType":"uint256"},{"name":"_token","type":"address","indexed":false,"internalType":"address"},{"name":"Amount","type":"uint256","indexed":false,"internalType":"uint256"},{"name":"Reward","type":"uint256","indexed":false,"internalType":"uint256"}],"anonymous":false},{"type":"error","name":"AccessControlBadConfirmation","inputs":[]},{"type":"error","name":"AccessControlUnauthorizedAccount","inputs":[{"name":"account","type":"address","internalType":"address"},{"name":"neededRole","type":"bytes32","internalType":"bytes32"}]},{"type":"error","name":"AddressEmptyCode","inputs":[{"name":"target","type":"address","internalType":"address"}]},{"type":"error","name":"AddressInsufficientBalance","inputs":[{"name":"account","type":"address","internalType":"address"}]},{"type":"error","name":"AlreadyClaimed","inputs":[]},{"type":"error","name":"ChainIdIsNotSupported","inputs":[{"name":"id","type":"uint256","internalType":"uint256"}]},{"type":"error","name":"ChainIdNotSupported","inputs":[{"name":"chainId","type":"uint256","internalType":"uint256"}]},{"type":"error","name":"EnforcedPause","inputs":[]},{"type":"error","name":"ErrorBlockChain","inputs":[]},{"type":"error","name":"ExpectedPause","inputs":[]},{"type":"error","name":"FailedInnerCall","inputs":[]},{"type":"error","name":"InvalidInitialization","inputs":[]},{"type":"error","name":"LessThanMinStakeAmount","inputs":[{"name":"minAmount","type":"uint256","internalType":"uint256"},{"name":"providedAmount","type":"uint256","internalType":"uint256"}]},{"type":"error","name":"LessThanMinTransferAmount","inputs":[{"name":"MinTransferAmount","type":"uint256","internalType":"uint256"},{"name":"value","type":"uint256","internalType":"uint256"}]},{"type":"error","name":"LessThanZero","inputs":[{"name":"amount","type":"uint256","internalType":"uint256"}]},{"type":"error","name":"NewPoolIsNotCreate","inputs":[{"name":"PoolIndex","type":"uint256","internalType":"uint256"}]},{"type":"error","name":"NoReward","inputs":[]},{"type":"error","name":"NotEnoughETH","inputs":[]},{"type":"error","name":"NotEnoughToken","inputs":[{"name":"ERC20Address","type":"address","internalType":"address"}]},{"type":"error","name":"NotInitializing","inputs":[]},{"type":"error","name":"OutOfRange","inputs":[{"name":"PoolId","type":"uint256","internalType":"uint256"},{"name":"PoolLength","type":"uint256","internalType":"uint256"}]},{"type":"error","name":"PoolIsCompleted","inputs":[{"name":"poolIndex","type":"uint256","internalType":"uint256"}]},{"type":"error","name":"ReentrancyGuardReentrantCall","inputs":[]},{"type":"error","name":"SafeERC20FailedOperation","inputs":[{"name":"token","type":"address","internalType":"address"}]},{"type":"error","name":"StableCoinNotSupported","inputs":[{"name":"ERC20Address","type":"address","internalType":"address"}]},{"type":"error","name":"TokenIsAlreadySupported","inputs":[{"name":"token","type":"address","internalType":"address"},{"name":"isSupported","type":"bool","internalType":"bool"}]},{"type":"error","name":"TokenIsNotSupported","inputs":[{"name":"token","type":"address","internalType":"address"}]},{"type":"error","name":"sourceChainIdError","inputs":[]}],"bytecode":{"object":"0x60806040523480156200001157600080fd5b506200001c62000022565b620000d6565b7ff0c57e16840df040f15088dc2f81fe391c3923bec73e23a9662efc9c229c6a00805468010000000000000000900460ff1615620000735760405163f92ee8a960e01b815260040160405180910390fd5b80546001600160401b0390811614620000d35780546001600160401b0319166001600160401b0390811782556040519081527fc7f505b2f371ae2175ee4913f4499e1f2633a7b5936321eed1cdaeb6115181d29060200160405180910390a15b50565b61587780620000e66000396000f3fe6080604052600436106103355760003560e01c80636f77926b116101ab578063cb314fab116100f7578063ed06da8711610095578063f91fa9a81161006f578063f91fa9a814610aab578063fa86184814610acb578063faeb96a514610ae0578063ff2bf64f14610b0057600080fd5b8063ed06da8714610a1c578063f62a89cf14610a55578063f8fcc2aa14610a7557600080fd5b8063d547741f116100d1578063d547741f14610996578063d73f14e5146109b6578063dac29568146109d6578063dd0c346014610a0657600080fd5b8063cb314fab14610920578063cb4f04ad14610940578063cd01c6651461097657600080fd5b80639ab0b65211610164578063b1887e9b1161013e578063b1887e9b146108ab578063b33280dd146108c0578063b92e6396146108e0578063bc42493d1461090057600080fd5b80639ab0b652146108705780639b44238014610883578063a217fddf1461089657600080fd5b80636f77926b146107b657806372fe6a7e146107e35780638456cb591461081357806391d148541461082857806392d847381461084857806396f984e61461086857600080fd5b806336568abe1161028557806354dc027e116102235780635b5b9ea2116101fd5780635b5b9ea2146106ca5780635c975abb14610751578063626417b514610776578063650c22761461079657600080fd5b806354dc027e146106685780635765a4eb146106955780635a648bc5146106b557600080fd5b80633f4ba83a1161025f5780633f4ba83a146105a65780634663cdc8146105bb578063485cc955146106285780634dfaef841461064857600080fd5b806336568abe1461055357806338731c47146105735780633b0230f01461058657600080fd5b8063248a9ca3116102f25780632f2ff15d116102cc5780632f2ff15d146104e0578063325e5d43146105005780633338562c1461052057806334d34ef51461053357600080fd5b8063248a9ca31461047c57806327e235e31461049c5780632c37388b146104c957600080fd5b806301ffc9a71461033a57806309dc480c1461036f57806310875a131461039357806313e8544e146103cb5780631ca2f1731461041d5780631d31fac01461044a575b600080fd5b34801561034657600080fd5b5061035a610355366004614f64565b610b2d565b60405190151581526020015b60405180910390f35b34801561037b57600080fd5b5061038560015481565b604051908152602001610366565b34801561039f57600080fd5b506000546103b3906001600160a01b031681565b6040516001600160a01b039091168152602001610366565b3480156103d757600080fd5b506103eb6103e6366004614faa565b610b64565b6040805195151586526001600160a01b039094166020860152928401919091526060830152608082015260a001610366565b34801561042957600080fd5b50610385610438366004614fd4565b600c6020526000908152604090205481565b34801561045657600080fd5b506007546104679063ffffffff1681565b60405163ffffffff9091168152602001610366565b34801561048857600080fd5b50610385610497366004614fef565b610bbe565b3480156104a857600080fd5b506103856104b7366004614fd4565b60096020526000908152604090205481565b3480156104d557600080fd5b506104de610be0565b005b3480156104ec57600080fd5b506104de6104fb366004615008565b610c5a565b34801561050c57600080fd5b506104de61051b366004615034565b610c7c565b6104de61052e366004615102565b610cdc565b34801561053f57600080fd5b506104de61054e366004614fef565b611057565b34801561055f57600080fd5b506104de61056e366004615008565b6110e1565b61035a61058136600461521c565b611114565b34801561059257600080fd5b5061035a6105a136600461526d565b6112ef565b3480156105b257600080fd5b506104de6115f3565b3480156105c757600080fd5b506105db6105d6366004614faa565b611606565b6040805163ffffffff98891681529790961660208801526001600160a01b03909416948601949094526060850191909152608084015260a0830191909152151560c082015260e001610366565b34801561063457600080fd5b506104de6106433660046152bb565b61167b565b34801561065457600080fd5b506104de610663366004614faa565b6117b7565b34801561067457600080fd5b50610385610683366004614fd4565b60066020526000908152604090205481565b3480156106a157600080fd5b5061035a6106b036600461521c565b611a55565b3480156106c157600080fd5b506104de611c96565b3480156106d657600080fd5b506106ea6106e5366004614faa565b611cf8565b6040516103669190815163ffffffff9081168252602080840151909116908201526040808301516001600160a01b031690820152606080830151908201526080808301519082015260a0808301519082015260c09182015115159181019190915260e00190565b34801561075d57600080fd5b506000805160206158028339815191525460ff1661035a565b34801561078257600080fd5b506103b3610791366004614fef565b611ddc565b3480156107a257600080fd5b506104de6107b1366004614fef565b611e06565b3480156107c257600080fd5b506107d66107d1366004614fd4565b611e17565b604051610366919061531d565b3480156107ef57600080fd5b5061035a6107fe366004614fef565b60009081526003602052604090205460ff1690565b34801561081f57600080fd5b506104de611ec7565b34801561083457600080fd5b5061035a610843366004615008565b611eda565b34801561085457600080fd5b5061035a61086336600461536b565b611f12565b6104de61211d565b6104de61087e366004614faa565b61243f565b61035a6108913660046153cc565b6124ae565b3480156108a257600080fd5b50610385600081565b3480156108b757600080fd5b506103b36126c2565b3480156108cc57600080fd5b506104de6108db366004615401565b61270f565b3480156108ec57600080fd5b506104de6108fb366004614fef565b612746565b34801561090c57600080fd5b506104de61091b366004614fef565b61279a565b34801561092c57600080fd5b506104de61093b366004614faa565b612b26565b34801561094c57600080fd5b5061038561095b366004614fd4565b6001600160a01b03166000908152600b602052604090205490565b34801561098257600080fd5b5061035a610991366004615438565b612b8b565b3480156109a257600080fd5b506104de6109b1366004615008565b612f1c565b3480156109c257600080fd5b506104de6109d1366004615475565b612f38565b3480156109e257600080fd5b5061035a6109f1366004614fd4565b60086020526000908152604090205460ff1681565b348015610a1257600080fd5b5061038560025481565b348015610a2857600080fd5b5061035a610a37366004614fd4565b6001600160a01b031660009081526004602052604090205460ff1690565b348015610a6157600080fd5b506104de610a70366004614fef565b612f64565b348015610a8157600080fd5b50610385610a90366004614fd4565b6001600160a01b03166000908152600a602052604090205490565b348015610ab757600080fd5b506104de610ac636600461549a565b612fcb565b348015610ad757600080fd5b506103856130e9565b348015610aec57600080fd5b506104de610afb3660046154ce565b613131565b348015610b0c57600080fd5b50610b20610b1b366004614faa565b61342c565b604051610366919061550a565b60006001600160e01b03198216637965db0b60e01b1480610b5e57506301ffc9a760e01b6001600160e01b03198316145b92915050565b600b6020528160005260406000208181548110610b8057600080fd5b6000918252602090912060049091020180546001820154600283015460039093015460ff831695506101009092046001600160a01b03169350919085565b60009081526000805160206157c2833981519152602052604090206001015490565b610be86134f5565b610bf061352d565b60005b600d54811015610c4057610c2e33600d8381548110610c1457610c14615518565b60009182526020822001546001600160a01b03169061355e565b80610c3881615544565b915050610bf3565b50610c58600160008051602061582283398151915255565b565b610c6382610bbe565b610c6c81613c69565b610c768383613c73565b50505050565b60ff19610c9860016000805160206157a283398151915261555d565b604051602001610caa91815260200190565b6040516020818303038152906040528051906020012016610cca81613c69565b610cd5848484613d1f565b5050505050565b60ff19610cf860016000805160206157a283398151915261555d565b604051602001610d0a91815260200190565b6040516020818303038152906040528051906020012016610d2a81613c69565b60005b8251811015611052576000838281518110610d4a57610d4a615518565b602002602001015160400151905060006001600a6000846001600160a01b03166001600160a01b0316815260200190815260200160002080549050610d8f919061555d565b6001600160a01b0383166000908152600a60205260409020805491925060019183908110610dbf57610dbf615518565b906000526020600020906005020160040160006101000a81548160ff021916908315150217905550848381518110610df957610df9615518565b602002602001015160800151600a6000846001600160a01b03166001600160a01b031681526020019081526020016000208281548110610e3b57610e3b615518565b9060005260206000209060050201600201819055506000600a6000846001600160a01b03166001600160a01b031681526020019081526020016000208281548110610e8857610e88615518565b600091825260208083206005909202909101546001600160a01b0386168352600a8252604092839020835160e0810190945263ffffffff6401000000009092048216808552600754909550909392830191610ee4911685615570565b63ffffffff168152602001856001600160a01b03168152602001600a6000876001600160a01b03166001600160a01b031681526020019081526020016000208581548110610f3457610f34615518565b6000918252602080832060059283020160019081015485528482018490526040808601859052606095860185905287548083018955978552938290208651979093029092018054868301518786015163ffffffff998a1667ffffffffffffffff1990931692909217640100000000999091169890980297909717600160401b600160e01b031916600160401b6001600160a01b039889160217815593850151918401919091556080840151600284015560a0840151600384015560c0909301516004909201805460ff19169215159290921790915551848152918516917fb6f449f07ceaf55392c9899e0797c6529908ae827c2d498c682e90d42c241167910160405180910390a2505050808061104a90615544565b915050610d2d565b505050565b61105f6134f5565b61106761352d565b336000908152600b602052604090205481106110bb57336000908152600b60205260409081902054905163abe5c32f60e01b81526110b2918391600401918252602082015260400190565b60405180910390fd5b6110c733826000613e97565b6110de600160008051602061582283398151915255565b50565b6001600160a01b038116331461110a5760405163334bd91960e11b815260040160405180910390fd5b6110528282614505565b600060ff1961113260016000805160206157a283398151915261555d565b60405160200161114491815260200190565b604051602081830303815290604052805190602001201661116481613c69565b46881461118457604051631a26aa4d60e21b815260040160405180910390fd5b60008781526003602052604090205460ff166111b657604051632ef6974160e11b8152600481018890526024016110b2565b604051309086156108fc029087906000818181858888f193505050501580156111e3573d6000803e3d6000fd5b5073eeeeeeeeeeeeeeeeeeeeeeeeeeeeeeeeeeeeeeee60009081526005602052600080516020615762833981519152805487929061122290849061555d565b9091555050600054604051631eb65ffb60e01b81526001600160a01b0390911690631eb65ffb90611261908b908b908b908b908b908b9060040161558d565b600060405180830381600087803b15801561127b57600080fd5b505af115801561128f573d6000803e3d6000fd5b5050604080518b8152602081018b90529081018890526001600160a01b03891692503091507f61d99af9dd09bd984d42cc07939d4cba4388e85aa29b3cc88df954e4ca719f329060600160405180910390a3506001979650505050505050565b600046861461131157604051631a26aa4d60e21b815260040160405180910390fd5b60008581526003602052604090205460ff1661134357604051632ef6974160e11b8152600481018690526024016110b2565b6001600160a01b03831660009081526004602052604090205460ff1661138757604051631e859bc960e01b81526001600160a01b03841660048201526024016110b2565b6040516370a0823160e01b81523060048201526000906001600160a01b038516906370a0823190602401602060405180830381865afa1580156113ce573d6000803e3d6000fd5b505050506040513d601f19601f820116820180604052508101906113f291906155be565b90506114096001600160a01b038516333086614581565b6040516370a0823160e01b81523060048201526000906001600160a01b038616906370a0823190602401602060405180830381865afa158015611450573d6000803e3d6000fd5b505050506040513d601f19601f8201168201806040525081019061147491906155be565b90506000611482838361555d565b73eeeeeeeeeeeeeeeeeeeeeeeeeeeeeeeeeeeeeeee60009081526005602052600080516020615762833981519152805492935087929091906114c59084906155d7565b9091555050600254600090620f4240906114df90846155ea565b6114e99190615601565b90506114f5818361555d565b6001600160a01b0388166000908152600660205260408120805492945083929091906115229084906155d7565b909155505060005460405163305f478560e21b81526001600160a01b039091169063c17d1e149061155f908d908d908d908c908890600401615623565b600060405180830381600087803b15801561157957600080fd5b505af115801561158d573d6000803e3d6000fd5b5050604080518d8152602081018d90529081018590526001600160a01b03808c1693503392508a16907fece797608c81cc46a09f9859cf8ef650ec541b5da6989f30acb30dba9b8a40a49060600160405180910390a45060019998505050505050505050565b60006115fe81613c69565b6110de6145db565b600a602052816000526040600020818154811061162257600080fd5b60009182526020909120600590910201805460018201546002830154600384015460049094015463ffffffff80851697506401000000008504169550600160401b9093046001600160a01b031693919290919060ff1687565b7ff0c57e16840df040f15088dc2f81fe391c3923bec73e23a9662efc9c229c6a008054600160401b810460ff16159067ffffffffffffffff166000811580156116c15750825b905060008267ffffffffffffffff1660011480156116de5750303b155b9050811580156116ec575080155b1561170a5760405163f92ee8a960e01b815260040160405180910390fd5b845467ffffffffffffffff19166001178555831561173457845460ff60401b1916600160401b1785555b61173c61463b565b611744614643565b61174c614653565b6117568787614663565b6007805463ffffffff1916621baf8017905583156117ae57845460ff60401b19168555604051600181527fc7f505b2f371ae2175ee4913f4499e1f2633a7b5936321eed1cdaeb6115181d29060200160405180910390a15b50505050505050565b6117bf6134f5565b6117c761352d565b6001600160a01b03821660009081526008602052604090205460ff1661180b576040516305fd61ad60e01b81526001600160a01b03831660048201526024016110b2565b6001600160a01b0382166000908152600c6020526040902054811015611869576001600160a01b0382166000908152600c6020526040908190205490516327500c6d60e21b81526004810191909152602481018290526044016110b2565b61187e6001600160a01b038316333084614581565b6001600160a01b0382166000908152600a60205260408120546118a39060019061555d565b6001600160a01b0384166000908152600a6020526040902080549192504291839081106118d2576118d2615518565b600091825260209091206005909102015463ffffffff1611156119dd57336000908152600b60209081526040808320815160a0810183528481526001600160a01b0388811682860181815283860189815260608501898152608086018c8152875460018082018a55988c528a8c2097516004909102909701805494516001600160a81b0319909516971515610100600160a81b03191697909717610100949096169390930294909417855551948401949094559051600283015591516003909101558352600a90915290208054839190839081106119b2576119b2615518565b906000526020600020906005020160010160008282546119d291906155d7565b909155506119f99050565b604051637d58ebb960e01b8152600481018290526024016110b2565b6040518281526001600160a01b0384169033907f3ac7d3823c11677fba9479ed26f696a3f17e16a5a5c39162fa6d183905aa67359060200160405180910390a350611a51600160008051602061582283398151915255565b5050565b600060ff19611a7360016000805160206157a283398151915261555d565b604051602001611a8591815260200190565b6040516020818303038152906040528051906020012016611aa581613c69565b468814611ac557604051631a26aa4d60e21b815260040160405180910390fd5b60008781526003602052604090205460ff16611af757604051632ef6974160e11b8152600481018890526024016110b2565b6000611b016126c2565b6040516323b872dd60e01b81529091506001600160a01b038216906323b872dd90611b349030908b908b9060040161564f565b6020604051808303816000875af1158015611b53573d6000803e3d6000fd5b505050506040513d601f19601f82011682018060405250810190611b779190615673565b50737b79995e5f793a07bc00c21412e50ecae098e7f9600090815260056020527f829e8def660755af2885cd0c70a20faf63a23880cdec1aa4b5f0ea2eb5e45a158054889290611bc890849061555d565b9091555050600054604051631eb65ffb60e01b81526001600160a01b0390911690631eb65ffb90611c07908c908c908c908c908c908c9060040161558d565b600060405180830381600087803b158015611c2157600080fd5b505af1158015611c35573d6000803e3d6000fd5b5050604080518c8152602081018c90529081018990526001600160a01b038a1692503091507f7dc80be13e04000533f3763be4b9359a36a0aeb0daabbf09fd96c3a275c1cc149060600160405180910390a350600198975050505050505050565b611c9e6134f5565b611ca661352d565b60005b600d54811015610c4057611ce633600d8381548110611cca57611cca615518565b6000918252602090912001546001600160a01b0316600161355e565b80611cf081615544565b915050611ca9565b6040805160e08101825260008082526020808301829052828401829052606083018290526080830182905260a0830182905260c083018290526001600160a01b0386168252600a905291909120805483908110611d5757611d57615518565b60009182526020918290206040805160e081018252600593909302909101805463ffffffff808216855264010000000082041694840194909452600160401b9093046001600160a01b0316908201526001820154606082015260028201546080820152600382015460a082015260049091015460ff16151560c0820152905092915050565b600d8181548110611dec57600080fd5b6000918252602090912001546001600160a01b0316905081565b6000611e1181613c69565b50600255565b6001600160a01b0381166000908152600b60209081526040808320805482518185028101850190935280835260609492939192909184015b82821015611ebc5760008481526020908190206040805160a08101825260048602909201805460ff81161515845261010090046001600160a01b03168385015260018082015492840192909252600281015460608401526003015460808301529083529092019101611e4f565b505050509050919050565b6000611ed281613c69565b6110de6146ac565b60009182526000805160206157c2833981519152602090815260408084206001600160a01b0393909316845291905290205460ff1690565b600060ff19611f3060016000805160206157a283398151915261555d565b604051602001611f4291815260200190565b6040516020818303038152906040528051906020012016611f6281613c69565b468914611f8257604051631a26aa4d60e21b815260040160405180910390fd5b60008881526003602052604090205460ff16611fb457604051632ef6974160e11b8152600481018990526024016110b2565b6001600160a01b03861660009081526004602052604090205460ff16611ff857604051631e859bc960e01b81526001600160a01b03871660048201526024016110b2565b61200d6001600160a01b038716308988614581565b73eeeeeeeeeeeeeeeeeeeeeeeeeeeeeeeeeeeeeeee60009081526005602052600080516020615762833981519152805487929061204b90849061555d565b9091555050600054604051631eb65ffb60e01b81526001600160a01b0390911690631eb65ffb9061208a908c908c908c908b908b908b9060040161558d565b600060405180830381600087803b1580156120a457600080fd5b505af11580156120b8573d6000803e3d6000fd5b5050604080518c8152602081018c90529081018890526001600160a01b03808b1693503092508916907f0f50ec03884adc78b9840a90cf8805a70ffe160f18d6b83198103b6fade443fe9060600160405180910390a450600198975050505050505050565b6121256134f5565b61212d61352d565b73eeeeeeeeeeeeeeeeeeeeeeeeeeeeeeeeeeeeeeee600052600c6020527f36dda7fac5d19118789d83982ba89ab2ea0a81d18d22af2919c731e22f75f227543410156121d55773eeeeeeeeeeeeeeeeeeeeeeeeeeeeeeeeeeeeeeee600052600c6020527f36dda7fac5d19118789d83982ba89ab2ea0a81d18d22af2919c731e22f75f227546040516327500c6d60e21b815260048101919091523460248201526044016110b2565b73eeeeeeeeeeeeeeeeeeeeeeeeeeeeeeeeeeeeeeee6000908152600a602052600080516020615782833981519152546122109060019061555d565b73eeeeeeeeeeeeeeeeeeeeeeeeeeeeeeeeeeeeeeee6000908152600a602052600080516020615782833981519152549192500361226357604051637d58ebb960e01b8152600160048201526024016110b2565b73eeeeeeeeeeeeeeeeeeeeeeeeeeeeeeeeeeeeeeee600052600a6020526000805160206157828339815191528054429190839081106122a4576122a4615518565b600091825260209091206005909102015463ffffffff1611156123cb57336000908152600b60209081526040808320815160a08101835284815273eeeeeeeeeeeeeeeeeeeeeeeeeeeeeeeeeeeeeeee818501818152938201878152606083018781523460808501818152865460018082018955978b52898b2096516004909102909601805498516001600160a81b0319909916961515610100600160a81b031916969096176101006001600160a01b03909916989098029790971785559151948401949094559251600283015592516003909101559252600a90526000805160206157828339815191528054839081106123a0576123a0615518565b906000526020600020906005020160010160008282546123c091906155d7565b909155506123f29050565b6123d68160016155d7565b604051637d58ebb960e01b81526004016110b291815260200190565b60405134815233907fe7466ea83435490635fc76a5f33da4815758ab48b1d45858f0452ca6465569379060200160405180910390a250610c58600160008051602061582283398151915255565b61244761352d565b341561245557611a5161211d565b737b79995e5f793a07bc00c21412e50ecae098e7f8196001600160a01b0383160161248357611a518161279a565b6001600160a01b03821660009081526008602052604090205460ff1615611a5157611a5182826117b7565b60004684146124d057604051631a26aa4d60e21b815260040160405180910390fd5b60008381526003602052604090205460ff1661250257604051632ef6974160e11b8152600481018490526024016110b2565b600154341015612532576001546040516358f8331360e11b815260048101919091523460248201526044016110b2565b73eeeeeeeeeeeeeeeeeeeeeeeeeeeeeeeeeeeeeeee6000908152600560205260008051602061576283398151915280543492906125709084906155d7565b9091555050600254600090620f42409061258a90346155ea565b6125949190615601565b905060006125a2823461555d565b73eeeeeeeeeeeeeeeeeeeeeeeeeeeeeeeeeeeeeeee600090815260066020527fa2e5aefc6e2cbe2917a296f0fd89c5f915c487c803db1d98eccb43f14012d711805492935084929091906125f79084906155d7565b909155505060005460405163305f478560e21b81526001600160a01b039091169063c17d1e14906126349046908990899034908990600401615623565b600060405180830381600087803b15801561264e57600080fd5b505af1158015612662573d6000803e3d6000fd5b505060408051898152602081018990529081018490526001600160a01b03871692503391507f0b671089787b6d29f730bc690214e6a7e28064fef5a3cdbb9b930a22fac01dc59060600160405180910390a36001925050505b9392505050565b6000466208274f8190036126de576004605360981b0191505090565b8062aa37dc036126f6576006602160991b0191505090565b604051639474dee160e01b815260040160405180910390fd5b600061271a81613c69565b506001600160a01b03919091166000908152600460205260409020805460ff1916911515919091179055565b60ff1961276260016000805160206157a283398151915261555d565b60405160200161277491815260200190565b604051602081830303815290604052805190602001201661279481613c69565b50600155565b6127a26134f5565b6127aa61352d565b737b79995e5f793a07bc00c21412e50ecae098e7f9600052600c6020527f1f630bb78f586d56c6f7bad190d70ffeeb2a572c5145348dbd70c134e13c6ca25481101561283f5760008052600c6020527f13649b2456f1b42fef0f0040b3aaeabcd21a76a0f3f5defd4f583839455116e8546040516327500c6d60e21b81526004810191909152602481018290526044016110b2565b6040516323b872dd60e01b8152737b79995e5f793a07bc00c21412e50ecae098e7f9906323b872dd9061287a9033903090869060040161564f565b6020604051808303816000875af1158015612899573d6000803e3d6000fd5b505050506040513d601f19601f820116820180604052508101906128bd9190615673565b50737b79995e5f793a07bc00c21412e50ecae098e7f96000908152600a6020526000805160206157e2833981519152546128f99060019061555d565b737b79995e5f793a07bc00c21412e50ecae098e7f9600052600a6020526000805160206157e28339815191528054919250908290811061293b5761293b615518565b600091825260209091206004600590920201015460ff1615612973576040516311cf1b0760e31b8152600481018290526024016110b2565b737b79995e5f793a07bc00c21412e50ecae098e7f9600052600a6020526000805160206157e28339815191528054429190839081106129b4576129b4615518565b600091825260209091206005909102015463ffffffff161115612ad957336000908152600b60209081526040808320815160a081018352848152737b79995e5f793a07bc00c21412e50ecae098e7f981850181815293820187815260608301878152608084018a8152855460018181018855968a52888a2095516004909102909501805497516001600160a01b031661010002610100600160a81b0319961515969096166001600160a81b0319909816979097179490941786559051938501939093559151600284015551600390920191909155909152600a90526000805160206157e2833981519152805483919083908110612ab357612ab3615518565b90600052602060002090600502016001016000828254612ad391906155d7565b90915550505b60405182815233907fc138e3bd6d13eefa5cb01c0d35c5794001141efaf4e5ad888cad059935f833839060200160405180910390a2506110de600160008051602061582283398151915255565b6000612b3181613c69565b6001600160a01b0383166000818152600c602052604090819020849055517ff54d3b756d286b6b08e5d4eda6dfe5b135664abf029e58e637cbf013c442c95090612b7e9085815260200190565b60405180910390a2505050565b6000468514612bad57604051631a26aa4d60e21b815260040160405180910390fd5b60008481526003602052604090205460ff16612bdf576040516363b5c9db60e01b8152600481018590526024016110b2565b6000612be96126c2565b6040516370a0823160e01b81523060048201529091506000906001600160a01b038316906370a0823190602401602060405180830381865afa158015612c33573d6000803e3d6000fd5b505050506040513d601f19601f82011682018060405250810190612c5791906155be565b6040516323b872dd60e01b81529091506001600160a01b038316906323b872dd90612c8a9033903090899060040161564f565b6020604051808303816000875af1158015612ca9573d6000803e3d6000fd5b505050506040513d601f19601f82011682018060405250810190612ccd9190615673565b506040516370a0823160e01b81523060048201526000906001600160a01b038416906370a0823190602401602060405180830381865afa158015612d15573d6000803e3d6000fd5b505050506040513d601f19601f82011682018060405250810190612d3991906155be565b90506000612d47838361555d565b9050600154811015612d7a576001546040516358f8331360e11b81526004810191909152602481018290526044016110b2565b737b79995e5f793a07bc00c21412e50ecae098e7f9600090815260056020527f829e8def660755af2885cd0c70a20faf63a23880cdec1aa4b5f0ea2eb5e45a158054839290612dca9084906155d7565b9091555050600254600090620f424090612de490846155ea565b612dee9190615601565b9050612dfa818361555d565b737b79995e5f793a07bc00c21412e50ecae098e7f9600090815260066020527f8ef771da3f30afd94a16eb54b799a2e73a5167bb0a9e2c1c2712198516aa80dc80549294508392909190612e4f9084906155d7565b909155505060005460405163305f478560e21b81526001600160a01b039091169063c17d1e1490612e8c908d908d908d908d908890600401615623565b600060405180830381600087803b158015612ea657600080fd5b505af1158015612eba573d6000803e3d6000fd5b5050604080518d8152602081018d90529081018590526001600160a01b038b1692503391507fcb9e641636f35317739cff2833f1831bf3a25b930b5615ada09367c080d64a899060600160405180910390a35060019998505050505050505050565b612f2582610bbe565b612f2e81613c69565b610c768383614505565b6000612f4381613c69565b50600091825260036020526040909120805460ff1916911515919091179055565b612f6c6134f5565b612f7461352d565b336000908152600b60205260409020548110612fbf57336000908152600b60205260409081902054905163abe5c32f60e01b81526110b2918391600401918252602082015260400190565b6110c733826001613e97565b60ff19612fe760016000805160206157a283398151915261555d565b604051602001612ff991815260200190565b604051602081830303815290604052805190602001201661301981613c69565b6001600160a01b03841660009081526008602052604090205460ff1661305d576040516305fd61ad60e01b81526001600160a01b03851660048201526024016110b2565b846208274f03613077576130728484846146f5565b61308c565b8462aa37dc036126f657613072848484614b26565b826001600160a01b0316846001600160a01b03167f08ffba656e4ac665e1aa4bb6a342e1a69d4cc12fd751ac862fa3fe27b0c7524a87856040516130da929190918252602082015260400190565b60405180910390a35050505050565b60ff1961310560016000805160206157a283398151915261555d565b60405160200161311791815260200190565b604051602081830303815290604052805190602001201681565b600061313c81613c69565b6001600160a01b03841660009081526008602052604090205460ff16156131895760405163411befff60e11b81526001600160a01b038516600482015283151560248201526044016110b2565b6001600160a01b0384166000908152600860209081526040808320805460ff1916871515179055600a90915290819020815160e0810190925260075490919081906131da9063ffffffff1686615690565b63ffffffff908116825285811660208084018290526001600160a01b03808b166040808701829052600060608089018290526080808a0183905260a0808b0184905260c09a8b018490528c5460018181018f559d85528885208d5160059092020180548e8b01518f890151909a16600160401b02600160401b600160e01b03199a8e166401000000000267ffffffffffffffff19909216938e16939093171798909816178755918b01519b86019b909b5599890151600285015598880151600384015596909501516004909101805491151560ff19909216919091179055928552600a835293839020835160e08101909452938352600754918301916132e1911686615570565b63ffffffff90811682526001600160a01b038881166020808501829052600060408087018290526060808801839052608080890184905260a09889018490528a5460018082018d559b85528585208b5160059092020180548c8801518d870151938c1667ffffffffffffffff199092169190911764010000000091909b160299909917600160401b600160e01b031916600160401b9190981602969096178755880151868a015593870151600286015594860151600385015560c0909501516004909301805460ff191693151593909317909255600d805495860181559092527fd7b6990105719101dabeb77144f2a3385c8033acd3af97e9423a695e81ad1eb590930180546001600160a01b031916841790555185151581527fc8c34f23fafb34e68119c1d231ef03d0d47225b15e2c4de3efbefa14b0181d86910160405180910390a250505050565b6134696040518060a0016040528060001515815260200160006001600160a01b031681526020016000815260200160008152602001600081525090565b6001600160a01b0383166000908152600b6020526040902080548390811061349357613493615518565b60009182526020918290206040805160a081018252600493909302909101805460ff81161515845261010090046001600160a01b0316938301939093526001830154908201526002820154606082015260039091015460808201529392505050565b60008051602061582283398151915280546001190161352757604051633ee5aeb560e01b815260040160405180910390fd5b60029055565b6000805160206158028339815191525460ff1615610c585760405163d93c066560e01b815260040160405180910390fd5b6001600160a01b0382166000908152600a6020526040812054900361359957604051637d58ebb960e01b8152600060048201526024016110b2565b60005b6001600160a01b0384166000908152600b6020526040902054811015610c76576001600160a01b038481166000908152600b602052604090208054839286169190839081106135ed576135ed615518565b600091825260209091206004909102015461010090046001600160a01b031603613c41576001600160a01b0385166000908152600b6020526040902080548290811061363b5761363b615518565b600091825260209091206004909102015460ff161561365a5750613c43565b6001600160a01b0384166000908152600a602052604081205461367f9060019061555d565b6001600160a01b0387166000908152600b60205260409020805491925090839081106136ad576136ad615518565b906000526020600020906004020160030154600a6000876001600160a01b03166001600160a01b0316815260200190815260200160002082815481106136f5576136f5615518565b90600052602060002090600502016001016000828254613715919061555d565b90915550506001600160a01b0386166000908152600b6020526040812080548291908590811061374757613747615518565b90600052602060002090600402016003015490506000600b60008a6001600160a01b03166001600160a01b03168152602001908152602001600020858154811061379357613793615518565b9060005260206000209060040201600101549050838111156137c85760405163374c934360e11b815260040160405180910390fd5b805b84811015613928576001600160a01b0389166000908152600a60205260409020546137f79060019061555d565b81111561381a57604051637d58ebb960e01b8152600481018290526024016110b2565b6001600160a01b0389166000908152600a6020526040812080548390811061384457613844615518565b906000526020600020906005020160010154600a60008c6001600160a01b03166001600160a01b03168152602001908152602001600020838154811061388c5761388c615518565b906000526020600020906005020160020154856138a991906155ea565b6138b39190615601565b90506138bf81866155d7565b6001600160a01b038b166000908152600a6020526040902080549196508291849081106138ee576138ee615518565b9060005260206000209060050201600301600082825461390e91906155d7565b90915550829150613920905081615544565b9150506137ca565b50600083116139655760405162461bcd60e51b8152602060048201526009602482015268139bc814995dd85c9960ba1b60448201526064016110b2565b61396f83836155d7565b91508615613c3c576001600160a01b0389166000908152600b60205260409020805460019190879081106139a5576139a5615518565b60009182526020909120600490910201805460ff19169115159190911790556139cf888a85613d1f565b506001600160a01b0389166000908152600b602052604090205460011015613b95576001600160a01b0389166000908152600b602052604090208054613a179060019061555d565b81548110613a2757613a27615518565b9060005260206000209060040201600b60008b6001600160a01b03166001600160a01b031681526020019081526020016000208681548110613a6b57613a6b615518565b600091825260208083208454600490930201805460ff909316151560ff1984168117825585546001600160a01b03610100918290048116909102610100600160a81b03199092166001600160a81b03199095169490941717815560018086015490820155600280860154908201556003948501549401939093558b168152600b90915260409020805480613b0157613b016156ad565b60008281526020812060046000199093019283020180546001600160a81b0319168155600181018290556002810182905560030155905585613b42816156c3565b96507f0ad30059d4072ae2525ebaaa5b6878f1c50df5f3b921615031c7d0f12dc4a77b90508982868b613b75888861555d565b88604051613b88969594939291906156e0565b60405180910390a1613c3c565b6001600160a01b0389166000908152600b60205260409020805485919087908110613bc257613bc2615518565b906000526020600020906004020160010181905550613be2888a84613d1f565b50604080516001600160a01b038b81168252602082018490528183018790528a1660608201526080810185905290517f7e6fedb6f824b2112ac0626ced32f6be6324d554cc03efd112aa021ee4d740ac9181900360a00190a15b505050505b505b80613c4d8161571a565b91505061359c565b600160008051602061582283398151915255565b6110de8133614cc7565b60006000805160206157c2833981519152613c8e8484611eda565b613d0e576000848152602082815260408083206001600160a01b03871684529091529020805460ff19166001179055613cc43390565b6001600160a01b0316836001600160a01b0316857f2f8788117e7eff1d82e926ec794901d17c78024a50270940304540a733656f0d60405160405180910390a46001915050610b5e565b6000915050610b5e565b5092915050565b6001600160a01b03831660009081526004602052604081205460ff16613d6357604051631e859bc960e01b81526001600160a01b03851660048201526024016110b2565b73eeeeeeeeeeeeeeeeeeeeeeeeeeeeeeeeeeeeeeed196001600160a01b03851601613de55781471015613da957604051632c1d501360e11b815260040160405180910390fd5b6040516001600160a01b0384169083156108fc029084906000818181858888f19350505050158015613ddf573d6000803e3d6000fd5b50613e8d565b6040516370a0823160e01b815230600482015282906001600160a01b038616906370a0823190602401602060405180830381865afa158015613e2b573d6000803e3d6000fd5b505050506040513d601f19601f82011682018060405250810190613e4f91906155be565b1015613e79576040516311745b6160e21b81526001600160a01b03851660048201526024016110b2565b613e8d6001600160a01b0385168484614d00565b5060019392505050565b6001600160a01b0383166000908152600b60205260408120805484908110613ec157613ec1615518565b600091825260208083206004909202909101546001600160a01b0361010090910416808352600a9091526040822054909250613eff9060019061555d565b6001600160a01b0386166000908152600b6020526040902080549192509085908110613f2d57613f2d615518565b906000526020600020906004020160030154600a6000846001600160a01b03166001600160a01b031681526020019081526020016000208281548110613f7557613f75615518565b90600052602060002090600502016001016000828254613f95919061555d565b90915550506001600160a01b0385166000908152600b60205260408120805482919087908110613fc757613fc7615518565b90600052602060002090600402016003015490506000600b6000896001600160a01b03166001600160a01b03168152602001908152602001600020878154811061401357614013615518565b9060005260206000209060040201600101549050838111156140485760405163374c934360e11b815260040160405180910390fd5b805b848110156141a8576001600160a01b0386166000908152600a60205260409020546140779060019061555d565b81111561409a57604051637d58ebb960e01b8152600481018290526024016110b2565b6001600160a01b0386166000908152600a602052604081208054839081106140c4576140c4615518565b906000526020600020906005020160010154600a6000896001600160a01b03166001600160a01b03168152602001908152602001600020838154811061410c5761410c615518565b9060005260206000209060050201600201548561412991906155ea565b6141339190615601565b905061413f81866155d7565b6001600160a01b0388166000908152600a60205260409020805491965082918490811061416e5761416e615518565b9060005260206000209060050201600301600082825461418e91906155d7565b909155508291506141a0905081615544565b91505061404a565b50600083116141e55760405162461bcd60e51b8152602060048201526009602482015268139bc814995dd85c9960ba1b60448201526064016110b2565b6141ef83836155d7565b6001600160a01b0389166000908152600b6020526040902080549193506001918990811061421f5761421f615518565b60009182526020909120600490910201805460ff191691151591909117905585156144fb576001600160a01b0388166000908152600b602052604090208054600191908990811061427257614272615518565b60009182526020909120600490910201805460ff191691151591909117905561429c858985613d1f565b506001600160a01b0388166000908152600b602052604090205460011015614454576001600160a01b0388166000908152600b6020526040902080546142e49060019061555d565b815481106142f4576142f4615518565b9060005260206000209060040201600b60008a6001600160a01b03166001600160a01b03168152602001908152602001600020888154811061433857614338615518565b600091825260208083208454600490930201805460ff909316151560ff1984168117825585546001600160a01b03610100918290048116909102610100600160a81b03199092166001600160a81b03199095169490941717815560018086015490820155600280860154908201556003948501549401939093558a168152600b909152604090208054806143ce576143ce6156ad565b60008281526020812060046000199093019283020180546001600160a81b031916815560018101829055600281018290556003015590557f0ad30059d4072ae2525ebaaa5b6878f1c50df5f3b921615031c7d0f12dc4a77b88828688614434888861555d565b88604051614447969594939291906156e0565b60405180910390a16144fb565b6001600160a01b0388166000908152600b6020526040902080548591908990811061448157614481615518565b9060005260206000209060040201600101819055506144a1858984613d1f565b50604080516001600160a01b038a8116825260208201849052818301879052871660608201526080810185905290517f7e6fedb6f824b2112ac0626ced32f6be6324d554cc03efd112aa021ee4d740ac9181900360a00190a15b5050505050505050565b60006000805160206157c28339815191526145208484611eda565b15613d0e576000848152602082815260408083206001600160a01b0387168085529252808320805460ff1916905551339287917ff6391f5c32d9c69d2a47ea670b442974b53935d1edc7fd64eb21e047a839171b9190a46001915050610b5e565b610c7684856001600160a01b03166323b872dd8686866040516024016145a99392919061564f565b604051602081830303815290604052915060e01b6020820180516001600160e01b038381831617835250505050614d31565b6145e3614d94565b600080516020615802833981519152805460ff191681557f5db9ee0a495bf2e6ff9c91a7834c1ba4fdd244a5e8aa4e537bd38aeae4b073aa335b6040516001600160a01b03909116815260200160405180910390a150565b610c58614dc4565b61464b614dc4565b610c58614e0d565b61465b614dc4565b610c58614e15565b61466b614dc4565b67016345785d8a0000600155612710600255614688600083613c73565b50600080546001600160a01b0319166001600160a01b039290921691909117905550565b6146b461352d565b600080516020615802833981519152805460ff191660011781557f62e78cea01bee320cd4e420270b5ea74000d11b0c9f74754ebdbfc544b05a2583361461d565b73eeeeeeeeeeeeeeeeeeeeeeeeeeeeeeeeeeeeeeed196001600160a01b0384160161482757604051636bb825d760e11b815262029810600482015260009073f0b2293f5d834eae920c6974d50957a1732de7639063d7704bae90602401602060405180830381865afa15801561476f573d6000803e3d6000fd5b505050506040513d601f19601f8201168201806040525081019061479391906155be565b9050738a54a2347da2562917304141ab67324615e9866d63ce0b63ce6147b983856155d7565b6040516001600160e01b031960e084901b1681526001600160a01b0387166004820152602481018690526202981060448201526064016000604051808303818588803b15801561480857600080fd5b505af115801561481c573d6000803e3d6000fd5b505050505050505050565b737b79995e5f793a07bc00c21412e50ecae098e7f8196001600160a01b038416016149ce57604051636bb825d760e11b8152614e20600482015260009073f0b2293f5d834eae920c6974d50957a1732de7639063d7704bae90602401602060405180830381865afa1580156148a0573d6000803e3d6000fd5b505050506040513d601f19601f820116820180604052508101906148c491906155be565b60405163095ea7b360e01b8152738a54a2347da2562917304141ab67324615e9866d6004820152602481018490529091506001600160a01b0385169063095ea7b3906044016020604051808303816000875af1158015614928573d6000803e3d6000fd5b505050506040513d601f19601f8201168201806040525081019061494c9190615673565b5060405163790cfd3360e11b81526001600160a01b0380861660048301528416602482015260448101839052614e206064820152738a54a2347da2562917304141ab67324615e9866d9063f219fa66906084015b600060405180830381600087803b1580156149ba57600080fd5b505af11580156144fb573d6000803e3d6000fd5b604051636bb825d760e11b8152614e20600482015260009073f0b2293f5d834eae920c6974d50957a1732de7639063d7704bae90602401602060405180830381865afa158015614a22573d6000803e3d6000fd5b505050506040513d601f19601f82011682018060405250810190614a4691906155be565b60405163095ea7b360e01b8152738a54a2347da2562917304141ab67324615e9866d6004820152602481018490529091506001600160a01b0385169063095ea7b3906044016020604051808303816000875af1158015614aaa573d6000803e3d6000fd5b505050506040513d601f19601f82011682018060405250810190614ace9190615673565b5060405163790cfd3360e11b81526001600160a01b0380861660048301528416602482015260448101839052614e2060648201527365d123d6389b900d954677c26327bfc1c3e88a139063f219fa66906084016149a0565b73eeeeeeeeeeeeeeeeeeeeeeeeeeeeeeeeeeeeeeed196001600160a01b03841601614bb657604051639a2ac6d560e01b81526001600160a01b038316600482015260006024820181905260606044830152606482015273fbb0621e0b23b5478b630bd55a5f21f67730b0f190639a2ac6d59083906084016000604051808303818588803b1580156149ba57600080fd5b6000614bc184614e36565b60405163095ea7b360e01b815273fbb0621e0b23b5478b630bd55a5f21f67730b0f16004820152602481018490529091506001600160a01b0385169063095ea7b3906044016020604051808303816000875af1158015614c25573d6000803e3d6000fd5b505050506040513d601f19601f82011682018060405250810190614c499190615673565b5073fbb0621e0b23b5478b630bd55a5f21f67730b0f163838b2520858386865a6040516001600160e01b031960e088901b1681526001600160a01b0395861660048201529385166024850152939091166044830152606482015263ffffffff91909116608482015260c060a4820152600060c482015260e4016149a0565b614cd18282611eda565b611a515760405163e2517d3f60e01b81526001600160a01b0382166004820152602481018390526044016110b2565b6040516001600160a01b0383811660248301526044820183905261105291859182169063a9059cbb906064016145a9565b6000614d466001600160a01b03841683614e5d565b90508051600014158015614d6b575080806020019051810190614d699190615673565b155b1561105257604051635274afe760e01b81526001600160a01b03841660048201526024016110b2565b6000805160206158028339815191525460ff16610c5857604051638dfc202b60e01b815260040160405180910390fd5b7ff0c57e16840df040f15088dc2f81fe391c3923bec73e23a9662efc9c229c6a0054600160401b900460ff16610c5857604051631afcd79f60e31b815260040160405180910390fd5b613c55614dc4565b614e1d614dc4565b600080516020615802833981519152805460ff19169055565b6040516305fd61ad60e01b81526001600160a01b03821660048201526000906024016110b2565b60606126bb8383600084600080856001600160a01b03168486604051614e839190615732565b60006040518083038185875af1925050503d8060008114614ec0576040519150601f19603f3d011682016040523d82523d6000602084013e614ec5565b606091505b5091509150614ed5868383614edf565b9695505050505050565b606082614ef457614eef82614f3b565b6126bb565b8151158015614f0b57506001600160a01b0384163b155b15614f3457604051639996b31560e01b81526001600160a01b03851660048201526024016110b2565b50806126bb565b805115614f4b5780518082602001fd5b604051630a12f52160e11b815260040160405180910390fd5b600060208284031215614f7657600080fd5b81356001600160e01b0319811681146126bb57600080fd5b80356001600160a01b0381168114614fa557600080fd5b919050565b60008060408385031215614fbd57600080fd5b614fc683614f8e565b946020939093013593505050565b600060208284031215614fe657600080fd5b6126bb82614f8e565b60006020828403121561500157600080fd5b5035919050565b6000806040838503121561501b57600080fd5b8235915061502b60208401614f8e565b90509250929050565b60008060006060848603121561504957600080fd5b61505284614f8e565b925061506060208501614f8e565b9150604084013590509250925092565b634e487b7160e01b600052604160045260246000fd5b60405160e0810167ffffffffffffffff811182821017156150a9576150a9615070565b60405290565b604051601f8201601f1916810167ffffffffffffffff811182821017156150d8576150d8615070565b604052919050565b803563ffffffff81168114614fa557600080fd5b80151581146110de57600080fd5b6000602080838503121561511557600080fd5b823567ffffffffffffffff8082111561512d57600080fd5b818501915085601f83011261514157600080fd5b81358181111561515357615153615070565b615161848260051b016150af565b818152848101925060e091820284018501918883111561518057600080fd5b938501935b828510156152105780858a03121561519d5760008081fd5b6151a5615086565b6151ae866150e0565b81526151bb8787016150e0565b8782015260406151cc818801614f8e565b90820152606086810135908201526080808701359082015260a0808701359082015260c0808701356151fd816150f4565b9082015284529384019392850192615185565b50979650505050505050565b60008060008060008060c0878903121561523557600080fd5b863595506020870135945061524c60408801614f8e565b9350606087013592506080870135915060a087013590509295509295509295565b600080600080600060a0868803121561528557600080fd5b853594506020860135935061529c60408701614f8e565b92506152aa60608701614f8e565b949793965091946080013592915050565b600080604083850312156152ce57600080fd5b6152d783614f8e565b915061502b60208401614f8e565b8051151582526020808201516001600160a01b0316908301526040808201519083015260608082015190830152608090810151910152565b6020808252825182820181905260009190848201906040850190845b8181101561535f5761534c8385516152e5565b9284019260a09290920191600101615339565b50909695505050505050565b600080600080600080600060e0888a03121561538657600080fd5b873596506020880135955061539d60408901614f8e565b94506153ab60608901614f8e565b9699959850939660808101359560a0820135955060c0909101359350915050565b6000806000606084860312156153e157600080fd5b83359250602084013591506153f860408501614f8e565b90509250925092565b6000806040838503121561541457600080fd5b61541d83614f8e565b9150602083013561542d816150f4565b809150509250929050565b6000806000806080858703121561544e57600080fd5b843593506020850135925061546560408601614f8e565b9396929550929360600135925050565b6000806040838503121561548857600080fd5b82359150602083013561542d816150f4565b600080600080608085870312156154b057600080fd5b843593506154c060208601614f8e565b925061546560408601614f8e565b6000806000606084860312156154e357600080fd5b6154ec84614f8e565b925060208401356154fc816150f4565b91506153f8604085016150e0565b60a08101610b5e82846152e5565b634e487b7160e01b600052603260045260246000fd5b634e487b7160e01b600052601160045260246000fd5b6000600182016155565761555661552e565b5060010190565b81810381811115610b5e57610b5e61552e565b63ffffffff818116838216019080821115613d1857613d1861552e565b95865260208601949094526001600160a01b039290921660408501526060840152608083015260a082015260c00190565b6000602082840312156155d057600080fd5b5051919050565b80820180821115610b5e57610b5e61552e565b8082028115828204841417610b5e57610b5e61552e565b60008261561e57634e487b7160e01b600052601260045260246000fd5b500490565b94855260208501939093526001600160a01b039190911660408401526060830152608082015260a00190565b6001600160a01b039384168152919092166020820152604081019190915260600190565b60006020828403121561568557600080fd5b81516126bb816150f4565b63ffffffff828116828216039080821115613d1857613d1861552e565b634e487b7160e01b600052603160045260246000fd5b6000600160ff1b82016156d8576156d861552e565b506000190190565b6001600160a01b0396871681526020810195909552604085019390935293166060830152608082019290925260a081019190915260c00190565b60006001600160ff1b0182016155565761555661552e565b6000825160005b818110156157535760208186018101518583015201615739565b50600092019182525091905056fea1829a9003092132f585b6ccdd167c19fe9774dbdea4260287e8a8e8ca8185d73e65e660a0d3d61f62bb0309259c5a3ded6558e90d0e8aff997e553e7b030a7533fe247d78fee2e7fd135c405eda4bd2911c0a73c0a81b36c3bcc967dd06e5ae02dd7bc7dec4dceedda775e58dd541e08a116c6c53815c0bd028192f7b626800a30f906602f701a9569b48d2a4e3162e90a34e696f2195540d01cdd6bdd0ec7fcd5ed15c6e187e77e9aee88184c21f4f2182ab5827cb3b7e07fbedcd63f033009b779b17422d0df92223018b32b4d1fa46e071723d6817e2486d003becc55f00a264697066735822122024a4459ec0045ab0f8f6a40abeb039d883590ff6d8a3a27c21062167e7bc933a64736f6c63430008140033","linkReferences":{}},"methodIdentifiers":{"BridgeFinalizeERC20(uint256,uint256,address,address,uint256,uint256,uint256)":"92d84738","BridgeFinalizeETH(uint256,uint256,address,uint256,uint256,uint256)":"38731c47","BridgeFinalizeWETH(uint256,uint256,address,uint256,uint256,uint256)":"5765a4eb","BridgeInitiateERC20(uint256,uint256,address,address,uint256)":"3b0230f0","BridgeInitiateETH(uint256,uint256,address)":"9b442380","BridgeInitiateWETH(uint256,uint256,address,uint256)":"cd01c665","ClaimAllReward()":"2c37388b","ClaimbyID(uint256)":"34d34ef5","CompletePoolAndNew((uint32,uint32,address,uint256,uint256,uint256,bool)[])":"3338562c","DEFAULT_ADMIN_ROLE()":"a217fddf","DepositAndStaking(address,uint256)":"9ab0b652","DepositAndStakingERC20(address,uint256)":"4dfaef84","DepositAndStakingETH()":"96f984e6","DepositAndStakingWETH(uint256)":"bc42493d","FeePoolValue(address)":"54dc027e","IsSupportChainId(uint256)":"72fe6a7e","IsSupportStableCoin(address)":"ed06da87","IsSupportToken(address)":"dac29568","L2WETH()":"b1887e9b","MinStakeAmount(address)":"1ca2f173","MinTransferAmount()":"09dc480c","PerFee()":"dd0c3460","Pools(address,uint256)":"4663cdc8","QuickSendAssertToUser(address,address,uint256)":"325e5d43","ReLayer()":"fa861848","SetSupportToken(address,bool,uint32)":"faeb96a5","SupportTokens(uint256)":"626417b5","TransferAssertToBridge(uint256,address,address,uint256)":"f91fa9a8","Users(address,uint256)":"13e8544e","WithdrawAll()":"5a648bc5","WithdrawByID(uint256)":"f62a89cf","balances(address)":"27e235e3","getPool(address,uint256)":"5b5b9ea2","getPoolLength(address)":"f8fcc2aa","getRoleAdmin(bytes32)":"248a9ca3","getUser(address)":"6f77926b","getUser(address,uint256)":"ff2bf64f","getUserLength(address)":"cb4f04ad","grantRole(bytes32,address)":"2f2ff15d","hasRole(bytes32,address)":"91d14854","initialize(address,address)":"485cc955","messageManager()":"10875a13","pause()":"8456cb59","paused()":"5c975abb","periodTime()":"1d31fac0","renounceRole(bytes32,address)":"36568abe","revokeRole(bytes32,address)":"d547741f","setMinStakeAmount(address,uint256)":"cb314fab","setMinTransferAmount(uint256)":"b92e6396","setPerFee(uint256)":"650c2276","setSupportStableCoin(address,bool)":"b33280dd","setValidChainId(uint256,bool)":"d73f14e5","supportsInterface(bytes4)":"01ffc9a7","unpause()":"3f4ba83a"},"id":49}