{
  "abi": [
    {
      "inputs": [],
      "stateMutability": "nonpayable",
      "type": "constructor"
    },
    {
      "inputs": [],
      "name": "AccessControlBadConfirmation",
      "type": "error"
    },
    {
      "inputs": [
        {
          "internalType": "address",
          "name": "account",
          "type": "address"
        },
        {
          "internalType": "bytes32",
          "name": "neededRole",
          "type": "bytes32"
        }
      ],
      "name": "AccessControlUnauthorizedAccount",
      "type": "error"
    },
    {
      "inputs": [
        {
          "internalType": "address",
          "name": "target",
          "type": "address"
        }
      ],
      "name": "AddressEmptyCode",
      "type": "error"
    },
    {
      "inputs": [
        {
          "internalType": "address",
          "name": "account",
          "type": "address"
        }
      ],
      "name": "AddressInsufficientBalance",
      "type": "error"
    },
    {
      "inputs": [],
      "name": "AlreadyClaimed",
      "type": "error"
    },
    {
      "inputs": [
        {
          "internalType": "uint256",
          "name": "id",
          "type": "uint256"
        }
      ],
      "name": "ChainIdIsNotSupported",
      "type": "error"
    },
    {
      "inputs": [
        {
          "internalType": "uint256",
          "name": "chainId",
          "type": "uint256"
        }
      ],
      "name": "ChainIdNotSupported",
      "type": "error"
    },
    {
      "inputs": [],
      "name": "EnforcedPause",
      "type": "error"
    },
    {
      "inputs": [],
      "name": "ErrorBlockChain",
      "type": "error"
    },
    {
      "inputs": [],
      "name": "ExpectedPause",
      "type": "error"
    },
    {
      "inputs": [],
      "name": "FailedInnerCall",
      "type": "error"
    },
    {
      "inputs": [],
      "name": "InvalidInitialization",
      "type": "error"
    },
    {
      "inputs": [
        {
          "internalType": "uint256",
          "name": "minAmount",
          "type": "uint256"
        },
        {
          "internalType": "uint256",
          "name": "providedAmount",
          "type": "uint256"
        }
      ],
      "name": "LessThanMinStakeAmount",
      "type": "error"
    },
    {
      "inputs": [
        {
          "internalType": "uint256",
          "name": "MinTransferAmount",
          "type": "uint256"
        },
        {
          "internalType": "uint256",
          "name": "value",
          "type": "uint256"
        }
      ],
      "name": "LessThanMinTransferAmount",
      "type": "error"
    },
    {
      "inputs": [
        {
          "internalType": "uint256",
          "name": "amount",
          "type": "uint256"
        }
      ],
      "name": "LessThanZero",
      "type": "error"
    },
    {
      "inputs": [],
      "name": "MantaNotWETH",
      "type": "error"
    },
    {
      "inputs": [],
      "name": "MantleNotWETH",
      "type": "error"
    },
    {
      "inputs": [
        {
          "internalType": "uint256",
          "name": "PoolIndex",
          "type": "uint256"
        }
      ],
      "name": "NewPoolIsNotCreate",
      "type": "error"
    },
    {
      "inputs": [],
      "name": "NoReward",
      "type": "error"
    },
    {
      "inputs": [],
      "name": "NotEnoughETH",
      "type": "error"
    },
    {
      "inputs": [
        {
          "internalType": "address",
          "name": "ERC20Address",
          "type": "address"
        }
      ],
      "name": "NotEnoughToken",
      "type": "error"
    },
    {
      "inputs": [],
      "name": "NotInitializing",
      "type": "error"
    },
    {
      "inputs": [
        {
          "internalType": "uint256",
          "name": "PoolId",
          "type": "uint256"
        },
        {
          "internalType": "uint256",
          "name": "PoolLength",
          "type": "uint256"
        }
      ],
      "name": "OutOfRange",
      "type": "error"
    },
    {
      "inputs": [
        {
          "internalType": "uint256",
          "name": "poolIndex",
          "type": "uint256"
        }
      ],
      "name": "PoolIsCompleted",
      "type": "error"
    },
    {
      "inputs": [],
      "name": "ReentrancyGuardReentrantCall",
      "type": "error"
    },
    {
      "inputs": [
        {
          "internalType": "address",
          "name": "token",
          "type": "address"
        }
      ],
      "name": "SafeERC20FailedOperation",
      "type": "error"
    },
    {
      "inputs": [
        {
          "internalType": "address",
          "name": "token",
          "type": "address"
        },
        {
          "internalType": "bool",
          "name": "isSupported",
          "type": "bool"
        }
      ],
      "name": "TokenIsAlreadySupported",
      "type": "error"
    },
    {
      "inputs": [
        {
          "internalType": "address",
          "name": "ERC20Address",
          "type": "address"
        }
      ],
      "name": "TokenIsNotSupported",
      "type": "error"
    },
    {
      "inputs": [],
      "name": "sourceChainIdError",
      "type": "error"
    },
    {
      "anonymous": false,
      "inputs": [
        {
          "indexed": true,
          "internalType": "address",
          "name": "user",
          "type": "address"
        },
        {
          "indexed": false,
          "internalType": "uint256",
          "name": "startPoolId",
          "type": "uint256"
        },
        {
          "indexed": false,
          "internalType": "uint256",
          "name": "endPoolId",
          "type": "uint256"
        },
        {
          "indexed": true,
          "internalType": "address",
          "name": "token",
          "type": "address"
        },
        {
          "indexed": false,
          "internalType": "uint256",
          "name": "amount",
          "type": "uint256"
        },
        {
          "indexed": false,
          "internalType": "uint256",
          "name": "fee",
          "type": "uint256"
        }
      ],
      "name": "ClaimEvent",
      "type": "event"
    },
    {
      "anonymous": false,
      "inputs": [
        {
          "indexed": false,
          "internalType": "address",
          "name": "_user",
          "type": "address"
        },
        {
          "indexed": false,
          "internalType": "uint256",
          "name": "startPoolId",
          "type": "uint256"
        },
        {
          "indexed": false,
          "internalType": "uint256",
          "name": "EndPoolId",
          "type": "uint256"
        },
        {
          "indexed": false,
          "internalType": "address",
          "name": "_token",
          "type": "address"
        },
        {
          "indexed": false,
          "internalType": "uint256",
          "name": "Reward",
          "type": "uint256"
        }
      ],
      "name": "ClaimReward",
      "type": "event"
    },
    {
      "anonymous": false,
      "inputs": [
        {
          "indexed": true,
          "internalType": "address",
          "name": "token",
          "type": "address"
        },
        {
          "indexed": false,
          "internalType": "uint256",
          "name": "poolIndex",
          "type": "uint256"
        }
      ],
      "name": "CompletePoolEvent",
      "type": "event"
    },
    {
      "anonymous": false,
      "inputs": [
        {
          "indexed": false,
          "internalType": "uint256",
          "name": "sourceChainId",
          "type": "uint256"
        },
        {
          "indexed": false,
          "internalType": "uint256",
          "name": "destChainId",
          "type": "uint256"
        },
        {
          "indexed": true,
          "internalType": "address",
          "name": "ERC20Address",
          "type": "address"
        },
        {
          "indexed": true,
          "internalType": "address",
          "name": "from",
          "type": "address"
        },
        {
          "indexed": true,
          "internalType": "address",
          "name": "to",
          "type": "address"
        },
        {
          "indexed": false,
          "internalType": "uint256",
          "name": "value",
          "type": "uint256"
        }
      ],
      "name": "FinalizeERC20",
      "type": "event"
    },
    {
      "anonymous": false,
      "inputs": [
        {
          "indexed": false,
          "internalType": "uint256",
          "name": "sourceChainId",
          "type": "uint256"
        },
        {
          "indexed": false,
          "internalType": "uint256",
          "name": "destChainId",
          "type": "uint256"
        },
        {
          "indexed": true,
          "internalType": "address",
          "name": "from",
          "type": "address"
        },
        {
          "indexed": true,
          "internalType": "address",
          "name": "to",
          "type": "address"
        },
        {
          "indexed": false,
          "internalType": "uint256",
          "name": "value",
          "type": "uint256"
        }
      ],
      "name": "FinalizeETH",
      "type": "event"
    },
    {
      "anonymous": false,
      "inputs": [
        {
          "indexed": false,
          "internalType": "uint256",
          "name": "sourceChainId",
          "type": "uint256"
        },
        {
          "indexed": false,
          "internalType": "uint256",
          "name": "destChainId",
          "type": "uint256"
        },
        {
          "indexed": true,
          "internalType": "address",
          "name": "from",
          "type": "address"
        },
        {
          "indexed": true,
          "internalType": "address",
          "name": "to",
          "type": "address"
        },
        {
          "indexed": false,
          "internalType": "uint256",
          "name": "value",
          "type": "uint256"
        }
      ],
      "name": "FinalizeWETH",
      "type": "event"
    },
    {
      "anonymous": false,
      "inputs": [
        {
          "indexed": false,
          "internalType": "uint64",
          "name": "version",
          "type": "uint64"
        }
      ],
      "name": "Initialized",
      "type": "event"
    },
    {
      "anonymous": false,
      "inputs": [
        {
          "indexed": false,
          "internalType": "uint256",
          "name": "sourceChainId",
          "type": "uint256"
        },
        {
          "indexed": false,
          "internalType": "uint256",
          "name": "destChainId",
          "type": "uint256"
        },
        {
          "indexed": true,
          "internalType": "address",
          "name": "ERC20Address",
          "type": "address"
        },
        {
          "indexed": true,
          "internalType": "address",
          "name": "from",
          "type": "address"
        },
        {
          "indexed": true,
          "internalType": "address",
          "name": "to",
          "type": "address"
        },
        {
          "indexed": false,
          "internalType": "uint256",
          "name": "value",
          "type": "uint256"
        }
      ],
      "name": "InitiateERC20",
      "type": "event"
    },
    {
      "anonymous": false,
      "inputs": [
        {
          "indexed": false,
          "internalType": "uint256",
          "name": "sourceChainId",
          "type": "uint256"
        },
        {
          "indexed": false,
          "internalType": "uint256",
          "name": "destChainId",
          "type": "uint256"
        },
        {
          "indexed": true,
          "internalType": "address",
          "name": "from",
          "type": "address"
        },
        {
          "indexed": true,
          "internalType": "address",
          "name": "to",
          "type": "address"
        },
        {
          "indexed": false,
          "internalType": "uint256",
          "name": "value",
          "type": "uint256"
        }
      ],
      "name": "InitiateETH",
      "type": "event"
    },
    {
      "anonymous": false,
      "inputs": [
        {
          "indexed": false,
          "internalType": "uint256",
          "name": "sourceChainId",
          "type": "uint256"
        },
        {
          "indexed": false,
          "internalType": "uint256",
          "name": "destChainId",
          "type": "uint256"
        },
        {
          "indexed": true,
          "internalType": "address",
          "name": "from",
          "type": "address"
        },
        {
          "indexed": true,
          "internalType": "address",
          "name": "to",
          "type": "address"
        },
        {
          "indexed": false,
          "internalType": "uint256",
          "name": "value",
          "type": "uint256"
        }
      ],
      "name": "InitiateWETH",
      "type": "event"
    },
    {
      "anonymous": false,
      "inputs": [
        {
          "indexed": false,
          "internalType": "address",
          "name": "account",
          "type": "address"
        }
      ],
      "name": "Paused",
      "type": "event"
    },
    {
      "anonymous": false,
      "inputs": [
        {
          "indexed": true,
          "internalType": "bytes32",
          "name": "role",
          "type": "bytes32"
        },
        {
          "indexed": true,
          "internalType": "bytes32",
          "name": "previousAdminRole",
          "type": "bytes32"
        },
        {
          "indexed": true,
          "internalType": "bytes32",
          "name": "newAdminRole",
          "type": "bytes32"
        }
      ],
      "name": "RoleAdminChanged",
      "type": "event"
    },
    {
      "anonymous": false,
      "inputs": [
        {
          "indexed": true,
          "internalType": "bytes32",
          "name": "role",
          "type": "bytes32"
        },
        {
          "indexed": true,
          "internalType": "address",
          "name": "account",
          "type": "address"
        },
        {
          "indexed": true,
          "internalType": "address",
          "name": "sender",
          "type": "address"
        }
      ],
      "name": "RoleGranted",
      "type": "event"
    },
    {
      "anonymous": false,
      "inputs": [
        {
          "indexed": true,
          "internalType": "bytes32",
          "name": "role",
          "type": "bytes32"
        },
        {
          "indexed": true,
          "internalType": "address",
          "name": "account",
          "type": "address"
        },
        {
          "indexed": true,
          "internalType": "address",
          "name": "sender",
          "type": "address"
        }
      ],
      "name": "RoleRevoked",
      "type": "event"
    },
    {
      "anonymous": false,
      "inputs": [
        {
          "indexed": true,
          "internalType": "address",
          "name": "token",
          "type": "address"
        },
        {
          "indexed": false,
          "internalType": "uint256",
          "name": "amount",
          "type": "uint256"
        }
      ],
      "name": "SetMinStakeAmountEvent",
      "type": "event"
    },
    {
      "anonymous": false,
      "inputs": [
        {
          "indexed": true,
          "internalType": "address",
          "name": "token",
          "type": "address"
        },
        {
          "indexed": false,
          "internalType": "bool",
          "name": "isSupport",
          "type": "bool"
        }
      ],
      "name": "SetSupportTokenEvent",
      "type": "event"
    },
    {
      "anonymous": false,
      "inputs": [
        {
          "indexed": true,
          "internalType": "address",
          "name": "user",
          "type": "address"
        },
        {
          "indexed": false,
          "internalType": "uint256",
          "name": "amount",
          "type": "uint256"
        }
      ],
      "name": "StakingETHEvent",
      "type": "event"
    },
    {
      "anonymous": false,
      "inputs": [
        {
          "indexed": true,
          "internalType": "address",
          "name": "user",
          "type": "address"
        },
        {
          "indexed": false,
          "internalType": "uint256",
          "name": "amount",
          "type": "uint256"
        }
      ],
      "name": "StakingWETHEvent",
      "type": "event"
    },
    {
      "anonymous": false,
      "inputs": [
        {
          "indexed": true,
          "internalType": "address",
          "name": "user",
          "type": "address"
        },
        {
          "indexed": true,
          "internalType": "address",
          "name": "token",
          "type": "address"
        },
        {
          "indexed": false,
          "internalType": "uint256",
          "name": "amount",
          "type": "uint256"
        }
      ],
      "name": "StarkingERC20Event",
      "type": "event"
    },
    {
      "anonymous": false,
      "inputs": [
        {
          "indexed": false,
          "internalType": "uint256",
          "name": "Blockchain",
          "type": "uint256"
        },
        {
          "indexed": true,
          "internalType": "address",
          "name": "token",
          "type": "address"
        },
        {
          "indexed": true,
          "internalType": "address",
          "name": "to",
          "type": "address"
        },
        {
          "indexed": false,
          "internalType": "uint256",
          "name": "amount",
          "type": "uint256"
        }
      ],
      "name": "TransferAssertTo",
      "type": "event"
    },
    {
      "anonymous": false,
      "inputs": [
        {
          "indexed": false,
          "internalType": "address",
          "name": "account",
          "type": "address"
        }
      ],
      "name": "Unpaused",
      "type": "event"
    },
    {
      "anonymous": false,
      "inputs": [
        {
          "indexed": false,
          "internalType": "address",
          "name": "_user",
          "type": "address"
        },
        {
          "indexed": false,
          "internalType": "uint256",
          "name": "startPoolId",
          "type": "uint256"
        },
        {
          "indexed": false,
          "internalType": "uint256",
          "name": "EndPoolId",
          "type": "uint256"
        },
        {
          "indexed": false,
          "internalType": "address",
          "name": "_token",
          "type": "address"
        },
        {
          "indexed": false,
          "internalType": "uint256",
          "name": "Amount",
          "type": "uint256"
        },
        {
          "indexed": false,
          "internalType": "uint256",
          "name": "Reward",
          "type": "uint256"
        }
      ],
      "name": "Withdraw",
      "type": "event"
    },
    {
      "inputs": [
        {
          "internalType": "uint256",
          "name": "sourceChainId",
          "type": "uint256"
        },
        {
          "internalType": "uint256",
          "name": "destChainId",
          "type": "uint256"
        },
        {
          "internalType": "address",
          "name": "to",
          "type": "address"
        },
        {
          "internalType": "address",
          "name": "ERC20Address",
          "type": "address"
        },
        {
          "internalType": "uint256",
          "name": "amount",
          "type": "uint256"
        },
        {
          "internalType": "uint256",
          "name": "_fee",
          "type": "uint256"
        },
        {
          "internalType": "uint256",
          "name": "_nonce",
          "type": "uint256"
        }
      ],
      "name": "BridgeFinalizeERC20",
      "outputs": [
        {
          "internalType": "bool",
          "name": "",
          "type": "bool"
        }
      ],
      "stateMutability": "nonpayable",
      "type": "function"
    },
    {
      "inputs": [
        {
          "internalType": "uint256",
          "name": "sourceChainId",
          "type": "uint256"
        },
        {
          "internalType": "uint256",
          "name": "destChainId",
          "type": "uint256"
        },
        {
          "internalType": "address",
          "name": "to",
          "type": "address"
        },
        {
          "internalType": "uint256",
          "name": "amount",
          "type": "uint256"
        },
        {
          "internalType": "uint256",
          "name": "_fee",
          "type": "uint256"
        },
        {
          "internalType": "uint256",
          "name": "_nonce",
          "type": "uint256"
        }
      ],
      "name": "BridgeFinalizeETH",
      "outputs": [
        {
          "internalType": "bool",
          "name": "",
          "type": "bool"
        }
      ],
      "stateMutability": "payable",
      "type": "function"
    },
    {
      "inputs": [
        {
          "internalType": "uint256",
          "name": "sourceChainId",
          "type": "uint256"
        },
        {
          "internalType": "uint256",
          "name": "destChainId",
          "type": "uint256"
        },
        {
          "internalType": "address",
          "name": "to",
          "type": "address"
        },
        {
          "internalType": "uint256",
          "name": "amount",
          "type": "uint256"
        },
        {
          "internalType": "uint256",
          "name": "_fee",
          "type": "uint256"
        },
        {
          "internalType": "uint256",
          "name": "_nonce",
          "type": "uint256"
        }
      ],
      "name": "BridgeFinalizeWETH",
      "outputs": [
        {
          "internalType": "bool",
          "name": "",
          "type": "bool"
        }
      ],
      "stateMutability": "nonpayable",
      "type": "function"
    },
    {
      "inputs": [
        {
          "internalType": "uint256",
          "name": "sourceChainId",
          "type": "uint256"
        },
        {
          "internalType": "uint256",
          "name": "destChainId",
          "type": "uint256"
        },
        {
          "internalType": "address",
          "name": "to",
          "type": "address"
        },
        {
          "internalType": "address",
          "name": "ERC20Address",
          "type": "address"
        },
        {
          "internalType": "uint256",
          "name": "value",
          "type": "uint256"
        }
      ],
      "name": "BridgeInitiateERC20",
      "outputs": [
        {
          "internalType": "bool",
          "name": "",
          "type": "bool"
        }
      ],
      "stateMutability": "nonpayable",
      "type": "function"
    },
    {
      "inputs": [
        {
          "internalType": "uint256",
          "name": "sourceChainId",
          "type": "uint256"
        },
        {
          "internalType": "uint256",
          "name": "destChainId",
          "type": "uint256"
        },
        {
          "internalType": "address",
          "name": "to",
          "type": "address"
        }
      ],
      "name": "BridgeInitiateETH",
      "outputs": [
        {
          "internalType": "bool",
          "name": "",
          "type": "bool"
        }
      ],
      "stateMutability": "payable",
      "type": "function"
    },
    {
      "inputs": [
        {
          "internalType": "uint256",
          "name": "sourceChainId",
          "type": "uint256"
        },
        {
          "internalType": "uint256",
          "name": "destChainId",
          "type": "uint256"
        },
        {
          "internalType": "address",
          "name": "to",
          "type": "address"
        },
        {
          "internalType": "uint256",
          "name": "value",
          "type": "uint256"
        }
      ],
      "name": "BridgeInitiateWETH",
      "outputs": [
        {
          "internalType": "bool",
          "name": "",
          "type": "bool"
        }
      ],
      "stateMutability": "nonpayable",
      "type": "function"
    },
    {
      "inputs": [],
      "name": "ClaimAllReward",
      "outputs": [],
      "stateMutability": "nonpayable",
      "type": "function"
    },
    {
      "inputs": [
        {
          "internalType": "uint256",
          "name": "i",
          "type": "uint256"
        }
      ],
      "name": "ClaimbyID",
      "outputs": [],
      "stateMutability": "nonpayable",
      "type": "function"
    },
    {
      "inputs": [
        {
          "components": [
            {
              "internalType": "uint32",
              "name": "startTimestamp",
              "type": "uint32"
            },
            {
              "internalType": "uint32",
              "name": "endTimestamp",
              "type": "uint32"
            },
            {
              "internalType": "address",
              "name": "token",
              "type": "address"
            },
            {
              "internalType": "uint256",
              "name": "TotalAmount",
              "type": "uint256"
            },
            {
              "internalType": "uint256",
              "name": "TotalFee",
              "type": "uint256"
            },
            {
              "internalType": "uint256",
              "name": "TotalFeeClaimed",
              "type": "uint256"
            },
            {
              "internalType": "bool",
              "name": "IsCompleted",
              "type": "bool"
            }
          ],
          "internalType": "struct IL1PoolManager.Pool[]",
          "name": "CompletePools",
          "type": "tuple[]"
        }
      ],
      "name": "CompletePoolAndNew",
      "outputs": [],
      "stateMutability": "payable",
      "type": "function"
    },
    {
      "inputs": [],
      "name": "DEFAULT_ADMIN_ROLE",
      "outputs": [
        {
          "internalType": "bytes32",
          "name": "",
          "type": "bytes32"
        }
      ],
      "stateMutability": "view",
      "type": "function"
    },
    {
      "inputs": [
        {
          "internalType": "address",
          "name": "_token",
          "type": "address"
        },
        {
          "internalType": "uint256",
          "name": "_amount",
          "type": "uint256"
        }
      ],
      "name": "DepositAndStaking",
      "outputs": [],
      "stateMutability": "payable",
      "type": "function"
    },
    {
      "inputs": [
        {
          "internalType": "address",
          "name": "_token",
          "type": "address"
        },
        {
          "internalType": "uint256",
          "name": "_amount",
          "type": "uint256"
        }
      ],
      "name": "DepositAndStakingERC20",
      "outputs": [],
      "stateMutability": "nonpayable",
      "type": "function"
    },
    {
      "inputs": [],
      "name": "DepositAndStakingETH",
      "outputs": [],
      "stateMutability": "payable",
      "type": "function"
    },
    {
      "inputs": [
        {
          "internalType": "uint256",
          "name": "amount",
          "type": "uint256"
        }
      ],
      "name": "DepositAndStakingWETH",
      "outputs": [],
      "stateMutability": "nonpayable",
      "type": "function"
    },
    {
      "inputs": [
        {
          "internalType": "address",
          "name": "",
          "type": "address"
        }
      ],
      "name": "FeePoolValue",
      "outputs": [
        {
          "internalType": "uint256",
          "name": "",
          "type": "uint256"
        }
      ],
      "stateMutability": "view",
      "type": "function"
    },
    {
      "inputs": [
        {
          "internalType": "address",
          "name": "",
          "type": "address"
        }
      ],
      "name": "FundingPoolBalance",
      "outputs": [
        {
          "internalType": "uint256",
          "name": "",
          "type": "uint256"
        }
      ],
      "stateMutability": "view",
      "type": "function"
    },
    {
      "inputs": [
        {
          "internalType": "uint256",
          "name": "chainId",
          "type": "uint256"
        }
      ],
      "name": "IsSupportChainId",
      "outputs": [
        {
          "internalType": "bool",
          "name": "",
          "type": "bool"
        }
      ],
      "stateMutability": "view",
      "type": "function"
    },
    {
      "inputs": [
        {
          "internalType": "address",
          "name": "",
          "type": "address"
        }
      ],
      "name": "IsSupportToken",
      "outputs": [
        {
          "internalType": "bool",
          "name": "",
          "type": "bool"
        }
      ],
      "stateMutability": "view",
      "type": "function"
    },
    {
      "inputs": [],
      "name": "L2WETH",
      "outputs": [
        {
          "internalType": "address",
          "name": "",
          "type": "address"
        }
      ],
      "stateMutability": "view",
      "type": "function"
    },
    {
      "inputs": [
        {
          "internalType": "address",
          "name": "",
          "type": "address"
        }
      ],
      "name": "MinStakeAmount",
      "outputs": [
        {
          "internalType": "uint256",
          "name": "",
          "type": "uint256"
        }
      ],
      "stateMutability": "view",
      "type": "function"
    },
    {
      "inputs": [],
      "name": "MinTransferAmount",
      "outputs": [
        {
          "internalType": "uint256",
          "name": "",
          "type": "uint256"
        }
      ],
      "stateMutability": "view",
      "type": "function"
    },
    {
      "inputs": [],
      "name": "PerFee",
      "outputs": [
        {
          "internalType": "uint256",
          "name": "",
          "type": "uint256"
        }
      ],
      "stateMutability": "view",
      "type": "function"
    },
    {
      "inputs": [
        {
          "internalType": "address",
          "name": "",
          "type": "address"
        },
        {
          "internalType": "uint256",
          "name": "",
          "type": "uint256"
        }
      ],
      "name": "Pools",
      "outputs": [
        {
          "internalType": "uint32",
          "name": "startTimestamp",
          "type": "uint32"
        },
        {
          "internalType": "uint32",
          "name": "endTimestamp",
          "type": "uint32"
        },
        {
          "internalType": "address",
          "name": "token",
          "type": "address"
        },
        {
          "internalType": "uint256",
          "name": "TotalAmount",
          "type": "uint256"
        },
        {
          "internalType": "uint256",
          "name": "TotalFee",
          "type": "uint256"
        },
        {
          "internalType": "uint256",
          "name": "TotalFeeClaimed",
          "type": "uint256"
        },
        {
          "internalType": "bool",
          "name": "IsCompleted",
          "type": "bool"
        }
      ],
      "stateMutability": "view",
      "type": "function"
    },
    {
      "inputs": [
        {
          "internalType": "address",
          "name": "_token",
          "type": "address"
        },
        {
          "internalType": "address",
          "name": "to",
          "type": "address"
        },
        {
          "internalType": "uint256",
          "name": "_amount",
          "type": "uint256"
        }
      ],
      "name": "QuickSendAssertToUser",
      "outputs": [],
      "stateMutability": "nonpayable",
      "type": "function"
    },
    {
      "inputs": [],
      "name": "ReLayer",
      "outputs": [
        {
          "internalType": "bytes32",
          "name": "",
          "type": "bytes32"
        }
      ],
      "stateMutability": "view",
      "type": "function"
    },
    {
      "inputs": [
        {
          "internalType": "address",
          "name": "_token",
          "type": "address"
        },
        {
          "internalType": "bool",
          "name": "_isSupport",
          "type": "bool"
        },
        {
          "internalType": "uint32",
          "name": "startTimes",
          "type": "uint32"
        }
      ],
      "name": "SetSupportToken",
      "outputs": [],
      "stateMutability": "nonpayable",
      "type": "function"
    },
    {
      "inputs": [
        {
          "internalType": "uint256",
          "name": "",
          "type": "uint256"
        }
      ],
      "name": "SupportTokens",
      "outputs": [
        {
          "internalType": "address",
          "name": "",
          "type": "address"
        }
      ],
      "stateMutability": "view",
      "type": "function"
    },
    {
      "inputs": [
        {
          "internalType": "uint256",
          "name": "Blockchain",
          "type": "uint256"
        },
        {
          "internalType": "address",
          "name": "_token",
          "type": "address"
        },
        {
          "internalType": "address",
          "name": "_to",
          "type": "address"
        },
        {
          "internalType": "uint256",
          "name": "_amount",
          "type": "uint256"
        }
      ],
      "name": "TransferAssertToBridge",
      "outputs": [],
      "stateMutability": "nonpayable",
      "type": "function"
    },
    {
      "inputs": [
        {
          "internalType": "address",
          "name": "",
          "type": "address"
        },
        {
          "internalType": "uint256",
          "name": "",
          "type": "uint256"
        }
      ],
      "name": "Users",
      "outputs": [
        {
          "internalType": "bool",
          "name": "isWithdrawed",
          "type": "bool"
        },
        {
          "internalType": "address",
          "name": "token",
          "type": "address"
        },
        {
          "internalType": "uint256",
          "name": "StartPoolId",
          "type": "uint256"
        },
        {
          "internalType": "uint256",
          "name": "EndPoolId",
          "type": "uint256"
        },
        {
          "internalType": "uint256",
          "name": "Amount",
          "type": "uint256"
        }
      ],
      "stateMutability": "view",
      "type": "function"
    },
    {
      "inputs": [],
      "name": "WithdrawAll",
      "outputs": [],
      "stateMutability": "nonpayable",
      "type": "function"
    },
    {
      "inputs": [
        {
          "internalType": "uint256",
          "name": "i",
          "type": "uint256"
        }
      ],
      "name": "WithdrawByID",
      "outputs": [],
      "stateMutability": "nonpayable",
      "type": "function"
    },
    {
      "inputs": [
        {
          "internalType": "address",
          "name": "_token",
          "type": "address"
        },
        {
          "internalType": "uint256",
          "name": "_index",
          "type": "uint256"
        }
      ],
      "name": "getPool",
      "outputs": [
        {
          "components": [
            {
              "internalType": "uint32",
              "name": "startTimestamp",
              "type": "uint32"
            },
            {
              "internalType": "uint32",
              "name": "endTimestamp",
              "type": "uint32"
            },
            {
              "internalType": "address",
              "name": "token",
              "type": "address"
            },
            {
              "internalType": "uint256",
              "name": "TotalAmount",
              "type": "uint256"
            },
            {
              "internalType": "uint256",
              "name": "TotalFee",
              "type": "uint256"
            },
            {
              "internalType": "uint256",
              "name": "TotalFeeClaimed",
              "type": "uint256"
            },
            {
              "internalType": "bool",
              "name": "IsCompleted",
              "type": "bool"
            }
          ],
          "internalType": "struct IL1PoolManager.Pool",
          "name": "",
          "type": "tuple"
        }
      ],
      "stateMutability": "view",
      "type": "function"
    },
    {
      "inputs": [
        {
          "internalType": "address",
          "name": "_token",
          "type": "address"
        }
      ],
      "name": "getPoolLength",
      "outputs": [
        {
          "internalType": "uint256",
          "name": "",
          "type": "uint256"
        }
      ],
      "stateMutability": "view",
      "type": "function"
    },
    {
      "inputs": [
        {
          "internalType": "bytes32",
          "name": "role",
          "type": "bytes32"
        }
      ],
      "name": "getRoleAdmin",
      "outputs": [
        {
          "internalType": "bytes32",
          "name": "",
          "type": "bytes32"
        }
      ],
      "stateMutability": "view",
      "type": "function"
    },
    {
      "inputs": [
        {
          "internalType": "address",
          "name": "_user",
          "type": "address"
        }
      ],
      "name": "getUser",
      "outputs": [
        {
          "components": [
            {
              "internalType": "bool",
              "name": "isWithdrawed",
              "type": "bool"
            },
            {
              "internalType": "address",
              "name": "token",
              "type": "address"
            },
            {
              "internalType": "uint256",
              "name": "StartPoolId",
              "type": "uint256"
            },
            {
              "internalType": "uint256",
              "name": "EndPoolId",
              "type": "uint256"
            },
            {
              "internalType": "uint256",
              "name": "Amount",
              "type": "uint256"
            }
          ],
          "internalType": "struct IL1PoolManager.User[]",
          "name": "",
          "type": "tuple[]"
        }
      ],
      "stateMutability": "view",
      "type": "function"
    },
    {
      "inputs": [
        {
          "internalType": "address",
          "name": "_user",
          "type": "address"
        },
        {
          "internalType": "uint256",
          "name": "_index",
          "type": "uint256"
        }
      ],
      "name": "getUser",
      "outputs": [
        {
          "components": [
            {
              "internalType": "bool",
              "name": "isWithdrawed",
              "type": "bool"
            },
            {
              "internalType": "address",
              "name": "token",
              "type": "address"
            },
            {
              "internalType": "uint256",
              "name": "StartPoolId",
              "type": "uint256"
            },
            {
              "internalType": "uint256",
              "name": "EndPoolId",
              "type": "uint256"
            },
            {
              "internalType": "uint256",
              "name": "Amount",
              "type": "uint256"
            }
          ],
          "internalType": "struct IL1PoolManager.User",
          "name": "",
          "type": "tuple"
        }
      ],
      "stateMutability": "view",
      "type": "function"
    },
    {
      "inputs": [
        {
          "internalType": "address",
          "name": "_user",
          "type": "address"
        }
      ],
      "name": "getUserLength",
      "outputs": [
        {
          "internalType": "uint256",
          "name": "",
          "type": "uint256"
        }
      ],
      "stateMutability": "view",
      "type": "function"
    },
    {
      "inputs": [
        {
          "internalType": "bytes32",
          "name": "role",
          "type": "bytes32"
        },
        {
          "internalType": "address",
          "name": "account",
          "type": "address"
        }
      ],
      "name": "grantRole",
      "outputs": [],
      "stateMutability": "nonpayable",
      "type": "function"
    },
    {
      "inputs": [
        {
          "internalType": "bytes32",
          "name": "role",
          "type": "bytes32"
        },
        {
          "internalType": "address",
          "name": "account",
          "type": "address"
        }
      ],
      "name": "hasRole",
      "outputs": [
        {
          "internalType": "bool",
          "name": "",
          "type": "bool"
        }
      ],
      "stateMutability": "view",
      "type": "function"
    },
    {
      "inputs": [
        {
          "internalType": "address",
          "name": "_MultisigWallet",
          "type": "address"
        },
        {
          "internalType": "address",
          "name": "_messageManager",
          "type": "address"
        }
      ],
      "name": "initialize",
      "outputs": [],
      "stateMutability": "nonpayable",
      "type": "function"
    },
    {
      "inputs": [],
      "name": "messageManager",
      "outputs": [
        {
          "internalType": "contract IMessageManager",
          "name": "",
          "type": "address"
        }
      ],
      "stateMutability": "view",
      "type": "function"
    },
    {
      "inputs": [],
      "name": "pause",
      "outputs": [],
      "stateMutability": "nonpayable",
      "type": "function"
    },
    {
      "inputs": [],
      "name": "paused",
      "outputs": [
        {
          "internalType": "bool",
          "name": "",
          "type": "bool"
        }
      ],
      "stateMutability": "view",
      "type": "function"
    },
    {
      "inputs": [],
      "name": "periodTime",
      "outputs": [
        {
          "internalType": "uint32",
          "name": "",
          "type": "uint32"
        }
      ],
      "stateMutability": "view",
      "type": "function"
    },
    {
      "inputs": [
        {
          "internalType": "bytes32",
          "name": "role",
          "type": "bytes32"
        },
        {
          "internalType": "address",
          "name": "callerConfirmation",
          "type": "address"
        }
      ],
      "name": "renounceRole",
      "outputs": [],
      "stateMutability": "nonpayable",
      "type": "function"
    },
    {
      "inputs": [
        {
          "internalType": "bytes32",
          "name": "role",
          "type": "bytes32"
        },
        {
          "internalType": "address",
          "name": "account",
          "type": "address"
        }
      ],
      "name": "revokeRole",
      "outputs": [],
      "stateMutability": "nonpayable",
      "type": "function"
    },
    {
      "inputs": [
        {
          "internalType": "address",
          "name": "_token",
          "type": "address"
        },
        {
          "internalType": "uint256",
          "name": "_amount",
          "type": "uint256"
        }
      ],
      "name": "setMinStakeAmount",
      "outputs": [],
      "stateMutability": "nonpayable",
      "type": "function"
    },
    {
      "inputs": [
        {
          "internalType": "uint256",
          "name": "_MinTransferAmount",
          "type": "uint256"
        }
      ],
      "name": "setMinTransferAmount",
      "outputs": [],
      "stateMutability": "nonpayable",
      "type": "function"
    },
    {
      "inputs": [
        {
          "internalType": "uint256",
          "name": "_PerFee",
          "type": "uint256"
        }
      ],
      "name": "setPerFee",
      "outputs": [],
      "stateMutability": "nonpayable",
      "type": "function"
    },
    {
      "inputs": [
        {
          "internalType": "address",
          "name": "ERC20Address",
          "type": "address"
        },
        {
          "internalType": "bool",
          "name": "isValid",
          "type": "bool"
        }
      ],
      "name": "setSupportToken",
      "outputs": [],
      "stateMutability": "nonpayable",
      "type": "function"
    },
    {
      "inputs": [
        {
          "internalType": "uint256",
          "name": "chainId",
          "type": "uint256"
        },
        {
          "internalType": "bool",
          "name": "isValid",
          "type": "bool"
        }
      ],
      "name": "setValidChainId",
      "outputs": [],
      "stateMutability": "nonpayable",
      "type": "function"
    },
    {
      "inputs": [
        {
          "internalType": "bytes4",
          "name": "interfaceId",
          "type": "bytes4"
        }
      ],
      "name": "supportsInterface",
      "outputs": [
        {
          "internalType": "bool",
          "name": "",
          "type": "bool"
        }
      ],
      "stateMutability": "view",
      "type": "function"
    },
    {
      "inputs": [],
      "name": "unpause",
      "outputs": [],
      "stateMutability": "nonpayable",
      "type": "function"
    }
  ],
  "bytecode": {
    "object": "0x60806040523480156200001157600080fd5b506200001c62000022565b620000d6565b7ff0c57e16840df040f15088dc2f81fe391c3923bec73e23a9662efc9c229c6a00805468010000000000000000900460ff1615620000735760405163f92ee8a960e01b815260040160405180910390fd5b80546001600160401b0390811614620000d35780546001600160401b0319166001600160401b0390811782556040519081527fc7f505b2f371ae2175ee4913f4499e1f2633a7b5936321eed1cdaeb6115181d29060200160405180910390a15b50565b6168c980620000e66000396000f3fe60806040526004361061031a5760003560e01c8063650c2276116101ab578063cb314fab116100f7578063dd0c346011610095578063f91fa9a81161006f578063f91fa9a814610a57578063fa86184814610a77578063faeb96a514610a8c578063ff2bf64f14610aac57600080fd5b8063dd0c3460146109eb578063f62a89cf14610a01578063f8fcc2aa14610a2157600080fd5b8063d547741f116100d1578063d547741f1461094e578063d73f14e51461096e578063dac295681461098e578063dbb0481f146109be57600080fd5b8063cb314fab146108d8578063cb4f04ad146108f8578063cd01c6651461092e57600080fd5b806396f984e611610164578063a217fddf1161013e578063a217fddf1461086e578063b1887e9b14610883578063b92e639614610898578063bc42493d146108b857600080fd5b806396f984e6146108405780639ab0b652146108485780639b4423801461085b57600080fd5b8063650c22761461076e5780636f77926b1461078e57806372fe6a7e146107bb5780638456cb59146107eb57806391d148541461080057806392d847381461082057600080fd5b806336568abe1161026a5780634dfaef84116102235780635a648bc5116101fd5780635a648bc51461068d5780635b5b9ea2146106a25780635c975abb14610729578063626417b51461074e57600080fd5b80634dfaef841461062057806354dc027e146106405780635765a4eb1461066d57600080fd5b806336568abe1461052b57806338731c471461054b5780633b0230f01461055e5780633f4ba83a1461057e5780634663cdc814610593578063485cc9551461060057600080fd5b8063204daa93116102d75780632f2ff15d116102b15780632f2ff15d146104b8578063325e5d43146104d85780633338562c146104f857806334d34ef51461050b57600080fd5b8063204daa9314610461578063248a9ca3146104835780632c37388b146104a357600080fd5b806301ffc9a71461031f57806309dc480c1461035457806310875a131461037857806313e8544e146103b05780631ca2f173146104025780631d31fac01461042f575b600080fd5b34801561032b57600080fd5b5061033f61033a366004615d9f565b610ad9565b60405190151581526020015b60405180910390f35b34801561036057600080fd5b5061036a60015481565b60405190815260200161034b565b34801561038457600080fd5b50600054610398906001600160a01b031681565b6040516001600160a01b03909116815260200161034b565b3480156103bc57600080fd5b506103d06103cb366004615de0565b610b10565b6040805195151586526001600160a01b039094166020860152928401919091526060830152608082015260a00161034b565b34801561040e57600080fd5b5061036a61041d366004615e0a565b600b6020526000908152604090205481565b34801561043b57600080fd5b5060085461044c9063ffffffff1681565b60405163ffffffff909116815260200161034b565b34801561046d57600080fd5b5061048161047c366004615e33565b610b6a565b005b34801561048f57600080fd5b5061036a61049e366004615e6a565b610bf3565b3480156104af57600080fd5b50610481610c15565b3480156104c457600080fd5b506104816104d3366004615e83565b610c8f565b3480156104e457600080fd5b506104816104f3366004615eaf565b610cb1565b610481610506366004615f6f565b610d11565b34801561051757600080fd5b50610481610526366004615e6a565b611087565b34801561053757600080fd5b50610481610546366004615e83565b611111565b61033f610559366004616089565b611144565b34801561056a57600080fd5b5061033f6105793660046160da565b611322565b34801561058a57600080fd5b50610481611620565b34801561059f57600080fd5b506105b36105ae366004615de0565b611633565b6040805163ffffffff98891681529790961660208801526001600160a01b03909416948601949094526060850191909152608084015260a0830191909152151560c082015260e00161034b565b34801561060c57600080fd5b5061048161061b366004616128565b6116a8565b34801561062c57600080fd5b5061048161063b366004615de0565b6117e4565b34801561064c57600080fd5b5061036a61065b366004615e0a565b60066020526000908152604090205481565b34801561067957600080fd5b5061033f610688366004616089565b611aaf565b34801561069957600080fd5b50610481611cf0565b3480156106ae57600080fd5b506106c26106bd366004615de0565b611d52565b60405161034b9190815163ffffffff9081168252602080840151909116908201526040808301516001600160a01b031690820152606080830151908201526080808301519082015260a0808301519082015260c09182015115159181019190915260e00190565b34801561073557600080fd5b506000805160206168548339815191525460ff1661033f565b34801561075a57600080fd5b50610398610769366004615e6a565b611e36565b34801561077a57600080fd5b50610481610789366004615e6a565b611e60565b34801561079a57600080fd5b506107ae6107a9366004615e0a565b611e71565b60405161034b919061618a565b3480156107c757600080fd5b5061033f6107d6366004615e6a565b60009081526003602052604090205460ff1690565b3480156107f757600080fd5b50610481611f21565b34801561080c57600080fd5b5061033f61081b366004615e83565b611f34565b34801561082c57600080fd5b5061033f61083b3660046161d8565b611f6c565b610481612171565b610481610856366004615de0565b6124ac565b61033f610869366004616239565b61251b565b34801561087a57600080fd5b5061036a600081565b34801561088f57600080fd5b50610398612723565b3480156108a457600080fd5b506104816108b3366004615e6a565b612841565b3480156108c457600080fd5b506104816108d3366004615e6a565b612895565b3480156108e457600080fd5b506104816108f3366004615de0565b612c76565b34801561090457600080fd5b5061036a610913366004615e0a565b6001600160a01b03166000908152600a602052604090205490565b34801561093a57600080fd5b5061033f61094936600461626e565b612cdb565b34801561095a57600080fd5b50610481610969366004615e83565b61306c565b34801561097a57600080fd5b506104816109893660046162ab565b613088565b34801561099a57600080fd5b5061033f6109a9366004615e0a565b60046020526000908152604090205460ff1681565b3480156109ca57600080fd5b5061036a6109d9366004615e0a565b60056020526000908152604090205481565b3480156109f757600080fd5b5061036a60025481565b348015610a0d57600080fd5b50610481610a1c366004615e6a565b6130b4565b348015610a2d57600080fd5b5061036a610a3c366004615e0a565b6001600160a01b031660009081526009602052604090205490565b348015610a6357600080fd5b50610481610a723660046162d0565b61311b565b348015610a8357600080fd5b5061036a6132ce565b348015610a9857600080fd5b50610481610aa7366004616304565b613316565b348015610ab857600080fd5b50610acc610ac7366004615de0565b613611565b60405161034b9190616340565b60006001600160e01b03198216637965db0b60e01b1480610b0a57506301ffc9a760e01b6001600160e01b03198316145b92915050565b600a6020528160005260406000208181548110610b2c57600080fd5b6000918252602090912060049091020180546001820154600283015460039093015460ff831695506101009092046001600160a01b03169350919085565b6000610b75816136da565b6001600160a01b0383166000908152600460205260409020805460ff19168315801591909117909155610bee57600780546001810182556000919091527fa66cc928b5edb82af9bd49922954155ab7b0942694bea4ce44661d9a8736c6880180546001600160a01b0319166001600160a01b0385161790555b505050565b6000908152600080516020616834833981519152602052604090206001015490565b610c1d6136e4565b610c2561371c565b60005b600754811015610c7557610c633360078381548110610c4957610c4961634e565b60009182526020822001546001600160a01b03169061374d565b80610c6d8161637a565b915050610c28565b50610c8d600160008051602061687483398151915255565b565b610c9882610bf3565b610ca1816136da565b610cab8383613e58565b50505050565b60ff19610ccd60016000805160206167d4833981519152616393565b604051602001610cdf91815260200190565b6040516020818303038152906040528051906020012016610cff816136da565b610d0a848484613f04565b5050505050565b60ff19610d2d60016000805160206167d4833981519152616393565b604051602001610d3f91815260200190565b6040516020818303038152906040528051906020012016610d5f816136da565b60005b8251811015610bee576000838281518110610d7f57610d7f61634e565b60200260200101516040015190506000600160096000846001600160a01b03166001600160a01b0316815260200190815260200160002080549050610dc49190616393565b6001600160a01b0383166000908152600960205260409020805491925060019183908110610df457610df461634e565b906000526020600020906005020160040160006101000a81548160ff021916908315150217905550848381518110610e2e57610e2e61634e565b60200260200101516080015160096000846001600160a01b03166001600160a01b031681526020019081526020016000208281548110610e7057610e7061634e565b906000526020600020906005020160020181905550600060096000846001600160a01b03166001600160a01b031681526020019081526020016000208281548110610ebd57610ebd61634e565b600091825260208083206005909202909101546001600160a01b038616835260098252604092839020835160e0810190945263ffffffff6401000000009092048216808552600854909550909392830191610f199116856163a6565b63ffffffff168152602001856001600160a01b0316815260200160096000876001600160a01b03166001600160a01b031681526020019081526020016000208581548110610f6957610f6961634e565b6000918252602080832060059283020160019081015485528482018490526040808601859052606095860185905287548083018955978552938290208651979093029092018054868301518786015163ffffffff998a1667ffffffffffffffff1990931692909217640100000000999091169890980297909717600160401b600160e01b031916600160401b6001600160a01b039889160217815593850151918401919091556080840151600284015560a0840151600384015560c0909301516004909201805460ff19169215159290921790915551848152918516917fb6f449f07ceaf55392c9899e0797c6529908ae827c2d498c682e90d42c241167910160405180910390a2505050808061107f9061637a565b915050610d62565b61108f6136e4565b61109761371c565b336000908152600a602052604090205481106110eb57336000908152600a60205260409081902054905163abe5c32f60e01b81526110e2918391600401918252602082015260400190565b60405180910390fd5b6110f7338260006140a9565b61110e600160008051602061687483398151915255565b50565b6001600160a01b038116331461113a5760405163334bd91960e11b815260040160405180910390fd5b610bee8282614717565b600060ff1961116260016000805160206167d4833981519152616393565b60405160200161117491815260200190565b6040516020818303038152906040528051906020012016611194816136da565b4687146111b457604051631a26aa4d60e21b815260040160405180910390fd5b60008881526003602052604090205460ff166111e657604051632ef6974160e11b8152600481018990526024016110e2565b6040516001600160a01b0387169086156108fc029087906000818181858888f1935050505015801561121c573d6000803e3d6000fd5b506000805160206167f4833981519152600090815260056020526000805160206167948339815191528054879290611255908490616393565b9091555050600054604051631eb65ffb60e01b81526001600160a01b0390911690631eb65ffb90611294908b908b908b908a908c908b906004016163c3565b600060405180830381600087803b1580156112ae57600080fd5b505af11580156112c2573d6000803e3d6000fd5b5050604080518b8152602081018b90529081018890526001600160a01b03891692503091507f61d99af9dd09bd984d42cc07939d4cba4388e85aa29b3cc88df954e4ca719f329060600160405180910390a3506001979650505050505050565b600046861461134457604051631a26aa4d60e21b815260040160405180910390fd5b60008581526003602052604090205460ff1661137657604051632ef6974160e11b8152600481018690526024016110e2565b6001600160a01b03831660009081526004602052604090205460ff166113ba576040516305fd61ad60e01b81526001600160a01b03841660048201526024016110e2565b6040516370a0823160e01b81523060048201526000906001600160a01b038516906370a0823190602401602060405180830381865afa158015611401573d6000803e3d6000fd5b505050506040513d601f19601f8201168201806040525081019061142591906163f4565b905061143c6001600160a01b038516333086614793565b6040516370a0823160e01b81523060048201526000906001600160a01b038616906370a0823190602401602060405180830381865afa158015611483573d6000803e3d6000fd5b505050506040513d601f19601f820116820180604052508101906114a791906163f4565b905060006114b58383616393565b6000805160206167f483398151915260009081526005602052600080516020616794833981519152805492935087929091906114f290849061640d565b9091555050600254600090620f42409061150c9084616420565b6115169190616437565b90506115228183616393565b6001600160a01b03881660009081526006602052604081208054929450839290919061154f90849061640d565b909155505060005460405163305f478560e21b81526001600160a01b039091169063c17d1e149061158c908d908d908d908c908890600401616459565b600060405180830381600087803b1580156115a657600080fd5b505af11580156115ba573d6000803e3d6000fd5b5050604080518d8152602081018d90529081018590526001600160a01b03808c1693503392508a16907fece797608c81cc46a09f9859cf8ef650ec541b5da6989f30acb30dba9b8a40a49060600160405180910390a45060019998505050505050505050565b600061162b816136da565b61110e6147ed565b6009602052816000526040600020818154811061164f57600080fd5b60009182526020909120600590910201805460018201546002830154600384015460049094015463ffffffff80851697506401000000008504169550600160401b9093046001600160a01b031693919290919060ff1687565b7ff0c57e16840df040f15088dc2f81fe391c3923bec73e23a9662efc9c229c6a008054600160401b810460ff16159067ffffffffffffffff166000811580156116ee5750825b905060008267ffffffffffffffff16600114801561170b5750303b155b905081158015611719575080155b156117375760405163f92ee8a960e01b815260040160405180910390fd5b845467ffffffffffffffff19166001178555831561176157845460ff60401b1916600160401b1785555b61176961484d565b611771614855565b611779614865565b6117838787614875565b6008805463ffffffff1916621baf8017905583156117db57845460ff60401b19168555604051600181527fc7f505b2f371ae2175ee4913f4499e1f2633a7b5936321eed1cdaeb6115181d29060200160405180910390a15b50505050505050565b6117ec6136e4565b6117f461371c565b6001600160a01b03821660009081526004602052604090205460ff16611838576040516305fd61ad60e01b81526001600160a01b03831660048201526024016110e2565b6001600160a01b0382166000908152600b6020526040902054811015611896576001600160a01b0382166000908152600b6020526040908190205490516327500c6d60e21b81526004810191909152602481018290526044016110e2565b6118ab6001600160a01b038316333084614793565b6001600160a01b0382166000908152600960205260408120546118d090600190616393565b6001600160a01b038416600090815260096020526040902080549192504291839081106118ff576118ff61634e565b600091825260209091206005909102015463ffffffff161115611a0a57336000908152600a60209081526040808320815160a0810183528481526001600160a01b0388811682860181815283860189815260608501898152608086018c8152875460018082018a55988c528a8c2097516004909102909701805494516001600160a81b0319909516971515610100600160a81b03191697909717610100949096169390930294909417855551948401949094559051600283015591516003909101558352600990915290208054839190839081106119df576119df61634e565b906000526020600020906005020160010160008282546119ff919061640d565b90915550611a269050565b604051637d58ebb960e01b8152600481018290526024016110e2565b6001600160a01b03831660009081526005602052604081208054849290611a4e90849061640d565b90915550506040518281526001600160a01b0384169033907f3ac7d3823c11677fba9479ed26f696a3f17e16a5a5c39162fa6d183905aa67359060200160405180910390a350611aab600160008051602061687483398151915255565b5050565b600060ff19611acd60016000805160206167d4833981519152616393565b604051602001611adf91815260200190565b6040516020818303038152906040528051906020012016611aff816136da565b468714611b1f57604051631a26aa4d60e21b815260040160405180910390fd5b60008881526003602052604090205460ff16611b5157604051632ef6974160e11b8152600481018990526024016110e2565b6000611b5b612723565b6040516323b872dd60e01b81529091506001600160a01b038216906323b872dd90611b8e9030908b908b90600401616485565b6020604051808303816000875af1158015611bad573d6000803e3d6000fd5b505050506040513d601f19601f82011682018060405250810190611bd191906164a9565b5073c02aaa39b223fe8d0a0e5c4f27ead9083c756cc2600090815260056020527fa550ba85c46b24b567d2e17cd597f2283877afab43603f46d5de7858f1bdb7318054889290611c22908490616393565b9091555050600054604051631eb65ffb60e01b81526001600160a01b0390911690631eb65ffb90611c61908c908c908c908b908d908c906004016163c3565b600060405180830381600087803b158015611c7b57600080fd5b505af1158015611c8f573d6000803e3d6000fd5b5050604080518c8152602081018c90529081018990526001600160a01b038a1692503091507f7dc80be13e04000533f3763be4b9359a36a0aeb0daabbf09fd96c3a275c1cc149060600160405180910390a350600198975050505050505050565b611cf86136e4565b611d0061371c565b60005b600754811015610c7557611d403360078381548110611d2457611d2461634e565b6000918252602090912001546001600160a01b0316600161374d565b80611d4a8161637a565b915050611d03565b6040805160e08101825260008082526020808301829052828401829052606083018290526080830182905260a0830182905260c083018290526001600160a01b03861682526009905291909120805483908110611db157611db161634e565b60009182526020918290206040805160e081018252600593909302909101805463ffffffff808216855264010000000082041694840194909452600160401b9093046001600160a01b0316908201526001820154606082015260028201546080820152600382015460a082015260049091015460ff16151560c0820152905092915050565b60078181548110611e4657600080fd5b6000918252602090912001546001600160a01b0316905081565b6000611e6b816136da565b50600255565b6001600160a01b0381166000908152600a60209081526040808320805482518185028101850190935280835260609492939192909184015b82821015611f165760008481526020908190206040805160a08101825260048602909201805460ff81161515845261010090046001600160a01b03168385015260018082015492840192909252600281015460608401526003015460808301529083529092019101611ea9565b505050509050919050565b6000611f2c816136da565b61110e6148be565b6000918252600080516020616834833981519152602090815260408084206001600160a01b0393909316845291905290205460ff1690565b600060ff19611f8a60016000805160206167d4833981519152616393565b604051602001611f9c91815260200190565b6040516020818303038152906040528051906020012016611fbc816136da565b468814611fdc57604051631a26aa4d60e21b815260040160405180910390fd5b60008981526003602052604090205460ff1661200e57604051632ef6974160e11b8152600481018a90526024016110e2565b6001600160a01b03861660009081526004602052604090205460ff16612052576040516305fd61ad60e01b81526001600160a01b03871660048201526024016110e2565b6120676001600160a01b038716308988614793565b6000805160206167f483398151915260009081526005602052600080516020616794833981519152805487929061209f908490616393565b9091555050600054604051631eb65ffb60e01b81526001600160a01b0390911690631eb65ffb906120de908c908c908c908a908c908b906004016163c3565b600060405180830381600087803b1580156120f857600080fd5b505af115801561210c573d6000803e3d6000fd5b5050604080518c8152602081018c90529081018890526001600160a01b03808b1693503092508916907f0f50ec03884adc78b9840a90cf8805a70ffe160f18d6b83198103b6fade443fe9060600160405180910390a450600198975050505050505050565b6121796136e4565b61218161371c565b6000805160206167f4833981519152600052600b6020527fc81ad962d4d90b45a70da3e5e59847dcc28dc55db029f697d18929adae48413f5434101561221d576000805160206167f4833981519152600052600b6020527fc81ad962d4d90b45a70da3e5e59847dcc28dc55db029f697d18929adae48413f546040516327500c6d60e21b815260048101919091523460248201526044016110e2565b6000805160206167f4833981519152600090815260096020526000805160206167b48339815191525461225290600190616393565b6000805160206167f4833981519152600090815260096020526000805160206167b4833981519152549192500361229f57604051637d58ebb960e01b8152600160048201526024016110e2565b6000805160206167f483398151915260005260096020526000805160206167b48339815191528054429190839081106122da576122da61634e565b600091825260209091206005909102015463ffffffff1611156123fb57336000908152600a60209081526040808320815160a0810183528481526000805160206167f4833981519152818501818152938201878152606083018781523460808501818152865460018082018955978b52898b2096516004909102909601805498516001600160a81b0319909916961515610100600160a81b031916969096176101006001600160a01b03909916989098029790971785559151948401949094559251600283015592516003909101559252600990526000805160206167b48339815191528054839081106123d0576123d061634e565b906000526020600020906005020160010160008282546123f0919061640d565b909155506124229050565b61240681600161640d565b604051637d58ebb960e01b81526004016110e291815260200190565b6000805160206167f483398151915260009081526005602052600080516020616794833981519152805434929061245a90849061640d565b909155505060405134815233907fe7466ea83435490635fc76a5f33da4815758ab48b1d45858f0452ca6465569379060200160405180910390a250610c8d600160008051602061687483398151915255565b6124b461371c565b34156124c257611aab612171565b73c02aaa39b223fe8d0a0e5c4f27ead9083c756cc1196001600160a01b038316016124f057611aab81612895565b6001600160a01b03821660009081526004602052604090205460ff1615611aab57611aab82826117e4565b600046841461253d57604051631a26aa4d60e21b815260040160405180910390fd5b60008381526003602052604090205460ff1661256f57604051632ef6974160e11b8152600481018490526024016110e2565b60015434101561259f576001546040516358f8331360e11b815260048101919091523460248201526044016110e2565b6000805160206167f48339815191526000908152600560205260008051602061679483398151915280543492906125d790849061640d565b9091555050600254600090620f4240906125f19034616420565b6125fb9190616437565b905060006126098234616393565b6000805160206167f4833981519152600090815260066020527fa2e5aefc6e2cbe2917a296f0fd89c5f915c487c803db1d98eccb43f14012d7118054929350849290919061265890849061640d565b909155505060005460405163305f478560e21b81526001600160a01b039091169063c17d1e14906126959046908990899087908990600401616459565b600060405180830381600087803b1580156126af57600080fd5b505af11580156126c3573d6000803e3d6000fd5b505060408051898152602081018990529081018490526001600160a01b03871692503391507f0b671089787b6d29f730bc690214e6a7e28064fef5a3cdbb9b930a22fac01dc59060600160405180910390a36001925050505b9392505050565b6000466208275081900361273f576004605360981b0191505090565b8061044d0361276357734f9a0e7fd2bf6067db6994cf12e4495df938e6e991505090565b80600a03612779576006602160991b0191505090565b8061a4b10361279d577382af49447d8a07e3bd95bd0d56f35241523fbab191505090565b8061a4ba036127c15773722e8bdd2ce80a4422e880164f2079488e11536591505090565b80610144036127e557735aea5775959fbc2557cc8789bc1bf90a239d9a9191505090565b80611388036128075760405163e31d668960e01b815260040160405180910390fd5b8060a903612828576040516322c20c6960e11b815260040160405180910390fd5b604051639474dee160e01b815260040160405180910390fd5b60ff1961285d60016000805160206167d4833981519152616393565b60405160200161286f91815260200190565b604051602081830303815290604052805190602001201661288f816136da565b50600155565b61289d6136e4565b6128a561371c565b73c02aaa39b223fe8d0a0e5c4f27ead9083c756cc2600052600b6020527ffc8cffbc59e5d552299bcf0a6a1c92c3958cd08bc38d18034b5c765b88fdfdfa5481101561293a5760008052600b6020527fdf7de25b7f1fd6d0b5205f0e18f1f35bd7b8d84cce336588d184533ce43a6f76546040516327500c6d60e21b81526004810191909152602481018290526044016110e2565b6040516323b872dd60e01b815273c02aaa39b223fe8d0a0e5c4f27ead9083c756cc2906323b872dd9061297590339030908690600401616485565b6020604051808303816000875af1158015612994573d6000803e3d6000fd5b505050506040513d601f19601f820116820180604052508101906129b891906164a9565b5073c02aaa39b223fe8d0a0e5c4f27ead9083c756cc260009081526009602052600080516020616814833981519152546129f490600190616393565b73c02aaa39b223fe8d0a0e5c4f27ead9083c756cc2600052600960205260008051602061681483398151915280549192509082908110612a3657612a3661634e565b600091825260209091206004600590920201015460ff1615612a6e576040516311cf1b0760e31b8152600481018290526024016110e2565b73c02aaa39b223fe8d0a0e5c4f27ead9083c756cc26000526009602052600080516020616814833981519152805442919083908110612aaf57612aaf61634e565b600091825260209091206005909102015463ffffffff161115612bd457336000908152600a60209081526040808320815160a08101835284815273c02aaa39b223fe8d0a0e5c4f27ead9083c756cc281850181815293820187815260608301878152608084018a8152855460018181018855968a52888a2095516004909102909501805497516001600160a01b031661010002610100600160a81b0319961515969096166001600160a81b031990981697909717949094178655905193850193909355915160028401555160039092019190915590915260099052600080516020616814833981519152805483919083908110612bae57612bae61634e565b90600052602060002090600502016001016000828254612bce919061640d565b90915550505b73c02aaa39b223fe8d0a0e5c4f27ead9083c756cc2600090815260056020527fa550ba85c46b24b567d2e17cd597f2283877afab43603f46d5de7858f1bdb7318054849290612c2490849061640d565b909155505060405182815233907fc138e3bd6d13eefa5cb01c0d35c5794001141efaf4e5ad888cad059935f833839060200160405180910390a25061110e600160008051602061687483398151915255565b6000612c81816136da565b6001600160a01b0383166000818152600b602052604090819020849055517ff54d3b756d286b6b08e5d4eda6dfe5b135664abf029e58e637cbf013c442c95090612cce9085815260200190565b60405180910390a2505050565b6000468514612cfd57604051631a26aa4d60e21b815260040160405180910390fd5b60008481526003602052604090205460ff16612d2f576040516363b5c9db60e01b8152600481018590526024016110e2565b6000612d39612723565b6040516370a0823160e01b81523060048201529091506000906001600160a01b038316906370a0823190602401602060405180830381865afa158015612d83573d6000803e3d6000fd5b505050506040513d601f19601f82011682018060405250810190612da791906163f4565b6040516323b872dd60e01b81529091506001600160a01b038316906323b872dd90612dda90339030908990600401616485565b6020604051808303816000875af1158015612df9573d6000803e3d6000fd5b505050506040513d601f19601f82011682018060405250810190612e1d91906164a9565b506040516370a0823160e01b81523060048201526000906001600160a01b038416906370a0823190602401602060405180830381865afa158015612e65573d6000803e3d6000fd5b505050506040513d601f19601f82011682018060405250810190612e8991906163f4565b90506000612e978383616393565b9050600154811015612eca576001546040516358f8331360e11b81526004810191909152602481018290526044016110e2565b73c02aaa39b223fe8d0a0e5c4f27ead9083c756cc2600090815260056020527fa550ba85c46b24b567d2e17cd597f2283877afab43603f46d5de7858f1bdb7318054839290612f1a90849061640d565b9091555050600254600090620f424090612f349084616420565b612f3e9190616437565b9050612f4a8183616393565b73c02aaa39b223fe8d0a0e5c4f27ead9083c756cc2600090815260066020527f5e5777fab7622aff3c042c1ece74307c2e9d699a9da444f416c35f2e1def28a580549294508392909190612f9f90849061640d565b909155505060005460405163305f478560e21b81526001600160a01b039091169063c17d1e1490612fdc908d908d908d908d908890600401616459565b600060405180830381600087803b158015612ff657600080fd5b505af115801561300a573d6000803e3d6000fd5b5050604080518d8152602081018d90529081018590526001600160a01b038b1692503391507fcb9e641636f35317739cff2833f1831bf3a25b930b5615ada09367c080d64a899060600160405180910390a35060019998505050505050505050565b61307582610bf3565b61307e816136da565b610cab8383614717565b6000613093816136da565b50600091825260036020526040909120805460ff1916911515919091179055565b6130bc6136e4565b6130c461371c565b336000908152600a6020526040902054811061310f57336000908152600a60205260409081902054905163abe5c32f60e01b81526110e2918391600401918252602082015260400190565b6110f7338260016140a9565b60ff1961313760016000805160206167d4833981519152616393565b60405160200161314991815260200190565b6040516020818303038152906040528051906020012016613169816136da565b6001600160a01b03841660009081526004602052604090205460ff166131ad576040516305fd61ad60e01b81526001600160a01b03851660048201526024016110e2565b8462082750036131c7576131c2848484614907565b613251565b8461044d036131db576131c2848484614d38565b84600a036131ee576131c2848484614eae565b8461a4b103613202576131c2848484614fe2565b8461a4ba03613216576131c284848461529c565b846101440361322a576131c28484846154c8565b846113880361323e576131c284848461567f565b8460a903612828576131c28484846157ac565b6001600160a01b03841660009081526005602052604081208054849290613279908490616393565b909155505060408051868152602081018490526001600160a01b0380861692908716917f08ffba656e4ac665e1aa4bb6a342e1a69d4cc12fd751ac862fa3fe27b0c7524a910160405180910390a35050505050565b60ff196132ea60016000805160206167d4833981519152616393565b6040516020016132fc91815260200190565b604051602081830303815290604052805190602001201681565b6000613321816136da565b6001600160a01b03841660009081526004602052604090205460ff161561336e5760405163411befff60e11b81526001600160a01b038516600482015283151560248201526044016110e2565b6001600160a01b0384166000908152600460209081526040808320805460ff1916871515179055600990915290819020815160e0810190925260085490919081906133bf9063ffffffff16866164c6565b63ffffffff908116825285811660208084018290526001600160a01b03808b166040808701829052600060608089018290526080808a0183905260a0808b0184905260c09a8b018490528c5460018181018f559d85528885208d5160059092020180548e8b01518f890151909a16600160401b02600160401b600160e01b03199a8e166401000000000267ffffffffffffffff19909216938e16939093171798909816178755918b01519b86019b909b5599890151600285015598880151600384015596909501516004909101805491151560ff199092169190911790559285526009835293839020835160e08101909452938352600854918301916134c69116866163a6565b63ffffffff90811682526001600160a01b038881166020808501829052600060408087018290526060808801839052608080890184905260a09889018490528a5460018082018d559b85528585208b5160059092020180548c8801518d870151938c1667ffffffffffffffff199092169190911764010000000091909b160299909917600160401b600160e01b031916600160401b9190981602969096178755880151868a015593870151600286015594860151600385015560c0909501516004909301805460ff1916931515939093179092556007805495860181559092527fa66cc928b5edb82af9bd49922954155ab7b0942694bea4ce44661d9a8736c68890930180546001600160a01b031916841790555185151581527fc8c34f23fafb34e68119c1d231ef03d0d47225b15e2c4de3efbefa14b0181d86910160405180910390a250505050565b61364e6040518060a0016040528060001515815260200160006001600160a01b031681526020016000815260200160008152602001600081525090565b6001600160a01b0383166000908152600a602052604090208054839081106136785761367861634e565b60009182526020918290206040805160a081018252600493909302909101805460ff81161515845261010090046001600160a01b0316938301939093526001830154908201526002820154606082015260039091015460808201529392505050565b61110e81336158e0565b60008051602061687483398151915280546001190161371657604051633ee5aeb560e01b815260040160405180910390fd5b60029055565b6000805160206168548339815191525460ff1615610c8d5760405163d93c066560e01b815260040160405180910390fd5b6001600160a01b038216600090815260096020526040812054900361378857604051637d58ebb960e01b8152600060048201526024016110e2565b60005b6001600160a01b0384166000908152600a6020526040902054811015610cab576001600160a01b038481166000908152600a602052604090208054839286169190839081106137dc576137dc61634e565b600091825260209091206004909102015461010090046001600160a01b031603613e30576001600160a01b0385166000908152600a6020526040902080548290811061382a5761382a61634e565b600091825260209091206004909102015460ff16156138495750613e32565b6001600160a01b03841660009081526009602052604081205461386e90600190616393565b6001600160a01b0387166000908152600a602052604090208054919250908390811061389c5761389c61634e565b90600052602060002090600402016003015460096000876001600160a01b03166001600160a01b0316815260200190815260200160002082815481106138e4576138e461634e565b906000526020600020906005020160010160008282546139049190616393565b90915550506001600160a01b0386166000908152600a602052604081208054829190859081106139365761393661634e565b90600052602060002090600402016003015490506000600a60008a6001600160a01b03166001600160a01b0316815260200190815260200160002085815481106139825761398261634e565b9060005260206000209060040201600101549050838111156139b75760405163374c934360e11b815260040160405180910390fd5b805b84811015613b17576001600160a01b0389166000908152600960205260409020546139e690600190616393565b811115613a0957604051637d58ebb960e01b8152600481018290526024016110e2565b6001600160a01b0389166000908152600960205260408120805483908110613a3357613a3361634e565b906000526020600020906005020160010154600960008c6001600160a01b03166001600160a01b031681526020019081526020016000208381548110613a7b57613a7b61634e565b90600052602060002090600502016002015485613a989190616420565b613aa29190616437565b9050613aae818661640d565b6001600160a01b038b1660009081526009602052604090208054919650829184908110613add57613add61634e565b90600052602060002090600502016003016000828254613afd919061640d565b90915550829150613b0f90508161637a565b9150506139b9565b5060008311613b545760405162461bcd60e51b8152602060048201526009602482015268139bc814995dd85c9960ba1b60448201526064016110e2565b613b5e838361640d565b91508615613e2b576001600160a01b0389166000908152600a6020526040902080546001919087908110613b9457613b9461634e565b60009182526020909120600490910201805460ff1916911515919091179055613bbe888a85613f04565b506001600160a01b0389166000908152600a602052604090205460011015613d84576001600160a01b0389166000908152600a602052604090208054613c0690600190616393565b81548110613c1657613c1661634e565b9060005260206000209060040201600a60008b6001600160a01b03166001600160a01b031681526020019081526020016000208681548110613c5a57613c5a61634e565b600091825260208083208454600490930201805460ff909316151560ff1984168117825585546001600160a01b03610100918290048116909102610100600160a81b03199092166001600160a81b03199095169490941717815560018086015490820155600280860154908201556003948501549401939093558b168152600a90915260409020805480613cf057613cf06164e3565b60008281526020812060046000199093019283020180546001600160a81b0319168155600181018290556002810182905560030155905585613d31816164f9565b96507f0ad30059d4072ae2525ebaaa5b6878f1c50df5f3b921615031c7d0f12dc4a77b90508982868b613d648888616393565b88604051613d7796959493929190616516565b60405180910390a1613e2b565b6001600160a01b0389166000908152600a60205260409020805485919087908110613db157613db161634e565b906000526020600020906004020160010181905550613dd1888a84613f04565b50604080516001600160a01b038b81168252602082018490528183018790528a1660608201526080810185905290517f7e6fedb6f824b2112ac0626ced32f6be6324d554cc03efd112aa021ee4d740ac9181900360a00190a15b505050505b505b80613e3c81616550565b91505061378b565b600160008051602061687483398151915255565b6000600080516020616834833981519152613e738484611f34565b613ef3576000848152602082815260408083206001600160a01b03871684529091529020805460ff19166001179055613ea93390565b6001600160a01b0316836001600160a01b0316857f2f8788117e7eff1d82e926ec794901d17c78024a50270940304540a733656f0d60405160405180910390a46001915050610b0a565b6000915050610b0a565b5092915050565b6001600160a01b03831660009081526004602052604081205460ff16613f48576040516305fd61ad60e01b81526001600160a01b03851660048201526024016110e2565b6001600160a01b03841660009081526005602052604081208054849290613f70908490616393565b909155505073eeeeeeeeeeeeeeeeeeeeeeeeeeeeeeeeeeeeeeed196001600160a01b03851601613ff75781471015613fbb57604051632c1d501360e11b815260040160405180910390fd5b6040516001600160a01b0384169083156108fc029084906000818181858888f19350505050158015613ff1573d6000803e3d6000fd5b5061409f565b6040516370a0823160e01b815230600482015282906001600160a01b038616906370a0823190602401602060405180830381865afa15801561403d573d6000803e3d6000fd5b505050506040513d601f19601f8201168201806040525081019061406191906163f4565b101561408b576040516311745b6160e21b81526001600160a01b03851660048201526024016110e2565b61409f6001600160a01b038516848461590b565b5060019392505050565b6001600160a01b0383166000908152600a602052604081208054849081106140d3576140d361634e565b600091825260208083206004909202909101546001600160a01b03610100909104168083526009909152604082205490925061411190600190616393565b6001600160a01b0386166000908152600a602052604090208054919250908590811061413f5761413f61634e565b90600052602060002090600402016003015460096000846001600160a01b03166001600160a01b0316815260200190815260200160002082815481106141875761418761634e565b906000526020600020906005020160010160008282546141a79190616393565b90915550506001600160a01b0385166000908152600a602052604081208054829190879081106141d9576141d961634e565b90600052602060002090600402016003015490506000600a6000896001600160a01b03166001600160a01b0316815260200190815260200160002087815481106142255761422561634e565b90600052602060002090600402016001015490508381111561425a5760405163374c934360e11b815260040160405180910390fd5b805b848110156143ba576001600160a01b03861660009081526009602052604090205461428990600190616393565b8111156142ac57604051637d58ebb960e01b8152600481018290526024016110e2565b6001600160a01b03861660009081526009602052604081208054839081106142d6576142d661634e565b90600052602060002090600502016001015460096000896001600160a01b03166001600160a01b03168152602001908152602001600020838154811061431e5761431e61634e565b9060005260206000209060050201600201548561433b9190616420565b6143459190616437565b9050614351818661640d565b6001600160a01b038816600090815260096020526040902080549196508291849081106143805761438061634e565b906000526020600020906005020160030160008282546143a0919061640d565b909155508291506143b290508161637a565b91505061425c565b50600083116143f75760405162461bcd60e51b8152602060048201526009602482015268139bc814995dd85c9960ba1b60448201526064016110e2565b614401838361640d565b6001600160a01b0389166000908152600a602052604090208054919350600191899081106144315761443161634e565b60009182526020909120600490910201805460ff1916911515919091179055851561470d576001600160a01b0388166000908152600a60205260409020805460019190899081106144845761448461634e565b60009182526020909120600490910201805460ff19169115159190911790556144ae858985613f04565b506001600160a01b0388166000908152600a602052604090205460011015614666576001600160a01b0388166000908152600a6020526040902080546144f690600190616393565b815481106145065761450661634e565b9060005260206000209060040201600a60008a6001600160a01b03166001600160a01b03168152602001908152602001600020888154811061454a5761454a61634e565b600091825260208083208454600490930201805460ff909316151560ff1984168117825585546001600160a01b03610100918290048116909102610100600160a81b03199092166001600160a81b03199095169490941717815560018086015490820155600280860154908201556003948501549401939093558a168152600a909152604090208054806145e0576145e06164e3565b60008281526020812060046000199093019283020180546001600160a81b031916815560018101829055600281018290556003015590557f0ad30059d4072ae2525ebaaa5b6878f1c50df5f3b921615031c7d0f12dc4a77b888286886146468888616393565b8860405161465996959493929190616516565b60405180910390a161470d565b6001600160a01b0388166000908152600a602052604090208054859190899081106146935761469361634e565b9060005260206000209060040201600101819055506146b3858984613f04565b50604080516001600160a01b038a8116825260208201849052818301879052871660608201526080810185905290517f7e6fedb6f824b2112ac0626ced32f6be6324d554cc03efd112aa021ee4d740ac9181900360a00190a15b5050505050505050565b60006000805160206168348339815191526147328484611f34565b15613ef3576000848152602082815260408083206001600160a01b0387168085529252808320805460ff1916905551339287917ff6391f5c32d9c69d2a47ea670b442974b53935d1edc7fd64eb21e047a839171b9190a46001915050610b0a565b610cab84856001600160a01b03166323b872dd8686866040516024016147bb93929190616485565b604051602081830303815290604052915060e01b6020820180516001600160e01b038381831617835250505050615931565b6147f5615994565b600080516020616854833981519152805460ff191681557f5db9ee0a495bf2e6ff9c91a7834c1ba4fdd244a5e8aa4e537bd38aeae4b073aa335b6040516001600160a01b03909116815260200160405180910390a150565b610c8d6159c4565b61485d6159c4565b610c8d615a0d565b61486d6159c4565b610c8d615a15565b61487d6159c4565b67016345785d8a000060015561271060025561489a600083613e58565b50600080546001600160a01b0319166001600160a01b039290921691909117905550565b6148c661371c565b600080516020616854833981519152805460ff191660011781557f62e78cea01bee320cd4e420270b5ea74000d11b0c9f74754ebdbfc544b05a2583361482f565b73eeeeeeeeeeeeeeeeeeeeeeeeeeeeeeeeeeeeeeed196001600160a01b03841601614a3957604051636bb825d760e11b8152620298106004820152600090730d7e906bd9cafa154b048cfa766cc1e54e39af9b9063d7704bae90602401602060405180830381865afa158015614981573d6000803e3d6000fd5b505050506040513d601f19601f820116820180604052508101906149a591906163f4565b9050737f2b8c31f88b6006c382775eea88297ec1e3e90563ce0b63ce6149cb838561640d565b6040516001600160e01b031960e084901b1681526001600160a01b0387166004820152602481018690526202981060448201526064016000604051808303818588803b158015614a1a57600080fd5b505af1158015614a2e573d6000803e3d6000fd5b505050505050505050565b73c02aaa39b223fe8d0a0e5c4f27ead9083c756cc1196001600160a01b03841601614be057604051636bb825d760e11b8152614e206004820152600090730d7e906bd9cafa154b048cfa766cc1e54e39af9b9063d7704bae90602401602060405180830381865afa158015614ab2573d6000803e3d6000fd5b505050506040513d601f19601f82011682018060405250810190614ad691906163f4565b60405163095ea7b360e01b81529091506001600160a01b0385169063095ea7b390614b1b90737ac440cae8eb6328de4fa621163a792c1ea9d4fe908690600401616568565b6020604051808303816000875af1158015614b3a573d6000803e3d6000fd5b505050506040513d601f19601f82011682018060405250810190614b5e91906164a9565b5060405163790cfd3360e11b81526001600160a01b0380861660048301528416602482015260448101839052614e206064820152737ac440cae8eb6328de4fa621163a792c1ea9d4fe9063f219fa66906084015b600060405180830381600087803b158015614bcc57600080fd5b505af115801561470d573d6000803e3d6000fd5b604051636bb825d760e11b8152614e206004820152600090730d7e906bd9cafa154b048cfa766cc1e54e39af9b9063d7704bae90602401602060405180830381865afa158015614c34573d6000803e3d6000fd5b505050506040513d601f19601f82011682018060405250810190614c5891906163f4565b60405163095ea7b360e01b81529091506001600160a01b0385169063095ea7b390614c9d90737ac440cae8eb6328de4fa621163a792c1ea9d4fe908690600401616568565b6020604051808303816000875af1158015614cbc573d6000803e3d6000fd5b505050506040513d601f19601f82011682018060405250810190614ce091906164a9565b5060405163790cfd3360e11b81526001600160a01b0380861660048301528416602482015260448101839052614e20606482015273d8a791fe2be73eb6e6cf1eb0cb3f36adc9b3f8f99063f219fa6690608401614bb2565b73eeeeeeeeeeeeeeeeeeeeeeeeeeeeeeeeeeeeeeed196001600160a01b03841601614db95760405163cd58657960e01b8152732a3dd3eb832af982ec71669e178424b10dca2ede9063cd586579908390614da090600190879084906000908190600401616581565b6000604051808303818588803b158015614bcc57600080fd5b60405163095ea7b360e01b81526001600160a01b0384169063095ea7b390614dfb90732a3dd3eb832af982ec71669e178424b10dca2ede908590600401616568565b6020604051808303816000875af1158015614e1a573d6000803e3d6000fd5b505050506040513d601f19601f82011682018060405250810190614e3e91906164a9565b5060405163cd58657960e01b8152732a3dd3eb832af982ec71669e178424b10dca2ede9063cd58657990614e8090600190869086908990600090600401616581565b600060405180830381600087803b158015614e9a57600080fd5b505af11580156117db573d6000803e3d6000fd5b73eeeeeeeeeeeeeeeeeeeeeeeeeeeeeeeeeeeeeeed196001600160a01b03841601614f0f57604051639a2ac6d560e01b81527399c9fc46f92e8a1c0dec1b1747d010903e884be190639a2ac6d5908390614da09086906000906004016165c8565b6000614f1a84615a36565b60405163095ea7b360e01b81529091506001600160a01b0385169063095ea7b390614f5f907399c9fc46f92e8a1c0dec1b1747d010903e884be1908690600401616568565b6020604051808303816000875af1158015614f7e573d6000803e3d6000fd5b505050506040513d601f19601f82011682018060405250810190614fa291906164a9565b507399c9fc46f92e8a1c0dec1b1747d010903e884be163838b2520858386865a6040518663ffffffff1660e01b8152600401614bb29594939291906165f6565b73eeeeeeeeeeeeeeeeeeeeeeeeeeeeeeeeeeeeeeed196001600160a01b038416016150a057604051634fb1a07b60e01b81527372ce9c846789fdb6fc1f34ac4ad25dd9ef7031ef90634fb1a07b908390615059906000805160206167f483398151915290309088908590600090819060040161663e565b60006040518083038185885af1158015615077573d6000803e3d6000fd5b50505050506040513d6000823e601f3d908101601f19168201604052610cab91908101906166ab565b73c02aaa39b223fe8d0a0e5c4f27ead9083c756cc1196001600160a01b038416016151d45760405163095ea7b360e01b81526001600160a01b0384169063095ea7b3906151079073d92023e9d9911199a6711321d1277285e6d4e2db908590600401616568565b6020604051808303816000875af1158015615126573d6000803e3d6000fd5b505050506040513d601f19601f8201168201806040525081019061514a91906164a9565b50604051634fb1a07b60e01b815273d92023e9d9911199a6711321d1277285e6d4e2db90634fb1a07b9061518d908690309087908790600090819060040161663e565b6000604051808303816000875af11580156151ac573d6000803e3d6000fd5b505050506040513d6000823e601f3d908101601f19168201604052610cab91908101906166ab565b60405163095ea7b360e01b81526001600160a01b0384169063095ea7b3906152169073a3a7b6f88361f48403514059f1f16c8e78d60eec908590600401616568565b6020604051808303816000875af1158015615235573d6000803e3d6000fd5b505050506040513d601f19601f8201168201806040525081019061525991906164a9565b50604051634fb1a07b60e01b815273a3a7b6f88361f48403514059f1f16c8e78d60eec90634fb1a07b9061518d908690309087908790600090819060040161663e565b73eeeeeeeeeeeeeeeeeeeeeeeeeeeeeeeeeeeeeeed196001600160a01b0384160161531357604051634fb1a07b60e01b815273c840838bc438d73c16c2f8b22d2ce3669963cd4890634fb1a07b908390615059906000805160206167f483398151915290309088908590600090819060040161663e565b73c02aaa39b223fe8d0a0e5c4f27ead9083c756cc1196001600160a01b038416016154005760405163095ea7b360e01b81526001600160a01b0384169063095ea7b39061537a9073e4e2121b479017955be0b175305b35f312330bae908590600401616568565b6020604051808303816000875af1158015615399573d6000803e3d6000fd5b505050506040513d601f19601f820116820180604052508101906153bd91906164a9565b50604051634fb1a07b60e01b815273e4e2121b479017955be0b175305b35f312330bae90634fb1a07b9061518d908690309087908790600090819060040161663e565b60405163095ea7b360e01b81526001600160a01b0384169063095ea7b3906154429073b2535b988dce19f9d71dfb22db6da744acac21bf908590600401616568565b6020604051808303816000875af1158015615461573d6000803e3d6000fd5b505050506040513d601f19601f8201168201806040525081019061548591906164a9565b50604051634fb1a07b60e01b815273b2535b988dce19f9d71dfb22db6da744acac21bf90634fb1a07b9061518d908690309087908790600090819060040161663e565b73eeeeeeeeeeeeeeeeeeeeeeeeeeeeeeeeeeeeeeed196001600160a01b038416016155745760405163e8b99b1b60e01b81527357891966931eb4bb6fb81430e6ce0a03aabde0639063e8b99b1b908390615531908690600090849082908190309060040161673f565b60206040518083038185885af115801561554f573d6000803e3d6000fd5b50505050506040513d601f19601f82011682018060405250810190610cab91906163f4565b60405163095ea7b360e01b81526001600160a01b0384169063095ea7b3906155b6907357891966931eb4bb6fb81430e6ce0a03aabde063908590600401616568565b6020604051808303816000875af11580156155d5573d6000803e3d6000fd5b505050506040513d601f19601f820116820180604052508101906155f991906164a9565b5060405163e8b99b1b60e01b81527357891966931eb4bb6fb81430e6ce0a03aabde0639063e8b99b1b9061563c908590879086906000908190309060040161673f565b6020604051808303816000875af115801561565b573d6000803e3d6000fd5b505050506040513d601f19601f82011682018060405250810190610cab91906163f4565b73eeeeeeeeeeeeeeeeeeeeeeeeeeeeeeeeeeeeeeed196001600160a01b038416016156de57604051639a2ac6d560e01b81527395fc37a27a2f68e3a647cdc081f0a89bb47c301290639a2ac6d590614e809085906000906004016165c8565b60405163095ea7b360e01b81526001600160a01b0384169063095ea7b390615720907395fc37a27a2f68e3a647cdc081f0a89bb47c3012908590600401616568565b6020604051808303816000875af115801561573f573d6000803e3d6000fd5b505050506040513d601f19601f8201168201806040525081019061576391906164a9565b507395fc37a27a2f68e3a647cdc081f0a89bb47c301263838b25208461578881615b54565b858560006040518663ffffffff1660e01b8152600401614e809594939291906165f6565b73eeeeeeeeeeeeeeeeeeeeeeeeeeeeeeeeeeeeeeed196001600160a01b0384160161580d57604051639a2ac6d560e01b8152733b95bc951ee0f553ba487327278cac44f29715e590639a2ac6d5908390614da09086906000906004016165c8565b600061581884615bd6565b60405163095ea7b360e01b81529091506001600160a01b0385169063095ea7b39061585d90733b95bc951ee0f553ba487327278cac44f29715e5908690600401616568565b6020604051808303816000875af115801561587c573d6000803e3d6000fd5b505050506040513d601f19601f820116820180604052508101906158a091906164a9565b50733b95bc951ee0f553ba487327278cac44f29715e563838b2520858386865a6040518663ffffffff1660e01b8152600401614bb29594939291906165f6565b6158ea8282611f34565b611aab57808260405163e2517d3f60e01b81526004016110e2929190616568565b610bee83846001600160a01b031663a9059cbb85856040516024016147bb929190616568565b60006159466001600160a01b03841683615c98565b9050805160001415801561596b57508080602001905181019061596991906164a9565b155b15610bee57604051635274afe760e01b81526001600160a01b03841660048201526024016110e2565b6000805160206168548339815191525460ff16610c8d57604051638dfc202b60e01b815260040160405180910390fd5b7ff0c57e16840df040f15088dc2f81fe391c3923bec73e23a9662efc9c229c6a0054600160401b900460ff16610c8d57604051631afcd79f60e31b815260040160405180910390fd5b613e446159c4565b615a1d6159c4565b600080516020616854833981519152805460ff19169055565b600073c02aaa39b223fe8d0a0e5c4f27ead9083c756cc1196001600160a01b03831601615a6b57506006602160991b01919050565b73dac17f958d2ee523a2206206994597c13d831ec6196001600160a01b03831601615aab57507394b008aa00579c1307b0ef2c499ad98a8ce58e58919050565b73a0b86991c6218b36c1d19d4a2e9eb0ce3606eb47196001600160a01b03831601615aeb5750730b2c639c533813f4aa9d7837caf62653d097ff85919050565b736b175474e89094c44da98b954eedeac495271d0e196001600160a01b03831601615b2b575073da10009cbd5d07dd0cecc66161fc93d7c9000da1919050565b6040516305fd61ad60e01b81526001600160a01b03831660048201526024016110e2565b919050565b600073dac17f958d2ee523a2206206994597c13d831ec6196001600160a01b03831601615b96575073201eba5cc46d216ce6dc03f6a759e8e766e956ae919050565b73a0b86991c6218b36c1d19d4a2e9eb0ce3606eb47196001600160a01b03831601615b2b575073201eba5cc46d216ce6dc03f6a759e8e766e956ae919050565b600073dac17f958d2ee523a2206206994597c13d831ec6196001600160a01b03831601615c18575073f417f5a458ec102b90352f697d6e2ac3a3d2851f919050565b73a0b86991c6218b36c1d19d4a2e9eb0ce3606eb47196001600160a01b03831601615c58575073b73603c5d87fa094b7314c74ace2e64d165016fb919050565b736b175474e89094c44da98b954eedeac495271d0e196001600160a01b03831601615b2b5750731c466b9371f8aba0d7c458be10a62192fcb8aa71919050565b606061271c8383600084600080856001600160a01b03168486604051615cbe9190616777565b60006040518083038185875af1925050503d8060008114615cfb576040519150601f19603f3d011682016040523d82523d6000602084013e615d00565b606091505b5091509150615d10868383615d1a565b9695505050505050565b606082615d2f57615d2a82615d76565b61271c565b8151158015615d4657506001600160a01b0384163b155b15615d6f57604051639996b31560e01b81526001600160a01b03851660048201526024016110e2565b508061271c565b805115615d865780518082602001fd5b604051630a12f52160e11b815260040160405180910390fd5b600060208284031215615db157600080fd5b81356001600160e01b03198116811461271c57600080fd5b80356001600160a01b0381168114615b4f57600080fd5b60008060408385031215615df357600080fd5b615dfc83615dc9565b946020939093013593505050565b600060208284031215615e1c57600080fd5b61271c82615dc9565b801515811461110e57600080fd5b60008060408385031215615e4657600080fd5b615e4f83615dc9565b91506020830135615e5f81615e25565b809150509250929050565b600060208284031215615e7c57600080fd5b5035919050565b60008060408385031215615e9657600080fd5b82359150615ea660208401615dc9565b90509250929050565b600080600060608486031215615ec457600080fd5b615ecd84615dc9565b9250615edb60208501615dc9565b9150604084013590509250925092565b634e487b7160e01b600052604160045260246000fd5b60405160e0810167ffffffffffffffff81118282101715615f2457615f24615eeb565b60405290565b604051601f8201601f1916810167ffffffffffffffff81118282101715615f5357615f53615eeb565b604052919050565b803563ffffffff81168114615b4f57600080fd5b60006020808385031215615f8257600080fd5b823567ffffffffffffffff80821115615f9a57600080fd5b818501915085601f830112615fae57600080fd5b813581811115615fc057615fc0615eeb565b615fce848260051b01615f2a565b818152848101925060e0918202840185019188831115615fed57600080fd5b938501935b8285101561607d5780858a03121561600a5760008081fd5b616012615f01565b61601b86615f5b565b8152616028878701615f5b565b878201526040616039818801615dc9565b90820152606086810135908201526080808701359082015260a0808701359082015260c08087013561606a81615e25565b9082015284529384019392850192615ff2565b50979650505050505050565b60008060008060008060c087890312156160a257600080fd5b86359550602087013594506160b960408801615dc9565b9350606087013592506080870135915060a087013590509295509295509295565b600080600080600060a086880312156160f257600080fd5b853594506020860135935061610960408701615dc9565b925061611760608701615dc9565b949793965091946080013592915050565b6000806040838503121561613b57600080fd5b61614483615dc9565b9150615ea660208401615dc9565b8051151582526020808201516001600160a01b0316908301526040808201519083015260608082015190830152608090810151910152565b6020808252825182820181905260009190848201906040850190845b818110156161cc576161b9838551616152565b9284019260a092909201916001016161a6565b50909695505050505050565b600080600080600080600060e0888a0312156161f357600080fd5b873596506020880135955061620a60408901615dc9565b945061621860608901615dc9565b9699959850939660808101359560a0820135955060c0909101359350915050565b60008060006060848603121561624e57600080fd5b833592506020840135915061626560408501615dc9565b90509250925092565b6000806000806080858703121561628457600080fd5b843593506020850135925061629b60408601615dc9565b9396929550929360600135925050565b600080604083850312156162be57600080fd5b823591506020830135615e5f81615e25565b600080600080608085870312156162e657600080fd5b843593506162f660208601615dc9565b925061629b60408601615dc9565b60008060006060848603121561631957600080fd5b61632284615dc9565b9250602084013561633281615e25565b915061626560408501615f5b565b60a08101610b0a8284616152565b634e487b7160e01b600052603260045260246000fd5b634e487b7160e01b600052601160045260246000fd5b60006001820161638c5761638c616364565b5060010190565b81810381811115610b0a57610b0a616364565b63ffffffff818116838216019080821115613efd57613efd616364565b95865260208601949094526001600160a01b039290921660408501526060840152608083015260a082015260c00190565b60006020828403121561640657600080fd5b5051919050565b80820180821115610b0a57610b0a616364565b8082028115828204841417610b0a57610b0a616364565b60008261645457634e487b7160e01b600052601260045260246000fd5b500490565b94855260208501939093526001600160a01b039190911660408401526060830152608082015260a00190565b6001600160a01b039384168152919092166020820152604081019190915260600190565b6000602082840312156164bb57600080fd5b815161271c81615e25565b63ffffffff828116828216039080821115613efd57613efd616364565b634e487b7160e01b600052603160045260246000fd5b6000600160ff1b820161650e5761650e616364565b506000190190565b6001600160a01b0396871681526020810195909552604085019390935293166060830152608082019290925260a081019190915260c00190565b60006001600160ff1b01820161638c5761638c616364565b6001600160a01b03929092168252602082015260400190565b63ffffffff9590951685526001600160a01b039384166020860152604085019290925290911660608301521515608082015260c060a0820181905260009082015260e00190565b6001600160a01b0392909216825263ffffffff16602082015260606040820181905260009082015260800190565b6001600160a01b0395861681529385166020850152919093166040830152606082019290925263ffffffff909116608082015260c060a0820181905260009082015260e00190565b6001600160a01b03968716815294861660208601529290941660408401526060830152608082019290925260a081019190915260e060c082018190526000908201526101000190565b60005b838110156166a257818101518382015260200161668a565b50506000910152565b6000602082840312156166bd57600080fd5b815167ffffffffffffffff808211156166d557600080fd5b818401915084601f8301126166e957600080fd5b8151818111156166fb576166fb615eeb565b61670e601f8201601f1916602001615f2a565b915080825285602082850101111561672557600080fd5b616736816020840160208601616687565b50949350505050565b6001600160a01b039687168152948616602086015260408501939093526060840191909152608083015290911660a082015260c00190565b60008251616789818460208701616687565b919091019291505056fea1829a9003092132f585b6ccdd167c19fe9774dbdea4260287e8a8e8ca8185d700a206b70d87cacff7a19f3d98e0957b781c25fb4ae954252c87bcf40626174233fe247d78fee2e7fd135c405eda4bd2911c0a73c0a81b36c3bcc967dd06e5ae000000000000000000000000eeeeeeeeeeeeeeeeeeeeeeeeeeeeeeeeeeeeeeeea4adb76af136dce1635a653828507074afe3128b2c1b9d295c78c04cdae4286e02dd7bc7dec4dceedda775e58dd541e08a116c6c53815c0bd028192f7b626800cd5ed15c6e187e77e9aee88184c21f4f2182ab5827cb3b7e07fbedcd63f033009b779b17422d0df92223018b32b4d1fa46e071723d6817e2486d003becc55f00a264697066735822122046e94d45a7fa7a798813a168973b18e3b9feb7e47ca701324aba3a4e56b5e32c64736f6c63430008140033",
    "linkReferences": {}
  },
  "methodIdentifiers": {
    "BridgeFinalizeERC20(uint256,uint256,address,address,uint256,uint256,uint256)": "92d84738",
    "BridgeFinalizeETH(uint256,uint256,address,uint256,uint256,uint256)": "38731c47",
    "BridgeFinalizeWETH(uint256,uint256,address,uint256,uint256,uint256)": "5765a4eb",
    "BridgeInitiateERC20(uint256,uint256,address,address,uint256)": "3b0230f0",
    "BridgeInitiateETH(uint256,uint256,address)": "9b442380",
    "BridgeInitiateWETH(uint256,uint256,address,uint256)": "cd01c665",
    "ClaimAllReward()": "2c37388b",
    "ClaimbyID(uint256)": "34d34ef5",
    "CompletePoolAndNew((uint32,uint32,address,uint256,uint256,uint256,bool)[])": "3338562c",
    "DEFAULT_ADMIN_ROLE()": "a217fddf",
    "DepositAndStaking(address,uint256)": "9ab0b652",
    "DepositAndStakingERC20(address,uint256)": "4dfaef84",
    "DepositAndStakingETH()": "96f984e6",
    "DepositAndStakingWETH(uint256)": "bc42493d",
    "FeePoolValue(address)": "54dc027e",
    "FundingPoolBalance(address)": "dbb0481f",
    "IsSupportChainId(uint256)": "72fe6a7e",
    "IsSupportToken(address)": "dac29568",
    "L2WETH()": "b1887e9b",
    "MinStakeAmount(address)": "1ca2f173",
    "MinTransferAmount()": "09dc480c",
    "PerFee()": "dd0c3460",
    "Pools(address,uint256)": "4663cdc8",
    "QuickSendAssertToUser(address,address,uint256)": "325e5d43",
    "ReLayer()": "fa861848",
    "SetSupportToken(address,bool,uint32)": "faeb96a5",
    "SupportTokens(uint256)": "626417b5",
    "TransferAssertToBridge(uint256,address,address,uint256)": "f91fa9a8",
    "Users(address,uint256)": "13e8544e",
    "WithdrawAll()": "5a648bc5",
    "WithdrawByID(uint256)": "f62a89cf",
    "getPool(address,uint256)": "5b5b9ea2",
    "getPoolLength(address)": "f8fcc2aa",
    "getRoleAdmin(bytes32)": "248a9ca3",
    "getUser(address)": "6f77926b",
    "getUser(address,uint256)": "ff2bf64f",
    "getUserLength(address)": "cb4f04ad",
    "grantRole(bytes32,address)": "2f2ff15d",
    "hasRole(bytes32,address)": "91d14854",
    "initialize(address,address)": "485cc955",
    "messageManager()": "10875a13",
    "pause()": "8456cb59",
    "paused()": "5c975abb",
    "periodTime()": "1d31fac0",
    "renounceRole(bytes32,address)": "36568abe",
    "revokeRole(bytes32,address)": "d547741f",
    "setMinStakeAmount(address,uint256)": "cb314fab",
    "setMinTransferAmount(uint256)": "b92e6396",
    "setPerFee(uint256)": "650c2276",
    "setSupportToken(address,bool)": "204daa93",
    "setValidChainId(uint256,bool)": "d73f14e5",
    "supportsInterface(bytes4)": "01ffc9a7",
    "unpause()": "3f4ba83a"
  },
  "id": 56
}