{
  "abi": [
    {
      "inputs": [
        {
          "internalType": "uint256",
          "name": "minDelay",
          "type": "uint256"
        },
        {
          "internalType": "address[]",
          "name": "proposers",
          "type": "address[]"
        },
        {
          "internalType": "address[]",
          "name": "executors",
          "type": "address[]"
        },
        {
          "internalType": "address",
          "name": "admin",
          "type": "address"
        }
      ],
      "stateMutability": "nonpayable",
      "type": "constructor"
    },
    {
      "inputs": [],
      "name": "AccessControlBadConfirmation",
      "type": "error"
    },
    {
      "inputs": [
        {
          "internalType": "address",
          "name": "account",
          "type": "address"
        },
        {
          "internalType": "bytes32",
          "name": "neededRole",
          "type": "bytes32"
        }
      ],
      "name": "AccessControlUnauthorizedAccount",
      "type": "error"
    },
    {
      "inputs": [],
      "name": "FailedInnerCall",
      "type": "error"
    },
    {
      "inputs": [
        {
          "internalType": "uint256",
          "name": "delay",
          "type": "uint256"
        },
        {
          "internalType": "uint256",
          "name": "minDelay",
          "type": "uint256"
        }
      ],
      "name": "TimelockInsufficientDelay",
      "type": "error"
    },
    {
      "inputs": [
        {
          "internalType": "uint256",
          "name": "targets",
          "type": "uint256"
        },
        {
          "internalType": "uint256",
          "name": "payloads",
          "type": "uint256"
        },
        {
          "internalType": "uint256",
          "name": "values",
          "type": "uint256"
        }
      ],
      "name": "TimelockInvalidOperationLength",
      "type": "error"
    },
    {
      "inputs": [
        {
          "internalType": "address",
          "name": "caller",
          "type": "address"
        }
      ],
      "name": "TimelockUnauthorizedCaller",
      "type": "error"
    },
    {
      "inputs": [
        {
          "internalType": "bytes32",
          "name": "predecessorId",
          "type": "bytes32"
        }
      ],
      "name": "TimelockUnexecutedPredecessor",
      "type": "error"
    },
    {
      "inputs": [
        {
          "internalType": "bytes32",
          "name": "operationId",
          "type": "bytes32"
        },
        {
          "internalType": "bytes32",
          "name": "expectedStates",
          "type": "bytes32"
        }
      ],
      "name": "TimelockUnexpectedOperationState",
      "type": "error"
    },
    {
      "anonymous": false,
      "inputs": [
        {
          "indexed": true,
          "internalType": "bytes32",
          "name": "id",
          "type": "bytes32"
        },
        {
          "indexed": true,
          "internalType": "uint256",
          "name": "index",
          "type": "uint256"
        },
        {
          "indexed": false,
          "internalType": "address",
          "name": "target",
          "type": "address"
        },
        {
          "indexed": false,
          "internalType": "uint256",
          "name": "value",
          "type": "uint256"
        },
        {
          "indexed": false,
          "internalType": "bytes",
          "name": "data",
          "type": "bytes"
        }
      ],
      "name": "CallExecuted",
      "type": "event"
    },
    {
      "anonymous": false,
      "inputs": [
        {
          "indexed": true,
          "internalType": "bytes32",
          "name": "id",
          "type": "bytes32"
        },
        {
          "indexed": false,
          "internalType": "bytes32",
          "name": "salt",
          "type": "bytes32"
        }
      ],
      "name": "CallSalt",
      "type": "event"
    },
    {
      "anonymous": false,
      "inputs": [
        {
          "indexed": true,
          "internalType": "bytes32",
          "name": "id",
          "type": "bytes32"
        },
        {
          "indexed": true,
          "internalType": "uint256",
          "name": "index",
          "type": "uint256"
        },
        {
          "indexed": false,
          "internalType": "address",
          "name": "target",
          "type": "address"
        },
        {
          "indexed": false,
          "internalType": "uint256",
          "name": "value",
          "type": "uint256"
        },
        {
          "indexed": false,
          "internalType": "bytes",
          "name": "data",
          "type": "bytes"
        },
        {
          "indexed": false,
          "internalType": "bytes32",
          "name": "predecessor",
          "type": "bytes32"
        },
        {
          "indexed": false,
          "internalType": "uint256",
          "name": "delay",
          "type": "uint256"
        }
      ],
      "name": "CallScheduled",
      "type": "event"
    },
    {
      "anonymous": false,
      "inputs": [
        {
          "indexed": true,
          "internalType": "bytes32",
          "name": "id",
          "type": "bytes32"
        }
      ],
      "name": "Cancelled",
      "type": "event"
    },
    {
      "anonymous": false,
      "inputs": [
        {
          "indexed": false,
          "internalType": "uint256",
          "name": "oldDuration",
          "type": "uint256"
        },
        {
          "indexed": false,
          "internalType": "uint256",
          "name": "newDuration",
          "type": "uint256"
        }
      ],
      "name": "MinDelayChange",
      "type": "event"
    },
    {
      "anonymous": false,
      "inputs": [
        {
          "indexed": true,
          "internalType": "bytes32",
          "name": "role",
          "type": "bytes32"
        },
        {
          "indexed": true,
          "internalType": "bytes32",
          "name": "previousAdminRole",
          "type": "bytes32"
        },
        {
          "indexed": true,
          "internalType": "bytes32",
          "name": "newAdminRole",
          "type": "bytes32"
        }
      ],
      "name": "RoleAdminChanged",
      "type": "event"
    },
    {
      "anonymous": false,
      "inputs": [
        {
          "indexed": true,
          "internalType": "bytes32",
          "name": "role",
          "type": "bytes32"
        },
        {
          "indexed": true,
          "internalType": "address",
          "name": "account",
          "type": "address"
        },
        {
          "indexed": true,
          "internalType": "address",
          "name": "sender",
          "type": "address"
        }
      ],
      "name": "RoleGranted",
      "type": "event"
    },
    {
      "anonymous": false,
      "inputs": [
        {
          "indexed": true,
          "internalType": "bytes32",
          "name": "role",
          "type": "bytes32"
        },
        {
          "indexed": true,
          "internalType": "address",
          "name": "account",
          "type": "address"
        },
        {
          "indexed": true,
          "internalType": "address",
          "name": "sender",
          "type": "address"
        }
      ],
      "name": "RoleRevoked",
      "type": "event"
    },
    {
      "inputs": [],
      "name": "CANCELLER_ROLE",
      "outputs": [
        {
          "internalType": "bytes32",
          "name": "",
          "type": "bytes32"
        }
      ],
      "stateMutability": "view",
      "type": "function"
    },
    {
      "inputs": [],
      "name": "DEFAULT_ADMIN_ROLE",
      "outputs": [
        {
          "internalType": "bytes32",
          "name": "",
          "type": "bytes32"
        }
      ],
      "stateMutability": "view",
      "type": "function"
    },
    {
      "inputs": [],
      "name": "EXECUTOR_ROLE",
      "outputs": [
        {
          "internalType": "bytes32",
          "name": "",
          "type": "bytes32"
        }
      ],
      "stateMutability": "view",
      "type": "function"
    },
    {
      "inputs": [],
      "name": "PROPOSER_ROLE",
      "outputs": [
        {
          "internalType": "bytes32",
          "name": "",
          "type": "bytes32"
        }
      ],
      "stateMutability": "view",
      "type": "function"
    },
    {
      "inputs": [
        {
          "internalType": "bytes32",
          "name": "id",
          "type": "bytes32"
        }
      ],
      "name": "cancel",
      "outputs": [],
      "stateMutability": "nonpayable",
      "type": "function"
    },
    {
      "inputs": [
        {
          "internalType": "address",
          "name": "target",
          "type": "address"
        },
        {
          "internalType": "uint256",
          "name": "value",
          "type": "uint256"
        },
        {
          "internalType": "bytes",
          "name": "payload",
          "type": "bytes"
        },
        {
          "internalType": "bytes32",
          "name": "predecessor",
          "type": "bytes32"
        },
        {
          "internalType": "bytes32",
          "name": "salt",
          "type": "bytes32"
        }
      ],
      "name": "execute",
      "outputs": [],
      "stateMutability": "payable",
      "type": "function"
    },
    {
      "inputs": [
        {
          "internalType": "address[]",
          "name": "targets",
          "type": "address[]"
        },
        {
          "internalType": "uint256[]",
          "name": "values",
          "type": "uint256[]"
        },
        {
          "internalType": "bytes[]",
          "name": "payloads",
          "type": "bytes[]"
        },
        {
          "internalType": "bytes32",
          "name": "predecessor",
          "type": "bytes32"
        },
        {
          "internalType": "bytes32",
          "name": "salt",
          "type": "bytes32"
        }
      ],
      "name": "executeBatch",
      "outputs": [],
      "stateMutability": "payable",
      "type": "function"
    },
    {
      "inputs": [],
      "name": "getMinDelay",
      "outputs": [
        {
          "internalType": "uint256",
          "name": "",
          "type": "uint256"
        }
      ],
      "stateMutability": "view",
      "type": "function"
    },
    {
      "inputs": [
        {
          "internalType": "bytes32",
          "name": "id",
          "type": "bytes32"
        }
      ],
      "name": "getOperationState",
      "outputs": [
        {
          "internalType": "enum TimelockController.OperationState",
          "name": "",
          "type": "uint8"
        }
      ],
      "stateMutability": "view",
      "type": "function"
    },
    {
      "inputs": [
        {
          "internalType": "bytes32",
          "name": "role",
          "type": "bytes32"
        }
      ],
      "name": "getRoleAdmin",
      "outputs": [
        {
          "internalType": "bytes32",
          "name": "",
          "type": "bytes32"
        }
      ],
      "stateMutability": "view",
      "type": "function"
    },
    {
      "inputs": [
        {
          "internalType": "bytes32",
          "name": "id",
          "type": "bytes32"
        }
      ],
      "name": "getTimestamp",
      "outputs": [
        {
          "internalType": "uint256",
          "name": "",
          "type": "uint256"
        }
      ],
      "stateMutability": "view",
      "type": "function"
    },
    {
      "inputs": [
        {
          "internalType": "bytes32",
          "name": "role",
          "type": "bytes32"
        },
        {
          "internalType": "address",
          "name": "account",
          "type": "address"
        }
      ],
      "name": "grantRole",
      "outputs": [],
      "stateMutability": "nonpayable",
      "type": "function"
    },
    {
      "inputs": [
        {
          "internalType": "bytes32",
          "name": "role",
          "type": "bytes32"
        },
        {
          "internalType": "address",
          "name": "account",
          "type": "address"
        }
      ],
      "name": "hasRole",
      "outputs": [
        {
          "internalType": "bool",
          "name": "",
          "type": "bool"
        }
      ],
      "stateMutability": "view",
      "type": "function"
    },
    {
      "inputs": [
        {
          "internalType": "address",
          "name": "target",
          "type": "address"
        },
        {
          "internalType": "uint256",
          "name": "value",
          "type": "uint256"
        },
        {
          "internalType": "bytes",
          "name": "data",
          "type": "bytes"
        },
        {
          "internalType": "bytes32",
          "name": "predecessor",
          "type": "bytes32"
        },
        {
          "internalType": "bytes32",
          "name": "salt",
          "type": "bytes32"
        }
      ],
      "name": "hashOperation",
      "outputs": [
        {
          "internalType": "bytes32",
          "name": "",
          "type": "bytes32"
        }
      ],
      "stateMutability": "pure",
      "type": "function"
    },
    {
      "inputs": [
        {
          "internalType": "address[]",
          "name": "targets",
          "type": "address[]"
        },
        {
          "internalType": "uint256[]",
          "name": "values",
          "type": "uint256[]"
        },
        {
          "internalType": "bytes[]",
          "name": "payloads",
          "type": "bytes[]"
        },
        {
          "internalType": "bytes32",
          "name": "predecessor",
          "type": "bytes32"
        },
        {
          "internalType": "bytes32",
          "name": "salt",
          "type": "bytes32"
        }
      ],
      "name": "hashOperationBatch",
      "outputs": [
        {
          "internalType": "bytes32",
          "name": "",
          "type": "bytes32"
        }
      ],
      "stateMutability": "pure",
      "type": "function"
    },
    {
      "inputs": [
        {
          "internalType": "bytes32",
          "name": "id",
          "type": "bytes32"
        }
      ],
      "name": "isOperation",
      "outputs": [
        {
          "internalType": "bool",
          "name": "",
          "type": "bool"
        }
      ],
      "stateMutability": "view",
      "type": "function"
    },
    {
      "inputs": [
        {
          "internalType": "bytes32",
          "name": "id",
          "type": "bytes32"
        }
      ],
      "name": "isOperationDone",
      "outputs": [
        {
          "internalType": "bool",
          "name": "",
          "type": "bool"
        }
      ],
      "stateMutability": "view",
      "type": "function"
    },
    {
      "inputs": [
        {
          "internalType": "bytes32",
          "name": "id",
          "type": "bytes32"
        }
      ],
      "name": "isOperationPending",
      "outputs": [
        {
          "internalType": "bool",
          "name": "",
          "type": "bool"
        }
      ],
      "stateMutability": "view",
      "type": "function"
    },
    {
      "inputs": [
        {
          "internalType": "bytes32",
          "name": "id",
          "type": "bytes32"
        }
      ],
      "name": "isOperationReady",
      "outputs": [
        {
          "internalType": "bool",
          "name": "",
          "type": "bool"
        }
      ],
      "stateMutability": "view",
      "type": "function"
    },
    {
      "inputs": [
        {
          "internalType": "address",
          "name": "",
          "type": "address"
        },
        {
          "internalType": "address",
          "name": "",
          "type": "address"
        },
        {
          "internalType": "uint256[]",
          "name": "",
          "type": "uint256[]"
        },
        {
          "internalType": "uint256[]",
          "name": "",
          "type": "uint256[]"
        },
        {
          "internalType": "bytes",
          "name": "",
          "type": "bytes"
        }
      ],
      "name": "onERC1155BatchReceived",
      "outputs": [
        {
          "internalType": "bytes4",
          "name": "",
          "type": "bytes4"
        }
      ],
      "stateMutability": "nonpayable",
      "type": "function"
    },
    {
      "inputs": [
        {
          "internalType": "address",
          "name": "",
          "type": "address"
        },
        {
          "internalType": "address",
          "name": "",
          "type": "address"
        },
        {
          "internalType": "uint256",
          "name": "",
          "type": "uint256"
        },
        {
          "internalType": "uint256",
          "name": "",
          "type": "uint256"
        },
        {
          "internalType": "bytes",
          "name": "",
          "type": "bytes"
        }
      ],
      "name": "onERC1155Received",
      "outputs": [
        {
          "internalType": "bytes4",
          "name": "",
          "type": "bytes4"
        }
      ],
      "stateMutability": "nonpayable",
      "type": "function"
    },
    {
      "inputs": [
        {
          "internalType": "address",
          "name": "",
          "type": "address"
        },
        {
          "internalType": "address",
          "name": "",
          "type": "address"
        },
        {
          "internalType": "uint256",
          "name": "",
          "type": "uint256"
        },
        {
          "internalType": "bytes",
          "name": "",
          "type": "bytes"
        }
      ],
      "name": "onERC721Received",
      "outputs": [
        {
          "internalType": "bytes4",
          "name": "",
          "type": "bytes4"
        }
      ],
      "stateMutability": "nonpayable",
      "type": "function"
    },
    {
      "inputs": [
        {
          "internalType": "bytes32",
          "name": "role",
          "type": "bytes32"
        },
        {
          "internalType": "address",
          "name": "callerConfirmation",
          "type": "address"
        }
      ],
      "name": "renounceRole",
      "outputs": [],
      "stateMutability": "nonpayable",
      "type": "function"
    },
    {
      "inputs": [
        {
          "internalType": "bytes32",
          "name": "role",
          "type": "bytes32"
        },
        {
          "internalType": "address",
          "name": "account",
          "type": "address"
        }
      ],
      "name": "revokeRole",
      "outputs": [],
      "stateMutability": "nonpayable",
      "type": "function"
    },
    {
      "inputs": [
        {
          "internalType": "address",
          "name": "target",
          "type": "address"
        },
        {
          "internalType": "uint256",
          "name": "value",
          "type": "uint256"
        },
        {
          "internalType": "bytes",
          "name": "data",
          "type": "bytes"
        },
        {
          "internalType": "bytes32",
          "name": "predecessor",
          "type": "bytes32"
        },
        {
          "internalType": "bytes32",
          "name": "salt",
          "type": "bytes32"
        },
        {
          "internalType": "uint256",
          "name": "delay",
          "type": "uint256"
        }
      ],
      "name": "schedule",
      "outputs": [],
      "stateMutability": "nonpayable",
      "type": "function"
    },
    {
      "inputs": [
        {
          "internalType": "address[]",
          "name": "targets",
          "type": "address[]"
        },
        {
          "internalType": "uint256[]",
          "name": "values",
          "type": "uint256[]"
        },
        {
          "internalType": "bytes[]",
          "name": "payloads",
          "type": "bytes[]"
        },
        {
          "internalType": "bytes32",
          "name": "predecessor",
          "type": "bytes32"
        },
        {
          "internalType": "bytes32",
          "name": "salt",
          "type": "bytes32"
        },
        {
          "internalType": "uint256",
          "name": "delay",
          "type": "uint256"
        }
      ],
      "name": "scheduleBatch",
      "outputs": [],
      "stateMutability": "nonpayable",
      "type": "function"
    },
    {
      "inputs": [
        {
          "internalType": "address",
          "name": "pool",
          "type": "address"
        },
        {
          "internalType": "address",
          "name": "_relayer",
          "type": "address"
        }
      ],
      "name": "setRelayer",
      "outputs": [],
      "stateMutability": "nonpayable",
      "type": "function"
    },
    {
      "inputs": [
        {
          "internalType": "bytes32",
          "name": "role",
          "type": "bytes32"
        },
        {
          "internalType": "bytes32",
          "name": "adminRole",
          "type": "bytes32"
        }
      ],
      "name": "setRoleAdmin",
      "outputs": [],
      "stateMutability": "nonpayable",
      "type": "function"
    },
    {
      "inputs": [
        {
          "internalType": "bytes4",
          "name": "interfaceId",
          "type": "bytes4"
        }
      ],
      "name": "supportsInterface",
      "outputs": [
        {
          "internalType": "bool",
          "name": "",
          "type": "bool"
        }
      ],
      "stateMutability": "view",
      "type": "function"
    },
    {
      "inputs": [
        {
          "internalType": "uint256",
          "name": "newDelay",
          "type": "uint256"
        }
      ],
      "name": "updateDelay",
      "outputs": [],
      "stateMutability": "nonpayable",
      "type": "function"
    },
    {
      "stateMutability": "payable",
      "type": "receive"
    }
  ],
  "bytecode": {
    "object": "0x60806040523480156200001157600080fd5b506040516200200938038062002009833981016040819052620000349162000348565b8383838362000045600030620001b9565b506001600160a01b03811615620000655762000063600082620001b9565b505b60005b83518110156200010f57620000c07fb09aa5aeb3702cfd50b6b62bc4532604938f21248a27a1d5ca736082b6819cc1858381518110620000ac57620000ac620003cf565b6020026020010151620001b960201b60201c565b50620000fb7ffd643c72710c63c0180259aba6b2d05451e3591a24e58b62239378085726f783858381518110620000ac57620000ac620003cf565b506200010781620003e5565b905062000068565b5060005b82518110156200016b57620001577fd8aa0f3194971a2a116679f7c2090f6939c8d4e01a2a8d7e41d55e5351469e63848381518110620000ac57620000ac620003cf565b506200016381620003e5565b905062000113565b5060028490556040805160008152602081018690527f11c24f4ead16507c69ac467fbd5e4eed5fb5c699626d2cc6d66421df253886d5910160405180910390a150505050505050506200040d565b6000828152602081815260408083206001600160a01b038516845290915281205460ff166200025e576000838152602081815260408083206001600160a01b03861684529091529020805460ff19166001179055620002153390565b6001600160a01b0316826001600160a01b0316847f2f8788117e7eff1d82e926ec794901d17c78024a50270940304540a733656f0d60405160405180910390a450600162000262565b5060005b92915050565b634e487b7160e01b600052604160045260246000fd5b80516001600160a01b03811681146200029657600080fd5b919050565b600082601f830112620002ad57600080fd5b815160206001600160401b0380831115620002cc57620002cc62000268565b8260051b604051601f19603f83011681018181108482111715620002f457620002f462000268565b6040529384528581018301938381019250878511156200031357600080fd5b83870191505b848210156200033d576200032d826200027e565b8352918301919083019062000319565b979650505050505050565b600080600080608085870312156200035f57600080fd5b845160208601519094506001600160401b03808211156200037f57600080fd5b6200038d888389016200029b565b94506040870151915080821115620003a457600080fd5b50620003b3878288016200029b565b925050620003c4606086016200027e565b905092959194509250565b634e487b7160e01b600052603260045260246000fd5b6000600182016200040657634e487b7160e01b600052601160045260246000fd5b5060010190565b611bec806200041d6000396000f3fe6080604052600436106101d15760003560e01c80637958004c116100f7578063b1c5f42711610095578063d547741f11610064578063d547741f146105c0578063e38335e5146105e0578063f23a6e61146105f3578063f27a0c921461061f57600080fd5b8063b1c5f42714610527578063bc197c8114610547578063c4d252f514610573578063d45c44351461059357600080fd5b80638f61f4f5116100d15780638f61f4f51461048a57806391d14854146104be578063a217fddf146104de578063b08e51c0146104f357600080fd5b80637958004c1461041d5780638065657f1461044a5780638f2a0bb01461046a57600080fd5b8063248a9ca31161016f57806336568abe1161013e57806336568abe1461039d578063584b153e146103bd57806364d62353146103dd57806369d775a4146103fd57600080fd5b8063248a9ca31461030d5780632ab0f5291461033d5780632f2ff15d1461035d57806331d507501461037d57600080fd5b8063134008d3116101ab578063134008d31461027657806313bc9f2014610289578063150b7a02146102a95780631e4e0091146102ed57600080fd5b806301d5062a146101dd57806301ffc9a7146101ff57806307bd02651461023457600080fd5b366101d857005b600080fd5b3480156101e957600080fd5b506101fd6101f8366004611306565b610634565b005b34801561020b57600080fd5b5061021f61021a36600461137a565b61070a565b60405190151581526020015b60405180910390f35b34801561024057600080fd5b506102687fd8aa0f3194971a2a116679f7c2090f6939c8d4e01a2a8d7e41d55e5351469e6381565b60405190815260200161022b565b6101fd6102843660046113a4565b61071b565b34801561029557600080fd5b5061021f6102a436600461140f565b6107d0565b3480156102b557600080fd5b506102d46102c43660046114dd565b630a85bd0160e11b949350505050565b6040516001600160e01b0319909116815260200161022b565b3480156102f957600080fd5b506101fd610308366004611544565b6107f6565b34801561031957600080fd5b5061026861032836600461140f565b60009081526020819052604090206001015490565b34801561034957600080fd5b5061021f61035836600461140f565b610810565b34801561036957600080fd5b506101fd610378366004611566565b610819565b34801561038957600080fd5b5061021f61039836600461140f565b610844565b3480156103a957600080fd5b506101fd6103b8366004611566565b610869565b3480156103c957600080fd5b5061021f6103d836600461140f565b61089c565b3480156103e957600080fd5b506101fd6103f836600461140f565b6108e2565b34801561040957600080fd5b506101fd610418366004611592565b610955565b34801561042957600080fd5b5061043d61043836600461140f565b6109e6565b60405161022b91906115d2565b34801561045657600080fd5b506102686104653660046113a4565b610a31565b34801561047657600080fd5b506101fd61048536600461163e565b610a70565b34801561049657600080fd5b506102687fb09aa5aeb3702cfd50b6b62bc4532604938f21248a27a1d5ca736082b6819cc181565b3480156104ca57600080fd5b5061021f6104d9366004611566565b610c06565b3480156104ea57600080fd5b50610268600081565b3480156104ff57600080fd5b506102687ffd643c72710c63c0180259aba6b2d05451e3591a24e58b62239378085726f78381565b34801561053357600080fd5b506102686105423660046116ef565b610c2f565b34801561055357600080fd5b506102d4610562366004611816565b63bc197c8160e01b95945050505050565b34801561057f57600080fd5b506101fd61058e36600461140f565b610c74565b34801561059f57600080fd5b506102686105ae36600461140f565b60009081526001602052604090205490565b3480156105cc57600080fd5b506101fd6105db366004611566565b610d1f565b6101fd6105ee3660046116ef565b610d44565b3480156105ff57600080fd5b506102d461060e3660046118bf565b63f23a6e6160e01b95945050505050565b34801561062b57600080fd5b50600254610268565b7fb09aa5aeb3702cfd50b6b62bc4532604938f21248a27a1d5ca736082b6819cc161065e81610ed1565b600061066e898989898989610a31565b905061067a8184610ede565b6000817f4cf4410cc57040e44862ef0f45f3dd5a5e02db8eb8add648d4b0e236f1d07dca8b8b8b8b8b8a6040516106b69695949392919061194c565b60405180910390a383156106ff57807f20fda5fd27a1ea7bf5b9567f143ac5470bb059374a27e8f67cb44f946f6d0387856040516106f691815260200190565b60405180910390a25b505050505050505050565b600061071582610f72565b92915050565b7fd8aa0f3194971a2a116679f7c2090f6939c8d4e01a2a8d7e41d55e5351469e63610747816000610c06565b610755576107558133610f97565b6000610765888888888888610a31565b90506107718185610fd4565b61077d88888888611022565b6000817fc2617efa69bab66782fa219543714338489c4e9e178271560a91b82c3f612b588a8a8a8a6040516107b59493929190611989565b60405180910390a36107c681611091565b5050505050505050565b600060025b6107de836109e6565b60038111156107ef576107ef6115bc565b1492915050565b600061080181610ed1565b61080b83836110bd565b505050565b600060036107d5565b60008281526020819052604090206001015461083481610ed1565b61083e8383611108565b50505050565b600080610850836109e6565b6003811115610861576108616115bc565b141592915050565b6001600160a01b03811633146108925760405163334bd91960e11b815260040160405180910390fd5b61080b828261119a565b6000806108a8836109e6565b905060018160038111156108be576108be6115bc565b14806108db575060028160038111156108d9576108d96115bc565b145b9392505050565b333081146109135760405163e2850c5960e01b81526001600160a01b03821660048201526024015b60405180910390fd5b60025460408051918252602082018490527f11c24f4ead16507c69ac467fbd5e4eed5fb5c699626d2cc6d66421df253886d5910160405180910390a150600255565b600061096081610ed1565b604051632f2ff15d60e01b81527f0685f9a33ecc8d58f6db2634bbe92aa174d2b8ca9e4e571760206f3509a84e0060048201526001600160a01b038381166024830152841690632f2ff15d90604401600060405180830381600087803b1580156109c957600080fd5b505af11580156109dd573d6000803e3d6000fd5b50505050505050565b60008181526001602052604081205480600003610a065750600092915050565b60018103610a175750600392915050565b42811115610a285750600192915050565b50600292915050565b6000868686868686604051602001610a4e9695949392919061194c565b6040516020818303038152906040528051906020012090509695505050505050565b7fb09aa5aeb3702cfd50b6b62bc4532604938f21248a27a1d5ca736082b6819cc1610a9a81610ed1565b8887141580610aa95750888514155b15610adb576040516001624fcdef60e01b03198152600481018a9052602481018690526044810188905260640161090a565b6000610aed8b8b8b8b8b8b8b8b610c2f565b9050610af98184610ede565b60005b8a811015610bb75780827f4cf4410cc57040e44862ef0f45f3dd5a5e02db8eb8add648d4b0e236f1d07dca8e8e85818110610b3957610b396119bb565b9050602002016020810190610b4e91906119d1565b8d8d86818110610b6057610b606119bb565b905060200201358c8c87818110610b7957610b796119bb565b9050602002810190610b8b91906119ec565b8c8b604051610b9f9695949392919061194c565b60405180910390a3610bb081611a48565b9050610afc565b508315610bf957807f20fda5fd27a1ea7bf5b9567f143ac5470bb059374a27e8f67cb44f946f6d038785604051610bf091815260200190565b60405180910390a25b5050505050505050505050565b6000918252602082815260408084206001600160a01b0393909316845291905290205460ff1690565b60008888888888888888604051602001610c50989796959493929190611af2565b60405160208183030381529060405280519060200120905098975050505050505050565b7ffd643c72710c63c0180259aba6b2d05451e3591a24e58b62239378085726f783610c9e81610ed1565b610ca78261089c565b610ce35781610cb66002611205565b610cc06001611205565b604051635ead8eb560e01b8152600481019390935217602482015260440161090a565b6000828152600160205260408082208290555183917fbaa1eb22f2a492ba1a5fea61b8df4d27c6c8b5f3971e63bb58fa14ff72eedb7091a25050565b600082815260208190526040902060010154610d3a81610ed1565b61083e838361119a565b7fd8aa0f3194971a2a116679f7c2090f6939c8d4e01a2a8d7e41d55e5351469e63610d70816000610c06565b610d7e57610d7e8133610f97565b8786141580610d8d5750878414155b15610dbf576040516001624fcdef60e01b0319815260048101899052602481018590526044810187905260640161090a565b6000610dd18a8a8a8a8a8a8a8a610c2f565b9050610ddd8185610fd4565b60005b89811015610ebb5760008b8b83818110610dfc57610dfc6119bb565b9050602002016020810190610e1191906119d1565b905060008a8a84818110610e2757610e276119bb565b9050602002013590503660008a8a86818110610e4557610e456119bb565b9050602002810190610e5791906119ec565b91509150610e6784848484611022565b84867fc2617efa69bab66782fa219543714338489c4e9e178271560a91b82c3f612b5886868686604051610e9e9493929190611989565b60405180910390a35050505080610eb490611a48565b9050610de0565b50610ec581611091565b50505050505050505050565b610edb8133610f97565b50565b610ee782610844565b15610f195781610ef76000611205565b604051635ead8eb560e01b81526004810192909252602482015260440161090a565b6000610f2460025490565b905080821015610f5157604051635433660960e01b8152600481018390526024810182905260440161090a565b610f5b8242611b93565b600093845260016020526040909320929092555050565b60006001600160e01b03198216630271189760e51b1480610715575061071582611228565b610fa18282610c06565b610fd05760405163e2517d3f60e01b81526001600160a01b03821660048201526024810183905260440161090a565b5050565b610fdd826107d0565b610fec5781610ef76002611205565b80158015906110015750610fff81610810565b155b15610fd05760405163121534c360e31b81526004810182905260240161090a565b600080856001600160a01b0316858585604051611040929190611ba6565b60006040518083038185875af1925050503d806000811461107d576040519150601f19603f3d011682016040523d82523d6000602084013e611082565b606091505b50915091506109dd828261125d565b61109a816107d0565b6110a95780610ef76002611205565b600090815260016020819052604090912055565b600082815260208190526040808220600101805490849055905190918391839186917fbd79b86ffe0ab8e8776151514217cd7cacd52c909f66475c3af44e129f0b00ff9190a4505050565b60006111148383610c06565b611192576000838152602081815260408083206001600160a01b03861684529091529020805460ff1916600117905561114a3390565b6001600160a01b0316826001600160a01b0316847f2f8788117e7eff1d82e926ec794901d17c78024a50270940304540a733656f0d60405160405180910390a4506001610715565b506000610715565b60006111a68383610c06565b15611192576000838152602081815260408083206001600160a01b0386168085529252808320805460ff1916905551339286917ff6391f5c32d9c69d2a47ea670b442974b53935d1edc7fd64eb21e047a839171b9190a4506001610715565b6000816003811115611219576112196115bc565b600160ff919091161b92915050565b60006001600160e01b03198216637965db0b60e01b148061071557506301ffc9a760e01b6001600160e01b0319831614610715565b6060826112725761126d82611279565b610715565b5080610715565b8051156112895780518082602001fd5b604051630a12f52160e11b815260040160405180910390fd5b80356001600160a01b03811681146112b957600080fd5b919050565b60008083601f8401126112d057600080fd5b5081356001600160401b038111156112e757600080fd5b6020830191508360208285010111156112ff57600080fd5b9250929050565b600080600080600080600060c0888a03121561132157600080fd5b61132a886112a2565b96506020880135955060408801356001600160401b0381111561134c57600080fd5b6113588a828b016112be565b989b979a50986060810135976080820135975060a09091013595509350505050565b60006020828403121561138c57600080fd5b81356001600160e01b0319811681146108db57600080fd5b60008060008060008060a087890312156113bd57600080fd5b6113c6876112a2565b95506020870135945060408701356001600160401b038111156113e857600080fd5b6113f489828a016112be565b979a9699509760608101359660809091013595509350505050565b60006020828403121561142157600080fd5b5035919050565b634e487b7160e01b600052604160045260246000fd5b604051601f8201601f191681016001600160401b038111828210171561146657611466611428565b604052919050565b600082601f83011261147f57600080fd5b81356001600160401b0381111561149857611498611428565b6114ab601f8201601f191660200161143e565b8181528460208386010111156114c057600080fd5b816020850160208301376000918101602001919091529392505050565b600080600080608085870312156114f357600080fd5b6114fc856112a2565b935061150a602086016112a2565b92506040850135915060608501356001600160401b0381111561152c57600080fd5b6115388782880161146e565b91505092959194509250565b6000806040838503121561155757600080fd5b50508035926020909101359150565b6000806040838503121561157957600080fd5b82359150611589602084016112a2565b90509250929050565b600080604083850312156115a557600080fd5b6115ae836112a2565b9150611589602084016112a2565b634e487b7160e01b600052602160045260246000fd5b60208101600483106115f457634e487b7160e01b600052602160045260246000fd5b91905290565b60008083601f84011261160c57600080fd5b5081356001600160401b0381111561162357600080fd5b6020830191508360208260051b85010111156112ff57600080fd5b600080600080600080600080600060c08a8c03121561165c57600080fd5b89356001600160401b038082111561167357600080fd5b61167f8d838e016115fa565b909b50995060208c013591508082111561169857600080fd5b6116a48d838e016115fa565b909950975060408c01359150808211156116bd57600080fd5b506116ca8c828d016115fa565b9a9d999c50979a969997986060880135976080810135975060a0013595509350505050565b60008060008060008060008060a0898b03121561170b57600080fd5b88356001600160401b038082111561172257600080fd5b61172e8c838d016115fa565b909a50985060208b013591508082111561174757600080fd5b6117538c838d016115fa565b909850965060408b013591508082111561176c57600080fd5b506117798b828c016115fa565b999c989b509699959896976060870135966080013595509350505050565b600082601f8301126117a857600080fd5b813560206001600160401b038211156117c3576117c3611428565b8160051b6117d282820161143e565b92835284810182019282810190878511156117ec57600080fd5b83870192505b8483101561180b578235825291830191908301906117f2565b979650505050505050565b600080600080600060a0868803121561182e57600080fd5b611837866112a2565b9450611845602087016112a2565b935060408601356001600160401b038082111561186157600080fd5b61186d89838a01611797565b9450606088013591508082111561188357600080fd5b61188f89838a01611797565b935060808801359150808211156118a557600080fd5b506118b28882890161146e565b9150509295509295909350565b600080600080600060a086880312156118d757600080fd5b6118e0866112a2565b94506118ee602087016112a2565b9350604086013592506060860135915060808601356001600160401b0381111561191757600080fd5b6118b28882890161146e565b81835281816020850137506000828201602090810191909152601f909101601f19169091010190565b60018060a01b038716815285602082015260a06040820152600061197460a083018688611923565b60608301949094525060800152949350505050565b60018060a01b03851681528360208201526060604082015260006119b1606083018486611923565b9695505050505050565b634e487b7160e01b600052603260045260246000fd5b6000602082840312156119e357600080fd5b6108db826112a2565b6000808335601e19843603018112611a0357600080fd5b8301803591506001600160401b03821115611a1d57600080fd5b6020019150368190038213156112ff57600080fd5b634e487b7160e01b600052601160045260246000fd5b600060018201611a5a57611a5a611a32565b5060010190565b81835260006020808501808196508560051b810191508460005b87811015611ae55782840389528135601e19883603018112611a9c57600080fd5b870185810190356001600160401b03811115611ab757600080fd5b803603821315611ac657600080fd5b611ad1868284611923565b9a87019a9550505090840190600101611a7b565b5091979650505050505050565b60a0808252810188905260008960c08301825b8b811015611b33576001600160a01b03611b1e846112a2565b16825260209283019290910190600101611b05565b5083810360208501528881526001600160fb1b03891115611b5357600080fd5b8860051b9150818a60208301370182810360209081016040850152611b7b9082018789611a61565b60608401959095525050608001529695505050505050565b8082018082111561071557610715611a32565b818382376000910190815291905056fea2646970667358221220b80c53069637dba11a2ecb6ae40c8e100079b654c63783c9e7a005fb8834d73464736f6c63430008140033",
    "linkReferences": {}
  },
  "methodIdentifiers": {
    "CANCELLER_ROLE()": "b08e51c0",
    "DEFAULT_ADMIN_ROLE()": "a217fddf",
    "EXECUTOR_ROLE()": "07bd0265",
    "PROPOSER_ROLE()": "8f61f4f5",
    "cancel(bytes32)": "c4d252f5",
    "execute(address,uint256,bytes,bytes32,bytes32)": "134008d3",
    "executeBatch(address[],uint256[],bytes[],bytes32,bytes32)": "e38335e5",
    "getMinDelay()": "f27a0c92",
    "getOperationState(bytes32)": "7958004c",
    "getRoleAdmin(bytes32)": "248a9ca3",
    "getTimestamp(bytes32)": "d45c4435",
    "grantRole(bytes32,address)": "2f2ff15d",
    "hasRole(bytes32,address)": "91d14854",
    "hashOperation(address,uint256,bytes,bytes32,bytes32)": "8065657f",
    "hashOperationBatch(address[],uint256[],bytes[],bytes32,bytes32)": "b1c5f427",
    "isOperation(bytes32)": "31d50750",
    "isOperationDone(bytes32)": "2ab0f529",
    "isOperationPending(bytes32)": "584b153e",
    "isOperationReady(bytes32)": "13bc9f20",
    "onERC1155BatchReceived(address,address,uint256[],uint256[],bytes)": "bc197c81",
    "onERC1155Received(address,address,uint256,uint256,bytes)": "f23a6e61",
    "onERC721Received(address,address,uint256,bytes)": "150b7a02",
    "renounceRole(bytes32,address)": "36568abe",
    "revokeRole(bytes32,address)": "d547741f",
    "schedule(address,uint256,bytes,bytes32,bytes32,uint256)": "01d5062a",
    "scheduleBatch(address[],uint256[],bytes[],bytes32,bytes32,uint256)": "8f2a0bb0",
    "setRelayer(address,address)": "69d775a4",
    "setRoleAdmin(bytes32,bytes32)": "1e4e0091",
    "supportsInterface(bytes4)": "01ffc9a7",
    "updateDelay(uint256)": "64d62353"
  },
  "id": 61
}