{"abi":[{"type":"constructor","inputs":[],"stateMutability":"nonpayable"},{"type":"function","name":"BridgeFinalizeERC20","inputs":[{"name":"sourceChainId","type":"uint256","internalType":"uint256"},{"name":"destChainId","type":"uint256","internalType":"uint256"},{"name":"to","type":"address","internalType":"address"},{"name":"ERC20Address","type":"address","internalType":"address"},{"name":"amount","type":"uint256","internalType":"uint256"},{"name":"_fee","type":"uint256","internalType":"uint256"},{"name":"_nonce","type":"uint256","internalType":"uint256"}],"outputs":[{"name":"","type":"bool","internalType":"bool"}],"stateMutability":"nonpayable"},{"type":"function","name":"BridgeFinalizeETH","inputs":[{"name":"sourceChainId","type":"uint256","internalType":"uint256"},{"name":"destChainId","type":"uint256","internalType":"uint256"},{"name":"to","type":"address","internalType":"address"},{"name":"amount","type":"uint256","internalType":"uint256"},{"name":"_fee","type":"uint256","internalType":"uint256"},{"name":"_nonce","type":"uint256","internalType":"uint256"}],"outputs":[{"name":"","type":"bool","internalType":"bool"}],"stateMutability":"payable"},{"type":"function","name":"BridgeFinalizeWETH","inputs":[{"name":"sourceChainId","type":"uint256","internalType":"uint256"},{"name":"destChainId","type":"uint256","internalType":"uint256"},{"name":"to","type":"address","internalType":"address"},{"name":"amount","type":"uint256","internalType":"uint256"},{"name":"_fee","type":"uint256","internalType":"uint256"},{"name":"_nonce","type":"uint256","internalType":"uint256"}],"outputs":[{"name":"","type":"bool","internalType":"bool"}],"stateMutability":"nonpayable"},{"type":"function","name":"BridgeInitiateERC20","inputs":[{"name":"sourceChainId","type":"uint256","internalType":"uint256"},{"name":"destChainId","type":"uint256","internalType":"uint256"},{"name":"to","type":"address","internalType":"address"},{"name":"ERC20Address","type":"address","internalType":"address"},{"name":"value","type":"uint256","internalType":"uint256"}],"outputs":[{"name":"","type":"bool","internalType":"bool"}],"stateMutability":"nonpayable"},{"type":"function","name":"BridgeInitiateETH","inputs":[{"name":"sourceChainId","type":"uint256","internalType":"uint256"},{"name":"destChainId","type":"uint256","internalType":"uint256"},{"name":"to","type":"address","internalType":"address"}],"outputs":[{"name":"","type":"bool","internalType":"bool"}],"stateMutability":"payable"},{"type":"function","name":"BridgeInitiateWETH","inputs":[{"name":"sourceChainId","type":"uint256","internalType":"uint256"},{"name":"destChainId","type":"uint256","internalType":"uint256"},{"name":"to","type":"address","internalType":"address"},{"name":"value","type":"uint256","internalType":"uint256"}],"outputs":[{"name":"","type":"bool","internalType":"bool"}],"stateMutability":"nonpayable"},{"type":"function","name":"DEFAULT_ADMIN_ROLE","inputs":[],"outputs":[{"name":"","type":"bytes32","internalType":"bytes32"}],"stateMutability":"view"},{"type":"function","name":"FeePoolValue","inputs":[{"name":"","type":"address","internalType":"address"}],"outputs":[{"name":"","type":"uint256","internalType":"uint256"}],"stateMutability":"view"},{"type":"function","name":"FundingPoolBalance","inputs":[{"name":"","type":"address","internalType":"address"}],"outputs":[{"name":"","type":"uint256","internalType":"uint256"}],"stateMutability":"view"},{"type":"function","name":"IsSupportChainId","inputs":[{"name":"chainId","type":"uint256","internalType":"uint256"}],"outputs":[{"name":"","type":"bool","internalType":"bool"}],"stateMutability":"view"},{"type":"function","name":"IsSupportToken","inputs":[{"name":"","type":"address","internalType":"address"}],"outputs":[{"name":"","type":"bool","internalType":"bool"}],"stateMutability":"view"},{"type":"function","name":"L2WETH","inputs":[],"outputs":[{"name":"","type":"address","internalType":"address"}],"stateMutability":"view"},{"type":"function","name":"MAX_GAS_Limit","inputs":[],"outputs":[{"name":"","type":"uint32","internalType":"uint32"}],"stateMutability":"view"},{"type":"function","name":"MinTransferAmount","inputs":[],"outputs":[{"name":"","type":"uint256","internalType":"uint256"}],"stateMutability":"view"},{"type":"function","name":"PerFee","inputs":[],"outputs":[{"name":"","type":"uint256","internalType":"uint256"}],"stateMutability":"view"},{"type":"function","name":"QuickSendAssertToUser","inputs":[{"name":"_token","type":"address","internalType":"address"},{"name":"to","type":"address","internalType":"address"},{"name":"_amount","type":"uint256","internalType":"uint256"}],"outputs":[],"stateMutability":"nonpayable"},{"type":"function","name":"ReLayer","inputs":[],"outputs":[{"name":"","type":"bytes32","internalType":"bytes32"}],"stateMutability":"view"},{"type":"function","name":"SupportTokens","inputs":[{"name":"","type":"uint256","internalType":"uint256"}],"outputs":[{"name":"","type":"address","internalType":"address"}],"stateMutability":"view"},{"type":"function","name":"UpdateFundingPoolBalance","inputs":[{"name":"token","type":"address","internalType":"address"},{"name":"amount","type":"uint256","internalType":"uint256"}],"outputs":[],"stateMutability":"nonpayable"},{"type":"function","name":"WithdrawERC20ToL1","inputs":[{"name":"_token","type":"address","internalType":"address"},{"name":"_to","type":"address","internalType":"address"},{"name":"_amount","type":"uint256","internalType":"uint256"}],"outputs":[{"name":"","type":"bool","internalType":"bool"}],"stateMutability":"payable"},{"type":"function","name":"WithdrawETHtoL1","inputs":[{"name":"_to","type":"address","internalType":"address"},{"name":"_amount","type":"uint256","internalType":"uint256"}],"outputs":[{"name":"","type":"bool","internalType":"bool"}],"stateMutability":"payable"},{"type":"function","name":"WithdrawWETHToL1","inputs":[{"name":"_to","type":"address","internalType":"address"},{"name":"_amount","type":"uint256","internalType":"uint256"}],"outputs":[{"name":"","type":"bool","internalType":"bool"}],"stateMutability":"payable"},{"type":"function","name":"getRoleAdmin","inputs":[{"name":"role","type":"bytes32","internalType":"bytes32"}],"outputs":[{"name":"","type":"bytes32","internalType":"bytes32"}],"stateMutability":"view"},{"type":"function","name":"grantRole","inputs":[{"name":"role","type":"bytes32","internalType":"bytes32"},{"name":"account","type":"address","internalType":"address"}],"outputs":[],"stateMutability":"nonpayable"},{"type":"function","name":"hasRole","inputs":[{"name":"role","type":"bytes32","internalType":"bytes32"},{"name":"account","type":"address","internalType":"address"}],"outputs":[{"name":"","type":"bool","internalType":"bool"}],"stateMutability":"view"},{"type":"function","name":"initialize","inputs":[{"name":"_MultisigWallet","type":"address","internalType":"address"},{"name":"_messageManager","type":"address","internalType":"address"}],"outputs":[],"stateMutability":"nonpayable"},{"type":"function","name":"messageManager","inputs":[],"outputs":[{"name":"","type":"address","internalType":"contract IMessageManager"}],"stateMutability":"view"},{"type":"function","name":"pause","inputs":[],"outputs":[],"stateMutability":"nonpayable"},{"type":"function","name":"paused","inputs":[],"outputs":[{"name":"","type":"bool","internalType":"bool"}],"stateMutability":"view"},{"type":"function","name":"renounceRole","inputs":[{"name":"role","type":"bytes32","internalType":"bytes32"},{"name":"callerConfirmation","type":"address","internalType":"address"}],"outputs":[],"stateMutability":"nonpayable"},{"type":"function","name":"revokeRole","inputs":[{"name":"role","type":"bytes32","internalType":"bytes32"},{"name":"account","type":"address","internalType":"address"}],"outputs":[],"stateMutability":"nonpayable"},{"type":"function","name":"setMinTransferAmount","inputs":[{"name":"_MinTransferAmount","type":"uint256","internalType":"uint256"}],"outputs":[],"stateMutability":"nonpayable"},{"type":"function","name":"setPerFee","inputs":[{"name":"_PerFee","type":"uint256","internalType":"uint256"}],"outputs":[],"stateMutability":"nonpayable"},{"type":"function","name":"setSupportERC20Token","inputs":[{"name":"ERC20Address","type":"address","internalType":"address"},{"name":"isValid","type":"bool","internalType":"bool"}],"outputs":[],"stateMutability":"nonpayable"},{"type":"function","name":"setValidChainId","inputs":[{"name":"chainId","type":"uint256","internalType":"uint256"},{"name":"isValid","type":"bool","internalType":"bool"}],"outputs":[],"stateMutability":"nonpayable"},{"type":"function","name":"supportsInterface","inputs":[{"name":"interfaceId","type":"bytes4","internalType":"bytes4"}],"outputs":[{"name":"","type":"bool","internalType":"bool"}],"stateMutability":"view"},{"type":"function","name":"unpause","inputs":[],"outputs":[],"stateMutability":"nonpayable"},{"type":"event","name":"FinalizeERC20","inputs":[{"name":"sourceChainId","type":"uint256","indexed":false,"internalType":"uint256"},{"name":"destChainId","type":"uint256","indexed":false,"internalType":"uint256"},{"name":"ERC20Address","type":"address","indexed":true,"internalType":"address"},{"name":"from","type":"address","indexed":true,"internalType":"address"},{"name":"to","type":"address","indexed":true,"internalType":"address"},{"name":"value","type":"uint256","indexed":false,"internalType":"uint256"}],"anonymous":false},{"type":"event","name":"FinalizeETH","inputs":[{"name":"sourceChainId","type":"uint256","indexed":false,"internalType":"uint256"},{"name":"destChainId","type":"uint256","indexed":false,"internalType":"uint256"},{"name":"from","type":"address","indexed":true,"internalType":"address"},{"name":"to","type":"address","indexed":true,"internalType":"address"},{"name":"value","type":"uint256","indexed":false,"internalType":"uint256"}],"anonymous":false},{"type":"event","name":"FinalizeWETH","inputs":[{"name":"sourceChainId","type":"uint256","indexed":false,"internalType":"uint256"},{"name":"destChainId","type":"uint256","indexed":false,"internalType":"uint256"},{"name":"from","type":"address","indexed":true,"internalType":"address"},{"name":"to","type":"address","indexed":true,"internalType":"address"},{"name":"value","type":"uint256","indexed":false,"internalType":"uint256"}],"anonymous":false},{"type":"event","name":"Initialized","inputs":[{"name":"version","type":"uint64","indexed":false,"internalType":"uint64"}],"anonymous":false},{"type":"event","name":"InitiateERC20","inputs":[{"name":"sourceChainId","type":"uint256","indexed":false,"internalType":"uint256"},{"name":"destChainId","type":"uint256","indexed":false,"internalType":"uint256"},{"name":"ERC20Address","type":"address","indexed":true,"internalType":"address"},{"name":"from","type":"address","indexed":true,"internalType":"address"},{"name":"to","type":"address","indexed":true,"internalType":"address"},{"name":"value","type":"uint256","indexed":false,"internalType":"uint256"}],"anonymous":false},{"type":"event","name":"InitiateETH","inputs":[{"name":"sourceChainId","type":"uint256","indexed":false,"internalType":"uint256"},{"name":"destChainId","type":"uint256","indexed":false,"internalType":"uint256"},{"name":"from","type":"address","indexed":true,"internalType":"address"},{"name":"to","type":"address","indexed":true,"internalType":"address"},{"name":"value","type":"uint256","indexed":false,"internalType":"uint256"}],"anonymous":false},{"type":"event","name":"InitiateWETH","inputs":[{"name":"sourceChainId","type":"uint256","indexed":false,"internalType":"uint256"},{"name":"destChainId","type":"uint256","indexed":false,"internalType":"uint256"},{"name":"from","type":"address","indexed":true,"internalType":"address"},{"name":"to","type":"address","indexed":true,"internalType":"address"},{"name":"value","type":"uint256","indexed":false,"internalType":"uint256"}],"anonymous":false},{"type":"event","name":"Paused","inputs":[{"name":"account","type":"address","indexed":false,"internalType":"address"}],"anonymous":false},{"type":"event","name":"RoleAdminChanged","inputs":[{"name":"role","type":"bytes32","indexed":true,"internalType":"bytes32"},{"name":"previousAdminRole","type":"bytes32","indexed":true,"internalType":"bytes32"},{"name":"newAdminRole","type":"bytes32","indexed":true,"internalType":"bytes32"}],"anonymous":false},{"type":"event","name":"RoleGranted","inputs":[{"name":"role","type":"bytes32","indexed":true,"internalType":"bytes32"},{"name":"account","type":"address","indexed":true,"internalType":"address"},{"name":"sender","type":"address","indexed":true,"internalType":"address"}],"anonymous":false},{"type":"event","name":"RoleRevoked","inputs":[{"name":"role","type":"bytes32","indexed":true,"internalType":"bytes32"},{"name":"account","type":"address","indexed":true,"internalType":"address"},{"name":"sender","type":"address","indexed":true,"internalType":"address"}],"anonymous":false},{"type":"event","name":"Unpaused","inputs":[{"name":"account","type":"address","indexed":false,"internalType":"address"}],"anonymous":false},{"type":"event","name":"WithdrawERC20toL1Success","inputs":[{"name":"chainId","type":"uint256","indexed":false,"internalType":"uint256"},{"name":"timestamp","type":"uint256","indexed":false,"internalType":"uint256"},{"name":"token","type":"address","indexed":false,"internalType":"address"},{"name":"to","type":"address","indexed":false,"internalType":"address"},{"name":"value","type":"uint256","indexed":false,"internalType":"uint256"}],"anonymous":false},{"type":"event","name":"WithdrawETHtoL1Success","inputs":[{"name":"chainId","type":"uint256","indexed":false,"internalType":"uint256"},{"name":"timestamp","type":"uint256","indexed":false,"internalType":"uint256"},{"name":"to","type":"address","indexed":false,"internalType":"address"},{"name":"value","type":"uint256","indexed":false,"internalType":"uint256"}],"anonymous":false},{"type":"event","name":"WithdrawWETHtoL1Success","inputs":[{"name":"chainId","type":"uint256","indexed":false,"internalType":"uint256"},{"name":"timestamp","type":"uint256","indexed":false,"internalType":"uint256"},{"name":"to","type":"address","indexed":false,"internalType":"address"},{"name":"value","type":"uint256","indexed":false,"internalType":"uint256"}],"anonymous":false},{"type":"error","name":"AccessControlBadConfirmation","inputs":[]},{"type":"error","name":"AccessControlUnauthorizedAccount","inputs":[{"name":"account","type":"address","internalType":"address"},{"name":"neededRole","type":"bytes32","internalType":"bytes32"}]},{"type":"error","name":"AddressEmptyCode","inputs":[{"name":"target","type":"address","internalType":"address"}]},{"type":"error","name":"AddressInsufficientBalance","inputs":[{"name":"account","type":"address","internalType":"address"}]},{"type":"error","name":"ChainIdIsNotSupported","inputs":[{"name":"id","type":"uint256","internalType":"uint256"}]},{"type":"error","name":"ChainIdNotSupported","inputs":[{"name":"chainId","type":"uint256","internalType":"uint256"}]},{"type":"error","name":"EnforcedPause","inputs":[]},{"type":"error","name":"ErrorBlockChain","inputs":[]},{"type":"error","name":"ExpectedPause","inputs":[]},{"type":"error","name":"FailedInnerCall","inputs":[]},{"type":"error","name":"InvalidInitialization","inputs":[]},{"type":"error","name":"LessThanMinTransferAmount","inputs":[{"name":"MinTransferAmount","type":"uint256","internalType":"uint256"},{"name":"value","type":"uint256","internalType":"uint256"}]},{"type":"error","name":"MantaNotWETH","inputs":[]},{"type":"error","name":"MantleNotWETH","inputs":[]},{"type":"error","name":"NotEnoughETH","inputs":[]},{"type":"error","name":"NotEnoughToken","inputs":[{"name":"ERC20Address","type":"address","internalType":"address"}]},{"type":"error","name":"NotInitializing","inputs":[]},{"type":"error","name":"ReentrancyGuardReentrantCall","inputs":[]},{"type":"error","name":"SafeERC20FailedOperation","inputs":[{"name":"token","type":"address","internalType":"address"}]},{"type":"error","name":"TokenIsNotSupported","inputs":[{"name":"ERC20Address","type":"address","internalType":"address"}]},{"type":"error","name":"sourceChainIdError","inputs":[]}],"bytecode":{"object":"0x60806040523480156200001157600080fd5b506200001c62000022565b620000d6565b7ff0c57e16840df040f15088dc2f81fe391c3923bec73e23a9662efc9c229c6a00805468010000000000000000900460ff1615620000735760405163f92ee8a960e01b815260040160405180910390fd5b80546001600160401b0390811614620000d35780546001600160401b0319166001600160401b0390811782556040519081527fc7f505b2f371ae2175ee4913f4499e1f2633a7b5936321eed1cdaeb6115181d29060200160405180910390a15b50565b613eb180620000e66000396000f3fe60806040526004361061021a5760003560e01c8063650c227611610123578063b1887e9b116100ab578063d73f14e51161006f578063d73f14e514610619578063dac2956814610639578063dbb0481f14610669578063dd0c346014610696578063fa861848146106ac57600080fd5b8063b1887e9b14610591578063b92e6396146105a6578063cd01c665146105c6578063d28597f4146105e6578063d547741f146105f957600080fd5b806392d84738116100f257806392d84738146104f75780639b44238014610517578063a217fddf1461052a578063a525ae2b1461053f578063ab0f9e191461057157600080fd5b8063650c22761461047257806372fe6a7e146104925780638456cb59146104c257806391d14854146104d757600080fd5b806338731c47116101a6578063485cc95511610175578063485cc955146103c057806354dc027e146103e05780635765a4eb1461040d5780635c975abb1461042d578063626417b51461045257600080fd5b806338731c471461036557806339891dd7146103785780633b0230f01461038b5780633f4ba83a146103ab57600080fd5b806310875a13116101ed57806310875a13146102ad578063248a9ca3146102e55780632f2ff15d14610305578063325e5d431461032557806336568abe1461034557600080fd5b806301ffc9a71461021f5780630227047a1461025457806309dc480c146102675780630cd727df1461028b575b600080fd5b34801561022b57600080fd5b5061023f61023a3660046137ca565b6106c1565b60405190151581526020015b60405180910390f35b61023f610262366004613810565b6106f8565b34801561027357600080fd5b5061027d60015481565b60405190815260200161024b565b34801561029757600080fd5b506102ab6102a636600461384c565b610f6b565b005b3480156102b957600080fd5b506000546102cd906001600160a01b031681565b6040516001600160a01b03909116815260200161024b565b3480156102f157600080fd5b5061027d610300366004613876565b610fd6565b34801561031157600080fd5b506102ab61032036600461388f565b610ff8565b34801561033157600080fd5b506102ab610340366004613810565b61101a565b34801561035157600080fd5b506102ab61036036600461388f565b61107a565b61023f6103733660046138bb565b6110b2565b61023f61038636600461384c565b611296565b34801561039757600080fd5b5061023f6103a636600461390c565b6118f7565b3480156103b757600080fd5b506102ab611bfb565b3480156103cc57600080fd5b506102ab6103db36600461395a565b611c11565b3480156103ec57600080fd5b5061027d6103fb366004613984565b60066020526000908152604090205481565b34801561041957600080fd5b5061023f6104283660046138bb565b611d45565b34801561043957600080fd5b50600080516020613e5c8339815191525460ff1661023f565b34801561045e57600080fd5b506102cd61046d366004613876565b611f74565b34801561047e57600080fd5b506102ab61048d366004613876565b611f9e565b34801561049e57600080fd5b5061023f6104ad366004613876565b60009081526003602052604090205460ff1690565b3480156104ce57600080fd5b506102ab611faf565b3480156104e357600080fd5b5061023f6104f236600461388f565b611fc2565b34801561050357600080fd5b5061023f61051236600461399f565b611ffa565b61023f610525366004613a00565b612205565b34801561053657600080fd5b5061027d600081565b34801561054b57600080fd5b5060085461055c9063ffffffff1681565b60405163ffffffff909116815260200161024b565b34801561057d57600080fd5b506102ab61058c366004613a43565b612419565b34801561059d57600080fd5b506102cd6124a3565b3480156105b257600080fd5b506102ab6105c1366004613876565b6125a8565b3480156105d257600080fd5b5061023f6105e1366004613a7a565b6125fc565b61023f6105f436600461384c565b61297b565b34801561060557600080fd5b506102ab61061436600461388f565b61307a565b34801561062557600080fd5b506102ab610634366004613ab7565b613096565b34801561064557600080fd5b5061023f610654366004613984565b60046020526000908152604090205460ff1681565b34801561067557600080fd5b5061027d610684366004613984565b60056020526000908152604090205481565b3480156106a257600080fd5b5061027d60025481565b3480156106b857600080fd5b5061027d6130c2565b60006001600160e01b03198216637965db0b60e01b14806106f257506301ffc9a760e01b6001600160e01b03198316145b92915050565b600060ff196107166001600080516020613e1c833981519152613af2565b60405160200161072891815260200190565b60405160208183030381529060405280519060200120166107488161310a565b6001600160a01b038516600090815260046020526040902054469060ff16610793576040516305fd61ad60e01b81526001600160a01b03871660048201526024015b60405180910390fd5b6001600160a01b038616600090815260056020526040812080548692906107bb908490613af2565b9091555050620827508190036108e65760405163095ea7b360e01b81526001600160a01b0387169063095ea7b39061080d9073d8a791fe2be73eb6e6cf1eb0cb3f36adc9b3f8f9908890600401613b05565b6020604051808303816000875af115801561082c573d6000803e3d6000fd5b505050506040513d601f19601f820116820180604052508101906108509190613b1e565b5060085460405163a93a4af960e01b81526001600160a01b038089166004830152871660248201526044810186905263ffffffff9091166064820181905273d8a791fe2be73eb6e6cf1eb0cb3f36adc9b3f8f99163a93a4af99190608401600060405180830381600088803b1580156108c857600080fd5b5087f11580156108dc573d6000803e3d6000fd5b5050505050610edc565b8061044d036109ec5760405163095ea7b360e01b81526001600160a01b0387169063095ea7b39061093190732a3dd3eb832af982ec71669e178424b10dca2ede908890600401613b05565b6020604051808303816000875af1158015610950573d6000803e3d6000fd5b505050506040513d601f19601f820116820180604052508101906109749190613b1e565b5060405163cd58657960e01b8152732a3dd3eb832af982ec71669e178424b10dca2ede9063cd586579906109b590600090899089908c908490600401613b3b565b600060405180830381600087803b1580156109cf57600080fd5b505af11580156109e3573d6000803e3d6000fd5b50505050610edc565b80600a03610ad45760405163095ea7b360e01b81526001600160a01b0387169063095ea7b390610a29906010602160991b01908890600401613b05565b6020604051808303816000875af1158015610a48573d6000803e3d6000fd5b505050506040513d601f19601f82011682018060405250810190610a6c9190613b1e565b50600854604051631474f2a960e31b81526010602160991b019163a3a79548918791610aa7918b918b91859163ffffffff1690600401613b82565b6000604051808303818588803b158015610ac057600080fd5b505af11580156108dc573d6000803e3d6000fd5b8061a4b103610beb5760405163095ea7b360e01b81526001600160a01b0387169063095ea7b390610b1f907309e9222e96e7b4ae2a407b98d48e330053351eee908890600401613b05565b6020604051808303816000875af1158015610b3e573d6000803e3d6000fd5b505050506040513d601f19601f82011682018060405250810190610b629190613b1e565b50604051637b3a3c8b60e01b81527309e9222e96e7b4ae2a407b98d48e330053351eee90637b3a3c8b90610b9e90899089908990600401613bbf565b6000604051808303816000875af1158015610bbd573d6000803e3d6000fd5b505050506040513d6000823e601f3d908101601f19168201604052610be59190810190613c2c565b50610edc565b8061a4ba03610cb55760405163095ea7b360e01b81526001600160a01b0387169063095ea7b390610c369073b2535b988dce19f9d71dfb22db6da744acac21bf908890600401613b05565b6020604051808303816000875af1158015610c55573d6000803e3d6000fd5b505050506040513d601f19601f82011682018060405250810190610c799190613b1e565b50604051637b3a3c8b60e01b815273b2535b988dce19f9d71dfb22db6da744acac21bf90637b3a3c8b90610b9e90899089908990600401613bbf565b8061014403610cfb57604051636ce5768960e11b81527311f943b2c77b743ab90f4a0ae7d5a4e7fca3e1029063d9caed12908690610aa79089908b908490600401613cd9565b8061138803610db75760405163095ea7b360e01b81526001600160a01b0387169063095ea7b390610d39906010602160991b01908890600401613b05565b6020604051808303816000875af1158015610d58573d6000803e3d6000fd5b505050506040513d601f19601f82011682018060405250810190610d7c9190613b1e565b5060085460405163297e27a960e11b81526010602160991b01916352fc4f52916109b5918a918a918a9163ffffffff90911690600401613b82565b8060a903610df45760405163095ea7b360e01b81526001600160a01b0387169063095ea7b390610a29906010602160991b01908890600401613b05565b8061a70e03610ec35760405163095ea7b360e01b81526001600160a01b0387169063095ea7b390610e3f90732c4813276869d93afdab4dd2b01cd670342da194908890600401613b05565b6020604051808303816000875af1158015610e5e573d6000803e3d6000fd5b505050506040513d601f19601f82011682018060405250810190610e829190613b1e565b5060405163cd58657960e01b8152732c4813276869d93afdab4dd2b01cd670342da1949063cd586579906109b590600090899089908c908490600401613b3b565b604051639474dee160e01b815260040160405180910390fd5b6001600160a01b03861660009081526005602052604081208054869290610f04908490613af2565b9091555050604080514681524260208201526001600160a01b0388811682840152871660608201526080810186905290517f1bc1b1207e0c319b7baad0317c09f30575218af6f5a59f1f0f15de8d217672cc9181900360a00190a150600195945050505050565b60ff19610f876001600080516020613e1c833981519152613af2565b604051602001610f9991815260200190565b6040516020818303038152906040528051906020012016610fb98161310a565b506001600160a01b03909116600090815260056020526040902055565b6000908152600080516020613e3c833981519152602052604090206001015490565b61100182610fd6565b61100a8161310a565b6110148383613114565b50505050565b60ff196110366001600080516020613e1c833981519152613af2565b60405160200161104891815260200190565b60405160208183030381529060405280519060200120166110688161310a565b6110738484846131b9565b5050505050565b6001600160a01b03811633146110a35760405163334bd91960e11b815260040160405180910390fd5b6110ad828261335e565b505050565b600060ff196110d06001600080516020613e1c833981519152613af2565b6040516020016110e291815260200190565b60405160208183030381529060405280519060200120166111028161310a565b46871461112257604051631a26aa4d60e21b815260040160405180910390fd5b60008881526003602052604090205460ff1661115457604051632ef6974160e11b81526004810189905260240161078a565b6040516001600160a01b0387169086156108fc029087906000818181858888f1935050505015801561118a573d6000803e3d6000fd5b5073eeeeeeeeeeeeeeeeeeeeeeeeeeeeeeeeeeeeeeee60009081526005602052600080516020613ddc83398151915280548792906111c9908490613af2565b9091555050600054604051631eb65ffb60e01b81526001600160a01b0390911690631eb65ffb90611208908b908b908b908a908c908b90600401613cfd565b600060405180830381600087803b15801561122257600080fd5b505af1158015611236573d6000803e3d6000fd5b5050604080518b8152602081018b90529081018890526001600160a01b03891692503091507f61d99af9dd09bd984d42cc07939d4cba4388e85aa29b3cc88df954e4ca719f329060600160405180910390a3506001979650505050505050565b600060ff196112b46001600080516020613e1c833981519152613af2565b6040516020016112c691815260200190565b60405160208183030381529060405280519060200120166112e68161310a565b464784111561130857604051632c1d501360e11b815260040160405180910390fd5b73eeeeeeeeeeeeeeeeeeeeeeeeeeeeeeeeeeeeeeee60009081526005602052600080516020613ddc8339815191528054869290611346908490613af2565b9091555050620827508190036113e557600854604051636705b1e760e11b81526001600160a01b03871660048201526024810186905263ffffffff90911660448201819052737003e7b7186f0e6601203b99f7b8decbfa391cf99163ce0b63ce919087906064016000604051808303818589803b1580156113c657600080fd5b5088f11580156113da573d6000803e3d6000fd5b50505050505061185b565b8061044d036114675760405163cd58657960e01b8152732a3dd3eb832af982ec71669e178424b10dca2ede9063cd586579908690611430906000908a90849083908190600401613b3b565b6000604051808303818588803b15801561144957600080fd5b505af115801561145d573d6000803e3d6000fd5b505050505061185b565b80600a036114bd57600854604051631474f2a960e31b81526010602160991b019163a3a795489187916114309173deaddeaddeaddeaddeaddeaddeaddeaddead0000918b91859163ffffffff1690600401613b82565b8061a4b10361156457604051637b3a3c8b60e01b8152735288c571fd7ad117bea99bf60fe0846c4e84f93390637b3a3c8b9086906115179073eeeeeeeeeeeeeeeeeeeeeeeeeeeeeeeeeeeeeeee908a908490600401613bbf565b60006040518083038185885af1158015611535573d6000803e3d6000fd5b50505050506040513d6000823e601f3d908101601f1916820160405261155e9190810190613c2c565b5061185b565b8061a4ba036115be57604051637b3a3c8b60e01b81527321903d3f8176b1a0c17e953cd896610be9ffdfa890637b3a3c8b9086906115179073eeeeeeeeeeeeeeeeeeeeeeeeeeeeeeeeeeeeeeee908a908490600401613bbf565b806101440361160557604051636ce5768960e11b81527311f943b2c77b743ab90f4a0ae7d5a4e7fca3e1029063d9caed129086906114309089906000908490600401613cd9565b80611388036117175760405163095ea7b360e01b815273deaddeaddeaddeaddeaddeaddeaddeaddead11119063095ea7b39061164e906010602160991b01908890600401613b05565b6020604051808303816000875af115801561166d573d6000803e3d6000fd5b505050506040513d601f19601f820116820180604052508101906116919190613b1e565b5060085460405163297e27a960e11b81526010602160991b01916352fc4f52916116e09173deaddeaddeaddeaddeaddeaddeaddeaddead1111918a918a9163ffffffff90911690600401613b82565b600060405180830381600087803b1580156116fa57600080fd5b505af115801561170e573d6000803e3d6000fd5b5050505061185b565b8060a90361176d57600854604051631474f2a960e31b81526010602160991b019163a3a795489187916114309173deaddeaddeaddeaddeaddeaddeaddeaddead0000918b91859163ffffffff1690600401613b82565b8061a70e03610ec35760405163095ea7b360e01b8152734b21b980d0dc7d3c0c6175b0a412694f3a1c7c6b9063095ea7b3906117c390732c4813276869d93afdab4dd2b01cd670342da194908890600401613b05565b6020604051808303816000875af11580156117e2573d6000803e3d6000fd5b505050506040513d601f19601f820116820180604052508101906118069190613b1e565b5060405163cd58657960e01b8152732c4813276869d93afdab4dd2b01cd670342da1949063cd586579906116e09060009089908990734b21b980d0dc7d3c0c6175b0a412694f3a1c7c6b908490600401613b3b565b73eeeeeeeeeeeeeeeeeeeeeeeeeeeeeeeeeeeeeeee60009081526005602052600080516020613ddc8339815191528054869290611899908490613af2565b9091555050604080514681524260208201526001600160a01b038716818301526060810186905290517ff1fa6dbbb3e74f1bef249f22545b238726c1cc79c5571a1416575674c7e63f399181900360800190a1506001949350505050565b600046861461191957604051631a26aa4d60e21b815260040160405180910390fd5b60008581526003602052604090205460ff1661194b57604051632ef6974160e11b81526004810186905260240161078a565b6001600160a01b03831660009081526004602052604090205460ff1661198f576040516305fd61ad60e01b81526001600160a01b038416600482015260240161078a565b6040516370a0823160e01b81523060048201526000906001600160a01b038516906370a0823190602401602060405180830381865afa1580156119d6573d6000803e3d6000fd5b505050506040513d601f19601f820116820180604052508101906119fa9190613d2e565b9050611a116001600160a01b0385163330866133da565b6040516370a0823160e01b81523060048201526000906001600160a01b038616906370a0823190602401602060405180830381865afa158015611a58573d6000803e3d6000fd5b505050506040513d601f19601f82011682018060405250810190611a7c9190613d2e565b90506000611a8a8383613af2565b73eeeeeeeeeeeeeeeeeeeeeeeeeeeeeeeeeeeeeeee60009081526005602052600080516020613ddc83398151915280549293508792909190611acd908490613d47565b9091555050600254600090620f424090611ae79084613d5a565b611af19190613d71565b9050611afd8183613af2565b6001600160a01b038816600090815260066020526040812080549294508392909190611b2a908490613d47565b909155505060005460405163305f478560e21b81526001600160a01b039091169063c17d1e1490611b67908d908d908d908c908890600401613d93565b600060405180830381600087803b158015611b8157600080fd5b505af1158015611b95573d6000803e3d6000fd5b5050604080518d8152602081018d90529081018590526001600160a01b03808c1693503392508a16907fece797608c81cc46a09f9859cf8ef650ec541b5da6989f30acb30dba9b8a40a49060600160405180910390a45060019998505050505050505050565b6000611c068161310a565b611c0e613434565b50565b7ff0c57e16840df040f15088dc2f81fe391c3923bec73e23a9662efc9c229c6a008054600160401b810460ff16159067ffffffffffffffff16600081158015611c575750825b905060008267ffffffffffffffff166001148015611c745750303b155b905081158015611c82575080155b15611ca05760405163f92ee8a960e01b815260040160405180910390fd5b845467ffffffffffffffff191660011785558315611cca57845460ff60401b1916600160401b1785555b611cd2613494565b611cda61349e565b611ce487876134ae565b6008805463ffffffff1916620493e01790558315611d3c57845460ff60401b19168555604051600181527fc7f505b2f371ae2175ee4913f4499e1f2633a7b5936321eed1cdaeb6115181d29060200160405180910390a15b50505050505050565b600060ff19611d636001600080516020613e1c833981519152613af2565b604051602001611d7591815260200190565b6040516020818303038152906040528051906020012016611d958161310a565b468714611db557604051631a26aa4d60e21b815260040160405180910390fd5b60008881526003602052604090205460ff16611de757604051632ef6974160e11b81526004810189905260240161078a565b6000611df16124a3565b6040516323b872dd60e01b81529091506001600160a01b038216906323b872dd90611e249030908b908b90600401613cd9565b6020604051808303816000875af1158015611e43573d6000803e3d6000fd5b505050506040513d601f19601f82011682018060405250810190611e679190613b1e565b5073c02aaa39b223fe8d0a0e5c4f27ead9083c756cc260009081526005602052600080516020613dfc8339815191528054889290611ea6908490613af2565b9091555050600054604051631eb65ffb60e01b81526001600160a01b0390911690631eb65ffb90611ee5908c908c908c908b908d908c90600401613cfd565b600060405180830381600087803b158015611eff57600080fd5b505af1158015611f13573d6000803e3d6000fd5b5050604080518c8152602081018c90529081018990526001600160a01b038a1692503091507f7dc80be13e04000533f3763be4b9359a36a0aeb0daabbf09fd96c3a275c1cc149060600160405180910390a350600198975050505050505050565b60078181548110611f8457600080fd5b6000918252602090912001546001600160a01b0316905081565b6000611fa98161310a565b50600255565b6000611fba8161310a565b611c0e6134f7565b6000918252600080516020613e3c833981519152602090815260408084206001600160a01b0393909316845291905290205460ff1690565b600060ff196120186001600080516020613e1c833981519152613af2565b60405160200161202a91815260200190565b604051602081830303815290604052805190602001201661204a8161310a565b46881461206a57604051631a26aa4d60e21b815260040160405180910390fd5b60008981526003602052604090205460ff1661209c57604051632ef6974160e11b8152600481018a905260240161078a565b6001600160a01b03861660009081526004602052604090205460ff166120e0576040516305fd61ad60e01b81526001600160a01b038716600482015260240161078a565b6120f56001600160a01b0387163089886133da565b73eeeeeeeeeeeeeeeeeeeeeeeeeeeeeeeeeeeeeeee60009081526005602052600080516020613ddc8339815191528054879290612133908490613af2565b9091555050600054604051631eb65ffb60e01b81526001600160a01b0390911690631eb65ffb90612172908c908c908c908a908c908b90600401613cfd565b600060405180830381600087803b15801561218c57600080fd5b505af11580156121a0573d6000803e3d6000fd5b5050604080518c8152602081018c90529081018890526001600160a01b03808b1693503092508916907f0f50ec03884adc78b9840a90cf8805a70ffe160f18d6b83198103b6fade443fe9060600160405180910390a450600198975050505050505050565b600046841461222757604051631a26aa4d60e21b815260040160405180910390fd5b60008381526003602052604090205460ff1661225957604051632ef6974160e11b81526004810184905260240161078a565b600154341015612289576001546040516358f8331360e11b8152600481019190915234602482015260440161078a565b73eeeeeeeeeeeeeeeeeeeeeeeeeeeeeeeeeeeeeeee60009081526005602052600080516020613ddc83398151915280543492906122c7908490613d47565b9091555050600254600090620f4240906122e19034613d5a565b6122eb9190613d71565b905060006122f98234613af2565b73eeeeeeeeeeeeeeeeeeeeeeeeeeeeeeeeeeeeeeee600090815260066020527fa2e5aefc6e2cbe2917a296f0fd89c5f915c487c803db1d98eccb43f14012d7118054929350849290919061234e908490613d47565b909155505060005460405163305f478560e21b81526001600160a01b039091169063c17d1e149061238b9046908990899087908990600401613d93565b600060405180830381600087803b1580156123a557600080fd5b505af11580156123b9573d6000803e3d6000fd5b505060408051898152602081018990529081018490526001600160a01b03871692503391507f0b671089787b6d29f730bc690214e6a7e28064fef5a3cdbb9b930a22fac01dc59060600160405180910390a36001925050505b9392505050565b60006124248161310a565b6001600160a01b0383166000908152600460205260409020805460ff191683158015919091179091556110ad57600780546001810182556000919091527fa66cc928b5edb82af9bd49922954155ab7b0942694bea4ce44661d9a8736c6880180546001600160a01b0385166001600160a01b0319909116179055505050565b600046620827508190036124bf576004605360981b0191505090565b8061044d036124e357734f9a0e7fd2bf6067db6994cf12e4495df938e6e991505090565b80600a036124f9576006602160991b0191505090565b8061a4b10361251d577382af49447d8a07e3bd95bd0d56f35241523fbab191505090565b8061a4ba036125415773722e8bdd2ce80a4422e880164f2079488e11536591505090565b806101440361256557735aea5775959fbc2557cc8789bc1bf90a239d9a9191505090565b80611388036125875760405163e31d668960e01b815260040160405180910390fd5b8060a903610ec3576040516322c20c6960e11b815260040160405180910390fd5b60ff196125c46001600080516020613e1c833981519152613af2565b6040516020016125d691815260200190565b60405160208183030381529060405280519060200120166125f68161310a565b50600155565b600046851461261e57604051631a26aa4d60e21b815260040160405180910390fd5b60008481526003602052604090205460ff16612650576040516363b5c9db60e01b81526004810185905260240161078a565b600061265a6124a3565b6040516370a0823160e01b81523060048201529091506000906001600160a01b038316906370a0823190602401602060405180830381865afa1580156126a4573d6000803e3d6000fd5b505050506040513d601f19601f820116820180604052508101906126c89190613d2e565b6040516323b872dd60e01b81529091506001600160a01b038316906323b872dd906126fb90339030908990600401613cd9565b6020604051808303816000875af115801561271a573d6000803e3d6000fd5b505050506040513d601f19601f8201168201806040525081019061273e9190613b1e565b506040516370a0823160e01b81523060048201526000906001600160a01b038416906370a0823190602401602060405180830381865afa158015612786573d6000803e3d6000fd5b505050506040513d601f19601f820116820180604052508101906127aa9190613d2e565b905060006127b88383613af2565b90506001548110156127eb576001546040516358f8331360e11b815260048101919091526024810182905260440161078a565b73c02aaa39b223fe8d0a0e5c4f27ead9083c756cc260009081526005602052600080516020613dfc8339815191528054839290612829908490613d47565b9091555050600254600090620f4240906128439084613d5a565b61284d9190613d71565b90506128598183613af2565b73c02aaa39b223fe8d0a0e5c4f27ead9083c756cc2600090815260066020527f5e5777fab7622aff3c042c1ece74307c2e9d699a9da444f416c35f2e1def28a5805492945083929091906128ae908490613d47565b909155505060005460405163305f478560e21b81526001600160a01b039091169063c17d1e14906128eb908d908d908d908d908890600401613d93565b600060405180830381600087803b15801561290557600080fd5b505af1158015612919573d6000803e3d6000fd5b5050604080518d8152602081018d90529081018590526001600160a01b038b1692503391507fcb9e641636f35317739cff2833f1831bf3a25b930b5615ada09367c080d64a899060600160405180910390a35060019998505050505050505050565b600060ff196129996001600080516020613e1c833981519152613af2565b6040516020016129ab91815260200190565b60405160208183030381529060405280519060200120166129cb8161310a565b4660006129d66124a3565b6040516370a0823160e01b81523060048201529091506001600160a01b038216906370a0823190602401602060405180830381865afa158015612a1d573d6000803e3d6000fd5b505050506040513d601f19601f82011682018060405250810190612a419190613d2e565b851115612a6c576040516311745b6160e21b81526001600160a01b038216600482015260240161078a565b73c02aaa39b223fe8d0a0e5c4f27ead9083c756cc260009081526005602052600080516020613dfc8339815191528054879290612aaa908490613af2565b909155505062082750829003612bd55760405163095ea7b360e01b81526001600160a01b0382169063095ea7b390612afc90737003e7b7186f0e6601203b99f7b8decbfa391cf9908990600401613b05565b6020604051808303816000875af1158015612b1b573d6000803e3d6000fd5b505050506040513d601f19601f82011682018060405250810190612b3f9190613b1e565b5060085460405163a93a4af960e01b81526001600160a01b038084166004830152881660248201526044810187905263ffffffff90911660648201819052737003e7b7186f0e6601203b99f7b8decbfa391cf99163a93a4af99190608401600060405180830381600088803b158015612bb757600080fd5b5087f1158015612bcb573d6000803e3d6000fd5b5050505050612fdd565b8161044d03612cd35760405163095ea7b360e01b81526001600160a01b0382169063095ea7b390612c2090732a3dd3eb832af982ec71669e178424b10dca2ede908990600401613b05565b6020604051808303816000875af1158015612c3f573d6000803e3d6000fd5b505050506040513d601f19601f82011682018060405250810190612c639190613b1e565b5060405163cd58657960e01b8152732a3dd3eb832af982ec71669e178424b10dca2ede9063cd586579908790612ca6906000908b90849083908190600401613b3b565b6000604051808303818588803b158015612cbf57600080fd5b505af1158015612bcb573d6000803e3d6000fd5b81600a03612d8e5760405163095ea7b360e01b81526001600160a01b0382169063095ea7b390612d10906010602160991b01908990600401613b05565b6020604051808303816000875af1158015612d2f573d6000803e3d6000fd5b505050506040513d601f19601f82011682018060405250810190612d539190613b1e565b50600854604051631474f2a960e31b81526010602160991b019163a3a79548918891612ca69186918c91859163ffffffff1690600401613b82565b8161a4b103612eb95760405163095ea7b360e01b81526001600160a01b0382169063095ea7b390612dd990736c411ad3e74de3e7bd422b94a27770f5b86c623b908990600401613b05565b6020604051808303816000875af1158015612df8573d6000803e3d6000fd5b505050506040513d601f19601f82011682018060405250810190612e1c9190613b1e565b50604051637b3a3c8b60e01b8152736c411ad3e74de3e7bd422b94a27770f5b86c623b90637b3a3c8b90612e6c9073c02aaa39b223fe8d0a0e5c4f27ead9083c756cc2908a908a90600401613bbf565b6000604051808303816000875af1158015612e8b573d6000803e3d6000fd5b505050506040513d6000823e601f3d908101601f19168201604052612eb39190810190613c2c565b50612fdd565b8161a4ba03612f975760405163095ea7b360e01b81526001600160a01b0382169063095ea7b390612f0490737626841cb6113412f9c88d3adc720c9fac88d9ed908990600401613b05565b6020604051808303816000875af1158015612f23573d6000803e3d6000fd5b505050506040513d601f19601f82011682018060405250810190612f479190613b1e565b50604051637b3a3c8b60e01b8152737626841cb6113412f9c88d3adc720c9fac88d9ed90637b3a3c8b90612e6c9073c02aaa39b223fe8d0a0e5c4f27ead9083c756cc2908a908a90600401613bbf565b8161014403610ec357604051636ce5768960e11b81527311f943b2c77b743ab90f4a0ae7d5a4e7fca3e1029063d9caed12908790612ca6908a9086908490600401613cd9565b604080514681524260208201526001600160a01b038816818301526060810187905290517fcb1a101498aadad4159168d719f955e559e768912e6f5f5c57b094eb047d000f9181900360800190a173c02aaa39b223fe8d0a0e5c4f27ead9083c756cc260009081526005602052600080516020613dfc8339815191528054879290613069908490613af2565b909155506001979650505050505050565b61308382610fd6565b61308c8161310a565b611014838361335e565b60006130a18161310a565b50600091825260036020526040909120805460ff1916911515919091179055565b60ff196130de6001600080516020613e1c833981519152613af2565b6040516020016130f091815260200190565b604051602081830303815290604052805190602001201681565b611c0e8133613540565b6000600080516020613e3c83398151915261312f8484611fc2565b6131af576000848152602082815260408083206001600160a01b03871684529091529020805460ff191660011790556131653390565b6001600160a01b0316836001600160a01b0316857f2f8788117e7eff1d82e926ec794901d17c78024a50270940304540a733656f0d60405160405180910390a460019150506106f2565b60009150506106f2565b6001600160a01b03831660009081526004602052604081205460ff166131fd576040516305fd61ad60e01b81526001600160a01b038516600482015260240161078a565b6001600160a01b03841660009081526005602052604081208054849290613225908490613af2565b909155505073eeeeeeeeeeeeeeeeeeeeeeeeeeeeeeeeeeeeeeed196001600160a01b038516016132ac578147101561327057604051632c1d501360e11b815260040160405180910390fd5b6040516001600160a01b0384169083156108fc029084906000818181858888f193505050501580156132a6573d6000803e3d6000fd5b50613354565b6040516370a0823160e01b815230600482015282906001600160a01b038616906370a0823190602401602060405180830381865afa1580156132f2573d6000803e3d6000fd5b505050506040513d601f19601f820116820180604052508101906133169190613d2e565b1015613340576040516311745b6160e21b81526001600160a01b038516600482015260240161078a565b6133546001600160a01b038516848461356f565b5060019392505050565b6000600080516020613e3c8339815191526133798484611fc2565b156131af576000848152602082815260408083206001600160a01b0387168085529252808320805460ff1916905551339287917ff6391f5c32d9c69d2a47ea670b442974b53935d1edc7fd64eb21e047a839171b9190a460019150506106f2565b61101484856001600160a01b03166323b872dd86868660405160240161340293929190613cd9565b604051602081830303815290604052915060e01b6020820180516001600160e01b038381831617835250505050613595565b61343c6135f8565b600080516020613e5c833981519152805460ff191681557f5db9ee0a495bf2e6ff9c91a7834c1ba4fdd244a5e8aa4e537bd38aeae4b073aa335b6040516001600160a01b03909116815260200160405180910390a150565b61349c613628565b565b6134a6613628565b61349c613671565b6134b6613628565b67016345785d8a00006001556127106002556134d3600083613114565b50600080546001600160a01b0319166001600160a01b039290921691909117905550565b6134ff613692565b600080516020613e5c833981519152805460ff191660011781557f62e78cea01bee320cd4e420270b5ea74000d11b0c9f74754ebdbfc544b05a25833613476565b61354a8282611fc2565b61356b57808260405163e2517d3f60e01b815260040161078a929190613b05565b5050565b6110ad83846001600160a01b031663a9059cbb8585604051602401613402929190613b05565b60006135aa6001600160a01b038416836136c3565b905080516000141580156135cf5750808060200190518101906135cd9190613b1e565b155b156110ad57604051635274afe760e01b81526001600160a01b038416600482015260240161078a565b600080516020613e5c8339815191525460ff1661349c57604051638dfc202b60e01b815260040160405180910390fd5b7ff0c57e16840df040f15088dc2f81fe391c3923bec73e23a9662efc9c229c6a0054600160401b900460ff1661349c57604051631afcd79f60e31b815260040160405180910390fd5b613679613628565b600080516020613e5c833981519152805460ff19169055565b600080516020613e5c8339815191525460ff161561349c5760405163d93c066560e01b815260040160405180910390fd5b60606124128383600084600080856001600160a01b031684866040516136e99190613dbf565b60006040518083038185875af1925050503d8060008114613726576040519150601f19603f3d011682016040523d82523d6000602084013e61372b565b606091505b509150915061373b868383613745565b9695505050505050565b60608261375a57613755826137a1565b612412565b815115801561377157506001600160a01b0384163b155b1561379a57604051639996b31560e01b81526001600160a01b038516600482015260240161078a565b5080612412565b8051156137b15780518082602001fd5b604051630a12f52160e11b815260040160405180910390fd5b6000602082840312156137dc57600080fd5b81356001600160e01b03198116811461241257600080fd5b80356001600160a01b038116811461380b57600080fd5b919050565b60008060006060848603121561382557600080fd5b61382e846137f4565b925061383c602085016137f4565b9150604084013590509250925092565b6000806040838503121561385f57600080fd5b613868836137f4565b946020939093013593505050565b60006020828403121561388857600080fd5b5035919050565b600080604083850312156138a257600080fd5b823591506138b2602084016137f4565b90509250929050565b60008060008060008060c087890312156138d457600080fd5b86359550602087013594506138eb604088016137f4565b9350606087013592506080870135915060a087013590509295509295509295565b600080600080600060a0868803121561392457600080fd5b853594506020860135935061393b604087016137f4565b9250613949606087016137f4565b949793965091946080013592915050565b6000806040838503121561396d57600080fd5b613976836137f4565b91506138b2602084016137f4565b60006020828403121561399657600080fd5b612412826137f4565b600080600080600080600060e0888a0312156139ba57600080fd5b87359650602088013595506139d1604089016137f4565b94506139df606089016137f4565b9699959850939660808101359560a0820135955060c0909101359350915050565b600080600060608486031215613a1557600080fd5b8335925060208401359150613a2c604085016137f4565b90509250925092565b8015158114611c0e57600080fd5b60008060408385031215613a5657600080fd5b613a5f836137f4565b91506020830135613a6f81613a35565b809150509250929050565b60008060008060808587031215613a9057600080fd5b8435935060208501359250613aa7604086016137f4565b9396929550929360600135925050565b60008060408385031215613aca57600080fd5b823591506020830135613a6f81613a35565b634e487b7160e01b600052601160045260246000fd5b818103818111156106f2576106f2613adc565b6001600160a01b03929092168252602082015260400190565b600060208284031215613b3057600080fd5b815161241281613a35565b63ffffffff9590951685526001600160a01b039384166020860152604085019290925290911660608301521515608082015260c060a0820181905260009082015260e00190565b6001600160a01b039485168152929093166020830152604082015263ffffffff909116606082015260a06080820181905260009082015260c00190565b6001600160a01b039384168152919092166020820152604081019190915260806060820181905260009082015260a00190565b634e487b7160e01b600052604160045260246000fd5b60005b83811015613c23578181015183820152602001613c0b565b50506000910152565b600060208284031215613c3e57600080fd5b815167ffffffffffffffff80821115613c5657600080fd5b818401915084601f830112613c6a57600080fd5b815181811115613c7c57613c7c613bf2565b604051601f8201601f19908116603f01168101908382118183101715613ca457613ca4613bf2565b81604052828152876020848701011115613cbd57600080fd5b613cce836020830160208801613c08565b979650505050505050565b6001600160a01b039384168152919092166020820152604081019190915260600190565b95865260208601949094526001600160a01b039290921660408501526060840152608083015260a082015260c00190565b600060208284031215613d4057600080fd5b5051919050565b808201808211156106f2576106f2613adc565b80820281158282048414176106f2576106f2613adc565b600082613d8e57634e487b7160e01b600052601260045260246000fd5b500490565b94855260208501939093526001600160a01b039190911660408401526060830152608082015260a00190565b60008251613dd1818460208701613c08565b919091019291505056fea1829a9003092132f585b6ccdd167c19fe9774dbdea4260287e8a8e8ca8185d7a550ba85c46b24b567d2e17cd597f2283877afab43603f46d5de7858f1bdb73133fe247d78fee2e7fd135c405eda4bd2911c0a73c0a81b36c3bcc967dd06e5ae02dd7bc7dec4dceedda775e58dd541e08a116c6c53815c0bd028192f7b626800cd5ed15c6e187e77e9aee88184c21f4f2182ab5827cb3b7e07fbedcd63f03300a2646970667358221220a9575be29da1e8ce38e3c6c408fdc6182a3ecbbd19f369f2e23b61fec0c5f41a64736f6c63430008140033","linkReferences":{}},"methodIdentifiers":{"BridgeFinalizeERC20(uint256,uint256,address,address,uint256,uint256,uint256)":"92d84738","BridgeFinalizeETH(uint256,uint256,address,uint256,uint256,uint256)":"38731c47","BridgeFinalizeWETH(uint256,uint256,address,uint256,uint256,uint256)":"5765a4eb","BridgeInitiateERC20(uint256,uint256,address,address,uint256)":"3b0230f0","BridgeInitiateETH(uint256,uint256,address)":"9b442380","BridgeInitiateWETH(uint256,uint256,address,uint256)":"cd01c665","DEFAULT_ADMIN_ROLE()":"a217fddf","FeePoolValue(address)":"54dc027e","FundingPoolBalance(address)":"dbb0481f","IsSupportChainId(uint256)":"72fe6a7e","IsSupportToken(address)":"dac29568","L2WETH()":"b1887e9b","MAX_GAS_Limit()":"a525ae2b","MinTransferAmount()":"09dc480c","PerFee()":"dd0c3460","QuickSendAssertToUser(address,address,uint256)":"325e5d43","ReLayer()":"fa861848","SupportTokens(uint256)":"626417b5","UpdateFundingPoolBalance(address,uint256)":"0cd727df","WithdrawERC20ToL1(address,address,uint256)":"0227047a","WithdrawETHtoL1(address,uint256)":"39891dd7","WithdrawWETHToL1(address,uint256)":"d28597f4","getRoleAdmin(bytes32)":"248a9ca3","grantRole(bytes32,address)":"2f2ff15d","hasRole(bytes32,address)":"91d14854","initialize(address,address)":"485cc955","messageManager()":"10875a13","pause()":"8456cb59","paused()":"5c975abb","renounceRole(bytes32,address)":"36568abe","revokeRole(bytes32,address)":"d547741f","setMinTransferAmount(uint256)":"b92e6396","setPerFee(uint256)":"650c2276","setSupportERC20Token(address,bool)":"ab0f9e19","setValidChainId(uint256,bool)":"d73f14e5","supportsInterface(bytes4)":"01ffc9a7","unpause()":"3f4ba83a"},"id":58}