{
  "abi": [
    {
      "inputs": [],
      "stateMutability": "nonpayable",
      "type": "constructor"
    },
    {
      "inputs": [],
      "name": "AccessControlBadConfirmation",
      "type": "error"
    },
    {
      "inputs": [
        {
          "internalType": "address",
          "name": "account",
          "type": "address"
        },
        {
          "internalType": "bytes32",
          "name": "neededRole",
          "type": "bytes32"
        }
      ],
      "name": "AccessControlUnauthorizedAccount",
      "type": "error"
    },
    {
      "inputs": [],
      "name": "InvalidInitialization",
      "type": "error"
    },
    {
      "inputs": [
        {
          "internalType": "bytes32",
          "name": "messageHash",
          "type": "bytes32"
        }
      ],
      "name": "MessageAlreadySent",
      "type": "error"
    },
    {
      "inputs": [],
      "name": "NotInitializing",
      "type": "error"
    },
    {
      "inputs": [],
      "name": "ReentrancyGuardReentrantCall",
      "type": "error"
    },
    {
      "inputs": [],
      "name": "ZeroAddressNotAllowed",
      "type": "error"
    },
    {
      "anonymous": false,
      "inputs": [
        {
          "indexed": false,
          "internalType": "uint64",
          "name": "version",
          "type": "uint64"
        }
      ],
      "name": "Initialized",
      "type": "event"
    },
    {
      "anonymous": false,
      "inputs": [
        {
          "indexed": false,
          "internalType": "uint256",
          "name": "sourceChainId",
          "type": "uint256"
        },
        {
          "indexed": false,
          "internalType": "uint256",
          "name": "destChainId",
          "type": "uint256"
        },
        {
          "indexed": true,
          "internalType": "bytes32",
          "name": "_messageHash",
          "type": "bytes32"
        }
      ],
      "name": "MessageClaimed",
      "type": "event"
    },
    {
      "anonymous": false,
      "inputs": [
        {
          "indexed": false,
          "internalType": "uint256",
          "name": "sourceChainId",
          "type": "uint256"
        },
        {
          "indexed": false,
          "internalType": "uint256",
          "name": "destChainId",
          "type": "uint256"
        },
        {
          "indexed": true,
          "internalType": "address",
          "name": "_from",
          "type": "address"
        },
        {
          "indexed": true,
          "internalType": "address",
          "name": "_to",
          "type": "address"
        },
        {
          "indexed": false,
          "internalType": "uint256",
          "name": "_fee",
          "type": "uint256"
        },
        {
          "indexed": false,
          "internalType": "uint256",
          "name": "_value",
          "type": "uint256"
        },
        {
          "indexed": false,
          "internalType": "uint256",
          "name": "_nonce",
          "type": "uint256"
        },
        {
          "indexed": true,
          "internalType": "bytes32",
          "name": "_messageHash",
          "type": "bytes32"
        }
      ],
      "name": "MessageSent",
      "type": "event"
    },
    {
      "anonymous": false,
      "inputs": [
        {
          "indexed": true,
          "internalType": "bytes32",
          "name": "role",
          "type": "bytes32"
        },
        {
          "indexed": true,
          "internalType": "bytes32",
          "name": "previousAdminRole",
          "type": "bytes32"
        },
        {
          "indexed": true,
          "internalType": "bytes32",
          "name": "newAdminRole",
          "type": "bytes32"
        }
      ],
      "name": "RoleAdminChanged",
      "type": "event"
    },
    {
      "anonymous": false,
      "inputs": [
        {
          "indexed": true,
          "internalType": "bytes32",
          "name": "role",
          "type": "bytes32"
        },
        {
          "indexed": true,
          "internalType": "address",
          "name": "account",
          "type": "address"
        },
        {
          "indexed": true,
          "internalType": "address",
          "name": "sender",
          "type": "address"
        }
      ],
      "name": "RoleGranted",
      "type": "event"
    },
    {
      "anonymous": false,
      "inputs": [
        {
          "indexed": true,
          "internalType": "bytes32",
          "name": "role",
          "type": "bytes32"
        },
        {
          "indexed": true,
          "internalType": "address",
          "name": "account",
          "type": "address"
        },
        {
          "indexed": true,
          "internalType": "address",
          "name": "sender",
          "type": "address"
        }
      ],
      "name": "RoleRevoked",
      "type": "event"
    },
    {
      "inputs": [],
      "name": "DEFAULT_ADMIN_ROLE",
      "outputs": [
        {
          "internalType": "bytes32",
          "name": "",
          "type": "bytes32"
        }
      ],
      "stateMutability": "view",
      "type": "function"
    },
    {
      "inputs": [
        {
          "internalType": "uint256",
          "name": "sourceChainId",
          "type": "uint256"
        },
        {
          "internalType": "uint256",
          "name": "destChainId",
          "type": "uint256"
        },
        {
          "internalType": "address",
          "name": "_to",
          "type": "address"
        },
        {
          "internalType": "uint256",
          "name": "_fee",
          "type": "uint256"
        },
        {
          "internalType": "uint256",
          "name": "_value",
          "type": "uint256"
        },
        {
          "internalType": "uint256",
          "name": "_nonce",
          "type": "uint256"
        }
      ],
      "name": "claimMessage",
      "outputs": [],
      "stateMutability": "nonpayable",
      "type": "function"
    },
    {
      "inputs": [
        {
          "internalType": "bytes32",
          "name": "",
          "type": "bytes32"
        }
      ],
      "name": "cliamMessageStatus",
      "outputs": [
        {
          "internalType": "bool",
          "name": "",
          "type": "bool"
        }
      ],
      "stateMutability": "view",
      "type": "function"
    },
    {
      "inputs": [
        {
          "internalType": "bytes32",
          "name": "role",
          "type": "bytes32"
        }
      ],
      "name": "getRoleAdmin",
      "outputs": [
        {
          "internalType": "bytes32",
          "name": "",
          "type": "bytes32"
        }
      ],
      "stateMutability": "view",
      "type": "function"
    },
    {
      "inputs": [
        {
          "internalType": "bytes32",
          "name": "role",
          "type": "bytes32"
        },
        {
          "internalType": "address",
          "name": "account",
          "type": "address"
        }
      ],
      "name": "grantRole",
      "outputs": [],
      "stateMutability": "nonpayable",
      "type": "function"
    },
    {
      "inputs": [
        {
          "internalType": "bytes32",
          "name": "role",
          "type": "bytes32"
        },
        {
          "internalType": "address",
          "name": "account",
          "type": "address"
        }
      ],
      "name": "hasRole",
      "outputs": [
        {
          "internalType": "bool",
          "name": "",
          "type": "bool"
        }
      ],
      "stateMutability": "view",
      "type": "function"
    },
    {
      "inputs": [
        {
          "internalType": "address",
          "name": "_poolManagerAddress",
          "type": "address"
        }
      ],
      "name": "initialize",
      "outputs": [],
      "stateMutability": "nonpayable",
      "type": "function"
    },
    {
      "inputs": [],
      "name": "nextMessageNumber",
      "outputs": [
        {
          "internalType": "uint256",
          "name": "",
          "type": "uint256"
        }
      ],
      "stateMutability": "view",
      "type": "function"
    },
    {
      "inputs": [],
      "name": "poolManagerAddress",
      "outputs": [
        {
          "internalType": "address",
          "name": "",
          "type": "address"
        }
      ],
      "stateMutability": "view",
      "type": "function"
    },
    {
      "inputs": [
        {
          "internalType": "bytes32",
          "name": "role",
          "type": "bytes32"
        },
        {
          "internalType": "address",
          "name": "callerConfirmation",
          "type": "address"
        }
      ],
      "name": "renounceRole",
      "outputs": [],
      "stateMutability": "nonpayable",
      "type": "function"
    },
    {
      "inputs": [
        {
          "internalType": "bytes32",
          "name": "role",
          "type": "bytes32"
        },
        {
          "internalType": "address",
          "name": "account",
          "type": "address"
        }
      ],
      "name": "revokeRole",
      "outputs": [],
      "stateMutability": "nonpayable",
      "type": "function"
    },
    {
      "inputs": [
        {
          "internalType": "uint256",
          "name": "sourceChainId",
          "type": "uint256"
        },
        {
          "internalType": "uint256",
          "name": "destChainId",
          "type": "uint256"
        },
        {
          "internalType": "address",
          "name": "_to",
          "type": "address"
        },
        {
          "internalType": "uint256",
          "name": "_value",
          "type": "uint256"
        },
        {
          "internalType": "uint256",
          "name": "_fee",
          "type": "uint256"
        }
      ],
      "name": "sendMessage",
      "outputs": [],
      "stateMutability": "nonpayable",
      "type": "function"
    },
    {
      "inputs": [
        {
          "internalType": "bytes32",
          "name": "",
          "type": "bytes32"
        }
      ],
      "name": "sentMessageStatus",
      "outputs": [
        {
          "internalType": "bool",
          "name": "",
          "type": "bool"
        }
      ],
      "stateMutability": "view",
      "type": "function"
    },
    {
      "inputs": [
        {
          "internalType": "bytes4",
          "name": "interfaceId",
          "type": "bytes4"
        }
      ],
      "name": "supportsInterface",
      "outputs": [
        {
          "internalType": "bool",
          "name": "",
          "type": "bool"
        }
      ],
      "stateMutability": "view",
      "type": "function"
    }
  ],
  "bytecode": {
    "object": "0x608060405234801561001057600080fd5b5061001961001e565b6100d0565b7ff0c57e16840df040f15088dc2f81fe391c3923bec73e23a9662efc9c229c6a00805468010000000000000000900460ff161561006e5760405163f92ee8a960e01b815260040160405180910390fd5b80546001600160401b03908116146100cd5780546001600160401b0319166001600160401b0390811782556040519081527fc7f505b2f371ae2175ee4913f4499e1f2633a7b5936321eed1cdaeb6115181d29060200160405180910390a15b50565b610a7e806100df6000396000f3fe608060405234801561001057600080fd5b50600436106100ea5760003560e01c806391d148541161008c578063c17d1e1411610066578063c17d1e14146101dd578063c4d66de8146101f0578063d547741f14610203578063e6a13f301461021657600080fd5b806391d14854146101b9578063a217fddf146101cc578063b837dbe9146101d457600080fd5b8063248a9ca3116100c8578063248a9ca31461014f5780632f2ff15d1461017057806336568abe146101835780637f8d98c31461019657600080fd5b806301ffc9a7146100ef57806308ba325a146101175780631eb65ffb1461013a575b600080fd5b6101026100fd366004610867565b610241565b60405190151581526020015b60405180910390f35b610102610125366004610898565b60036020526000908152604090205460ff1681565b61014d6101483660046108cd565b610278565b005b61016261015d366004610898565b610387565b60405190815260200161010e565b61014d61017e36600461091e565b6103a9565b61014d61019136600461091e565b6103cb565b6101026101a4366004610898565b60026020526000908152604090205460ff1681565b6101026101c736600461091e565b610403565b610162600081565b61016260005481565b61014d6101eb36600461094a565b61043b565b61014d6101fe366004610991565b610572565b61014d61021136600461091e565b610696565b600154610229906001600160a01b031681565b6040516001600160a01b03909116815260200161010e565b60006001600160e01b03198216637965db0b60e01b148061027257506301ffc9a760e01b6001600160e01b03198316145b92915050565b6001546001600160a01b031633146102ab5760405162461bcd60e51b81526004016102a2906109ac565b60405180910390fd5b6102b36106b2565b60408051602081018890529081018690526001600160a01b03851660608201526080810184905260a0810183905260c0810182905260009060e00160408051601f198184030181528282528051602091820120600081815260038352839020805460ff191660011790558a8452908301899052925082917f9ea158d96246b092af2f857f58de20289ede65682a6d7e52ae067f0e244242a0910160405180910390a25061037f60017f9b779b17422d0df92223018b32b4d1fa46e071723d6817e2486d003becc55f0055565b505050505050565b6000908152600080516020610a29833981519152602052604090206001015490565b6103b282610387565b6103bb816106fc565b6103c58383610709565b50505050565b6001600160a01b03811633146103f45760405163334bd91960e11b815260040160405180910390fd5b6103fe82826107ae565b505050565b6000918252600080516020610a29833981519152602090815260408084206001600160a01b0393909316845291905290205460ff1690565b6001546001600160a01b031633146104655760405162461bcd60e51b81526004016102a2906109ac565b6001600160a01b03831661048c576040516342bcdf7f60e11b815260040160405180910390fd5b600080546040805160208082018a90528183018990526001600160a01b03881660608301526080820186905260a0820187905260c08083018590528351808403909101815260e0909201909252805191012090918290806104ec83610a01565b9091555050600081815260026020908152604091829020805460ff191660011790558151898152908101889052908101849052606081018590526080810183905281906001600160a01b0387169033907f1e88b107f16455e0599576d3f09ea10212fea6adff673dd5c13bdfb470c843b69060a00160405180910390a450505050505050565b7ff0c57e16840df040f15088dc2f81fe391c3923bec73e23a9662efc9c229c6a008054600160401b810460ff16159067ffffffffffffffff166000811580156105b85750825b905060008267ffffffffffffffff1660011480156105d55750303b155b9050811580156105e3575080155b156106015760405163f92ee8a960e01b815260040160405180910390fd5b845467ffffffffffffffff19166001178555831561062b57845460ff60401b1916600160401b1785555b600180546001600160a01b0319166001600160a01b038816178155600055831561037f57845460ff60401b19168555604051600181527fc7f505b2f371ae2175ee4913f4499e1f2633a7b5936321eed1cdaeb6115181d29060200160405180910390a1505050505050565b61069f82610387565b6106a8816106fc565b6103c583836107ae565b7f9b779b17422d0df92223018b32b4d1fa46e071723d6817e2486d003becc55f008054600119016106f657604051633ee5aeb560e01b815260040160405180910390fd5b60029055565b610706813361082a565b50565b6000600080516020610a298339815191526107248484610403565b6107a4576000848152602082815260408083206001600160a01b03871684529091529020805460ff1916600117905561075a3390565b6001600160a01b0316836001600160a01b0316857f2f8788117e7eff1d82e926ec794901d17c78024a50270940304540a733656f0d60405160405180910390a46001915050610272565b6000915050610272565b6000600080516020610a298339815191526107c98484610403565b156107a4576000848152602082815260408083206001600160a01b0387168085529252808320805460ff1916905551339287917ff6391f5c32d9c69d2a47ea670b442974b53935d1edc7fd64eb21e047a839171b9190a46001915050610272565b6108348282610403565b6108635760405163e2517d3f60e01b81526001600160a01b0382166004820152602481018390526044016102a2565b5050565b60006020828403121561087957600080fd5b81356001600160e01b03198116811461089157600080fd5b9392505050565b6000602082840312156108aa57600080fd5b5035919050565b80356001600160a01b03811681146108c857600080fd5b919050565b60008060008060008060c087890312156108e657600080fd5b86359550602087013594506108fd604088016108b1565b9350606087013592506080870135915060a087013590509295509295509295565b6000806040838503121561093157600080fd5b82359150610941602084016108b1565b90509250929050565b600080600080600060a0868803121561096257600080fd5b8535945060208601359350610979604087016108b1565b94979396509394606081013594506080013592915050565b6000602082840312156109a357600080fd5b610891826108b1565b60208082526035908201527f4d6573736167654d616e616765723a206f6e6c7920746f6b656e206272696467604082015274652063616e20646f2074686973206f70657261746560581b606082015260800190565b600060018201610a2157634e487b7160e01b600052601160045260246000fd5b506001019056fe02dd7bc7dec4dceedda775e58dd541e08a116c6c53815c0bd028192f7b626800a2646970667358221220b6c5d124d28eceae1262fc313a46c6bec9e364e3937ddc786b87d8b609c7857064736f6c63430008140033",
    "linkReferences": {}
  },
  "methodIdentifiers": {
    "DEFAULT_ADMIN_ROLE()": "a217fddf",
    "claimMessage(uint256,uint256,address,uint256,uint256,uint256)": "1eb65ffb",
    "cliamMessageStatus(bytes32)": "08ba325a",
    "getRoleAdmin(bytes32)": "248a9ca3",
    "grantRole(bytes32,address)": "2f2ff15d",
    "hasRole(bytes32,address)": "91d14854",
    "initialize(address)": "c4d66de8",
    "nextMessageNumber()": "b837dbe9",
    "poolManagerAddress()": "e6a13f30",
    "renounceRole(bytes32,address)": "36568abe",
    "revokeRole(bytes32,address)": "d547741f",
    "sendMessage(uint256,uint256,address,uint256,uint256)": "c17d1e14",
    "sentMessageStatus(bytes32)": "7f8d98c3",
    "supportsInterface(bytes4)": "01ffc9a7"
  },
  "id": 63
}