{"abi":[{"type":"function","name":"ArbitrumNovaL1ERC20Gateway","inputs":[],"outputs":[{"name":"","type":"address","internalType":"address"}],"stateMutability":"view"},{"type":"function","name":"ArbitrumNovaL1GatewayRouter","inputs":[],"outputs":[{"name":"","type":"address","internalType":"address"}],"stateMutability":"view"},{"type":"function","name":"ArbitrumNovaL1WETHGateway","inputs":[],"outputs":[{"name":"","type":"address","internalType":"address"}],"stateMutability":"view"},{"type":"function","name":"ArbitrumNovaL2ERC20Gateway","inputs":[],"outputs":[{"name":"","type":"address","internalType":"address"}],"stateMutability":"view"},{"type":"function","name":"ArbitrumNovaL2GatewayRouter","inputs":[],"outputs":[{"name":"","type":"address","internalType":"address"}],"stateMutability":"view"},{"type":"function","name":"ArbitrumNovaL2WETHGateway","inputs":[],"outputs":[{"name":"","type":"address","internalType":"address"}],"stateMutability":"view"},{"type":"function","name":"ArbitrumNovaWETH","inputs":[],"outputs":[{"name":"","type":"address","internalType":"address"}],"stateMutability":"view"},{"type":"function","name":"ArbitrumOneL1ERC20Gateway","inputs":[],"outputs":[{"name":"","type":"address","internalType":"address"}],"stateMutability":"view"},{"type":"function","name":"ArbitrumOneL1GatewayRouter","inputs":[],"outputs":[{"name":"","type":"address","internalType":"address"}],"stateMutability":"view"},{"type":"function","name":"ArbitrumOneL1WETHGateway","inputs":[],"outputs":[{"name":"","type":"address","internalType":"address"}],"stateMutability":"view"},{"type":"function","name":"ArbitrumOneL2ERC20Gateway","inputs":[],"outputs":[{"name":"","type":"address","internalType":"address"}],"stateMutability":"view"},{"type":"function","name":"ArbitrumOneL2GatewayRouter","inputs":[],"outputs":[{"name":"","type":"address","internalType":"address"}],"stateMutability":"view"},{"type":"function","name":"ArbitrumOneL2WETHGateway","inputs":[],"outputs":[{"name":"","type":"address","internalType":"address"}],"stateMutability":"view"},{"type":"function","name":"ArbitrumOneWETH","inputs":[],"outputs":[{"name":"","type":"address","internalType":"address"}],"stateMutability":"view"},{"type":"function","name":"DAI","inputs":[],"outputs":[{"name":"","type":"address","internalType":"address"}],"stateMutability":"view"},{"type":"function","name":"ETHAddress","inputs":[],"outputs":[{"name":"","type":"address","internalType":"address"}],"stateMutability":"view"},{"type":"function","name":"LineaCustomerBridge","inputs":[],"outputs":[{"name":"","type":"address","internalType":"address"}],"stateMutability":"view"},{"type":"function","name":"LineaWETH","inputs":[],"outputs":[{"name":"","type":"address","internalType":"address"}],"stateMutability":"view"},{"type":"function","name":"MantaL1Bridge","inputs":[],"outputs":[{"name":"","type":"address","internalType":"address"}],"stateMutability":"view"},{"type":"function","name":"MantaL2Bridge","inputs":[],"outputs":[{"name":"","type":"address","internalType":"address"}],"stateMutability":"view"},{"type":"function","name":"MantleETH","inputs":[],"outputs":[{"name":"","type":"address","internalType":"address"}],"stateMutability":"view"},{"type":"function","name":"MantleL1Bridge","inputs":[],"outputs":[{"name":"","type":"address","internalType":"address"}],"stateMutability":"view"},{"type":"function","name":"MantleL2Bridge","inputs":[],"outputs":[{"name":"","type":"address","internalType":"address"}],"stateMutability":"view"},{"type":"function","name":"OP_LEGACY_ERC20_ETH","inputs":[],"outputs":[{"name":"","type":"address","internalType":"address"}],"stateMutability":"view"},{"type":"function","name":"OptimismDAI","inputs":[],"outputs":[{"name":"","type":"address","internalType":"address"}],"stateMutability":"view"},{"type":"function","name":"OptimismL1StandardBridge","inputs":[],"outputs":[{"name":"","type":"address","internalType":"address"}],"stateMutability":"view"},{"type":"function","name":"OptimismL2StandardBridge","inputs":[],"outputs":[{"name":"","type":"address","internalType":"address"}],"stateMutability":"view"},{"type":"function","name":"OptimismUSDC","inputs":[],"outputs":[{"name":"","type":"address","internalType":"address"}],"stateMutability":"view"},{"type":"function","name":"OptimismUSDT","inputs":[],"outputs":[{"name":"","type":"address","internalType":"address"}],"stateMutability":"view"},{"type":"function","name":"OptimismWETH","inputs":[],"outputs":[{"name":"","type":"address","internalType":"address"}],"stateMutability":"view"},{"type":"function","name":"PolygonZkEVMDAI","inputs":[],"outputs":[{"name":"","type":"address","internalType":"address"}],"stateMutability":"view"},{"type":"function","name":"PolygonZkEVML1Bridge","inputs":[],"outputs":[{"name":"","type":"address","internalType":"address"}],"stateMutability":"view"},{"type":"function","name":"PolygonZkEVML2Bridge","inputs":[],"outputs":[{"name":"","type":"address","internalType":"address"}],"stateMutability":"view"},{"type":"function","name":"PolygonZkEVMUSDC","inputs":[],"outputs":[{"name":"","type":"address","internalType":"address"}],"stateMutability":"view"},{"type":"function","name":"PolygonZkEVMUSDT","inputs":[],"outputs":[{"name":"","type":"address","internalType":"address"}],"stateMutability":"view"},{"type":"function","name":"PolygonZkEVMWETH","inputs":[],"outputs":[{"name":"","type":"address","internalType":"address"}],"stateMutability":"view"},{"type":"function","name":"ScrollDAI","inputs":[],"outputs":[{"name":"","type":"address","internalType":"address"}],"stateMutability":"view"},{"type":"function","name":"ScrollL1MessageQueue","inputs":[],"outputs":[{"name":"","type":"address","internalType":"address"}],"stateMutability":"view"},{"type":"function","name":"ScrollL1StandardERC20Bridge","inputs":[],"outputs":[{"name":"","type":"address","internalType":"address"}],"stateMutability":"view"},{"type":"function","name":"ScrollL1StandardETHBridge","inputs":[],"outputs":[{"name":"","type":"address","internalType":"address"}],"stateMutability":"view"},{"type":"function","name":"ScrollL1StandardWETHBridge","inputs":[],"outputs":[{"name":"","type":"address","internalType":"address"}],"stateMutability":"view"},{"type":"function","name":"ScrollL2StandardERC20Bridge","inputs":[],"outputs":[{"name":"","type":"address","internalType":"address"}],"stateMutability":"view"},{"type":"function","name":"ScrollL2StandardWETHBridge","inputs":[],"outputs":[{"name":"","type":"address","internalType":"address"}],"stateMutability":"view"},{"type":"function","name":"ScrollUSDC","inputs":[],"outputs":[{"name":"","type":"address","internalType":"address"}],"stateMutability":"view"},{"type":"function","name":"ScrollUSDT","inputs":[],"outputs":[{"name":"","type":"address","internalType":"address"}],"stateMutability":"view"},{"type":"function","name":"ScrollWETH","inputs":[],"outputs":[{"name":"","type":"address","internalType":"address"}],"stateMutability":"view"},{"type":"function","name":"USDC","inputs":[],"outputs":[{"name":"","type":"address","internalType":"address"}],"stateMutability":"view"},{"type":"function","name":"USDT","inputs":[],"outputs":[{"name":"","type":"address","internalType":"address"}],"stateMutability":"view"},{"type":"function","name":"WETH","inputs":[],"outputs":[{"name":"","type":"address","internalType":"address"}],"stateMutability":"view"},{"type":"function","name":"ZKFairDAI","inputs":[],"outputs":[{"name":"","type":"address","internalType":"address"}],"stateMutability":"view"},{"type":"function","name":"ZKFairETH","inputs":[],"outputs":[{"name":"","type":"address","internalType":"address"}],"stateMutability":"view"},{"type":"function","name":"ZKFairL1Bridge","inputs":[],"outputs":[{"name":"","type":"address","internalType":"address"}],"stateMutability":"view"},{"type":"function","name":"ZKFairL2Bridge","inputs":[],"outputs":[{"name":"","type":"address","internalType":"address"}],"stateMutability":"view"},{"type":"function","name":"ZKFairUSDT","inputs":[],"outputs":[{"name":"","type":"address","internalType":"address"}],"stateMutability":"view"},{"type":"function","name":"ZkSyncL1Bridge","inputs":[],"outputs":[{"name":"","type":"address","internalType":"address"}],"stateMutability":"view"},{"type":"function","name":"ZkSyncL2Bridge","inputs":[],"outputs":[{"name":"","type":"address","internalType":"address"}],"stateMutability":"view"},{"type":"function","name":"ZkSyncWETH","inputs":[],"outputs":[{"name":"","type":"address","internalType":"address"}],"stateMutability":"view"}],"bytecode":{"object":"0x61095c61003a600b82828239805160001a60731461002d57634e487b7160e01b600052600060045260246000fd5b30600052607381538281f3fe730000000000000000000000000000000000000000301460806040526004361061038d5760003560e01c8063852c7193116101e8578063beb5e09411610119578063da228a9b116100b7578063e0bab4c411610086578063e0bab4c4146108ba578063e2a0f4c0146108d5578063e70fcd06146108f0578063fe9c602c1461090b57600080fd5b8063da228a9b1461084e578063e04a2bdb14610869578063e07b1d4914610884578063e0ac6b1b1461089f57600080fd5b8063c911d861116100f3578063c911d861146107f5578063cc2333a614610810578063ccb25ee31461082b578063ce5e83231461083357600080fd5b8063beb5e094146107a4578063bf11c76f146107bf578063c54e44eb146107da57600080fd5b80639df202fe11610186578063a67a2c7611610160578063a67a2c7614610760578063a7687a6e1461077b578063ad5c464814610789578063b540cbf3146104bc57600080fd5b80639df202fe1461070f578063a1fc15d21461072a578063a3f17f101461074557600080fd5b80638d9cb9a8116101c25780638d9cb9a8146106a35780638dd683b8146106be5780639118368f146106d95780639414e82a146106f457600080fd5b8063852c71931461065257806389a302711461066d5780638c125c961461068857600080fd5b806348f10d6a116102c25780635ef7d9ef116102605780636a98ccdd1161023a5780636a98ccdd1461060e5780636f3606e114610629578063719137cf146105365780637c72e53c1461063757600080fd5b80635ef7d9ef146105bd57806368461b58146105d85780636a04c204146105f357600080fd5b8063548870121161029c57806354887012146104bc5780635723e7a61461056c57806357a34542146105875780635c7c3613146105a257600080fd5b806348f10d6a1461051b5780634d63b5c6146105365780634df6cdfd1461055157600080fd5b80632c6ebc2e1161032f57806338042ac71161030957806338042ac7146104bc5780634029d917146104ca5780634357966e146104e557806344da6c931461050057600080fd5b80632c6ebc2e1461046b57806331672bd114610486578063317ca693146104a157600080fd5b806318671c691161036b57806318671c69146103ff5780631c1900e31461041a578063217b24871461043557806328cb3bc01461045057600080fd5b80630bd02071146103925780630f6d15ff146103c957806312fd237f146103e4575b600080fd5b6103ad7306efdbff2a14a7c8e15944d1f4a48f9f95f663a481565b6040516001600160a01b03909116815260200160405180910390f35b6103ad737f2b8c31f88b6006c382775eea88297ec1e3e90581565b6103ad7357891966931eb4bb6fb81430e6ce0a03aabde06381565b6103ad73a3a7b6f88361f48403514059f1f16c8e78d60eec81565b6103ad7311f943b2c77b743ab90f4a0ae7d5a4e7fca3e10281565b6103ad7372ce9c846789fdb6fc1f34ac4ad25dd9ef7031ef81565b6103ad7321903d3f8176b1a0c17e953cd896610be9ffdfa881565b6103ad73deaddeaddeaddeaddeaddeaddeaddeaddead111181565b6103ad733f97bf3cd76b5ca9d4a4e9cd8a73c24e32d6c19381565b6103ad739cb4706e20a18e59a48ffa7616d700a3891e186181565b6103ad6010602160991b0181565b6103ad73e4e2121b479017955be0b175305b35f312330bae81565b6103ad73d8a791fe2be73eb6e6cf1eb0cb3f36adc9b3f8f981565b6103ad730b2c639c533813f4aa9d7837caf62653d097ff8581565b6103ad73f55bec9cafdbe8730f096aa55dad6d22d44099df81565b6103ad732a3dd3eb832af982ec71669e178424b10dca2ede81565b6103ad73a8ce8aee21bc2a48a5ef670afcc9274c7bbbc03581565b6103ad730d7e906bd9cafa154b048cfa766cc1e54e39af9b81565b6103ad735aea5775959fbc2557cc8789bc1bf90a239d9a9181565b6103ad735288c571fd7ad117bea99bf60fe0846c4e84f93381565b6103ad73ca77eb3fefe3725dc33bccb54edefc3d9f764f9781565b6103ad7382af49447d8a07e3bd95bd0d56f35241523fbab181565b6103ad732c4813276869d93afdab4dd2b01cd670342da19481565b6103ad73da10009cbd5d07dd0cecc66161fc93d7c9000da181565b6103ad6006602160991b0181565b6103ad73deaddeaddeaddeaddeaddeaddeaddeaddead000081565b6103ad734b21b980d0dc7d3c0c6175b0a412694f3a1c7c6b81565b6103ad73a0b86991c6218b36c1d19d4a2e9eb0ce3606eb4881565b6103ad73c5015b9d9161dca7e18e32f6f25c4ad850731fd481565b6103ad731e4a5963abfd975d8c9021ce480b42188849d41d81565b6103ad73c840838bc438d73c16c2f8b22d2ce3669963cd4881565b6103ad73cf9bab7e53dde48a6dc4f286cb14e0529879925781565b6103ad73a9f4eeb30dc48d4ef77310a2108816c80457cf6f81565b6103ad737003e7b7186f0e6601203b99f7b8decbfa391cf981565b6103ad7394b008aa00579c1307b0ef2c499ad98a8ce58e5881565b6103ad737ac440cae8eb6328de4fa621163a792c1ea9d4fe81565b6103ad7395fc37a27a2f68e3a647cdc081f0a89bb47c301281565b6103ad6004605360981b0181565b6103ad73c02aaa39b223fe8d0a0e5c4f27ead9083c756cc281565b6103ad737626841cb6113412f9c88d3adc720c9fac88d9ed81565b6103ad73e5d7c2a44ffddf6b295a15c148167daaaf5cf34f81565b6103ad73dac17f958d2ee523a2206206994597c13d831ec781565b6103ad736c411ad3e74de3e7bd422b94a27770f5b86c623b81565b6103ad7399c9fc46f92e8a1c0dec1b1747d010903e884be181565b6103ad600181565b6103ad734f9a0e7fd2bf6067db6994cf12e4495df938e6e981565b6103ad73eeeeeeeeeeeeeeeeeeeeeeeeeeeeeeeeeeeeeeee81565b6103ad73d92023e9d9911199a6711321d1277285e6d4e2db81565b6103ad73e2b4795039517653c5ae8c2a9bfdd783b48f447a81565b6103ad73722e8bdd2ce80a4422e880164f2079488e11536581565b6103ad736b175474e89094c44da98b954eedeac495271d0f81565b6103ad7309e9222e96e7b4ae2a407b98d48e330053351eee81565b6103ad733b95bc951ee0f553ba487327278cac44f29715e581565b6103ad73b2535b988dce19f9d71dfb22db6da744acac21bf8156fea2646970667358221220bdf68e9ef9bc3d5db45d3d034b7b597b76a46b527c8407cdca19630744272b6a64736f6c63430008140033","linkReferences":{}},"methodIdentifiers":{"ArbitrumNovaL1ERC20Gateway()":"fe9c602c","ArbitrumNovaL1GatewayRouter()":"8dd683b8","ArbitrumNovaL1WETHGateway()":"4029d917","ArbitrumNovaL2ERC20Gateway()":"9118368f","ArbitrumNovaL2GatewayRouter()":"28cb3bc0","ArbitrumNovaL2WETHGateway()":"beb5e094","ArbitrumNovaWETH()":"e0ac6b1b","ArbitrumOneL1ERC20Gateway()":"18671c69","ArbitrumOneL1GatewayRouter()":"217b2487","ArbitrumOneL1WETHGateway()":"e04a2bdb","ArbitrumOneL2ERC20Gateway()":"e2a0f4c0","ArbitrumOneL2GatewayRouter()":"5c7c3613","ArbitrumOneL2WETHGateway()":"c911d861","ArbitrumOneWETH()":"68461b58","DAI()":"e0bab4c4","ETHAddress()":"da228a9b","LineaCustomerBridge()":"ccb25ee3","LineaWETH()":"bf11c76f","MantaL1Bridge()":"e70fcd06","MantaL2Bridge()":"38042ac7","MantleETH()":"2c6ebc2e","MantleL1Bridge()":"a67a2c76","MantleL2Bridge()":"b540cbf3","OP_LEGACY_ERC20_ETH()":"7c72e53c","OptimismDAI()":"6a98ccdd","OptimismL1StandardBridge()":"cc2333a6","OptimismL2StandardBridge()":"54887012","OptimismUSDC()":"44da6c93","OptimismUSDT()":"a1fc15d2","OptimismWETH()":"6f3606e1","PolygonZkEVMDAI()":"8c125c96","PolygonZkEVML1Bridge()":"4d63b5c6","PolygonZkEVML2Bridge()":"719137cf","PolygonZkEVMUSDC()":"4df6cdfd","PolygonZkEVMUSDT()":"8d9cb9a8","PolygonZkEVMWETH()":"ce5e8323","ScrollDAI()":"5ef7d9ef","ScrollL1MessageQueue()":"5723e7a6","ScrollL1StandardERC20Bridge()":"4357966e","ScrollL1StandardETHBridge()":"0f6d15ff","ScrollL1StandardWETHBridge()":"a3f17f10","ScrollL2StandardERC20Bridge()":"e07b1d49","ScrollL2StandardWETHBridge()":"9df202fe","ScrollUSDC()":"0bd02071","ScrollUSDT()":"48f10d6a","ScrollWETH()":"a7687a6e","USDC()":"89a30271","USDT()":"c54e44eb","WETH()":"ad5c4648","ZKFairDAI()":"9414e82a","ZKFairETH()":"852c7193","ZKFairL1Bridge()":"317ca693","ZKFairL2Bridge()":"6a04c204","ZKFairUSDT()":"31672bd1","ZkSyncL1Bridge()":"12fd237f","ZkSyncL2Bridge()":"1c1900e3","ZkSyncWETH()":"57a34542"},"id":62}