{"abi":[{"type":"constructor","inputs":[],"stateMutability":"nonpayable"},{"type":"function","name":"BridgeFinalizeERC20","inputs":[{"name":"sourceChainId","type":"uint256","internalType":"uint256"},{"name":"destChainId","type":"uint256","internalType":"uint256"},{"name":"to","type":"address","internalType":"address"},{"name":"ERC20Address","type":"address","internalType":"address"},{"name":"amount","type":"uint256","internalType":"uint256"},{"name":"_fee","type":"uint256","internalType":"uint256"},{"name":"_nonce","type":"uint256","internalType":"uint256"}],"outputs":[{"name":"","type":"bool","internalType":"bool"}],"stateMutability":"nonpayable"},{"type":"function","name":"BridgeFinalizeETH","inputs":[{"name":"sourceChainId","type":"uint256","internalType":"uint256"},{"name":"destChainId","type":"uint256","internalType":"uint256"},{"name":"to","type":"address","internalType":"address"},{"name":"amount","type":"uint256","internalType":"uint256"},{"name":"_fee","type":"uint256","internalType":"uint256"},{"name":"_nonce","type":"uint256","internalType":"uint256"}],"outputs":[{"name":"","type":"bool","internalType":"bool"}],"stateMutability":"payable"},{"type":"function","name":"BridgeFinalizeWETH","inputs":[{"name":"sourceChainId","type":"uint256","internalType":"uint256"},{"name":"destChainId","type":"uint256","internalType":"uint256"},{"name":"to","type":"address","internalType":"address"},{"name":"amount","type":"uint256","internalType":"uint256"},{"name":"_fee","type":"uint256","internalType":"uint256"},{"name":"_nonce","type":"uint256","internalType":"uint256"}],"outputs":[{"name":"","type":"bool","internalType":"bool"}],"stateMutability":"nonpayable"},{"type":"function","name":"BridgeInitiateERC20","inputs":[{"name":"sourceChainId","type":"uint256","internalType":"uint256"},{"name":"destChainId","type":"uint256","internalType":"uint256"},{"name":"to","type":"address","internalType":"address"},{"name":"ERC20Address","type":"address","internalType":"address"},{"name":"value","type":"uint256","internalType":"uint256"}],"outputs":[{"name":"","type":"bool","internalType":"bool"}],"stateMutability":"nonpayable"},{"type":"function","name":"BridgeInitiateETH","inputs":[{"name":"sourceChainId","type":"uint256","internalType":"uint256"},{"name":"destChainId","type":"uint256","internalType":"uint256"},{"name":"to","type":"address","internalType":"address"}],"outputs":[{"name":"","type":"bool","internalType":"bool"}],"stateMutability":"payable"},{"type":"function","name":"BridgeInitiateWETH","inputs":[{"name":"sourceChainId","type":"uint256","internalType":"uint256"},{"name":"destChainId","type":"uint256","internalType":"uint256"},{"name":"to","type":"address","internalType":"address"},{"name":"value","type":"uint256","internalType":"uint256"}],"outputs":[{"name":"","type":"bool","internalType":"bool"}],"stateMutability":"nonpayable"},{"type":"function","name":"ClaimAllReward","inputs":[],"outputs":[],"stateMutability":"nonpayable"},{"type":"function","name":"ClaimbyID","inputs":[{"name":"i","type":"uint256","internalType":"uint256"}],"outputs":[],"stateMutability":"nonpayable"},{"type":"function","name":"CompletePoolAndNew","inputs":[{"name":"CompletePools","type":"tuple[]","internalType":"struct IL1PoolManager.Pool[]","components":[{"name":"startTimestamp","type":"uint32","internalType":"uint32"},{"name":"endTimestamp","type":"uint32","internalType":"uint32"},{"name":"token","type":"address","internalType":"address"},{"name":"TotalAmount","type":"uint256","internalType":"uint256"},{"name":"TotalFee","type":"uint256","internalType":"uint256"},{"name":"TotalFeeClaimed","type":"uint256","internalType":"uint256"},{"name":"IsCompleted","type":"bool","internalType":"bool"}]}],"outputs":[],"stateMutability":"payable"},{"type":"function","name":"DEFAULT_ADMIN_ROLE","inputs":[],"outputs":[{"name":"","type":"bytes32","internalType":"bytes32"}],"stateMutability":"view"},{"type":"function","name":"DepositAndStaking","inputs":[{"name":"_token","type":"address","internalType":"address"},{"name":"_amount","type":"uint256","internalType":"uint256"}],"outputs":[],"stateMutability":"payable"},{"type":"function","name":"DepositAndStakingERC20","inputs":[{"name":"_token","type":"address","internalType":"address"},{"name":"_amount","type":"uint256","internalType":"uint256"}],"outputs":[],"stateMutability":"nonpayable"},{"type":"function","name":"DepositAndStakingETH","inputs":[],"outputs":[],"stateMutability":"payable"},{"type":"function","name":"DepositAndStakingWETH","inputs":[{"name":"amount","type":"uint256","internalType":"uint256"}],"outputs":[],"stateMutability":"nonpayable"},{"type":"function","name":"FeePoolValue","inputs":[{"name":"","type":"address","internalType":"address"}],"outputs":[{"name":"","type":"uint256","internalType":"uint256"}],"stateMutability":"view"},{"type":"function","name":"FundingPoolBalance","inputs":[{"name":"","type":"address","internalType":"address"}],"outputs":[{"name":"","type":"uint256","internalType":"uint256"}],"stateMutability":"view"},{"type":"function","name":"IsSupportChainId","inputs":[{"name":"chainId","type":"uint256","internalType":"uint256"}],"outputs":[{"name":"","type":"bool","internalType":"bool"}],"stateMutability":"view"},{"type":"function","name":"IsSupportToken","inputs":[{"name":"","type":"address","internalType":"address"}],"outputs":[{"name":"","type":"bool","internalType":"bool"}],"stateMutability":"view"},{"type":"function","name":"L2WETH","inputs":[],"outputs":[{"name":"","type":"address","internalType":"address"}],"stateMutability":"view"},{"type":"function","name":"MinStakeAmount","inputs":[{"name":"","type":"address","internalType":"address"}],"outputs":[{"name":"","type":"uint256","internalType":"uint256"}],"stateMutability":"view"},{"type":"function","name":"MinTransferAmount","inputs":[],"outputs":[{"name":"","type":"uint256","internalType":"uint256"}],"stateMutability":"view"},{"type":"function","name":"PerFee","inputs":[],"outputs":[{"name":"","type":"uint256","internalType":"uint256"}],"stateMutability":"view"},{"type":"function","name":"Pools","inputs":[{"name":"","type":"address","internalType":"address"},{"name":"","type":"uint256","internalType":"uint256"}],"outputs":[{"name":"startTimestamp","type":"uint32","internalType":"uint32"},{"name":"endTimestamp","type":"uint32","internalType":"uint32"},{"name":"token","type":"address","internalType":"address"},{"name":"TotalAmount","type":"uint256","internalType":"uint256"},{"name":"TotalFee","type":"uint256","internalType":"uint256"},{"name":"TotalFeeClaimed","type":"uint256","internalType":"uint256"},{"name":"IsCompleted","type":"bool","internalType":"bool"}],"stateMutability":"view"},{"type":"function","name":"QuickSendAssertToUser","inputs":[{"name":"_token","type":"address","internalType":"address"},{"name":"to","type":"address","internalType":"address"},{"name":"_amount","type":"uint256","internalType":"uint256"}],"outputs":[],"stateMutability":"nonpayable"},{"type":"function","name":"ReLayer","inputs":[],"outputs":[{"name":"","type":"bytes32","internalType":"bytes32"}],"stateMutability":"view"},{"type":"function","name":"SupportTokens","inputs":[{"name":"","type":"uint256","internalType":"uint256"}],"outputs":[{"name":"","type":"address","internalType":"address"}],"stateMutability":"view"},{"type":"function","name":"TransferAssertToBridge","inputs":[{"name":"Blockchain","type":"uint256","internalType":"uint256"},{"name":"_token","type":"address","internalType":"address"},{"name":"_to","type":"address","internalType":"address"},{"name":"_amount","type":"uint256","internalType":"uint256"}],"outputs":[],"stateMutability":"nonpayable"},{"type":"function","name":"Users","inputs":[{"name":"","type":"address","internalType":"address"},{"name":"","type":"uint256","internalType":"uint256"}],"outputs":[{"name":"isWithdrawed","type":"bool","internalType":"bool"},{"name":"token","type":"address","internalType":"address"},{"name":"StartPoolId","type":"uint256","internalType":"uint256"},{"name":"EndPoolId","type":"uint256","internalType":"uint256"},{"name":"Amount","type":"uint256","internalType":"uint256"}],"stateMutability":"view"},{"type":"function","name":"WithdrawAll","inputs":[],"outputs":[],"stateMutability":"nonpayable"},{"type":"function","name":"WithdrawByID","inputs":[{"name":"i","type":"uint256","internalType":"uint256"}],"outputs":[],"stateMutability":"nonpayable"},{"type":"function","name":"getPool","inputs":[{"name":"_token","type":"address","internalType":"address"},{"name":"_index","type":"uint256","internalType":"uint256"}],"outputs":[{"name":"","type":"tuple","internalType":"struct IL1PoolManager.Pool","components":[{"name":"startTimestamp","type":"uint32","internalType":"uint32"},{"name":"endTimestamp","type":"uint32","internalType":"uint32"},{"name":"token","type":"address","internalType":"address"},{"name":"TotalAmount","type":"uint256","internalType":"uint256"},{"name":"TotalFee","type":"uint256","internalType":"uint256"},{"name":"TotalFeeClaimed","type":"uint256","internalType":"uint256"},{"name":"IsCompleted","type":"bool","internalType":"bool"}]}],"stateMutability":"view"},{"type":"function","name":"getPoolLength","inputs":[{"name":"_token","type":"address","internalType":"address"}],"outputs":[{"name":"","type":"uint256","internalType":"uint256"}],"stateMutability":"view"},{"type":"function","name":"getRoleAdmin","inputs":[{"name":"role","type":"bytes32","internalType":"bytes32"}],"outputs":[{"name":"","type":"bytes32","internalType":"bytes32"}],"stateMutability":"view"},{"type":"function","name":"getUser","inputs":[{"name":"_user","type":"address","internalType":"address"}],"outputs":[{"name":"","type":"tuple[]","internalType":"struct IL1PoolManager.User[]","components":[{"name":"isWithdrawed","type":"bool","internalType":"bool"},{"name":"token","type":"address","internalType":"address"},{"name":"StartPoolId","type":"uint256","internalType":"uint256"},{"name":"EndPoolId","type":"uint256","internalType":"uint256"},{"name":"Amount","type":"uint256","internalType":"uint256"}]}],"stateMutability":"view"},{"type":"function","name":"getUser","inputs":[{"name":"_user","type":"address","internalType":"address"},{"name":"_index","type":"uint256","internalType":"uint256"}],"outputs":[{"name":"","type":"tuple","internalType":"struct IL1PoolManager.User","components":[{"name":"isWithdrawed","type":"bool","internalType":"bool"},{"name":"token","type":"address","internalType":"address"},{"name":"StartPoolId","type":"uint256","internalType":"uint256"},{"name":"EndPoolId","type":"uint256","internalType":"uint256"},{"name":"Amount","type":"uint256","internalType":"uint256"}]}],"stateMutability":"view"},{"type":"function","name":"getUserLength","inputs":[{"name":"_user","type":"address","internalType":"address"}],"outputs":[{"name":"","type":"uint256","internalType":"uint256"}],"stateMutability":"view"},{"type":"function","name":"grantRole","inputs":[{"name":"role","type":"bytes32","internalType":"bytes32"},{"name":"account","type":"address","internalType":"address"}],"outputs":[],"stateMutability":"nonpayable"},{"type":"function","name":"hasRole","inputs":[{"name":"role","type":"bytes32","internalType":"bytes32"},{"name":"account","type":"address","internalType":"address"}],"outputs":[{"name":"","type":"bool","internalType":"bool"}],"stateMutability":"view"},{"type":"function","name":"initialize","inputs":[{"name":"_MultisigWallet","type":"address","internalType":"address"},{"name":"_messageManager","type":"address","internalType":"address"}],"outputs":[],"stateMutability":"nonpayable"},{"type":"function","name":"messageManager","inputs":[],"outputs":[{"name":"","type":"address","internalType":"contract IMessageManager"}],"stateMutability":"view"},{"type":"function","name":"pause","inputs":[],"outputs":[],"stateMutability":"nonpayable"},{"type":"function","name":"paused","inputs":[],"outputs":[{"name":"","type":"bool","internalType":"bool"}],"stateMutability":"view"},{"type":"function","name":"periodTime","inputs":[],"outputs":[{"name":"","type":"uint32","internalType":"uint32"}],"stateMutability":"view"},{"type":"function","name":"renounceRole","inputs":[{"name":"role","type":"bytes32","internalType":"bytes32"},{"name":"callerConfirmation","type":"address","internalType":"address"}],"outputs":[],"stateMutability":"nonpayable"},{"type":"function","name":"revokeRole","inputs":[{"name":"role","type":"bytes32","internalType":"bytes32"},{"name":"account","type":"address","internalType":"address"}],"outputs":[],"stateMutability":"nonpayable"},{"type":"function","name":"setMinStakeAmount","inputs":[{"name":"_token","type":"address","internalType":"address"},{"name":"_amount","type":"uint256","internalType":"uint256"}],"outputs":[],"stateMutability":"nonpayable"},{"type":"function","name":"setMinTransferAmount","inputs":[{"name":"_MinTransferAmount","type":"uint256","internalType":"uint256"}],"outputs":[],"stateMutability":"nonpayable"},{"type":"function","name":"setPerFee","inputs":[{"name":"_PerFee","type":"uint256","internalType":"uint256"}],"outputs":[],"stateMutability":"nonpayable"},{"type":"function","name":"setSupportERC20Token","inputs":[{"name":"ERC20Address","type":"address","internalType":"address"},{"name":"isValid","type":"bool","internalType":"bool"}],"outputs":[],"stateMutability":"nonpayable"},{"type":"function","name":"setSupportToken","inputs":[{"name":"_token","type":"address","internalType":"address"},{"name":"_isSupport","type":"bool","internalType":"bool"},{"name":"startTimes","type":"uint32","internalType":"uint32"}],"outputs":[],"stateMutability":"nonpayable"},{"type":"function","name":"setValidChainId","inputs":[{"name":"chainId","type":"uint256","internalType":"uint256"},{"name":"isValid","type":"bool","internalType":"bool"}],"outputs":[],"stateMutability":"nonpayable"},{"type":"function","name":"supportsInterface","inputs":[{"name":"interfaceId","type":"bytes4","internalType":"bytes4"}],"outputs":[{"name":"","type":"bool","internalType":"bool"}],"stateMutability":"view"},{"type":"function","name":"unpause","inputs":[],"outputs":[],"stateMutability":"nonpayable"},{"type":"event","name":"ClaimEvent","inputs":[{"name":"user","type":"address","indexed":true,"internalType":"address"},{"name":"startPoolId","type":"uint256","indexed":false,"internalType":"uint256"},{"name":"endPoolId","type":"uint256","indexed":false,"internalType":"uint256"},{"name":"token","type":"address","indexed":true,"internalType":"address"},{"name":"amount","type":"uint256","indexed":false,"internalType":"uint256"},{"name":"fee","type":"uint256","indexed":false,"internalType":"uint256"}],"anonymous":false},{"type":"event","name":"ClaimReward","inputs":[{"name":"_user","type":"address","indexed":false,"internalType":"address"},{"name":"startPoolId","type":"uint256","indexed":false,"internalType":"uint256"},{"name":"EndPoolId","type":"uint256","indexed":false,"internalType":"uint256"},{"name":"_token","type":"address","indexed":false,"internalType":"address"},{"name":"Reward","type":"uint256","indexed":false,"internalType":"uint256"}],"anonymous":false},{"type":"event","name":"CompletePoolEvent","inputs":[{"name":"token","type":"address","indexed":true,"internalType":"address"},{"name":"poolIndex","type":"uint256","indexed":false,"internalType":"uint256"}],"anonymous":false},{"type":"event","name":"FinalizeERC20","inputs":[{"name":"sourceChainId","type":"uint256","indexed":false,"internalType":"uint256"},{"name":"destChainId","type":"uint256","indexed":false,"internalType":"uint256"},{"name":"ERC20Address","type":"address","indexed":true,"internalType":"address"},{"name":"from","type":"address","indexed":true,"internalType":"address"},{"name":"to","type":"address","indexed":true,"internalType":"address"},{"name":"value","type":"uint256","indexed":false,"internalType":"uint256"}],"anonymous":false},{"type":"event","name":"FinalizeETH","inputs":[{"name":"sourceChainId","type":"uint256","indexed":false,"internalType":"uint256"},{"name":"destChainId","type":"uint256","indexed":false,"internalType":"uint256"},{"name":"from","type":"address","indexed":true,"internalType":"address"},{"name":"to","type":"address","indexed":true,"internalType":"address"},{"name":"value","type":"uint256","indexed":false,"internalType":"uint256"}],"anonymous":false},{"type":"event","name":"FinalizeWETH","inputs":[{"name":"sourceChainId","type":"uint256","indexed":false,"internalType":"uint256"},{"name":"destChainId","type":"uint256","indexed":false,"internalType":"uint256"},{"name":"from","type":"address","indexed":true,"internalType":"address"},{"name":"to","type":"address","indexed":true,"internalType":"address"},{"name":"value","type":"uint256","indexed":false,"internalType":"uint256"}],"anonymous":false},{"type":"event","name":"Initialized","inputs":[{"name":"version","type":"uint64","indexed":false,"internalType":"uint64"}],"anonymous":false},{"type":"event","name":"InitiateERC20","inputs":[{"name":"sourceChainId","type":"uint256","indexed":false,"internalType":"uint256"},{"name":"destChainId","type":"uint256","indexed":false,"internalType":"uint256"},{"name":"ERC20Address","type":"address","indexed":true,"internalType":"address"},{"name":"from","type":"address","indexed":true,"internalType":"address"},{"name":"to","type":"address","indexed":true,"internalType":"address"},{"name":"value","type":"uint256","indexed":false,"internalType":"uint256"}],"anonymous":false},{"type":"event","name":"InitiateETH","inputs":[{"name":"sourceChainId","type":"uint256","indexed":false,"internalType":"uint256"},{"name":"destChainId","type":"uint256","indexed":false,"internalType":"uint256"},{"name":"from","type":"address","indexed":true,"internalType":"address"},{"name":"to","type":"address","indexed":true,"internalType":"address"},{"name":"value","type":"uint256","indexed":false,"internalType":"uint256"}],"anonymous":false},{"type":"event","name":"InitiateWETH","inputs":[{"name":"sourceChainId","type":"uint256","indexed":false,"internalType":"uint256"},{"name":"destChainId","type":"uint256","indexed":false,"internalType":"uint256"},{"name":"from","type":"address","indexed":true,"internalType":"address"},{"name":"to","type":"address","indexed":true,"internalType":"address"},{"name":"value","type":"uint256","indexed":false,"internalType":"uint256"}],"anonymous":false},{"type":"event","name":"Paused","inputs":[{"name":"account","type":"address","indexed":false,"internalType":"address"}],"anonymous":false},{"type":"event","name":"RoleAdminChanged","inputs":[{"name":"role","type":"bytes32","indexed":true,"internalType":"bytes32"},{"name":"previousAdminRole","type":"bytes32","indexed":true,"internalType":"bytes32"},{"name":"newAdminRole","type":"bytes32","indexed":true,"internalType":"bytes32"}],"anonymous":false},{"type":"event","name":"RoleGranted","inputs":[{"name":"role","type":"bytes32","indexed":true,"internalType":"bytes32"},{"name":"account","type":"address","indexed":true,"internalType":"address"},{"name":"sender","type":"address","indexed":true,"internalType":"address"}],"anonymous":false},{"type":"event","name":"RoleRevoked","inputs":[{"name":"role","type":"bytes32","indexed":true,"internalType":"bytes32"},{"name":"account","type":"address","indexed":true,"internalType":"address"},{"name":"sender","type":"address","indexed":true,"internalType":"address"}],"anonymous":false},{"type":"event","name":"SetMinStakeAmountEvent","inputs":[{"name":"token","type":"address","indexed":true,"internalType":"address"},{"name":"amount","type":"uint256","indexed":false,"internalType":"uint256"}],"anonymous":false},{"type":"event","name":"SetSupportTokenEvent","inputs":[{"name":"token","type":"address","indexed":true,"internalType":"address"},{"name":"isSupport","type":"bool","indexed":false,"internalType":"bool"}],"anonymous":false},{"type":"event","name":"StakingETHEvent","inputs":[{"name":"user","type":"address","indexed":true,"internalType":"address"},{"name":"amount","type":"uint256","indexed":false,"internalType":"uint256"}],"anonymous":false},{"type":"event","name":"StakingWETHEvent","inputs":[{"name":"user","type":"address","indexed":true,"internalType":"address"},{"name":"amount","type":"uint256","indexed":false,"internalType":"uint256"}],"anonymous":false},{"type":"event","name":"StarkingERC20Event","inputs":[{"name":"user","type":"address","indexed":true,"internalType":"address"},{"name":"token","type":"address","indexed":true,"internalType":"address"},{"name":"amount","type":"uint256","indexed":false,"internalType":"uint256"}],"anonymous":false},{"type":"event","name":"TransferAssertTo","inputs":[{"name":"Blockchain","type":"uint256","indexed":false,"internalType":"uint256"},{"name":"token","type":"address","indexed":true,"internalType":"address"},{"name":"to","type":"address","indexed":true,"internalType":"address"},{"name":"amount","type":"uint256","indexed":false,"internalType":"uint256"}],"anonymous":false},{"type":"event","name":"Unpaused","inputs":[{"name":"account","type":"address","indexed":false,"internalType":"address"}],"anonymous":false},{"type":"event","name":"Withdraw","inputs":[{"name":"_user","type":"address","indexed":false,"internalType":"address"},{"name":"startPoolId","type":"uint256","indexed":false,"internalType":"uint256"},{"name":"EndPoolId","type":"uint256","indexed":false,"internalType":"uint256"},{"name":"_token","type":"address","indexed":false,"internalType":"address"},{"name":"Amount","type":"uint256","indexed":false,"internalType":"uint256"},{"name":"Reward","type":"uint256","indexed":false,"internalType":"uint256"}],"anonymous":false},{"type":"error","name":"AccessControlBadConfirmation","inputs":[]},{"type":"error","name":"AccessControlUnauthorizedAccount","inputs":[{"name":"account","type":"address","internalType":"address"},{"name":"neededRole","type":"bytes32","internalType":"bytes32"}]},{"type":"error","name":"AddressEmptyCode","inputs":[{"name":"target","type":"address","internalType":"address"}]},{"type":"error","name":"AddressInsufficientBalance","inputs":[{"name":"account","type":"address","internalType":"address"}]},{"type":"error","name":"AlreadyClaimed","inputs":[]},{"type":"error","name":"ChainIdIsNotSupported","inputs":[{"name":"id","type":"uint256","internalType":"uint256"}]},{"type":"error","name":"ChainIdNotSupported","inputs":[{"name":"chainId","type":"uint256","internalType":"uint256"}]},{"type":"error","name":"EnforcedPause","inputs":[]},{"type":"error","name":"ErrorBlockChain","inputs":[]},{"type":"error","name":"ExpectedPause","inputs":[]},{"type":"error","name":"FailedInnerCall","inputs":[]},{"type":"error","name":"InvalidInitialization","inputs":[]},{"type":"error","name":"LessThanMinStakeAmount","inputs":[{"name":"minAmount","type":"uint256","internalType":"uint256"},{"name":"providedAmount","type":"uint256","internalType":"uint256"}]},{"type":"error","name":"LessThanMinTransferAmount","inputs":[{"name":"MinTransferAmount","type":"uint256","internalType":"uint256"},{"name":"value","type":"uint256","internalType":"uint256"}]},{"type":"error","name":"LessThanZero","inputs":[{"name":"amount","type":"uint256","internalType":"uint256"}]},{"type":"error","name":"MantaNotWETH","inputs":[]},{"type":"error","name":"MantleNotWETH","inputs":[]},{"type":"error","name":"NewPoolIsNotCreate","inputs":[{"name":"PoolIndex","type":"uint256","internalType":"uint256"}]},{"type":"error","name":"NoReward","inputs":[]},{"type":"error","name":"NotEnoughETH","inputs":[]},{"type":"error","name":"NotEnoughToken","inputs":[{"name":"ERC20Address","type":"address","internalType":"address"}]},{"type":"error","name":"NotInitializing","inputs":[]},{"type":"error","name":"OutOfRange","inputs":[{"name":"PoolId","type":"uint256","internalType":"uint256"},{"name":"PoolLength","type":"uint256","internalType":"uint256"}]},{"type":"error","name":"PoolIsCompleted","inputs":[{"name":"poolIndex","type":"uint256","internalType":"uint256"}]},{"type":"error","name":"ReentrancyGuardReentrantCall","inputs":[]},{"type":"error","name":"SafeERC20FailedOperation","inputs":[{"name":"token","type":"address","internalType":"address"}]},{"type":"error","name":"TokenIsAlreadySupported","inputs":[{"name":"token","type":"address","internalType":"address"},{"name":"isSupported","type":"bool","internalType":"bool"}]},{"type":"error","name":"TokenIsNotSupported","inputs":[{"name":"ERC20Address","type":"address","internalType":"address"}]},{"type":"error","name":"sourceChainIdError","inputs":[]}],"bytecode":{"object":"0x60806040523480156200001157600080fd5b506200001c62000022565b620000d6565b7ff0c57e16840df040f15088dc2f81fe391c3923bec73e23a9662efc9c229c6a00805468010000000000000000900460ff1615620000735760405163f92ee8a960e01b815260040160405180910390fd5b80546001600160401b0390811614620000d35780546001600160401b0319166001600160401b0390811782556040519081527fc7f505b2f371ae2175ee4913f4499e1f2633a7b5936321eed1cdaeb6115181d29060200160405180910390a15b50565b6169ec80620000e66000396000f3fe60806040526004361061031a5760003560e01c80636f77926b116101ab578063cb314fab116100f7578063dd0c346011610095578063f8fcc2aa1161006f578063f8fcc2aa14610a41578063f91fa9a814610a77578063fa86184814610a97578063ff2bf64f14610aac57600080fd5b8063dd0c3460146109eb578063e207089314610a01578063f62a89cf14610a2157600080fd5b8063d547741f116100d1578063d547741f1461094e578063d73f14e51461096e578063dac295681461098e578063dbb0481f146109be57600080fd5b8063cb314fab146108d8578063cb4f04ad146108f8578063cd01c6651461092e57600080fd5b80639ab0b65211610164578063ab0f9e191161013e578063ab0f9e1914610863578063b1887e9b14610883578063b92e639614610898578063bc42493d146108b857600080fd5b80639ab0b652146108285780639b4423801461083b578063a217fddf1461084e57600080fd5b80636f77926b1461076e57806372fe6a7e1461079b5780638456cb59146107cb57806391d14854146107e057806392d847381461080057806396f984e61461082057600080fd5b806338731c471161026a57806354dc027e116102235780635b5b9ea2116101fd5780635b5b9ea2146106825780635c975abb14610709578063626417b51461072e578063650c22761461074e57600080fd5b806354dc027e146106205780635765a4eb1461064d5780635a648bc51461066d57600080fd5b806338731c471461052b5780633b0230f01461053e5780633f4ba83a1461055e5780634663cdc814610573578063485cc955146105e05780634dfaef841461060057600080fd5b8063248a9ca3116102d7578063325e5d43116102b1578063325e5d43146104b85780633338562c146104d857806334d34ef5146104eb57806336568abe1461050b57600080fd5b8063248a9ca3146104615780632c37388b146104815780632f2ff15d1461049857600080fd5b806301ffc9a71461031f57806309dc480c1461035457806310875a131461037857806313e8544e146103b05780631ca2f173146104025780631d31fac01461042f575b600080fd5b34801561032b57600080fd5b5061033f61033a366004615ea2565b610ad9565b60405190151581526020015b60405180910390f35b34801561036057600080fd5b5061036a60015481565b60405190815260200161034b565b34801561038457600080fd5b50600054610398906001600160a01b031681565b6040516001600160a01b03909116815260200161034b565b3480156103bc57600080fd5b506103d06103cb366004615ee3565b610b10565b6040805195151586526001600160a01b039094166020860152928401919091526060830152608082015260a00161034b565b34801561040e57600080fd5b5061036a61041d366004615f0d565b600b6020526000908152604090205481565b34801561043b57600080fd5b5060085461044c9063ffffffff1681565b60405163ffffffff909116815260200161034b565b34801561046d57600080fd5b5061036a61047c366004615f28565b610b6a565b34801561048d57600080fd5b50610496610b8c565b005b3480156104a457600080fd5b506104966104b3366004615f41565b610c06565b3480156104c457600080fd5b506104966104d3366004615f6d565b610c28565b6104966104e636600461603b565b610c88565b3480156104f757600080fd5b50610496610506366004615f28565b611003565b34801561051757600080fd5b50610496610526366004615f41565b61108d565b61033f610539366004616155565b6110c0565b34801561054a57600080fd5b5061033f6105593660046161a6565b61129e565b34801561056a57600080fd5b5061049661159c565b34801561057f57600080fd5b5061059361058e366004615ee3565b6115af565b6040805163ffffffff98891681529790961660208801526001600160a01b03909416948601949094526060850191909152608084015260a0830191909152151560c082015260e00161034b565b3480156105ec57600080fd5b506104966105fb3660046161f4565b611624565b34801561060c57600080fd5b5061049661061b366004615ee3565b611760565b34801561062c57600080fd5b5061036a61063b366004615f0d565b60066020526000908152604090205481565b34801561065957600080fd5b5061033f610668366004616155565b611a2b565b34801561067957600080fd5b50610496611c6c565b34801561068e57600080fd5b506106a261069d366004615ee3565b611cce565b60405161034b9190815163ffffffff9081168252602080840151909116908201526040808301516001600160a01b031690820152606080830151908201526080808301519082015260a0808301519082015260c09182015115159181019190915260e00190565b34801561071557600080fd5b506000805160206169778339815191525460ff1661033f565b34801561073a57600080fd5b50610398610749366004615f28565b611db2565b34801561075a57600080fd5b50610496610769366004615f28565b611ddc565b34801561077a57600080fd5b5061078e610789366004615f0d565b611ded565b60405161034b9190616256565b3480156107a757600080fd5b5061033f6107b6366004615f28565b60009081526003602052604090205460ff1690565b3480156107d757600080fd5b50610496611e9d565b3480156107ec57600080fd5b5061033f6107fb366004615f41565b611eb0565b34801561080c57600080fd5b5061033f61081b3660046162a4565b611ee8565b6104966120ed565b610496610836366004615ee3565b612428565b61033f610849366004616305565b612497565b34801561085a57600080fd5b5061036a600081565b34801561086f57600080fd5b5061049661087e36600461633a565b61269f565b34801561088f57600080fd5b50610398612729565b3480156108a457600080fd5b506104966108b3366004615f28565b612847565b3480156108c457600080fd5b506104966108d3366004615f28565b61289b565b3480156108e457600080fd5b506104966108f3366004615ee3565b612c7c565b34801561090457600080fd5b5061036a610913366004615f0d565b6001600160a01b03166000908152600a602052604090205490565b34801561093a57600080fd5b5061033f610949366004616371565b612ce1565b34801561095a57600080fd5b50610496610969366004615f41565b613072565b34801561097a57600080fd5b506104966109893660046163ae565b61308e565b34801561099a57600080fd5b5061033f6109a9366004615f0d565b60046020526000908152604090205460ff1681565b3480156109ca57600080fd5b5061036a6109d9366004615f0d565b60056020526000908152604090205481565b3480156109f757600080fd5b5061036a60025481565b348015610a0d57600080fd5b50610496610a1c3660046163d3565b6130ba565b348015610a2d57600080fd5b50610496610a3c366004615f28565b6133b5565b348015610a4d57600080fd5b5061036a610a5c366004615f0d565b6001600160a01b031660009081526009602052604090205490565b348015610a8357600080fd5b50610496610a9236600461640f565b61341c565b348015610aa357600080fd5b5061036a6135e3565b348015610ab857600080fd5b50610acc610ac7366004615ee3565b61362b565b60405161034b9190616443565b60006001600160e01b03198216637965db0b60e01b1480610b0a57506301ffc9a760e01b6001600160e01b03198316145b92915050565b600a6020528160005260406000208181548110610b2c57600080fd5b6000918252602090912060049091020180546001820154600283015460039093015460ff831695506101009092046001600160a01b03169350919085565b6000908152600080516020616957833981519152602052604090206001015490565b610b946136f4565b610b9c61372c565b60005b600754811015610bec57610bda3360078381548110610bc057610bc0616451565b60009182526020822001546001600160a01b03169061375d565b80610be48161647d565b915050610b9f565b50610c04600160008051602061699783398151915255565b565b610c0f82610b6a565b610c1881613e68565b610c228383613e72565b50505050565b60ff19610c4460016000805160206168f7833981519152616496565b604051602001610c5691815260200190565b6040516020818303038152906040528051906020012016610c7681613e68565b610c81848484613f1e565b5050505050565b60ff19610ca460016000805160206168f7833981519152616496565b604051602001610cb691815260200190565b6040516020818303038152906040528051906020012016610cd681613e68565b60005b8251811015610ffe576000838281518110610cf657610cf6616451565b60200260200101516040015190506000600160096000846001600160a01b03166001600160a01b0316815260200190815260200160002080549050610d3b9190616496565b6001600160a01b0383166000908152600960205260409020805491925060019183908110610d6b57610d6b616451565b906000526020600020906005020160040160006101000a81548160ff021916908315150217905550848381518110610da557610da5616451565b60200260200101516080015160096000846001600160a01b03166001600160a01b031681526020019081526020016000208281548110610de757610de7616451565b906000526020600020906005020160020181905550600060096000846001600160a01b03166001600160a01b031681526020019081526020016000208281548110610e3457610e34616451565b600091825260208083206005909202909101546001600160a01b038616835260098252604092839020835160e0810190945263ffffffff6401000000009092048216808552600854909550909392830191610e909116856164a9565b63ffffffff168152602001856001600160a01b0316815260200160096000876001600160a01b03166001600160a01b031681526020019081526020016000208581548110610ee057610ee0616451565b6000918252602080832060059283020160019081015485528482018490526040808601859052606095860185905287548083018955978552938290208651979093029092018054868301518786015163ffffffff998a1667ffffffffffffffff1990931692909217640100000000999091169890980297909717600160401b600160e01b031916600160401b6001600160a01b039889160217815593850151918401919091556080840151600284015560a0840151600384015560c0909301516004909201805460ff19169215159290921790915551848152918516917fb6f449f07ceaf55392c9899e0797c6529908ae827c2d498c682e90d42c241167910160405180910390a25050508080610ff69061647d565b915050610cd9565b505050565b61100b6136f4565b61101361372c565b336000908152600a6020526040902054811061106757336000908152600a60205260409081902054905163abe5c32f60e01b815261105e918391600401918252602082015260400190565b60405180910390fd5b611073338260006140bc565b61108a600160008051602061699783398151915255565b50565b6001600160a01b03811633146110b65760405163334bd91960e11b815260040160405180910390fd5b610ffe828261472a565b600060ff196110de60016000805160206168f7833981519152616496565b6040516020016110f091815260200190565b604051602081830303815290604052805190602001201661111081613e68565b46871461113057604051631a26aa4d60e21b815260040160405180910390fd5b60008881526003602052604090205460ff1661116257604051632ef6974160e11b81526004810189905260240161105e565b6040516001600160a01b0387169086156108fc029087906000818181858888f19350505050158015611198573d6000803e3d6000fd5b506000805160206169178339815191526000908152600560205260008051602061689783398151915280548792906111d1908490616496565b9091555050600054604051631eb65ffb60e01b81526001600160a01b0390911690631eb65ffb90611210908b908b908b908a908c908b906004016164c6565b600060405180830381600087803b15801561122a57600080fd5b505af115801561123e573d6000803e3d6000fd5b5050604080518b8152602081018b90529081018890526001600160a01b03891692503091507f61d99af9dd09bd984d42cc07939d4cba4388e85aa29b3cc88df954e4ca719f329060600160405180910390a3506001979650505050505050565b60004686146112c057604051631a26aa4d60e21b815260040160405180910390fd5b60008581526003602052604090205460ff166112f257604051632ef6974160e11b81526004810186905260240161105e565b6001600160a01b03831660009081526004602052604090205460ff16611336576040516305fd61ad60e01b81526001600160a01b038416600482015260240161105e565b6040516370a0823160e01b81523060048201526000906001600160a01b038516906370a0823190602401602060405180830381865afa15801561137d573d6000803e3d6000fd5b505050506040513d601f19601f820116820180604052508101906113a191906164f7565b90506113b86001600160a01b0385163330866147a6565b6040516370a0823160e01b81523060048201526000906001600160a01b038616906370a0823190602401602060405180830381865afa1580156113ff573d6000803e3d6000fd5b505050506040513d601f19601f8201168201806040525081019061142391906164f7565b905060006114318383616496565b600080516020616917833981519152600090815260056020526000805160206168978339815191528054929350879290919061146e908490616510565b9091555050600254600090620f4240906114889084616523565b611492919061653a565b905061149e8183616496565b6001600160a01b0388166000908152600660205260408120805492945083929091906114cb908490616510565b909155505060005460405163305f478560e21b81526001600160a01b039091169063c17d1e1490611508908d908d908d908c90889060040161655c565b600060405180830381600087803b15801561152257600080fd5b505af1158015611536573d6000803e3d6000fd5b5050604080518d8152602081018d90529081018590526001600160a01b03808c1693503392508a16907fece797608c81cc46a09f9859cf8ef650ec541b5da6989f30acb30dba9b8a40a49060600160405180910390a45060019998505050505050505050565b60006115a781613e68565b61108a614800565b600960205281600052604060002081815481106115cb57600080fd5b60009182526020909120600590910201805460018201546002830154600384015460049094015463ffffffff80851697506401000000008504169550600160401b9093046001600160a01b031693919290919060ff1687565b7ff0c57e16840df040f15088dc2f81fe391c3923bec73e23a9662efc9c229c6a008054600160401b810460ff16159067ffffffffffffffff1660008115801561166a5750825b905060008267ffffffffffffffff1660011480156116875750303b155b905081158015611695575080155b156116b35760405163f92ee8a960e01b815260040160405180910390fd5b845467ffffffffffffffff1916600117855583156116dd57845460ff60401b1916600160401b1785555b6116e5614860565b6116ed614868565b6116f5614878565b6116ff8787614888565b6008805463ffffffff1916621baf80179055831561175757845460ff60401b19168555604051600181527fc7f505b2f371ae2175ee4913f4499e1f2633a7b5936321eed1cdaeb6115181d29060200160405180910390a15b50505050505050565b6117686136f4565b61177061372c565b6001600160a01b03821660009081526004602052604090205460ff166117b4576040516305fd61ad60e01b81526001600160a01b038316600482015260240161105e565b6001600160a01b0382166000908152600b6020526040902054811015611812576001600160a01b0382166000908152600b6020526040908190205490516327500c6d60e21b815260048101919091526024810182905260440161105e565b6118276001600160a01b0383163330846147a6565b6001600160a01b03821660009081526009602052604081205461184c90600190616496565b6001600160a01b0384166000908152600960205260409020805491925042918390811061187b5761187b616451565b600091825260209091206005909102015463ffffffff16111561198657336000908152600a60209081526040808320815160a0810183528481526001600160a01b0388811682860181815283860189815260608501898152608086018c8152875460018082018a55988c528a8c2097516004909102909701805494516001600160a81b0319909516971515610100600160a81b031916979097176101009490961693909302949094178555519484019490945590516002830155915160039091015583526009909152902080548391908390811061195b5761195b616451565b9060005260206000209060050201600101600082825461197b9190616510565b909155506119a29050565b604051637d58ebb960e01b81526004810182905260240161105e565b6001600160a01b038316600090815260056020526040812080548492906119ca908490616510565b90915550506040518281526001600160a01b0384169033907f3ac7d3823c11677fba9479ed26f696a3f17e16a5a5c39162fa6d183905aa67359060200160405180910390a350611a27600160008051602061699783398151915255565b5050565b600060ff19611a4960016000805160206168f7833981519152616496565b604051602001611a5b91815260200190565b6040516020818303038152906040528051906020012016611a7b81613e68565b468714611a9b57604051631a26aa4d60e21b815260040160405180910390fd5b60008881526003602052604090205460ff16611acd57604051632ef6974160e11b81526004810189905260240161105e565b6000611ad7612729565b6040516323b872dd60e01b81529091506001600160a01b038216906323b872dd90611b0a9030908b908b90600401616588565b6020604051808303816000875af1158015611b29573d6000803e3d6000fd5b505050506040513d601f19601f82011682018060405250810190611b4d91906165ac565b5073c02aaa39b223fe8d0a0e5c4f27ead9083c756cc2600090815260056020527fa550ba85c46b24b567d2e17cd597f2283877afab43603f46d5de7858f1bdb7318054889290611b9e908490616496565b9091555050600054604051631eb65ffb60e01b81526001600160a01b0390911690631eb65ffb90611bdd908c908c908c908b908d908c906004016164c6565b600060405180830381600087803b158015611bf757600080fd5b505af1158015611c0b573d6000803e3d6000fd5b5050604080518c8152602081018c90529081018990526001600160a01b038a1692503091507f7dc80be13e04000533f3763be4b9359a36a0aeb0daabbf09fd96c3a275c1cc149060600160405180910390a350600198975050505050505050565b611c746136f4565b611c7c61372c565b60005b600754811015610bec57611cbc3360078381548110611ca057611ca0616451565b6000918252602090912001546001600160a01b0316600161375d565b80611cc68161647d565b915050611c7f565b6040805160e08101825260008082526020808301829052828401829052606083018290526080830182905260a0830182905260c083018290526001600160a01b03861682526009905291909120805483908110611d2d57611d2d616451565b60009182526020918290206040805160e081018252600593909302909101805463ffffffff808216855264010000000082041694840194909452600160401b9093046001600160a01b0316908201526001820154606082015260028201546080820152600382015460a082015260049091015460ff16151560c0820152905092915050565b60078181548110611dc257600080fd5b6000918252602090912001546001600160a01b0316905081565b6000611de781613e68565b50600255565b6001600160a01b0381166000908152600a60209081526040808320805482518185028101850190935280835260609492939192909184015b82821015611e925760008481526020908190206040805160a08101825260048602909201805460ff81161515845261010090046001600160a01b03168385015260018082015492840192909252600281015460608401526003015460808301529083529092019101611e25565b505050509050919050565b6000611ea881613e68565b61108a6148d1565b6000918252600080516020616957833981519152602090815260408084206001600160a01b0393909316845291905290205460ff1690565b600060ff19611f0660016000805160206168f7833981519152616496565b604051602001611f1891815260200190565b6040516020818303038152906040528051906020012016611f3881613e68565b468814611f5857604051631a26aa4d60e21b815260040160405180910390fd5b60008981526003602052604090205460ff16611f8a57604051632ef6974160e11b8152600481018a905260240161105e565b6001600160a01b03861660009081526004602052604090205460ff16611fce576040516305fd61ad60e01b81526001600160a01b038716600482015260240161105e565b611fe36001600160a01b0387163089886147a6565b60008051602061691783398151915260009081526005602052600080516020616897833981519152805487929061201b908490616496565b9091555050600054604051631eb65ffb60e01b81526001600160a01b0390911690631eb65ffb9061205a908c908c908c908a908c908b906004016164c6565b600060405180830381600087803b15801561207457600080fd5b505af1158015612088573d6000803e3d6000fd5b5050604080518c8152602081018c90529081018890526001600160a01b03808b1693503092508916907f0f50ec03884adc78b9840a90cf8805a70ffe160f18d6b83198103b6fade443fe9060600160405180910390a450600198975050505050505050565b6120f56136f4565b6120fd61372c565b600080516020616917833981519152600052600b6020527fc81ad962d4d90b45a70da3e5e59847dcc28dc55db029f697d18929adae48413f5434101561219957600080516020616917833981519152600052600b6020527fc81ad962d4d90b45a70da3e5e59847dcc28dc55db029f697d18929adae48413f546040516327500c6d60e21b8152600481019190915234602482015260440161105e565b600080516020616917833981519152600090815260096020526000805160206168b7833981519152546121ce90600190616496565b600080516020616917833981519152600090815260096020526000805160206168b7833981519152549192500361221b57604051637d58ebb960e01b81526001600482015260240161105e565b60008051602061691783398151915260005260096020526000805160206168b783398151915280544291908390811061225657612256616451565b600091825260209091206005909102015463ffffffff16111561237757336000908152600a60209081526040808320815160a081018352848152600080516020616917833981519152818501818152938201878152606083018781523460808501818152865460018082018955978b52898b2096516004909102909601805498516001600160a81b0319909916961515610100600160a81b031916969096176101006001600160a01b03909916989098029790971785559151948401949094559251600283015592516003909101559252600990526000805160206168b783398151915280548390811061234c5761234c616451565b9060005260206000209060050201600101600082825461236c9190616510565b9091555061239e9050565b612382816001616510565b604051637d58ebb960e01b815260040161105e91815260200190565b6000805160206169178339815191526000908152600560205260008051602061689783398151915280543492906123d6908490616510565b909155505060405134815233907fe7466ea83435490635fc76a5f33da4815758ab48b1d45858f0452ca6465569379060200160405180910390a250610c04600160008051602061699783398151915255565b61243061372c565b341561243e57611a276120ed565b73c02aaa39b223fe8d0a0e5c4f27ead9083c756cc1196001600160a01b0383160161246c57611a278161289b565b6001600160a01b03821660009081526004602052604090205460ff1615611a2757611a278282611760565b60004684146124b957604051631a26aa4d60e21b815260040160405180910390fd5b60008381526003602052604090205460ff166124eb57604051632ef6974160e11b81526004810184905260240161105e565b60015434101561251b576001546040516358f8331360e11b8152600481019190915234602482015260440161105e565b600080516020616917833981519152600090815260056020526000805160206168978339815191528054349290612553908490616510565b9091555050600254600090620f42409061256d9034616523565b612577919061653a565b905060006125858234616496565b600080516020616917833981519152600090815260066020527fa2e5aefc6e2cbe2917a296f0fd89c5f915c487c803db1d98eccb43f14012d711805492935084929091906125d4908490616510565b909155505060005460405163305f478560e21b81526001600160a01b039091169063c17d1e1490612611904690899089908790899060040161655c565b600060405180830381600087803b15801561262b57600080fd5b505af115801561263f573d6000803e3d6000fd5b505060408051898152602081018990529081018490526001600160a01b03871692503391507f0b671089787b6d29f730bc690214e6a7e28064fef5a3cdbb9b930a22fac01dc59060600160405180910390a36001925050505b9392505050565b60006126aa81613e68565b6001600160a01b0383166000908152600460205260409020805460ff19168315801591909117909155610ffe57600780546001810182556000919091527fa66cc928b5edb82af9bd49922954155ab7b0942694bea4ce44661d9a8736c6880180546001600160a01b0385166001600160a01b0319909116179055505050565b60004662082750819003612745576004605360981b0191505090565b8061044d0361276957734f9a0e7fd2bf6067db6994cf12e4495df938e6e991505090565b80600a0361277f576006602160991b0191505090565b8061a4b1036127a3577382af49447d8a07e3bd95bd0d56f35241523fbab191505090565b8061a4ba036127c75773722e8bdd2ce80a4422e880164f2079488e11536591505090565b80610144036127eb57735aea5775959fbc2557cc8789bc1bf90a239d9a9191505090565b806113880361280d5760405163e31d668960e01b815260040160405180910390fd5b8060a90361282e576040516322c20c6960e11b815260040160405180910390fd5b604051639474dee160e01b815260040160405180910390fd5b60ff1961286360016000805160206168f7833981519152616496565b60405160200161287591815260200190565b604051602081830303815290604052805190602001201661289581613e68565b50600155565b6128a36136f4565b6128ab61372c565b73c02aaa39b223fe8d0a0e5c4f27ead9083c756cc2600052600b6020527ffc8cffbc59e5d552299bcf0a6a1c92c3958cd08bc38d18034b5c765b88fdfdfa548110156129405760008052600b6020527fdf7de25b7f1fd6d0b5205f0e18f1f35bd7b8d84cce336588d184533ce43a6f76546040516327500c6d60e21b815260048101919091526024810182905260440161105e565b6040516323b872dd60e01b815273c02aaa39b223fe8d0a0e5c4f27ead9083c756cc2906323b872dd9061297b90339030908690600401616588565b6020604051808303816000875af115801561299a573d6000803e3d6000fd5b505050506040513d601f19601f820116820180604052508101906129be91906165ac565b5073c02aaa39b223fe8d0a0e5c4f27ead9083c756cc260009081526009602052600080516020616937833981519152546129fa90600190616496565b73c02aaa39b223fe8d0a0e5c4f27ead9083c756cc2600052600960205260008051602061693783398151915280549192509082908110612a3c57612a3c616451565b600091825260209091206004600590920201015460ff1615612a74576040516311cf1b0760e31b81526004810182905260240161105e565b73c02aaa39b223fe8d0a0e5c4f27ead9083c756cc26000526009602052600080516020616937833981519152805442919083908110612ab557612ab5616451565b600091825260209091206005909102015463ffffffff161115612bda57336000908152600a60209081526040808320815160a08101835284815273c02aaa39b223fe8d0a0e5c4f27ead9083c756cc281850181815293820187815260608301878152608084018a8152855460018181018855968a52888a2095516004909102909501805497516001600160a01b031661010002610100600160a81b0319961515969096166001600160a81b031990981697909717949094178655905193850193909355915160028401555160039092019190915590915260099052600080516020616937833981519152805483919083908110612bb457612bb4616451565b90600052602060002090600502016001016000828254612bd49190616510565b90915550505b73c02aaa39b223fe8d0a0e5c4f27ead9083c756cc2600090815260056020527fa550ba85c46b24b567d2e17cd597f2283877afab43603f46d5de7858f1bdb7318054849290612c2a908490616510565b909155505060405182815233907fc138e3bd6d13eefa5cb01c0d35c5794001141efaf4e5ad888cad059935f833839060200160405180910390a25061108a600160008051602061699783398151915255565b6000612c8781613e68565b6001600160a01b0383166000818152600b602052604090819020849055517ff54d3b756d286b6b08e5d4eda6dfe5b135664abf029e58e637cbf013c442c95090612cd49085815260200190565b60405180910390a2505050565b6000468514612d0357604051631a26aa4d60e21b815260040160405180910390fd5b60008481526003602052604090205460ff16612d35576040516363b5c9db60e01b81526004810185905260240161105e565b6000612d3f612729565b6040516370a0823160e01b81523060048201529091506000906001600160a01b038316906370a0823190602401602060405180830381865afa158015612d89573d6000803e3d6000fd5b505050506040513d601f19601f82011682018060405250810190612dad91906164f7565b6040516323b872dd60e01b81529091506001600160a01b038316906323b872dd90612de090339030908990600401616588565b6020604051808303816000875af1158015612dff573d6000803e3d6000fd5b505050506040513d601f19601f82011682018060405250810190612e2391906165ac565b506040516370a0823160e01b81523060048201526000906001600160a01b038416906370a0823190602401602060405180830381865afa158015612e6b573d6000803e3d6000fd5b505050506040513d601f19601f82011682018060405250810190612e8f91906164f7565b90506000612e9d8383616496565b9050600154811015612ed0576001546040516358f8331360e11b815260048101919091526024810182905260440161105e565b73c02aaa39b223fe8d0a0e5c4f27ead9083c756cc2600090815260056020527fa550ba85c46b24b567d2e17cd597f2283877afab43603f46d5de7858f1bdb7318054839290612f20908490616510565b9091555050600254600090620f424090612f3a9084616523565b612f44919061653a565b9050612f508183616496565b73c02aaa39b223fe8d0a0e5c4f27ead9083c756cc2600090815260066020527f5e5777fab7622aff3c042c1ece74307c2e9d699a9da444f416c35f2e1def28a580549294508392909190612fa5908490616510565b909155505060005460405163305f478560e21b81526001600160a01b039091169063c17d1e1490612fe2908d908d908d908d90889060040161655c565b600060405180830381600087803b158015612ffc57600080fd5b505af1158015613010573d6000803e3d6000fd5b5050604080518d8152602081018d90529081018590526001600160a01b038b1692503391507fcb9e641636f35317739cff2833f1831bf3a25b930b5615ada09367c080d64a899060600160405180910390a35060019998505050505050505050565b61307b82610b6a565b61308481613e68565b610c22838361472a565b600061309981613e68565b50600091825260036020526040909120805460ff1916911515919091179055565b60006130c581613e68565b6001600160a01b03841660009081526004602052604090205460ff16156131125760405163411befff60e11b81526001600160a01b0385166004820152831515602482015260440161105e565b6001600160a01b0384166000908152600460209081526040808320805460ff1916871515179055600990915290819020815160e0810190925260085490919081906131639063ffffffff16866165c9565b63ffffffff908116825285811660208084018290526001600160a01b03808b166040808701829052600060608089018290526080808a0183905260a0808b0184905260c09a8b018490528c5460018181018f559d85528885208d5160059092020180548e8b01518f890151909a16600160401b02600160401b600160e01b03199a8e166401000000000267ffffffffffffffff19909216938e16939093171798909816178755918b01519b86019b909b5599890151600285015598880151600384015596909501516004909101805491151560ff199092169190911790559285526009835293839020835160e081019094529383526008549183019161326a9116866164a9565b63ffffffff90811682526001600160a01b038881166020808501829052600060408087018290526060808801839052608080890184905260a09889018490528a5460018082018d559b85528585208b5160059092020180548c8801518d870151938c1667ffffffffffffffff199092169190911764010000000091909b160299909917600160401b600160e01b031916600160401b9190981602969096178755880151868a015593870151600286015594860151600385015560c0909501516004909301805460ff1916931515939093179092556007805495860181559092527fa66cc928b5edb82af9bd49922954155ab7b0942694bea4ce44661d9a8736c68890930180546001600160a01b031916841790555185151581527fc8c34f23fafb34e68119c1d231ef03d0d47225b15e2c4de3efbefa14b0181d86910160405180910390a250505050565b6133bd6136f4565b6133c561372c565b336000908152600a6020526040902054811061341057336000908152600a60205260409081902054905163abe5c32f60e01b815261105e918391600401918252602082015260400190565b611073338260016140bc565b60ff1961343860016000805160206168f7833981519152616496565b60405160200161344a91815260200190565b604051602081830303815290604052805190602001201661346a81613e68565b6001600160a01b03841660009081526004602052604090205460ff166134ae576040516305fd61ad60e01b81526001600160a01b038516600482015260240161105e565b8462082750036134c8576134c384848461491a565b613566565b8461044d036134dc576134c3848484614d44565b84600a036134ef576134c3848484614eb3565b8461a4b103613503576134c3848484614fe0565b8461a4ba03613517576134c3848484615293565b846101440361352b576134c38484846154b8565b846113880361353f576134c3848484615668565b8460a903613552576134c384848461578e565b8461a70e0361282e576134c38484846158bb565b6001600160a01b0384166000908152600560205260408120805484929061358e908490616496565b909155505060408051868152602081018490526001600160a01b0380861692908716917f08ffba656e4ac665e1aa4bb6a342e1a69d4cc12fd751ac862fa3fe27b0c7524a910160405180910390a35050505050565b60ff196135ff60016000805160206168f7833981519152616496565b60405160200161361191815260200190565b604051602081830303815290604052805190602001201681565b6136686040518060a0016040528060001515815260200160006001600160a01b031681526020016000815260200160008152602001600081525090565b6001600160a01b0383166000908152600a6020526040902080548390811061369257613692616451565b60009182526020918290206040805160a081018252600493909302909101805460ff81161515845261010090046001600160a01b0316938301939093526001830154908201526002820154606082015260039091015460808201529392505050565b60008051602061699783398151915280546001190161372657604051633ee5aeb560e01b815260040160405180910390fd5b60029055565b6000805160206169778339815191525460ff1615610c045760405163d93c066560e01b815260040160405180910390fd5b6001600160a01b038216600090815260096020526040812054900361379857604051637d58ebb960e01b81526000600482015260240161105e565b60005b6001600160a01b0384166000908152600a6020526040902054811015610c22576001600160a01b038481166000908152600a602052604090208054839286169190839081106137ec576137ec616451565b600091825260209091206004909102015461010090046001600160a01b031603613e40576001600160a01b0385166000908152600a6020526040902080548290811061383a5761383a616451565b600091825260209091206004909102015460ff16156138595750613e42565b6001600160a01b03841660009081526009602052604081205461387e90600190616496565b6001600160a01b0387166000908152600a60205260409020805491925090839081106138ac576138ac616451565b90600052602060002090600402016003015460096000876001600160a01b03166001600160a01b0316815260200190815260200160002082815481106138f4576138f4616451565b906000526020600020906005020160010160008282546139149190616496565b90915550506001600160a01b0386166000908152600a6020526040812080548291908590811061394657613946616451565b90600052602060002090600402016003015490506000600a60008a6001600160a01b03166001600160a01b03168152602001908152602001600020858154811061399257613992616451565b9060005260206000209060040201600101549050838111156139c75760405163374c934360e11b815260040160405180910390fd5b805b84811015613b27576001600160a01b0389166000908152600960205260409020546139f690600190616496565b811115613a1957604051637d58ebb960e01b81526004810182905260240161105e565b6001600160a01b0389166000908152600960205260408120805483908110613a4357613a43616451565b906000526020600020906005020160010154600960008c6001600160a01b03166001600160a01b031681526020019081526020016000208381548110613a8b57613a8b616451565b90600052602060002090600502016002015485613aa89190616523565b613ab2919061653a565b9050613abe8186616510565b6001600160a01b038b1660009081526009602052604090208054919650829184908110613aed57613aed616451565b90600052602060002090600502016003016000828254613b0d9190616510565b90915550829150613b1f90508161647d565b9150506139c9565b5060008311613b645760405162461bcd60e51b8152602060048201526009602482015268139bc814995dd85c9960ba1b604482015260640161105e565b613b6e8383616510565b91508615613e3b576001600160a01b0389166000908152600a6020526040902080546001919087908110613ba457613ba4616451565b60009182526020909120600490910201805460ff1916911515919091179055613bce888a85613f1e565b506001600160a01b0389166000908152600a602052604090205460011015613d94576001600160a01b0389166000908152600a602052604090208054613c1690600190616496565b81548110613c2657613c26616451565b9060005260206000209060040201600a60008b6001600160a01b03166001600160a01b031681526020019081526020016000208681548110613c6a57613c6a616451565b600091825260208083208454600490930201805460ff909316151560ff1984168117825585546001600160a01b03610100918290048116909102610100600160a81b03199092166001600160a81b03199095169490941717815560018086015490820155600280860154908201556003948501549401939093558b168152600a90915260409020805480613d0057613d006165e6565b60008281526020812060046000199093019283020180546001600160a81b0319168155600181018290556002810182905560030155905585613d41816165fc565b96507f0ad30059d4072ae2525ebaaa5b6878f1c50df5f3b921615031c7d0f12dc4a77b90508982868b613d748888616496565b88604051613d8796959493929190616619565b60405180910390a1613e3b565b6001600160a01b0389166000908152600a60205260409020805485919087908110613dc157613dc1616451565b906000526020600020906004020160010181905550613de1888a84613f1e565b50604080516001600160a01b038b81168252602082018490528183018790528a1660608201526080810185905290517f7e6fedb6f824b2112ac0626ced32f6be6324d554cc03efd112aa021ee4d740ac9181900360a00190a15b505050505b505b80613e4c81616653565b91505061379b565b600160008051602061699783398151915255565b61108a81336159e3565b6000600080516020616957833981519152613e8d8484611eb0565b613f0d576000848152602082815260408083206001600160a01b03871684529091529020805460ff19166001179055613ec33390565b6001600160a01b0316836001600160a01b0316857f2f8788117e7eff1d82e926ec794901d17c78024a50270940304540a733656f0d60405160405180910390a46001915050610b0a565b6000915050610b0a565b5092915050565b6001600160a01b03831660009081526004602052604081205460ff16613f62576040516305fd61ad60e01b81526001600160a01b038516600482015260240161105e565b6001600160a01b03841660009081526005602052604081208054849290613f8a908490616496565b90915550506000805160206168d78339815191526001600160a01b0385160161400a5781471015613fce57604051632c1d501360e11b815260040160405180910390fd5b6040516001600160a01b0384169083156108fc029084906000818181858888f19350505050158015614004573d6000803e3d6000fd5b506140b2565b6040516370a0823160e01b815230600482015282906001600160a01b038616906370a0823190602401602060405180830381865afa158015614050573d6000803e3d6000fd5b505050506040513d601f19601f8201168201806040525081019061407491906164f7565b101561409e576040516311745b6160e21b81526001600160a01b038516600482015260240161105e565b6140b26001600160a01b0385168484615a0e565b5060019392505050565b6001600160a01b0383166000908152600a602052604081208054849081106140e6576140e6616451565b600091825260208083206004909202909101546001600160a01b03610100909104168083526009909152604082205490925061412490600190616496565b6001600160a01b0386166000908152600a602052604090208054919250908590811061415257614152616451565b90600052602060002090600402016003015460096000846001600160a01b03166001600160a01b03168152602001908152602001600020828154811061419a5761419a616451565b906000526020600020906005020160010160008282546141ba9190616496565b90915550506001600160a01b0385166000908152600a602052604081208054829190879081106141ec576141ec616451565b90600052602060002090600402016003015490506000600a6000896001600160a01b03166001600160a01b03168152602001908152602001600020878154811061423857614238616451565b90600052602060002090600402016001015490508381111561426d5760405163374c934360e11b815260040160405180910390fd5b805b848110156143cd576001600160a01b03861660009081526009602052604090205461429c90600190616496565b8111156142bf57604051637d58ebb960e01b81526004810182905260240161105e565b6001600160a01b03861660009081526009602052604081208054839081106142e9576142e9616451565b90600052602060002090600502016001015460096000896001600160a01b03166001600160a01b03168152602001908152602001600020838154811061433157614331616451565b9060005260206000209060050201600201548561434e9190616523565b614358919061653a565b90506143648186616510565b6001600160a01b0388166000908152600960205260409020805491965082918490811061439357614393616451565b906000526020600020906005020160030160008282546143b39190616510565b909155508291506143c590508161647d565b91505061426f565b506000831161440a5760405162461bcd60e51b8152602060048201526009602482015268139bc814995dd85c9960ba1b604482015260640161105e565b6144148383616510565b6001600160a01b0389166000908152600a6020526040902080549193506001918990811061444457614444616451565b60009182526020909120600490910201805460ff19169115159190911790558515614720576001600160a01b0388166000908152600a602052604090208054600191908990811061449757614497616451565b60009182526020909120600490910201805460ff19169115159190911790556144c1858985613f1e565b506001600160a01b0388166000908152600a602052604090205460011015614679576001600160a01b0388166000908152600a60205260409020805461450990600190616496565b8154811061451957614519616451565b9060005260206000209060040201600a60008a6001600160a01b03166001600160a01b03168152602001908152602001600020888154811061455d5761455d616451565b600091825260208083208454600490930201805460ff909316151560ff1984168117825585546001600160a01b03610100918290048116909102610100600160a81b03199092166001600160a81b03199095169490941717815560018086015490820155600280860154908201556003948501549401939093558a168152600a909152604090208054806145f3576145f36165e6565b60008281526020812060046000199093019283020180546001600160a81b031916815560018101829055600281018290556003015590557f0ad30059d4072ae2525ebaaa5b6878f1c50df5f3b921615031c7d0f12dc4a77b888286886146598888616496565b8860405161466c96959493929190616619565b60405180910390a1614720565b6001600160a01b0388166000908152600a602052604090208054859190899081106146a6576146a6616451565b9060005260206000209060040201600101819055506146c6858984613f1e565b50604080516001600160a01b038a8116825260208201849052818301879052871660608201526080810185905290517f7e6fedb6f824b2112ac0626ced32f6be6324d554cc03efd112aa021ee4d740ac9181900360a00190a15b5050505050505050565b60006000805160206169578339815191526147458484611eb0565b15613f0d576000848152602082815260408083206001600160a01b0387168085529252808320805460ff1916905551339287917ff6391f5c32d9c69d2a47ea670b442974b53935d1edc7fd64eb21e047a839171b9190a46001915050610b0a565b610c2284856001600160a01b03166323b872dd8686866040516024016147ce93929190616588565b604051602081830303815290604052915060e01b6020820180516001600160e01b038381831617835250505050615a34565b614808615a97565b600080516020616977833981519152805460ff191681557f5db9ee0a495bf2e6ff9c91a7834c1ba4fdd244a5e8aa4e537bd38aeae4b073aa335b6040516001600160a01b03909116815260200160405180910390a150565b610c04615ac7565b614870615ac7565b610c04615b10565b614880615ac7565b610c04615b18565b614890615ac7565b67016345785d8a00006001556127106002556148ad600083613e72565b50600080546001600160a01b0319166001600160a01b039290921691909117905550565b6148d961372c565b600080516020616977833981519152805460ff191660011781557f62e78cea01bee320cd4e420270b5ea74000d11b0c9f74754ebdbfc544b05a25833614842565b6000805160206168d78339815191526001600160a01b03841601614a4557604051636bb825d760e11b8152620298106004820152600090730d7e906bd9cafa154b048cfa766cc1e54e39af9b9063d7704bae90602401602060405180830381865afa15801561498d573d6000803e3d6000fd5b505050506040513d601f19601f820116820180604052508101906149b191906164f7565b9050737f2b8c31f88b6006c382775eea88297ec1e3e90563ce0b63ce6149d78385616510565b6040516001600160e01b031960e084901b1681526001600160a01b0387166004820152602481018690526202981060448201526064016000604051808303818588803b158015614a2657600080fd5b505af1158015614a3a573d6000803e3d6000fd5b505050505050505050565b73c02aaa39b223fe8d0a0e5c4f27ead9083c756cc1196001600160a01b03841601614bec57604051636bb825d760e11b8152614e206004820152600090730d7e906bd9cafa154b048cfa766cc1e54e39af9b9063d7704bae90602401602060405180830381865afa158015614abe573d6000803e3d6000fd5b505050506040513d601f19601f82011682018060405250810190614ae291906164f7565b60405163095ea7b360e01b81529091506001600160a01b0385169063095ea7b390614b2790737ac440cae8eb6328de4fa621163a792c1ea9d4fe90869060040161666b565b6020604051808303816000875af1158015614b46573d6000803e3d6000fd5b505050506040513d601f19601f82011682018060405250810190614b6a91906165ac565b5060405163790cfd3360e11b81526001600160a01b0380861660048301528416602482015260448101839052614e206064820152737ac440cae8eb6328de4fa621163a792c1ea9d4fe9063f219fa66906084015b600060405180830381600087803b158015614bd857600080fd5b505af1158015614720573d6000803e3d6000fd5b604051636bb825d760e11b8152614e206004820152600090730d7e906bd9cafa154b048cfa766cc1e54e39af9b9063d7704bae90602401602060405180830381865afa158015614c40573d6000803e3d6000fd5b505050506040513d601f19601f82011682018060405250810190614c6491906164f7565b60405163095ea7b360e01b81529091506001600160a01b0385169063095ea7b390614ca990737ac440cae8eb6328de4fa621163a792c1ea9d4fe90869060040161666b565b6020604051808303816000875af1158015614cc8573d6000803e3d6000fd5b505050506040513d601f19601f82011682018060405250810190614cec91906165ac565b5060405163790cfd3360e11b81526001600160a01b0380861660048301528416602482015260448101839052614e20606482015273d8a791fe2be73eb6e6cf1eb0cb3f36adc9b3f8f99063f219fa6690608401614bbe565b6000805160206168d78339815191526001600160a01b03841601614dbe5760405163cd58657960e01b8152732a3dd3eb832af982ec71669e178424b10dca2ede9063cd586579908390614da590600190879084906000908190600401616684565b6000604051808303818588803b158015614bd857600080fd5b60405163095ea7b360e01b81526001600160a01b0384169063095ea7b390614e0090732a3dd3eb832af982ec71669e178424b10dca2ede90859060040161666b565b6020604051808303816000875af1158015614e1f573d6000803e3d6000fd5b505050506040513d601f19601f82011682018060405250810190614e4391906165ac565b5060405163cd58657960e01b8152732a3dd3eb832af982ec71669e178424b10dca2ede9063cd58657990614e8590600190869086908990600090600401616684565b600060405180830381600087803b158015614e9f57600080fd5b505af1158015611757573d6000803e3d6000fd5b6000805160206168d78339815191526001600160a01b03841601614f0d57604051639a2ac6d560e01b81527399c9fc46f92e8a1c0dec1b1747d010903e884be190639a2ac6d5908390614da59086906000906004016166cb565b6000614f1884615b39565b60405163095ea7b360e01b81529091506001600160a01b0385169063095ea7b390614f5d907399c9fc46f92e8a1c0dec1b1747d010903e884be190869060040161666b565b6020604051808303816000875af1158015614f7c573d6000803e3d6000fd5b505050506040513d601f19601f82011682018060405250810190614fa091906165ac565b507399c9fc46f92e8a1c0dec1b1747d010903e884be163838b2520858386865a6040518663ffffffff1660e01b8152600401614bbe9594939291906166f9565b6000805160206168d78339815191526001600160a01b0384160161509757604051634fb1a07b60e01b81527372ce9c846789fdb6fc1f34ac4ad25dd9ef7031ef90634fb1a07b90839061505090600080516020616917833981519152903090889085906000908190600401616741565b60006040518083038185885af115801561506e573d6000803e3d6000fd5b50505050506040513d6000823e601f3d908101601f19168201604052610c2291908101906167ae565b73c02aaa39b223fe8d0a0e5c4f27ead9083c756cc1196001600160a01b038416016151cb5760405163095ea7b360e01b81526001600160a01b0384169063095ea7b3906150fe9073d92023e9d9911199a6711321d1277285e6d4e2db90859060040161666b565b6020604051808303816000875af115801561511d573d6000803e3d6000fd5b505050506040513d601f19601f8201168201806040525081019061514191906165ac565b50604051634fb1a07b60e01b815273d92023e9d9911199a6711321d1277285e6d4e2db90634fb1a07b906151849086903090879087906000908190600401616741565b6000604051808303816000875af11580156151a3573d6000803e3d6000fd5b505050506040513d6000823e601f3d908101601f19168201604052610c2291908101906167ae565b60405163095ea7b360e01b81526001600160a01b0384169063095ea7b39061520d9073a3a7b6f88361f48403514059f1f16c8e78d60eec90859060040161666b565b6020604051808303816000875af115801561522c573d6000803e3d6000fd5b505050506040513d601f19601f8201168201806040525081019061525091906165ac565b50604051634fb1a07b60e01b815273a3a7b6f88361f48403514059f1f16c8e78d60eec90634fb1a07b906151849086903090879087906000908190600401616741565b6000805160206168d78339815191526001600160a01b0384160161530357604051634fb1a07b60e01b815273c840838bc438d73c16c2f8b22d2ce3669963cd4890634fb1a07b90839061505090600080516020616917833981519152903090889085906000908190600401616741565b73c02aaa39b223fe8d0a0e5c4f27ead9083c756cc1196001600160a01b038416016153f05760405163095ea7b360e01b81526001600160a01b0384169063095ea7b39061536a9073e4e2121b479017955be0b175305b35f312330bae90859060040161666b565b6020604051808303816000875af1158015615389573d6000803e3d6000fd5b505050506040513d601f19601f820116820180604052508101906153ad91906165ac565b50604051634fb1a07b60e01b815273e4e2121b479017955be0b175305b35f312330bae90634fb1a07b906151849086903090879087906000908190600401616741565b60405163095ea7b360e01b81526001600160a01b0384169063095ea7b3906154329073b2535b988dce19f9d71dfb22db6da744acac21bf90859060040161666b565b6020604051808303816000875af1158015615451573d6000803e3d6000fd5b505050506040513d601f19601f8201168201806040525081019061547591906165ac565b50604051634fb1a07b60e01b815273b2535b988dce19f9d71dfb22db6da744acac21bf90634fb1a07b906151849086903090879087906000908190600401616741565b6000805160206168d78339815191526001600160a01b0384160161555d5760405163e8b99b1b60e01b81527357891966931eb4bb6fb81430e6ce0a03aabde0639063e8b99b1b90839061551a9086906000908490829081903090600401616842565b60206040518083038185885af1158015615538573d6000803e3d6000fd5b50505050506040513d601f19601f82011682018060405250810190610c2291906164f7565b60405163095ea7b360e01b81526001600160a01b0384169063095ea7b39061559f907357891966931eb4bb6fb81430e6ce0a03aabde06390859060040161666b565b6020604051808303816000875af11580156155be573d6000803e3d6000fd5b505050506040513d601f19601f820116820180604052508101906155e291906165ac565b5060405163e8b99b1b60e01b81527357891966931eb4bb6fb81430e6ce0a03aabde0639063e8b99b1b906156259085908790869060009081903090600401616842565b6020604051808303816000875af1158015615644573d6000803e3d6000fd5b505050506040513d601f19601f82011682018060405250810190610c2291906164f7565b6000805160206168d78339815191526001600160a01b038416016156c057604051639a2ac6d560e01b81527395fc37a27a2f68e3a647cdc081f0a89bb47c301290639a2ac6d590614e859085906000906004016166cb565b60405163095ea7b360e01b81526001600160a01b0384169063095ea7b390615702907395fc37a27a2f68e3a647cdc081f0a89bb47c301290859060040161666b565b6020604051808303816000875af1158015615721573d6000803e3d6000fd5b505050506040513d601f19601f8201168201806040525081019061574591906165ac565b507395fc37a27a2f68e3a647cdc081f0a89bb47c301263838b25208461576a81615c57565b858560006040518663ffffffff1660e01b8152600401614e859594939291906166f9565b6000805160206168d78339815191526001600160a01b038416016157e857604051639a2ac6d560e01b8152733b95bc951ee0f553ba487327278cac44f29715e590639a2ac6d5908390614da59086906000906004016166cb565b60006157f384615cd9565b60405163095ea7b360e01b81529091506001600160a01b0385169063095ea7b39061583890733b95bc951ee0f553ba487327278cac44f29715e590869060040161666b565b6020604051808303816000875af1158015615857573d6000803e3d6000fd5b505050506040513d601f19601f8201168201806040525081019061587b91906165ac565b50733b95bc951ee0f553ba487327278cac44f29715e563838b2520858386865a6040518663ffffffff1660e01b8152600401614bbe9594939291906166f9565b6000805160206168d78339815191526001600160a01b0384160161591c5760405163cd58657960e01b8152739cb4706e20a18e59a48ffa7616d700a3891e18619063cd586579908390614da590600190879084906000908190600401616684565b60405163095ea7b360e01b81526001600160a01b0384169063095ea7b39061595e90739cb4706e20a18e59a48ffa7616d700a3891e186190859060040161666b565b6020604051808303816000875af115801561597d573d6000803e3d6000fd5b505050506040513d601f19601f820116820180604052508101906159a191906165ac565b5060405163cd58657960e01b8152739cb4706e20a18e59a48ffa7616d700a3891e18619063cd58657990614e8590600190869086908990600090600401616684565b6159ed8282611eb0565b611a2757808260405163e2517d3f60e01b815260040161105e92919061666b565b610ffe83846001600160a01b031663a9059cbb85856040516024016147ce92919061666b565b6000615a496001600160a01b03841683615d9b565b90508051600014158015615a6e575080806020019051810190615a6c91906165ac565b155b15610ffe57604051635274afe760e01b81526001600160a01b038416600482015260240161105e565b6000805160206169778339815191525460ff16610c0457604051638dfc202b60e01b815260040160405180910390fd5b7ff0c57e16840df040f15088dc2f81fe391c3923bec73e23a9662efc9c229c6a0054600160401b900460ff16610c0457604051631afcd79f60e31b815260040160405180910390fd5b613e54615ac7565b615b20615ac7565b600080516020616977833981519152805460ff19169055565b600073c02aaa39b223fe8d0a0e5c4f27ead9083c756cc1196001600160a01b03831601615b6e57506006602160991b01919050565b73dac17f958d2ee523a2206206994597c13d831ec6196001600160a01b03831601615bae57507394b008aa00579c1307b0ef2c499ad98a8ce58e58919050565b73a0b86991c6218b36c1d19d4a2e9eb0ce3606eb47196001600160a01b03831601615bee5750730b2c639c533813f4aa9d7837caf62653d097ff85919050565b736b175474e89094c44da98b954eedeac495271d0e196001600160a01b03831601615c2e575073da10009cbd5d07dd0cecc66161fc93d7c9000da1919050565b6040516305fd61ad60e01b81526001600160a01b038316600482015260240161105e565b919050565b600073dac17f958d2ee523a2206206994597c13d831ec6196001600160a01b03831601615c99575073201eba5cc46d216ce6dc03f6a759e8e766e956ae919050565b73a0b86991c6218b36c1d19d4a2e9eb0ce3606eb47196001600160a01b03831601615c2e575073201eba5cc46d216ce6dc03f6a759e8e766e956ae919050565b600073dac17f958d2ee523a2206206994597c13d831ec6196001600160a01b03831601615d1b575073f417f5a458ec102b90352f697d6e2ac3a3d2851f919050565b73a0b86991c6218b36c1d19d4a2e9eb0ce3606eb47196001600160a01b03831601615d5b575073b73603c5d87fa094b7314c74ace2e64d165016fb919050565b736b175474e89094c44da98b954eedeac495271d0e196001600160a01b03831601615c2e5750731c466b9371f8aba0d7c458be10a62192fcb8aa71919050565b60606126988383600084600080856001600160a01b03168486604051615dc1919061687a565b60006040518083038185875af1925050503d8060008114615dfe576040519150601f19603f3d011682016040523d82523d6000602084013e615e03565b606091505b5091509150615e13868383615e1d565b9695505050505050565b606082615e3257615e2d82615e79565b612698565b8151158015615e4957506001600160a01b0384163b155b15615e7257604051639996b31560e01b81526001600160a01b038516600482015260240161105e565b5080612698565b805115615e895780518082602001fd5b604051630a12f52160e11b815260040160405180910390fd5b600060208284031215615eb457600080fd5b81356001600160e01b03198116811461269857600080fd5b80356001600160a01b0381168114615c5257600080fd5b60008060408385031215615ef657600080fd5b615eff83615ecc565b946020939093013593505050565b600060208284031215615f1f57600080fd5b61269882615ecc565b600060208284031215615f3a57600080fd5b5035919050565b60008060408385031215615f5457600080fd5b82359150615f6460208401615ecc565b90509250929050565b600080600060608486031215615f8257600080fd5b615f8b84615ecc565b9250615f9960208501615ecc565b9150604084013590509250925092565b634e487b7160e01b600052604160045260246000fd5b60405160e0810167ffffffffffffffff81118282101715615fe257615fe2615fa9565b60405290565b604051601f8201601f1916810167ffffffffffffffff8111828210171561601157616011615fa9565b604052919050565b803563ffffffff81168114615c5257600080fd5b801515811461108a57600080fd5b6000602080838503121561604e57600080fd5b823567ffffffffffffffff8082111561606657600080fd5b818501915085601f83011261607a57600080fd5b81358181111561608c5761608c615fa9565b61609a848260051b01615fe8565b818152848101925060e09182028401850191888311156160b957600080fd5b938501935b828510156161495780858a0312156160d65760008081fd5b6160de615fbf565b6160e786616019565b81526160f4878701616019565b878201526040616105818801615ecc565b90820152606086810135908201526080808701359082015260a0808701359082015260c0808701356161368161602d565b90820152845293840193928501926160be565b50979650505050505050565b60008060008060008060c0878903121561616e57600080fd5b863595506020870135945061618560408801615ecc565b9350606087013592506080870135915060a087013590509295509295509295565b600080600080600060a086880312156161be57600080fd5b85359450602086013593506161d560408701615ecc565b92506161e360608701615ecc565b949793965091946080013592915050565b6000806040838503121561620757600080fd5b61621083615ecc565b9150615f6460208401615ecc565b8051151582526020808201516001600160a01b0316908301526040808201519083015260608082015190830152608090810151910152565b6020808252825182820181905260009190848201906040850190845b818110156162985761628583855161621e565b9284019260a09290920191600101616272565b50909695505050505050565b600080600080600080600060e0888a0312156162bf57600080fd5b87359650602088013595506162d660408901615ecc565b94506162e460608901615ecc565b9699959850939660808101359560a0820135955060c0909101359350915050565b60008060006060848603121561631a57600080fd5b833592506020840135915061633160408501615ecc565b90509250925092565b6000806040838503121561634d57600080fd5b61635683615ecc565b915060208301356163668161602d565b809150509250929050565b6000806000806080858703121561638757600080fd5b843593506020850135925061639e60408601615ecc565b9396929550929360600135925050565b600080604083850312156163c157600080fd5b8235915060208301356163668161602d565b6000806000606084860312156163e857600080fd5b6163f184615ecc565b925060208401356164018161602d565b915061633160408501616019565b6000806000806080858703121561642557600080fd5b8435935061643560208601615ecc565b925061639e60408601615ecc565b60a08101610b0a828461621e565b634e487b7160e01b600052603260045260246000fd5b634e487b7160e01b600052601160045260246000fd5b60006001820161648f5761648f616467565b5060010190565b81810381811115610b0a57610b0a616467565b63ffffffff818116838216019080821115613f1757613f17616467565b95865260208601949094526001600160a01b039290921660408501526060840152608083015260a082015260c00190565b60006020828403121561650957600080fd5b5051919050565b80820180821115610b0a57610b0a616467565b8082028115828204841417610b0a57610b0a616467565b60008261655757634e487b7160e01b600052601260045260246000fd5b500490565b94855260208501939093526001600160a01b039190911660408401526060830152608082015260a00190565b6001600160a01b039384168152919092166020820152604081019190915260600190565b6000602082840312156165be57600080fd5b81516126988161602d565b63ffffffff828116828216039080821115613f1757613f17616467565b634e487b7160e01b600052603160045260246000fd5b6000600160ff1b820161661157616611616467565b506000190190565b6001600160a01b0396871681526020810195909552604085019390935293166060830152608082019290925260a081019190915260c00190565b60006001600160ff1b01820161648f5761648f616467565b6001600160a01b03929092168252602082015260400190565b63ffffffff9590951685526001600160a01b039384166020860152604085019290925290911660608301521515608082015260c060a0820181905260009082015260e00190565b6001600160a01b0392909216825263ffffffff16602082015260606040820181905260009082015260800190565b6001600160a01b0395861681529385166020850152919093166040830152606082019290925263ffffffff909116608082015260c060a0820181905260009082015260e00190565b6001600160a01b03968716815294861660208601529290941660408401526060830152608082019290925260a081019190915260e060c082018190526000908201526101000190565b60005b838110156167a557818101518382015260200161678d565b50506000910152565b6000602082840312156167c057600080fd5b815167ffffffffffffffff808211156167d857600080fd5b818401915084601f8301126167ec57600080fd5b8151818111156167fe576167fe615fa9565b616811601f8201601f1916602001615fe8565b915080825285602082850101111561682857600080fd5b61683981602084016020860161678a565b50949350505050565b6001600160a01b039687168152948616602086015260408501939093526060840191909152608083015290911660a082015260c00190565b6000825161688c81846020870161678a565b919091019291505056fea1829a9003092132f585b6ccdd167c19fe9774dbdea4260287e8a8e8ca8185d700a206b70d87cacff7a19f3d98e0957b781c25fb4ae954252c87bcf406261742ffffffffffffffffffffffff111111111111111111111111111111111111111233fe247d78fee2e7fd135c405eda4bd2911c0a73c0a81b36c3bcc967dd06e5ae000000000000000000000000eeeeeeeeeeeeeeeeeeeeeeeeeeeeeeeeeeeeeeeea4adb76af136dce1635a653828507074afe3128b2c1b9d295c78c04cdae4286e02dd7bc7dec4dceedda775e58dd541e08a116c6c53815c0bd028192f7b626800cd5ed15c6e187e77e9aee88184c21f4f2182ab5827cb3b7e07fbedcd63f033009b779b17422d0df92223018b32b4d1fa46e071723d6817e2486d003becc55f00a264697066735822122015d0313aae4db6007c52626622b91e719940c45334a038ad4d8b09e8fa350bd864736f6c63430008140033","linkReferences":{}},"methodIdentifiers":{"BridgeFinalizeERC20(uint256,uint256,address,address,uint256,uint256,uint256)":"92d84738","BridgeFinalizeETH(uint256,uint256,address,uint256,uint256,uint256)":"38731c47","BridgeFinalizeWETH(uint256,uint256,address,uint256,uint256,uint256)":"5765a4eb","BridgeInitiateERC20(uint256,uint256,address,address,uint256)":"3b0230f0","BridgeInitiateETH(uint256,uint256,address)":"9b442380","BridgeInitiateWETH(uint256,uint256,address,uint256)":"cd01c665","ClaimAllReward()":"2c37388b","ClaimbyID(uint256)":"34d34ef5","CompletePoolAndNew((uint32,uint32,address,uint256,uint256,uint256,bool)[])":"3338562c","DEFAULT_ADMIN_ROLE()":"a217fddf","DepositAndStaking(address,uint256)":"9ab0b652","DepositAndStakingERC20(address,uint256)":"4dfaef84","DepositAndStakingETH()":"96f984e6","DepositAndStakingWETH(uint256)":"bc42493d","FeePoolValue(address)":"54dc027e","FundingPoolBalance(address)":"dbb0481f","IsSupportChainId(uint256)":"72fe6a7e","IsSupportToken(address)":"dac29568","L2WETH()":"b1887e9b","MinStakeAmount(address)":"1ca2f173","MinTransferAmount()":"09dc480c","PerFee()":"dd0c3460","Pools(address,uint256)":"4663cdc8","QuickSendAssertToUser(address,address,uint256)":"325e5d43","ReLayer()":"fa861848","SupportTokens(uint256)":"626417b5","TransferAssertToBridge(uint256,address,address,uint256)":"f91fa9a8","Users(address,uint256)":"13e8544e","WithdrawAll()":"5a648bc5","WithdrawByID(uint256)":"f62a89cf","getPool(address,uint256)":"5b5b9ea2","getPoolLength(address)":"f8fcc2aa","getRoleAdmin(bytes32)":"248a9ca3","getUser(address)":"6f77926b","getUser(address,uint256)":"ff2bf64f","getUserLength(address)":"cb4f04ad","grantRole(bytes32,address)":"2f2ff15d","hasRole(bytes32,address)":"91d14854","initialize(address,address)":"485cc955","messageManager()":"10875a13","pause()":"8456cb59","paused()":"5c975abb","periodTime()":"1d31fac0","renounceRole(bytes32,address)":"36568abe","revokeRole(bytes32,address)":"d547741f","setMinStakeAmount(address,uint256)":"cb314fab","setMinTransferAmount(uint256)":"b92e6396","setPerFee(uint256)":"650c2276","setSupportERC20Token(address,bool)":"ab0f9e19","setSupportToken(address,bool,uint32)":"e2070893","setValidChainId(uint256,bool)":"d73f14e5","supportsInterface(bytes4)":"01ffc9a7","unpause()":"3f4ba83a"},"id":57}