{
  "abi": [
    {
      "inputs": [],
      "stateMutability": "nonpayable",
      "type": "constructor"
    },
    {
      "inputs": [],
      "name": "AccessControlBadConfirmation",
      "type": "error"
    },
    {
      "inputs": [
        {
          "internalType": "address",
          "name": "account",
          "type": "address"
        },
        {
          "internalType": "bytes32",
          "name": "neededRole",
          "type": "bytes32"
        }
      ],
      "name": "AccessControlUnauthorizedAccount",
      "type": "error"
    },
    {
      "inputs": [
        {
          "internalType": "address",
          "name": "target",
          "type": "address"
        }
      ],
      "name": "AddressEmptyCode",
      "type": "error"
    },
    {
      "inputs": [
        {
          "internalType": "address",
          "name": "account",
          "type": "address"
        }
      ],
      "name": "AddressInsufficientBalance",
      "type": "error"
    },
    {
      "inputs": [
        {
          "internalType": "uint256",
          "name": "id",
          "type": "uint256"
        }
      ],
      "name": "ChainIdIsNotSupported",
      "type": "error"
    },
    {
      "inputs": [
        {
          "internalType": "uint256",
          "name": "chainId",
          "type": "uint256"
        }
      ],
      "name": "ChainIdNotSupported",
      "type": "error"
    },
    {
      "inputs": [],
      "name": "EnforcedPause",
      "type": "error"
    },
    {
      "inputs": [],
      "name": "ErrorBlockChain",
      "type": "error"
    },
    {
      "inputs": [],
      "name": "ExpectedPause",
      "type": "error"
    },
    {
      "inputs": [],
      "name": "FailedInnerCall",
      "type": "error"
    },
    {
      "inputs": [],
      "name": "InvalidInitialization",
      "type": "error"
    },
    {
      "inputs": [
        {
          "internalType": "uint256",
          "name": "MinTransferAmount",
          "type": "uint256"
        },
        {
          "internalType": "uint256",
          "name": "value",
          "type": "uint256"
        }
      ],
      "name": "LessThanMinTransferAmount",
      "type": "error"
    },
    {
      "inputs": [],
      "name": "MantaNotWETH",
      "type": "error"
    },
    {
      "inputs": [],
      "name": "MantleNotWETH",
      "type": "error"
    },
    {
      "inputs": [],
      "name": "NotEnoughETH",
      "type": "error"
    },
    {
      "inputs": [
        {
          "internalType": "address",
          "name": "ERC20Address",
          "type": "address"
        }
      ],
      "name": "NotEnoughToken",
      "type": "error"
    },
    {
      "inputs": [],
      "name": "NotInitializing",
      "type": "error"
    },
    {
      "inputs": [],
      "name": "ReentrancyGuardReentrantCall",
      "type": "error"
    },
    {
      "inputs": [
        {
          "internalType": "address",
          "name": "token",
          "type": "address"
        }
      ],
      "name": "SafeERC20FailedOperation",
      "type": "error"
    },
    {
      "inputs": [
        {
          "internalType": "address",
          "name": "ERC20Address",
          "type": "address"
        }
      ],
      "name": "TokenIsNotSupported",
      "type": "error"
    },
    {
      "inputs": [],
      "name": "sourceChainIdError",
      "type": "error"
    },
    {
      "anonymous": false,
      "inputs": [
        {
          "indexed": false,
          "internalType": "uint256",
          "name": "sourceChainId",
          "type": "uint256"
        },
        {
          "indexed": false,
          "internalType": "uint256",
          "name": "destChainId",
          "type": "uint256"
        },
        {
          "indexed": true,
          "internalType": "address",
          "name": "ERC20Address",
          "type": "address"
        },
        {
          "indexed": true,
          "internalType": "address",
          "name": "from",
          "type": "address"
        },
        {
          "indexed": true,
          "internalType": "address",
          "name": "to",
          "type": "address"
        },
        {
          "indexed": false,
          "internalType": "uint256",
          "name": "value",
          "type": "uint256"
        }
      ],
      "name": "FinalizeERC20",
      "type": "event"
    },
    {
      "anonymous": false,
      "inputs": [
        {
          "indexed": false,
          "internalType": "uint256",
          "name": "sourceChainId",
          "type": "uint256"
        },
        {
          "indexed": false,
          "internalType": "uint256",
          "name": "destChainId",
          "type": "uint256"
        },
        {
          "indexed": true,
          "internalType": "address",
          "name": "from",
          "type": "address"
        },
        {
          "indexed": true,
          "internalType": "address",
          "name": "to",
          "type": "address"
        },
        {
          "indexed": false,
          "internalType": "uint256",
          "name": "value",
          "type": "uint256"
        }
      ],
      "name": "FinalizeETH",
      "type": "event"
    },
    {
      "anonymous": false,
      "inputs": [
        {
          "indexed": false,
          "internalType": "uint256",
          "name": "sourceChainId",
          "type": "uint256"
        },
        {
          "indexed": false,
          "internalType": "uint256",
          "name": "destChainId",
          "type": "uint256"
        },
        {
          "indexed": true,
          "internalType": "address",
          "name": "from",
          "type": "address"
        },
        {
          "indexed": true,
          "internalType": "address",
          "name": "to",
          "type": "address"
        },
        {
          "indexed": false,
          "internalType": "uint256",
          "name": "value",
          "type": "uint256"
        }
      ],
      "name": "FinalizeWETH",
      "type": "event"
    },
    {
      "anonymous": false,
      "inputs": [
        {
          "indexed": false,
          "internalType": "uint64",
          "name": "version",
          "type": "uint64"
        }
      ],
      "name": "Initialized",
      "type": "event"
    },
    {
      "anonymous": false,
      "inputs": [
        {
          "indexed": false,
          "internalType": "uint256",
          "name": "sourceChainId",
          "type": "uint256"
        },
        {
          "indexed": false,
          "internalType": "uint256",
          "name": "destChainId",
          "type": "uint256"
        },
        {
          "indexed": true,
          "internalType": "address",
          "name": "ERC20Address",
          "type": "address"
        },
        {
          "indexed": true,
          "internalType": "address",
          "name": "from",
          "type": "address"
        },
        {
          "indexed": true,
          "internalType": "address",
          "name": "to",
          "type": "address"
        },
        {
          "indexed": false,
          "internalType": "uint256",
          "name": "value",
          "type": "uint256"
        }
      ],
      "name": "InitiateERC20",
      "type": "event"
    },
    {
      "anonymous": false,
      "inputs": [
        {
          "indexed": false,
          "internalType": "uint256",
          "name": "sourceChainId",
          "type": "uint256"
        },
        {
          "indexed": false,
          "internalType": "uint256",
          "name": "destChainId",
          "type": "uint256"
        },
        {
          "indexed": true,
          "internalType": "address",
          "name": "from",
          "type": "address"
        },
        {
          "indexed": true,
          "internalType": "address",
          "name": "to",
          "type": "address"
        },
        {
          "indexed": false,
          "internalType": "uint256",
          "name": "value",
          "type": "uint256"
        }
      ],
      "name": "InitiateETH",
      "type": "event"
    },
    {
      "anonymous": false,
      "inputs": [
        {
          "indexed": false,
          "internalType": "uint256",
          "name": "sourceChainId",
          "type": "uint256"
        },
        {
          "indexed": false,
          "internalType": "uint256",
          "name": "destChainId",
          "type": "uint256"
        },
        {
          "indexed": true,
          "internalType": "address",
          "name": "from",
          "type": "address"
        },
        {
          "indexed": true,
          "internalType": "address",
          "name": "to",
          "type": "address"
        },
        {
          "indexed": false,
          "internalType": "uint256",
          "name": "value",
          "type": "uint256"
        }
      ],
      "name": "InitiateWETH",
      "type": "event"
    },
    {
      "anonymous": false,
      "inputs": [
        {
          "indexed": false,
          "internalType": "address",
          "name": "account",
          "type": "address"
        }
      ],
      "name": "Paused",
      "type": "event"
    },
    {
      "anonymous": false,
      "inputs": [
        {
          "indexed": true,
          "internalType": "bytes32",
          "name": "role",
          "type": "bytes32"
        },
        {
          "indexed": true,
          "internalType": "bytes32",
          "name": "previousAdminRole",
          "type": "bytes32"
        },
        {
          "indexed": true,
          "internalType": "bytes32",
          "name": "newAdminRole",
          "type": "bytes32"
        }
      ],
      "name": "RoleAdminChanged",
      "type": "event"
    },
    {
      "anonymous": false,
      "inputs": [
        {
          "indexed": true,
          "internalType": "bytes32",
          "name": "role",
          "type": "bytes32"
        },
        {
          "indexed": true,
          "internalType": "address",
          "name": "account",
          "type": "address"
        },
        {
          "indexed": true,
          "internalType": "address",
          "name": "sender",
          "type": "address"
        }
      ],
      "name": "RoleGranted",
      "type": "event"
    },
    {
      "anonymous": false,
      "inputs": [
        {
          "indexed": true,
          "internalType": "bytes32",
          "name": "role",
          "type": "bytes32"
        },
        {
          "indexed": true,
          "internalType": "address",
          "name": "account",
          "type": "address"
        },
        {
          "indexed": true,
          "internalType": "address",
          "name": "sender",
          "type": "address"
        }
      ],
      "name": "RoleRevoked",
      "type": "event"
    },
    {
      "anonymous": false,
      "inputs": [
        {
          "indexed": false,
          "internalType": "address",
          "name": "account",
          "type": "address"
        }
      ],
      "name": "Unpaused",
      "type": "event"
    },
    {
      "anonymous": false,
      "inputs": [
        {
          "indexed": false,
          "internalType": "uint256",
          "name": "chainId",
          "type": "uint256"
        },
        {
          "indexed": false,
          "internalType": "uint256",
          "name": "timestamp",
          "type": "uint256"
        },
        {
          "indexed": false,
          "internalType": "address",
          "name": "token",
          "type": "address"
        },
        {
          "indexed": false,
          "internalType": "address",
          "name": "to",
          "type": "address"
        },
        {
          "indexed": false,
          "internalType": "uint256",
          "name": "value",
          "type": "uint256"
        }
      ],
      "name": "WithdrawERC20toL1Success",
      "type": "event"
    },
    {
      "anonymous": false,
      "inputs": [
        {
          "indexed": false,
          "internalType": "uint256",
          "name": "chainId",
          "type": "uint256"
        },
        {
          "indexed": false,
          "internalType": "uint256",
          "name": "timestamp",
          "type": "uint256"
        },
        {
          "indexed": false,
          "internalType": "address",
          "name": "to",
          "type": "address"
        },
        {
          "indexed": false,
          "internalType": "uint256",
          "name": "value",
          "type": "uint256"
        }
      ],
      "name": "WithdrawETHtoL1Success",
      "type": "event"
    },
    {
      "anonymous": false,
      "inputs": [
        {
          "indexed": false,
          "internalType": "uint256",
          "name": "chainId",
          "type": "uint256"
        },
        {
          "indexed": false,
          "internalType": "uint256",
          "name": "timestamp",
          "type": "uint256"
        },
        {
          "indexed": false,
          "internalType": "address",
          "name": "to",
          "type": "address"
        },
        {
          "indexed": false,
          "internalType": "uint256",
          "name": "value",
          "type": "uint256"
        }
      ],
      "name": "WithdrawWETHtoL1Success",
      "type": "event"
    },
    {
      "inputs": [
        {
          "internalType": "uint256",
          "name": "sourceChainId",
          "type": "uint256"
        },
        {
          "internalType": "uint256",
          "name": "destChainId",
          "type": "uint256"
        },
        {
          "internalType": "address",
          "name": "to",
          "type": "address"
        },
        {
          "internalType": "address",
          "name": "ERC20Address",
          "type": "address"
        },
        {
          "internalType": "uint256",
          "name": "amount",
          "type": "uint256"
        },
        {
          "internalType": "uint256",
          "name": "_fee",
          "type": "uint256"
        },
        {
          "internalType": "uint256",
          "name": "_nonce",
          "type": "uint256"
        }
      ],
      "name": "BridgeFinalizeERC20",
      "outputs": [
        {
          "internalType": "bool",
          "name": "",
          "type": "bool"
        }
      ],
      "stateMutability": "nonpayable",
      "type": "function"
    },
    {
      "inputs": [
        {
          "internalType": "uint256",
          "name": "sourceChainId",
          "type": "uint256"
        },
        {
          "internalType": "uint256",
          "name": "destChainId",
          "type": "uint256"
        },
        {
          "internalType": "address",
          "name": "to",
          "type": "address"
        },
        {
          "internalType": "uint256",
          "name": "amount",
          "type": "uint256"
        },
        {
          "internalType": "uint256",
          "name": "_fee",
          "type": "uint256"
        },
        {
          "internalType": "uint256",
          "name": "_nonce",
          "type": "uint256"
        }
      ],
      "name": "BridgeFinalizeETH",
      "outputs": [
        {
          "internalType": "bool",
          "name": "",
          "type": "bool"
        }
      ],
      "stateMutability": "payable",
      "type": "function"
    },
    {
      "inputs": [
        {
          "internalType": "uint256",
          "name": "sourceChainId",
          "type": "uint256"
        },
        {
          "internalType": "uint256",
          "name": "destChainId",
          "type": "uint256"
        },
        {
          "internalType": "address",
          "name": "to",
          "type": "address"
        },
        {
          "internalType": "uint256",
          "name": "amount",
          "type": "uint256"
        },
        {
          "internalType": "uint256",
          "name": "_fee",
          "type": "uint256"
        },
        {
          "internalType": "uint256",
          "name": "_nonce",
          "type": "uint256"
        }
      ],
      "name": "BridgeFinalizeWETH",
      "outputs": [
        {
          "internalType": "bool",
          "name": "",
          "type": "bool"
        }
      ],
      "stateMutability": "nonpayable",
      "type": "function"
    },
    {
      "inputs": [
        {
          "internalType": "uint256",
          "name": "sourceChainId",
          "type": "uint256"
        },
        {
          "internalType": "uint256",
          "name": "destChainId",
          "type": "uint256"
        },
        {
          "internalType": "address",
          "name": "to",
          "type": "address"
        },
        {
          "internalType": "address",
          "name": "ERC20Address",
          "type": "address"
        },
        {
          "internalType": "uint256",
          "name": "value",
          "type": "uint256"
        }
      ],
      "name": "BridgeInitiateERC20",
      "outputs": [
        {
          "internalType": "bool",
          "name": "",
          "type": "bool"
        }
      ],
      "stateMutability": "nonpayable",
      "type": "function"
    },
    {
      "inputs": [
        {
          "internalType": "uint256",
          "name": "sourceChainId",
          "type": "uint256"
        },
        {
          "internalType": "uint256",
          "name": "destChainId",
          "type": "uint256"
        },
        {
          "internalType": "address",
          "name": "to",
          "type": "address"
        }
      ],
      "name": "BridgeInitiateETH",
      "outputs": [
        {
          "internalType": "bool",
          "name": "",
          "type": "bool"
        }
      ],
      "stateMutability": "payable",
      "type": "function"
    },
    {
      "inputs": [
        {
          "internalType": "uint256",
          "name": "sourceChainId",
          "type": "uint256"
        },
        {
          "internalType": "uint256",
          "name": "destChainId",
          "type": "uint256"
        },
        {
          "internalType": "address",
          "name": "to",
          "type": "address"
        },
        {
          "internalType": "uint256",
          "name": "value",
          "type": "uint256"
        }
      ],
      "name": "BridgeInitiateWETH",
      "outputs": [
        {
          "internalType": "bool",
          "name": "",
          "type": "bool"
        }
      ],
      "stateMutability": "nonpayable",
      "type": "function"
    },
    {
      "inputs": [],
      "name": "DEFAULT_ADMIN_ROLE",
      "outputs": [
        {
          "internalType": "bytes32",
          "name": "",
          "type": "bytes32"
        }
      ],
      "stateMutability": "view",
      "type": "function"
    },
    {
      "inputs": [
        {
          "internalType": "address",
          "name": "",
          "type": "address"
        }
      ],
      "name": "FeePoolValue",
      "outputs": [
        {
          "internalType": "uint256",
          "name": "",
          "type": "uint256"
        }
      ],
      "stateMutability": "view",
      "type": "function"
    },
    {
      "inputs": [
        {
          "internalType": "address",
          "name": "",
          "type": "address"
        }
      ],
      "name": "FundingPoolBalance",
      "outputs": [
        {
          "internalType": "uint256",
          "name": "",
          "type": "uint256"
        }
      ],
      "stateMutability": "view",
      "type": "function"
    },
    {
      "inputs": [
        {
          "internalType": "uint256",
          "name": "chainId",
          "type": "uint256"
        }
      ],
      "name": "IsSupportChainId",
      "outputs": [
        {
          "internalType": "bool",
          "name": "",
          "type": "bool"
        }
      ],
      "stateMutability": "view",
      "type": "function"
    },
    {
      "inputs": [
        {
          "internalType": "address",
          "name": "",
          "type": "address"
        }
      ],
      "name": "IsSupportToken",
      "outputs": [
        {
          "internalType": "bool",
          "name": "",
          "type": "bool"
        }
      ],
      "stateMutability": "view",
      "type": "function"
    },
    {
      "inputs": [],
      "name": "L2WETH",
      "outputs": [
        {
          "internalType": "address",
          "name": "",
          "type": "address"
        }
      ],
      "stateMutability": "view",
      "type": "function"
    },
    {
      "inputs": [],
      "name": "MAX_GAS_Limit",
      "outputs": [
        {
          "internalType": "uint32",
          "name": "",
          "type": "uint32"
        }
      ],
      "stateMutability": "view",
      "type": "function"
    },
    {
      "inputs": [],
      "name": "MinTransferAmount",
      "outputs": [
        {
          "internalType": "uint256",
          "name": "",
          "type": "uint256"
        }
      ],
      "stateMutability": "view",
      "type": "function"
    },
    {
      "inputs": [],
      "name": "PerFee",
      "outputs": [
        {
          "internalType": "uint256",
          "name": "",
          "type": "uint256"
        }
      ],
      "stateMutability": "view",
      "type": "function"
    },
    {
      "inputs": [
        {
          "internalType": "address",
          "name": "_token",
          "type": "address"
        },
        {
          "internalType": "address",
          "name": "to",
          "type": "address"
        },
        {
          "internalType": "uint256",
          "name": "_amount",
          "type": "uint256"
        }
      ],
      "name": "QuickSendAssertToUser",
      "outputs": [],
      "stateMutability": "nonpayable",
      "type": "function"
    },
    {
      "inputs": [],
      "name": "ReLayer",
      "outputs": [
        {
          "internalType": "bytes32",
          "name": "",
          "type": "bytes32"
        }
      ],
      "stateMutability": "view",
      "type": "function"
    },
    {
      "inputs": [
        {
          "internalType": "uint256",
          "name": "",
          "type": "uint256"
        }
      ],
      "name": "SupportTokens",
      "outputs": [
        {
          "internalType": "address",
          "name": "",
          "type": "address"
        }
      ],
      "stateMutability": "view",
      "type": "function"
    },
    {
      "inputs": [
        {
          "internalType": "address",
          "name": "_token",
          "type": "address"
        },
        {
          "internalType": "address",
          "name": "_to",
          "type": "address"
        },
        {
          "internalType": "uint256",
          "name": "_amount",
          "type": "uint256"
        }
      ],
      "name": "WithdrawERC20ToL1",
      "outputs": [
        {
          "internalType": "bool",
          "name": "",
          "type": "bool"
        }
      ],
      "stateMutability": "payable",
      "type": "function"
    },
    {
      "inputs": [
        {
          "internalType": "address",
          "name": "_to",
          "type": "address"
        },
        {
          "internalType": "uint256",
          "name": "_amount",
          "type": "uint256"
        }
      ],
      "name": "WithdrawETHtoL1",
      "outputs": [
        {
          "internalType": "bool",
          "name": "",
          "type": "bool"
        }
      ],
      "stateMutability": "payable",
      "type": "function"
    },
    {
      "inputs": [
        {
          "internalType": "address",
          "name": "_to",
          "type": "address"
        },
        {
          "internalType": "uint256",
          "name": "_amount",
          "type": "uint256"
        }
      ],
      "name": "WithdrawWETHToL1",
      "outputs": [
        {
          "internalType": "bool",
          "name": "",
          "type": "bool"
        }
      ],
      "stateMutability": "payable",
      "type": "function"
    },
    {
      "inputs": [
        {
          "internalType": "bytes32",
          "name": "role",
          "type": "bytes32"
        }
      ],
      "name": "getRoleAdmin",
      "outputs": [
        {
          "internalType": "bytes32",
          "name": "",
          "type": "bytes32"
        }
      ],
      "stateMutability": "view",
      "type": "function"
    },
    {
      "inputs": [
        {
          "internalType": "bytes32",
          "name": "role",
          "type": "bytes32"
        },
        {
          "internalType": "address",
          "name": "account",
          "type": "address"
        }
      ],
      "name": "grantRole",
      "outputs": [],
      "stateMutability": "nonpayable",
      "type": "function"
    },
    {
      "inputs": [
        {
          "internalType": "bytes32",
          "name": "role",
          "type": "bytes32"
        },
        {
          "internalType": "address",
          "name": "account",
          "type": "address"
        }
      ],
      "name": "hasRole",
      "outputs": [
        {
          "internalType": "bool",
          "name": "",
          "type": "bool"
        }
      ],
      "stateMutability": "view",
      "type": "function"
    },
    {
      "inputs": [
        {
          "internalType": "address",
          "name": "_MultisigWallet",
          "type": "address"
        },
        {
          "internalType": "address",
          "name": "_messageManager",
          "type": "address"
        }
      ],
      "name": "initialize",
      "outputs": [],
      "stateMutability": "nonpayable",
      "type": "function"
    },
    {
      "inputs": [],
      "name": "messageManager",
      "outputs": [
        {
          "internalType": "contract IMessageManager",
          "name": "",
          "type": "address"
        }
      ],
      "stateMutability": "view",
      "type": "function"
    },
    {
      "inputs": [],
      "name": "pause",
      "outputs": [],
      "stateMutability": "nonpayable",
      "type": "function"
    },
    {
      "inputs": [],
      "name": "paused",
      "outputs": [
        {
          "internalType": "bool",
          "name": "",
          "type": "bool"
        }
      ],
      "stateMutability": "view",
      "type": "function"
    },
    {
      "inputs": [
        {
          "internalType": "bytes32",
          "name": "role",
          "type": "bytes32"
        },
        {
          "internalType": "address",
          "name": "callerConfirmation",
          "type": "address"
        }
      ],
      "name": "renounceRole",
      "outputs": [],
      "stateMutability": "nonpayable",
      "type": "function"
    },
    {
      "inputs": [
        {
          "internalType": "bytes32",
          "name": "role",
          "type": "bytes32"
        },
        {
          "internalType": "address",
          "name": "account",
          "type": "address"
        }
      ],
      "name": "revokeRole",
      "outputs": [],
      "stateMutability": "nonpayable",
      "type": "function"
    },
    {
      "inputs": [
        {
          "internalType": "uint256",
          "name": "_MinTransferAmount",
          "type": "uint256"
        }
      ],
      "name": "setMinTransferAmount",
      "outputs": [],
      "stateMutability": "nonpayable",
      "type": "function"
    },
    {
      "inputs": [
        {
          "internalType": "uint256",
          "name": "_PerFee",
          "type": "uint256"
        }
      ],
      "name": "setPerFee",
      "outputs": [],
      "stateMutability": "nonpayable",
      "type": "function"
    },
    {
      "inputs": [
        {
          "internalType": "address",
          "name": "ERC20Address",
          "type": "address"
        },
        {
          "internalType": "bool",
          "name": "isValid",
          "type": "bool"
        }
      ],
      "name": "setSupportToken",
      "outputs": [],
      "stateMutability": "nonpayable",
      "type": "function"
    },
    {
      "inputs": [
        {
          "internalType": "uint256",
          "name": "chainId",
          "type": "uint256"
        },
        {
          "internalType": "bool",
          "name": "isValid",
          "type": "bool"
        }
      ],
      "name": "setValidChainId",
      "outputs": [],
      "stateMutability": "nonpayable",
      "type": "function"
    },
    {
      "inputs": [
        {
          "internalType": "bytes4",
          "name": "interfaceId",
          "type": "bytes4"
        }
      ],
      "name": "supportsInterface",
      "outputs": [
        {
          "internalType": "bool",
          "name": "",
          "type": "bool"
        }
      ],
      "stateMutability": "view",
      "type": "function"
    },
    {
      "inputs": [],
      "name": "unpause",
      "outputs": [],
      "stateMutability": "nonpayable",
      "type": "function"
    }
  ],
  "bytecode": {
    "object": "0x60806040523480156200001157600080fd5b506200001c62000022565b620000d6565b7ff0c57e16840df040f15088dc2f81fe391c3923bec73e23a9662efc9c229c6a00805468010000000000000000900460ff1615620000735760405163f92ee8a960e01b815260040160405180910390fd5b80546001600160401b0390811614620000d35780546001600160401b0319166001600160401b0390811782556040519081527fc7f505b2f371ae2175ee4913f4499e1f2633a7b5936321eed1cdaeb6115181d29060200160405180910390a15b50565b613c7280620000e66000396000f3fe60806040526004361061020f5760003560e01c8063650c227611610118578063b92e6396116100a0578063d73f14e51161006f578063d73f14e5146105ee578063dac295681461060e578063dbb0481f1461063e578063dd0c34601461066b578063fa8618481461068157600080fd5b8063b92e63961461057b578063cd01c6651461059b578063d28597f4146105bb578063d547741f146105ce57600080fd5b806392d84738116100e757806392d84738146104ec5780639b4423801461050c578063a217fddf1461051f578063a525ae2b14610534578063b1887e9b1461056657600080fd5b8063650c22761461046757806372fe6a7e146104875780638456cb59146104b757806391d14854146104cc57600080fd5b806338731c471161019b578063485cc9551161016a578063485cc955146103b557806354dc027e146103d55780635765a4eb146104025780635c975abb14610422578063626417b51461044757600080fd5b806338731c471461035a57806339891dd71461036d5780633b0230f0146103805780633f4ba83a146103a057600080fd5b8063204daa93116101e2578063204daa93146102b8578063248a9ca3146102da5780632f2ff15d146102fa578063325e5d431461031a57806336568abe1461033a57600080fd5b806301ffc9a7146102145780630227047a1461024957806309dc480c1461025c57806310875a1314610280575b600080fd5b34801561022057600080fd5b5061023461022f36600461358b565b610696565b60405190151581526020015b60405180910390f35b6102346102573660046135d1565b6106cd565b34801561026857600080fd5b5061027260015481565b604051908152602001610240565b34801561028c57600080fd5b506000546102a0906001600160a01b031681565b6040516001600160a01b039091168152602001610240565b3480156102c457600080fd5b506102d86102d336600461361b565b610e71565b005b3480156102e657600080fd5b506102726102f5366004613652565b610efa565b34801561030657600080fd5b506102d861031536600461366b565b610f1c565b34801561032657600080fd5b506102d86103353660046135d1565b610f3e565b34801561034657600080fd5b506102d861035536600461366b565b610f9e565b610234610368366004613697565b610fd1565b61023461037b3660046136e8565b6111b5565b34801561038c57600080fd5b5061023461039b366004613712565b611742565b3480156103ac57600080fd5b506102d8611a46565b3480156103c157600080fd5b506102d86103d0366004613760565b611a5c565b3480156103e157600080fd5b506102726103f036600461378a565b60066020526000908152604090205481565b34801561040e57600080fd5b5061023461041d366004613697565b611b90565b34801561042e57600080fd5b50600080516020613c1d8339815191525460ff16610234565b34801561045357600080fd5b506102a0610462366004613652565b611dbf565b34801561047357600080fd5b506102d8610482366004613652565b611de9565b34801561049357600080fd5b506102346104a2366004613652565b60009081526003602052604090205460ff1690565b3480156104c357600080fd5b506102d8611dfa565b3480156104d857600080fd5b506102346104e736600461366b565b611e0d565b3480156104f857600080fd5b506102346105073660046137a5565b611e45565b61023461051a366004613806565b612050565b34801561052b57600080fd5b50610272600081565b34801561054057600080fd5b506008546105519063ffffffff1681565b60405163ffffffff9091168152602001610240565b34801561057257600080fd5b506102a0612264565b34801561058757600080fd5b506102d8610596366004613652565b612369565b3480156105a757600080fd5b506102346105b636600461383b565b6123bd565b6102346105c93660046136e8565b61273c565b3480156105da57600080fd5b506102d86105e936600461366b565b612e3b565b3480156105fa57600080fd5b506102d8610609366004613878565b612e57565b34801561061a57600080fd5b5061023461062936600461378a565b60046020526000908152604090205460ff1681565b34801561064a57600080fd5b5061027261065936600461378a565b60056020526000908152604090205481565b34801561067757600080fd5b5061027260025481565b34801561068d57600080fd5b50610272612e83565b60006001600160e01b03198216637965db0b60e01b14806106c757506301ffc9a760e01b6001600160e01b03198316145b92915050565b600060ff196106eb6001600080516020613bdd8339815191526138b3565b6040516020016106fd91815260200190565b604051602081830303815290604052805190602001201661071d81612ecb565b6001600160a01b038516600090815260046020526040902054469060ff16610768576040516305fd61ad60e01b81526001600160a01b03871660048201526024015b60405180910390fd5b6001600160a01b038616600090815260056020526040812080548692906107909084906138b3565b9091555050620827508190036108bb5760405163095ea7b360e01b81526001600160a01b0387169063095ea7b3906107e29073d8a791fe2be73eb6e6cf1eb0cb3f36adc9b3f8f99088906004016138c6565b6020604051808303816000875af1158015610801573d6000803e3d6000fd5b505050506040513d601f19601f8201168201806040525081019061082591906138df565b5060085460405163a93a4af960e01b81526001600160a01b038089166004830152871660248201526044810186905263ffffffff9091166064820181905273d8a791fe2be73eb6e6cf1eb0cb3f36adc9b3f8f99163a93a4af99190608401600060405180830381600088803b15801561089d57600080fd5b5087f11580156108b1573d6000803e3d6000fd5b5050505050610de2565b8061044d036109c15760405163095ea7b360e01b81526001600160a01b0387169063095ea7b39061090690732a3dd3eb832af982ec71669e178424b10dca2ede9088906004016138c6565b6020604051808303816000875af1158015610925573d6000803e3d6000fd5b505050506040513d601f19601f8201168201806040525081019061094991906138df565b5060405163cd58657960e01b8152732a3dd3eb832af982ec71669e178424b10dca2ede9063cd5865799061098a90600090899089908c9084906004016138fc565b600060405180830381600087803b1580156109a457600080fd5b505af11580156109b8573d6000803e3d6000fd5b50505050610de2565b80600a03610aa95760405163095ea7b360e01b81526001600160a01b0387169063095ea7b3906109fe906010602160991b019088906004016138c6565b6020604051808303816000875af1158015610a1d573d6000803e3d6000fd5b505050506040513d601f19601f82011682018060405250810190610a4191906138df565b50600854604051631474f2a960e31b81526010602160991b019163a3a79548918791610a7c918b918b91859163ffffffff1690600401613943565b6000604051808303818588803b158015610a9557600080fd5b505af11580156108b1573d6000803e3d6000fd5b8061a4b103610bc05760405163095ea7b360e01b81526001600160a01b0387169063095ea7b390610af4907309e9222e96e7b4ae2a407b98d48e330053351eee9088906004016138c6565b6020604051808303816000875af1158015610b13573d6000803e3d6000fd5b505050506040513d601f19601f82011682018060405250810190610b3791906138df565b50604051637b3a3c8b60e01b81527309e9222e96e7b4ae2a407b98d48e330053351eee90637b3a3c8b90610b7390899089908990600401613980565b6000604051808303816000875af1158015610b92573d6000803e3d6000fd5b505050506040513d6000823e601f3d908101601f19168201604052610bba91908101906139ed565b50610de2565b8061a4ba03610c8a5760405163095ea7b360e01b81526001600160a01b0387169063095ea7b390610c0b9073b2535b988dce19f9d71dfb22db6da744acac21bf9088906004016138c6565b6020604051808303816000875af1158015610c2a573d6000803e3d6000fd5b505050506040513d601f19601f82011682018060405250810190610c4e91906138df565b50604051637b3a3c8b60e01b815273b2535b988dce19f9d71dfb22db6da744acac21bf90637b3a3c8b90610b7390899089908990600401613980565b8061014403610cd057604051636ce5768960e11b81527311f943b2c77b743ab90f4a0ae7d5a4e7fca3e1029063d9caed12908690610a7c9089908b908490600401613a9a565b8061138803610d8c5760405163095ea7b360e01b81526001600160a01b0387169063095ea7b390610d0e906010602160991b019088906004016138c6565b6020604051808303816000875af1158015610d2d573d6000803e3d6000fd5b505050506040513d601f19601f82011682018060405250810190610d5191906138df565b5060085460405163297e27a960e11b81526010602160991b01916352fc4f529161098a918a918a918a9163ffffffff90911690600401613943565b8060a903610dc95760405163095ea7b360e01b81526001600160a01b0387169063095ea7b3906109fe906010602160991b019088906004016138c6565b604051639474dee160e01b815260040160405180910390fd5b6001600160a01b03861660009081526005602052604081208054869290610e0a9084906138b3565b9091555050604080514681524260208201526001600160a01b0388811682840152871660608201526080810186905290517f1bc1b1207e0c319b7baad0317c09f30575218af6f5a59f1f0f15de8d217672cc9181900360a00190a150600195945050505050565b6000610e7c81612ecb565b6001600160a01b0383166000908152600460205260409020805460ff19168315801591909117909155610ef557600780546001810182556000919091527fa66cc928b5edb82af9bd49922954155ab7b0942694bea4ce44661d9a8736c6880180546001600160a01b0319166001600160a01b0385161790555b505050565b6000908152600080516020613bfd833981519152602052604090206001015490565b610f2582610efa565b610f2e81612ecb565b610f388383612ed5565b50505050565b60ff19610f5a6001600080516020613bdd8339815191526138b3565b604051602001610f6c91815260200190565b6040516020818303038152906040528051906020012016610f8c81612ecb565b610f97848484612f7a565b5050505050565b6001600160a01b0381163314610fc75760405163334bd91960e11b815260040160405180910390fd5b610ef5828261311f565b600060ff19610fef6001600080516020613bdd8339815191526138b3565b60405160200161100191815260200190565b604051602081830303815290604052805190602001201661102181612ecb565b46871461104157604051631a26aa4d60e21b815260040160405180910390fd5b60008881526003602052604090205460ff1661107357604051632ef6974160e11b81526004810189905260240161075f565b6040516001600160a01b0387169086156108fc029087906000818181858888f193505050501580156110a9573d6000803e3d6000fd5b5073eeeeeeeeeeeeeeeeeeeeeeeeeeeeeeeeeeeeeeee60009081526005602052600080516020613b9d83398151915280548792906110e89084906138b3565b9091555050600054604051631eb65ffb60e01b81526001600160a01b0390911690631eb65ffb90611127908b908b908b908a908c908b90600401613abe565b600060405180830381600087803b15801561114157600080fd5b505af1158015611155573d6000803e3d6000fd5b5050604080518b8152602081018b90529081018890526001600160a01b03891692503091507f61d99af9dd09bd984d42cc07939d4cba4388e85aa29b3cc88df954e4ca719f329060600160405180910390a3506001979650505050505050565b600060ff196111d36001600080516020613bdd8339815191526138b3565b6040516020016111e591815260200190565b604051602081830303815290604052805190602001201661120581612ecb565b464784111561122757604051632c1d501360e11b815260040160405180910390fd5b73eeeeeeeeeeeeeeeeeeeeeeeeeeeeeeeeeeeeeeee60009081526005602052600080516020613b9d83398151915280548692906112659084906138b3565b90915550506208275081900361130457600854604051636705b1e760e11b81526001600160a01b03871660048201526024810186905263ffffffff90911660448201819052737003e7b7186f0e6601203b99f7b8decbfa391cf99163ce0b63ce919087906064016000604051808303818589803b1580156112e557600080fd5b5088f11580156112f9573d6000803e3d6000fd5b5050505050506116a6565b8061044d036113865760405163cd58657960e01b8152732a3dd3eb832af982ec71669e178424b10dca2ede9063cd58657990869061134f906000908a908490839081906004016138fc565b6000604051808303818588803b15801561136857600080fd5b505af115801561137c573d6000803e3d6000fd5b50505050506116a6565b80600a036113dc57600854604051631474f2a960e31b81526010602160991b019163a3a7954891879161134f9173deaddeaddeaddeaddeaddeaddeaddeaddead0000918b91859163ffffffff1690600401613943565b8061a4b10361148357604051637b3a3c8b60e01b8152735288c571fd7ad117bea99bf60fe0846c4e84f93390637b3a3c8b9086906114369073eeeeeeeeeeeeeeeeeeeeeeeeeeeeeeeeeeeeeeee908a908490600401613980565b60006040518083038185885af1158015611454573d6000803e3d6000fd5b50505050506040513d6000823e601f3d908101601f1916820160405261147d91908101906139ed565b506116a6565b8061a4ba036114dd57604051637b3a3c8b60e01b81527321903d3f8176b1a0c17e953cd896610be9ffdfa890637b3a3c8b9086906114369073eeeeeeeeeeeeeeeeeeeeeeeeeeeeeeeeeeeeeeee908a908490600401613980565b806101440361152457604051636ce5768960e11b81527311f943b2c77b743ab90f4a0ae7d5a4e7fca3e1029063d9caed1290869061134f9089906000908490600401613a9a565b80610144036116505760405163095ea7b360e01b815273deaddeaddeaddeaddeaddeaddeaddeaddead11119063095ea7b39061157a907311f943b2c77b743ab90f4a0ae7d5a4e7fca3e1029088906004016138c6565b6020604051808303816000875af1158015611599573d6000803e3d6000fd5b505050506040513d601f19601f820116820180604052508101906115bd91906138df565b5060085460405163297e27a960e11b81527311f943b2c77b743ab90f4a0ae7d5a4e7fca3e102916352fc4f52916116199173deaddeaddeaddeaddeaddeaddeaddeaddead1111918a918a9163ffffffff90911690600401613943565b600060405180830381600087803b15801561163357600080fd5b505af1158015611647573d6000803e3d6000fd5b505050506116a6565b8060a903610dc957600854604051631474f2a960e31b81526010602160991b019163a3a7954891879161134f9173deaddeaddeaddeaddeaddeaddeaddeaddead0000918b91859163ffffffff1690600401613943565b73eeeeeeeeeeeeeeeeeeeeeeeeeeeeeeeeeeeeeeee60009081526005602052600080516020613b9d83398151915280548692906116e49084906138b3565b9091555050604080514681524260208201526001600160a01b038716818301526060810186905290517ff1fa6dbbb3e74f1bef249f22545b238726c1cc79c5571a1416575674c7e63f399181900360800190a1506001949350505050565b600046861461176457604051631a26aa4d60e21b815260040160405180910390fd5b60008581526003602052604090205460ff1661179657604051632ef6974160e11b81526004810186905260240161075f565b6001600160a01b03831660009081526004602052604090205460ff166117da576040516305fd61ad60e01b81526001600160a01b038416600482015260240161075f565b6040516370a0823160e01b81523060048201526000906001600160a01b038516906370a0823190602401602060405180830381865afa158015611821573d6000803e3d6000fd5b505050506040513d601f19601f820116820180604052508101906118459190613aef565b905061185c6001600160a01b03851633308661319b565b6040516370a0823160e01b81523060048201526000906001600160a01b038616906370a0823190602401602060405180830381865afa1580156118a3573d6000803e3d6000fd5b505050506040513d601f19601f820116820180604052508101906118c79190613aef565b905060006118d583836138b3565b73eeeeeeeeeeeeeeeeeeeeeeeeeeeeeeeeeeeeeeee60009081526005602052600080516020613b9d83398151915280549293508792909190611918908490613b08565b9091555050600254600090620f4240906119329084613b1b565b61193c9190613b32565b905061194881836138b3565b6001600160a01b038816600090815260066020526040812080549294508392909190611975908490613b08565b909155505060005460405163305f478560e21b81526001600160a01b039091169063c17d1e14906119b2908d908d908d908c908890600401613b54565b600060405180830381600087803b1580156119cc57600080fd5b505af11580156119e0573d6000803e3d6000fd5b5050604080518d8152602081018d90529081018590526001600160a01b03808c1693503392508a16907fece797608c81cc46a09f9859cf8ef650ec541b5da6989f30acb30dba9b8a40a49060600160405180910390a45060019998505050505050505050565b6000611a5181612ecb565b611a596131f5565b50565b7ff0c57e16840df040f15088dc2f81fe391c3923bec73e23a9662efc9c229c6a008054600160401b810460ff16159067ffffffffffffffff16600081158015611aa25750825b905060008267ffffffffffffffff166001148015611abf5750303b155b905081158015611acd575080155b15611aeb5760405163f92ee8a960e01b815260040160405180910390fd5b845467ffffffffffffffff191660011785558315611b1557845460ff60401b1916600160401b1785555b611b1d613255565b611b2561325f565b611b2f878761326f565b6008805463ffffffff1916620493e01790558315611b8757845460ff60401b19168555604051600181527fc7f505b2f371ae2175ee4913f4499e1f2633a7b5936321eed1cdaeb6115181d29060200160405180910390a15b50505050505050565b600060ff19611bae6001600080516020613bdd8339815191526138b3565b604051602001611bc091815260200190565b6040516020818303038152906040528051906020012016611be081612ecb565b468714611c0057604051631a26aa4d60e21b815260040160405180910390fd5b60008881526003602052604090205460ff16611c3257604051632ef6974160e11b81526004810189905260240161075f565b6000611c3c612264565b6040516323b872dd60e01b81529091506001600160a01b038216906323b872dd90611c6f9030908b908b90600401613a9a565b6020604051808303816000875af1158015611c8e573d6000803e3d6000fd5b505050506040513d601f19601f82011682018060405250810190611cb291906138df565b5073c02aaa39b223fe8d0a0e5c4f27ead9083c756cc260009081526005602052600080516020613bbd8339815191528054889290611cf19084906138b3565b9091555050600054604051631eb65ffb60e01b81526001600160a01b0390911690631eb65ffb90611d30908c908c908c908b908d908c90600401613abe565b600060405180830381600087803b158015611d4a57600080fd5b505af1158015611d5e573d6000803e3d6000fd5b5050604080518c8152602081018c90529081018990526001600160a01b038a1692503091507f7dc80be13e04000533f3763be4b9359a36a0aeb0daabbf09fd96c3a275c1cc149060600160405180910390a350600198975050505050505050565b60078181548110611dcf57600080fd5b6000918252602090912001546001600160a01b0316905081565b6000611df481612ecb565b50600255565b6000611e0581612ecb565b611a596132b8565b6000918252600080516020613bfd833981519152602090815260408084206001600160a01b0393909316845291905290205460ff1690565b600060ff19611e636001600080516020613bdd8339815191526138b3565b604051602001611e7591815260200190565b6040516020818303038152906040528051906020012016611e9581612ecb565b468814611eb557604051631a26aa4d60e21b815260040160405180910390fd5b60008981526003602052604090205460ff16611ee757604051632ef6974160e11b8152600481018a905260240161075f565b6001600160a01b03861660009081526004602052604090205460ff16611f2b576040516305fd61ad60e01b81526001600160a01b038716600482015260240161075f565b611f406001600160a01b03871630898861319b565b73eeeeeeeeeeeeeeeeeeeeeeeeeeeeeeeeeeeeeeee60009081526005602052600080516020613b9d8339815191528054879290611f7e9084906138b3565b9091555050600054604051631eb65ffb60e01b81526001600160a01b0390911690631eb65ffb90611fbd908c908c908c908a908c908b90600401613abe565b600060405180830381600087803b158015611fd757600080fd5b505af1158015611feb573d6000803e3d6000fd5b5050604080518c8152602081018c90529081018890526001600160a01b03808b1693503092508916907f0f50ec03884adc78b9840a90cf8805a70ffe160f18d6b83198103b6fade443fe9060600160405180910390a450600198975050505050505050565b600046841461207257604051631a26aa4d60e21b815260040160405180910390fd5b60008381526003602052604090205460ff166120a457604051632ef6974160e11b81526004810184905260240161075f565b6001543410156120d4576001546040516358f8331360e11b8152600481019190915234602482015260440161075f565b73eeeeeeeeeeeeeeeeeeeeeeeeeeeeeeeeeeeeeeee60009081526005602052600080516020613b9d8339815191528054349290612112908490613b08565b9091555050600254600090620f42409061212c9034613b1b565b6121369190613b32565b9050600061214482346138b3565b73eeeeeeeeeeeeeeeeeeeeeeeeeeeeeeeeeeeeeeee600090815260066020527fa2e5aefc6e2cbe2917a296f0fd89c5f915c487c803db1d98eccb43f14012d71180549293508492909190612199908490613b08565b909155505060005460405163305f478560e21b81526001600160a01b039091169063c17d1e14906121d69046908990899087908990600401613b54565b600060405180830381600087803b1580156121f057600080fd5b505af1158015612204573d6000803e3d6000fd5b505060408051898152602081018990529081018490526001600160a01b03871692503391507f0b671089787b6d29f730bc690214e6a7e28064fef5a3cdbb9b930a22fac01dc59060600160405180910390a36001925050505b9392505050565b60004662082750819003612280576004605360981b0191505090565b8061044d036122a457734f9a0e7fd2bf6067db6994cf12e4495df938e6e991505090565b80600a036122ba576006602160991b0191505090565b8061a4b1036122de577382af49447d8a07e3bd95bd0d56f35241523fbab191505090565b8061a4ba036123025773722e8bdd2ce80a4422e880164f2079488e11536591505090565b806101440361232657735aea5775959fbc2557cc8789bc1bf90a239d9a9191505090565b80611388036123485760405163e31d668960e01b815260040160405180910390fd5b8060a903610dc9576040516322c20c6960e11b815260040160405180910390fd5b60ff196123856001600080516020613bdd8339815191526138b3565b60405160200161239791815260200190565b60405160208183030381529060405280519060200120166123b781612ecb565b50600155565b60004685146123df57604051631a26aa4d60e21b815260040160405180910390fd5b60008481526003602052604090205460ff16612411576040516363b5c9db60e01b81526004810185905260240161075f565b600061241b612264565b6040516370a0823160e01b81523060048201529091506000906001600160a01b038316906370a0823190602401602060405180830381865afa158015612465573d6000803e3d6000fd5b505050506040513d601f19601f820116820180604052508101906124899190613aef565b6040516323b872dd60e01b81529091506001600160a01b038316906323b872dd906124bc90339030908990600401613a9a565b6020604051808303816000875af11580156124db573d6000803e3d6000fd5b505050506040513d601f19601f820116820180604052508101906124ff91906138df565b506040516370a0823160e01b81523060048201526000906001600160a01b038416906370a0823190602401602060405180830381865afa158015612547573d6000803e3d6000fd5b505050506040513d601f19601f8201168201806040525081019061256b9190613aef565b9050600061257983836138b3565b90506001548110156125ac576001546040516358f8331360e11b815260048101919091526024810182905260440161075f565b73c02aaa39b223fe8d0a0e5c4f27ead9083c756cc260009081526005602052600080516020613bbd83398151915280548392906125ea908490613b08565b9091555050600254600090620f4240906126049084613b1b565b61260e9190613b32565b905061261a81836138b3565b73c02aaa39b223fe8d0a0e5c4f27ead9083c756cc2600090815260066020527f5e5777fab7622aff3c042c1ece74307c2e9d699a9da444f416c35f2e1def28a58054929450839290919061266f908490613b08565b909155505060005460405163305f478560e21b81526001600160a01b039091169063c17d1e14906126ac908d908d908d908d908890600401613b54565b600060405180830381600087803b1580156126c657600080fd5b505af11580156126da573d6000803e3d6000fd5b5050604080518d8152602081018d90529081018590526001600160a01b038b1692503391507fcb9e641636f35317739cff2833f1831bf3a25b930b5615ada09367c080d64a899060600160405180910390a35060019998505050505050505050565b600060ff1961275a6001600080516020613bdd8339815191526138b3565b60405160200161276c91815260200190565b604051602081830303815290604052805190602001201661278c81612ecb565b466000612797612264565b6040516370a0823160e01b81523060048201529091506001600160a01b038216906370a0823190602401602060405180830381865afa1580156127de573d6000803e3d6000fd5b505050506040513d601f19601f820116820180604052508101906128029190613aef565b85111561282d576040516311745b6160e21b81526001600160a01b038216600482015260240161075f565b73c02aaa39b223fe8d0a0e5c4f27ead9083c756cc260009081526005602052600080516020613bbd833981519152805487929061286b9084906138b3565b9091555050620827508290036129965760405163095ea7b360e01b81526001600160a01b0382169063095ea7b3906128bd90737003e7b7186f0e6601203b99f7b8decbfa391cf99089906004016138c6565b6020604051808303816000875af11580156128dc573d6000803e3d6000fd5b505050506040513d601f19601f8201168201806040525081019061290091906138df565b5060085460405163a93a4af960e01b81526001600160a01b038084166004830152881660248201526044810187905263ffffffff90911660648201819052737003e7b7186f0e6601203b99f7b8decbfa391cf99163a93a4af99190608401600060405180830381600088803b15801561297857600080fd5b5087f115801561298c573d6000803e3d6000fd5b5050505050612d9e565b8161044d03612a945760405163095ea7b360e01b81526001600160a01b0382169063095ea7b3906129e190732a3dd3eb832af982ec71669e178424b10dca2ede9089906004016138c6565b6020604051808303816000875af1158015612a00573d6000803e3d6000fd5b505050506040513d601f19601f82011682018060405250810190612a2491906138df565b5060405163cd58657960e01b8152732a3dd3eb832af982ec71669e178424b10dca2ede9063cd586579908790612a67906000908b908490839081906004016138fc565b6000604051808303818588803b158015612a8057600080fd5b505af115801561298c573d6000803e3d6000fd5b81600a03612b4f5760405163095ea7b360e01b81526001600160a01b0382169063095ea7b390612ad1906010602160991b019089906004016138c6565b6020604051808303816000875af1158015612af0573d6000803e3d6000fd5b505050506040513d601f19601f82011682018060405250810190612b1491906138df565b50600854604051631474f2a960e31b81526010602160991b019163a3a79548918891612a679186918c91859163ffffffff1690600401613943565b8161a4b103612c7a5760405163095ea7b360e01b81526001600160a01b0382169063095ea7b390612b9a90736c411ad3e74de3e7bd422b94a27770f5b86c623b9089906004016138c6565b6020604051808303816000875af1158015612bb9573d6000803e3d6000fd5b505050506040513d601f19601f82011682018060405250810190612bdd91906138df565b50604051637b3a3c8b60e01b8152736c411ad3e74de3e7bd422b94a27770f5b86c623b90637b3a3c8b90612c2d9073c02aaa39b223fe8d0a0e5c4f27ead9083c756cc2908a908a90600401613980565b6000604051808303816000875af1158015612c4c573d6000803e3d6000fd5b505050506040513d6000823e601f3d908101601f19168201604052612c7491908101906139ed565b50612d9e565b8161a4ba03612d585760405163095ea7b360e01b81526001600160a01b0382169063095ea7b390612cc590737626841cb6113412f9c88d3adc720c9fac88d9ed9089906004016138c6565b6020604051808303816000875af1158015612ce4573d6000803e3d6000fd5b505050506040513d601f19601f82011682018060405250810190612d0891906138df565b50604051637b3a3c8b60e01b8152737626841cb6113412f9c88d3adc720c9fac88d9ed90637b3a3c8b90612c2d9073c02aaa39b223fe8d0a0e5c4f27ead9083c756cc2908a908a90600401613980565b8161014403610dc957604051636ce5768960e11b81527311f943b2c77b743ab90f4a0ae7d5a4e7fca3e1029063d9caed12908790612a67908a9086908490600401613a9a565b604080514681524260208201526001600160a01b038816818301526060810187905290517fcb1a101498aadad4159168d719f955e559e768912e6f5f5c57b094eb047d000f9181900360800190a173c02aaa39b223fe8d0a0e5c4f27ead9083c756cc260009081526005602052600080516020613bbd8339815191528054879290612e2a9084906138b3565b909155506001979650505050505050565b612e4482610efa565b612e4d81612ecb565b610f38838361311f565b6000612e6281612ecb565b50600091825260036020526040909120805460ff1916911515919091179055565b60ff19612e9f6001600080516020613bdd8339815191526138b3565b604051602001612eb191815260200190565b604051602081830303815290604052805190602001201681565b611a598133613301565b6000600080516020613bfd833981519152612ef08484611e0d565b612f70576000848152602082815260408083206001600160a01b03871684529091529020805460ff19166001179055612f263390565b6001600160a01b0316836001600160a01b0316857f2f8788117e7eff1d82e926ec794901d17c78024a50270940304540a733656f0d60405160405180910390a460019150506106c7565b60009150506106c7565b6001600160a01b03831660009081526004602052604081205460ff16612fbe576040516305fd61ad60e01b81526001600160a01b038516600482015260240161075f565b6001600160a01b03841660009081526005602052604081208054849290612fe69084906138b3565b909155505073eeeeeeeeeeeeeeeeeeeeeeeeeeeeeeeeeeeeeeed196001600160a01b0385160161306d578147101561303157604051632c1d501360e11b815260040160405180910390fd5b6040516001600160a01b0384169083156108fc029084906000818181858888f19350505050158015613067573d6000803e3d6000fd5b50613115565b6040516370a0823160e01b815230600482015282906001600160a01b038616906370a0823190602401602060405180830381865afa1580156130b3573d6000803e3d6000fd5b505050506040513d601f19601f820116820180604052508101906130d79190613aef565b1015613101576040516311745b6160e21b81526001600160a01b038516600482015260240161075f565b6131156001600160a01b0385168484613330565b5060019392505050565b6000600080516020613bfd83398151915261313a8484611e0d565b15612f70576000848152602082815260408083206001600160a01b0387168085529252808320805460ff1916905551339287917ff6391f5c32d9c69d2a47ea670b442974b53935d1edc7fd64eb21e047a839171b9190a460019150506106c7565b610f3884856001600160a01b03166323b872dd8686866040516024016131c393929190613a9a565b604051602081830303815290604052915060e01b6020820180516001600160e01b038381831617835250505050613356565b6131fd6133b9565b600080516020613c1d833981519152805460ff191681557f5db9ee0a495bf2e6ff9c91a7834c1ba4fdd244a5e8aa4e537bd38aeae4b073aa335b6040516001600160a01b03909116815260200160405180910390a150565b61325d6133e9565b565b6132676133e9565b61325d613432565b6132776133e9565b67016345785d8a0000600155612710600255613294600083612ed5565b50600080546001600160a01b0319166001600160a01b039290921691909117905550565b6132c0613453565b600080516020613c1d833981519152805460ff191660011781557f62e78cea01bee320cd4e420270b5ea74000d11b0c9f74754ebdbfc544b05a25833613237565b61330b8282611e0d565b61332c57808260405163e2517d3f60e01b815260040161075f9291906138c6565b5050565b610ef583846001600160a01b031663a9059cbb85856040516024016131c39291906138c6565b600061336b6001600160a01b03841683613484565b9050805160001415801561339057508080602001905181019061338e91906138df565b155b15610ef557604051635274afe760e01b81526001600160a01b038416600482015260240161075f565b600080516020613c1d8339815191525460ff1661325d57604051638dfc202b60e01b815260040160405180910390fd5b7ff0c57e16840df040f15088dc2f81fe391c3923bec73e23a9662efc9c229c6a0054600160401b900460ff1661325d57604051631afcd79f60e31b815260040160405180910390fd5b61343a6133e9565b600080516020613c1d833981519152805460ff19169055565b600080516020613c1d8339815191525460ff161561325d5760405163d93c066560e01b815260040160405180910390fd5b606061225d8383600084600080856001600160a01b031684866040516134aa9190613b80565b60006040518083038185875af1925050503d80600081146134e7576040519150601f19603f3d011682016040523d82523d6000602084013e6134ec565b606091505b50915091506134fc868383613506565b9695505050505050565b60608261351b5761351682613562565b61225d565b815115801561353257506001600160a01b0384163b155b1561355b57604051639996b31560e01b81526001600160a01b038516600482015260240161075f565b508061225d565b8051156135725780518082602001fd5b604051630a12f52160e11b815260040160405180910390fd5b60006020828403121561359d57600080fd5b81356001600160e01b03198116811461225d57600080fd5b80356001600160a01b03811681146135cc57600080fd5b919050565b6000806000606084860312156135e657600080fd5b6135ef846135b5565b92506135fd602085016135b5565b9150604084013590509250925092565b8015158114611a5957600080fd5b6000806040838503121561362e57600080fd5b613637836135b5565b915060208301356136478161360d565b809150509250929050565b60006020828403121561366457600080fd5b5035919050565b6000806040838503121561367e57600080fd5b8235915061368e602084016135b5565b90509250929050565b60008060008060008060c087890312156136b057600080fd5b86359550602087013594506136c7604088016135b5565b9350606087013592506080870135915060a087013590509295509295509295565b600080604083850312156136fb57600080fd5b613704836135b5565b946020939093013593505050565b600080600080600060a0868803121561372a57600080fd5b8535945060208601359350613741604087016135b5565b925061374f606087016135b5565b949793965091946080013592915050565b6000806040838503121561377357600080fd5b61377c836135b5565b915061368e602084016135b5565b60006020828403121561379c57600080fd5b61225d826135b5565b600080600080600080600060e0888a0312156137c057600080fd5b87359650602088013595506137d7604089016135b5565b94506137e5606089016135b5565b9699959850939660808101359560a0820135955060c0909101359350915050565b60008060006060848603121561381b57600080fd5b8335925060208401359150613832604085016135b5565b90509250925092565b6000806000806080858703121561385157600080fd5b8435935060208501359250613868604086016135b5565b9396929550929360600135925050565b6000806040838503121561388b57600080fd5b8235915060208301356136478161360d565b634e487b7160e01b600052601160045260246000fd5b818103818111156106c7576106c761389d565b6001600160a01b03929092168252602082015260400190565b6000602082840312156138f157600080fd5b815161225d8161360d565b63ffffffff9590951685526001600160a01b039384166020860152604085019290925290911660608301521515608082015260c060a0820181905260009082015260e00190565b6001600160a01b039485168152929093166020830152604082015263ffffffff909116606082015260a06080820181905260009082015260c00190565b6001600160a01b039384168152919092166020820152604081019190915260806060820181905260009082015260a00190565b634e487b7160e01b600052604160045260246000fd5b60005b838110156139e45781810151838201526020016139cc565b50506000910152565b6000602082840312156139ff57600080fd5b815167ffffffffffffffff80821115613a1757600080fd5b818401915084601f830112613a2b57600080fd5b815181811115613a3d57613a3d6139b3565b604051601f8201601f19908116603f01168101908382118183101715613a6557613a656139b3565b81604052828152876020848701011115613a7e57600080fd5b613a8f8360208301602088016139c9565b979650505050505050565b6001600160a01b039384168152919092166020820152604081019190915260600190565b95865260208601949094526001600160a01b039290921660408501526060840152608083015260a082015260c00190565b600060208284031215613b0157600080fd5b5051919050565b808201808211156106c7576106c761389d565b80820281158282048414176106c7576106c761389d565b600082613b4f57634e487b7160e01b600052601260045260246000fd5b500490565b94855260208501939093526001600160a01b039190911660408401526060830152608082015260a00190565b60008251613b928184602087016139c9565b919091019291505056fea1829a9003092132f585b6ccdd167c19fe9774dbdea4260287e8a8e8ca8185d7a550ba85c46b24b567d2e17cd597f2283877afab43603f46d5de7858f1bdb73133fe247d78fee2e7fd135c405eda4bd2911c0a73c0a81b36c3bcc967dd06e5ae02dd7bc7dec4dceedda775e58dd541e08a116c6c53815c0bd028192f7b626800cd5ed15c6e187e77e9aee88184c21f4f2182ab5827cb3b7e07fbedcd63f03300a26469706673582212200a8043bac14795063e4be24420c7e712f5f1211fafcba16fb597e4d47a42722564736f6c63430008140033",
    "linkReferences": {}
  },
  "methodIdentifiers": {
    "BridgeFinalizeERC20(uint256,uint256,address,address,uint256,uint256,uint256)": "92d84738",
    "BridgeFinalizeETH(uint256,uint256,address,uint256,uint256,uint256)": "38731c47",
    "BridgeFinalizeWETH(uint256,uint256,address,uint256,uint256,uint256)": "5765a4eb",
    "BridgeInitiateERC20(uint256,uint256,address,address,uint256)": "3b0230f0",
    "BridgeInitiateETH(uint256,uint256,address)": "9b442380",
    "BridgeInitiateWETH(uint256,uint256,address,uint256)": "cd01c665",
    "DEFAULT_ADMIN_ROLE()": "a217fddf",
    "FeePoolValue(address)": "54dc027e",
    "FundingPoolBalance(address)": "dbb0481f",
    "IsSupportChainId(uint256)": "72fe6a7e",
    "IsSupportToken(address)": "dac29568",
    "L2WETH()": "b1887e9b",
    "MAX_GAS_Limit()": "a525ae2b",
    "MinTransferAmount()": "09dc480c",
    "PerFee()": "dd0c3460",
    "QuickSendAssertToUser(address,address,uint256)": "325e5d43",
    "ReLayer()": "fa861848",
    "SupportTokens(uint256)": "626417b5",
    "WithdrawERC20ToL1(address,address,uint256)": "0227047a",
    "WithdrawETHtoL1(address,uint256)": "39891dd7",
    "WithdrawWETHToL1(address,uint256)": "d28597f4",
    "getRoleAdmin(bytes32)": "248a9ca3",
    "grantRole(bytes32,address)": "2f2ff15d",
    "hasRole(bytes32,address)": "91d14854",
    "initialize(address,address)": "485cc955",
    "messageManager()": "10875a13",
    "pause()": "8456cb59",
    "paused()": "5c975abb",
    "renounceRole(bytes32,address)": "36568abe",
    "revokeRole(bytes32,address)": "d547741f",
    "setMinTransferAmount(uint256)": "b92e6396",
    "setPerFee(uint256)": "650c2276",
    "setSupportToken(address,bool)": "204daa93",
    "setValidChainId(uint256,bool)": "d73f14e5",
    "supportsInterface(bytes4)": "01ffc9a7",
    "unpause()": "3f4ba83a"
  },
  "id": 58
}