{"abi":[{"type":"constructor","inputs":[],"stateMutability":"nonpayable"},{"type":"function","name":"BridgeFinalizeERC20","inputs":[{"name":"sourceChainId","type":"uint256","internalType":"uint256"},{"name":"destChainId","type":"uint256","internalType":"uint256"},{"name":"to","type":"address","internalType":"address"},{"name":"ERC20Address","type":"address","internalType":"address"},{"name":"amount","type":"uint256","internalType":"uint256"},{"name":"_fee","type":"uint256","internalType":"uint256"},{"name":"_nonce","type":"uint256","internalType":"uint256"}],"outputs":[{"name":"","type":"bool","internalType":"bool"}],"stateMutability":"nonpayable"},{"type":"function","name":"BridgeFinalizeETH","inputs":[{"name":"sourceChainId","type":"uint256","internalType":"uint256"},{"name":"destChainId","type":"uint256","internalType":"uint256"},{"name":"to","type":"address","internalType":"address"},{"name":"amount","type":"uint256","internalType":"uint256"},{"name":"_fee","type":"uint256","internalType":"uint256"},{"name":"_nonce","type":"uint256","internalType":"uint256"}],"outputs":[{"name":"","type":"bool","internalType":"bool"}],"stateMutability":"payable"},{"type":"function","name":"BridgeFinalizeWETH","inputs":[{"name":"sourceChainId","type":"uint256","internalType":"uint256"},{"name":"destChainId","type":"uint256","internalType":"uint256"},{"name":"to","type":"address","internalType":"address"},{"name":"amount","type":"uint256","internalType":"uint256"},{"name":"_fee","type":"uint256","internalType":"uint256"},{"name":"_nonce","type":"uint256","internalType":"uint256"}],"outputs":[{"name":"","type":"bool","internalType":"bool"}],"stateMutability":"nonpayable"},{"type":"function","name":"BridgeInitiateERC20","inputs":[{"name":"sourceChainId","type":"uint256","internalType":"uint256"},{"name":"destChainId","type":"uint256","internalType":"uint256"},{"name":"to","type":"address","internalType":"address"},{"name":"ERC20Address","type":"address","internalType":"address"},{"name":"value","type":"uint256","internalType":"uint256"}],"outputs":[{"name":"","type":"bool","internalType":"bool"}],"stateMutability":"nonpayable"},{"type":"function","name":"BridgeInitiateETH","inputs":[{"name":"sourceChainId","type":"uint256","internalType":"uint256"},{"name":"destChainId","type":"uint256","internalType":"uint256"},{"name":"to","type":"address","internalType":"address"}],"outputs":[{"name":"","type":"bool","internalType":"bool"}],"stateMutability":"payable"},{"type":"function","name":"BridgeInitiateWETH","inputs":[{"name":"sourceChainId","type":"uint256","internalType":"uint256"},{"name":"destChainId","type":"uint256","internalType":"uint256"},{"name":"to","type":"address","internalType":"address"},{"name":"value","type":"uint256","internalType":"uint256"}],"outputs":[{"name":"","type":"bool","internalType":"bool"}],"stateMutability":"nonpayable"},{"type":"function","name":"DEFAULT_ADMIN_ROLE","inputs":[],"outputs":[{"name":"","type":"bytes32","internalType":"bytes32"}],"stateMutability":"view"},{"type":"function","name":"FeePoolValue","inputs":[{"name":"","type":"address","internalType":"address"}],"outputs":[{"name":"","type":"uint256","internalType":"uint256"}],"stateMutability":"view"},{"type":"function","name":"IsSupportChainId","inputs":[{"name":"chainId","type":"uint256","internalType":"uint256"}],"outputs":[{"name":"","type":"bool","internalType":"bool"}],"stateMutability":"view"},{"type":"function","name":"IsSupportStableCoin","inputs":[{"name":"ERC20Address","type":"address","internalType":"address"}],"outputs":[{"name":"","type":"bool","internalType":"bool"}],"stateMutability":"view"},{"type":"function","name":"L2WETH","inputs":[],"outputs":[{"name":"","type":"address","internalType":"address"}],"stateMutability":"view"},{"type":"function","name":"MAX_GAS_Limit","inputs":[],"outputs":[{"name":"","type":"uint32","internalType":"uint32"}],"stateMutability":"view"},{"type":"function","name":"MinTransferAmount","inputs":[],"outputs":[{"name":"","type":"uint256","internalType":"uint256"}],"stateMutability":"view"},{"type":"function","name":"PerFee","inputs":[],"outputs":[{"name":"","type":"uint256","internalType":"uint256"}],"stateMutability":"view"},{"type":"function","name":"QuickSendAssertToUser","inputs":[{"name":"_token","type":"address","internalType":"address"},{"name":"to","type":"address","internalType":"address"},{"name":"_amount","type":"uint256","internalType":"uint256"}],"outputs":[],"stateMutability":"nonpayable"},{"type":"function","name":"ReLayer","inputs":[],"outputs":[{"name":"","type":"bytes32","internalType":"bytes32"}],"stateMutability":"view"},{"type":"function","name":"WithdrawETHtoL1","inputs":[{"name":"_to","type":"address","internalType":"address"},{"name":"_amount","type":"uint256","internalType":"uint256"}],"outputs":[{"name":"","type":"bool","internalType":"bool"}],"stateMutability":"payable"},{"type":"function","name":"getRoleAdmin","inputs":[{"name":"role","type":"bytes32","internalType":"bytes32"}],"outputs":[{"name":"","type":"bytes32","internalType":"bytes32"}],"stateMutability":"view"},{"type":"function","name":"grantRole","inputs":[{"name":"role","type":"bytes32","internalType":"bytes32"},{"name":"account","type":"address","internalType":"address"}],"outputs":[],"stateMutability":"nonpayable"},{"type":"function","name":"hasRole","inputs":[{"name":"role","type":"bytes32","internalType":"bytes32"},{"name":"account","type":"address","internalType":"address"}],"outputs":[{"name":"","type":"bool","internalType":"bool"}],"stateMutability":"view"},{"type":"function","name":"initialize","inputs":[{"name":"_MultisigWallet","type":"address","internalType":"address"},{"name":"_messageManager","type":"address","internalType":"address"}],"outputs":[],"stateMutability":"nonpayable"},{"type":"function","name":"messageManager","inputs":[],"outputs":[{"name":"","type":"address","internalType":"contract IMessageManager"}],"stateMutability":"view"},{"type":"function","name":"pause","inputs":[],"outputs":[],"stateMutability":"nonpayable"},{"type":"function","name":"paused","inputs":[],"outputs":[{"name":"","type":"bool","internalType":"bool"}],"stateMutability":"view"},{"type":"function","name":"renounceRole","inputs":[{"name":"role","type":"bytes32","internalType":"bytes32"},{"name":"callerConfirmation","type":"address","internalType":"address"}],"outputs":[],"stateMutability":"nonpayable"},{"type":"function","name":"revokeRole","inputs":[{"name":"role","type":"bytes32","internalType":"bytes32"},{"name":"account","type":"address","internalType":"address"}],"outputs":[],"stateMutability":"nonpayable"},{"type":"function","name":"setMinTransferAmount","inputs":[{"name":"_MinTransferAmount","type":"uint256","internalType":"uint256"}],"outputs":[],"stateMutability":"nonpayable"},{"type":"function","name":"setPerFee","inputs":[{"name":"_PerFee","type":"uint256","internalType":"uint256"}],"outputs":[],"stateMutability":"nonpayable"},{"type":"function","name":"setSupportStableCoin","inputs":[{"name":"ERC20Address","type":"address","internalType":"address"},{"name":"isValid","type":"bool","internalType":"bool"}],"outputs":[],"stateMutability":"nonpayable"},{"type":"function","name":"setValidChainId","inputs":[{"name":"chainId","type":"uint256","internalType":"uint256"},{"name":"isValid","type":"bool","internalType":"bool"}],"outputs":[],"stateMutability":"nonpayable"},{"type":"function","name":"supportsInterface","inputs":[{"name":"interfaceId","type":"bytes4","internalType":"bytes4"}],"outputs":[{"name":"","type":"bool","internalType":"bool"}],"stateMutability":"view"},{"type":"function","name":"unpause","inputs":[],"outputs":[],"stateMutability":"nonpayable"},{"type":"event","name":"FinalizeERC20","inputs":[{"name":"sourceChainId","type":"uint256","indexed":false,"internalType":"uint256"},{"name":"destChainId","type":"uint256","indexed":false,"internalType":"uint256"},{"name":"ERC20Address","type":"address","indexed":true,"internalType":"address"},{"name":"from","type":"address","indexed":true,"internalType":"address"},{"name":"to","type":"address","indexed":true,"internalType":"address"},{"name":"value","type":"uint256","indexed":false,"internalType":"uint256"}],"anonymous":false},{"type":"event","name":"FinalizeETH","inputs":[{"name":"sourceChainId","type":"uint256","indexed":false,"internalType":"uint256"},{"name":"destChainId","type":"uint256","indexed":false,"internalType":"uint256"},{"name":"from","type":"address","indexed":true,"internalType":"address"},{"name":"to","type":"address","indexed":true,"internalType":"address"},{"name":"value","type":"uint256","indexed":false,"internalType":"uint256"}],"anonymous":false},{"type":"event","name":"FinalizeWETH","inputs":[{"name":"sourceChainId","type":"uint256","indexed":false,"internalType":"uint256"},{"name":"destChainId","type":"uint256","indexed":false,"internalType":"uint256"},{"name":"from","type":"address","indexed":true,"internalType":"address"},{"name":"to","type":"address","indexed":true,"internalType":"address"},{"name":"value","type":"uint256","indexed":false,"internalType":"uint256"}],"anonymous":false},{"type":"event","name":"Initialized","inputs":[{"name":"version","type":"uint64","indexed":false,"internalType":"uint64"}],"anonymous":false},{"type":"event","name":"InitiateERC20","inputs":[{"name":"sourceChainId","type":"uint256","indexed":false,"internalType":"uint256"},{"name":"destChainId","type":"uint256","indexed":false,"internalType":"uint256"},{"name":"ERC20Address","type":"address","indexed":true,"internalType":"address"},{"name":"from","type":"address","indexed":true,"internalType":"address"},{"name":"to","type":"address","indexed":true,"internalType":"address"},{"name":"value","type":"uint256","indexed":false,"internalType":"uint256"}],"anonymous":false},{"type":"event","name":"InitiateETH","inputs":[{"name":"sourceChainId","type":"uint256","indexed":false,"internalType":"uint256"},{"name":"destChainId","type":"uint256","indexed":false,"internalType":"uint256"},{"name":"from","type":"address","indexed":true,"internalType":"address"},{"name":"to","type":"address","indexed":true,"internalType":"address"},{"name":"value","type":"uint256","indexed":false,"internalType":"uint256"}],"anonymous":false},{"type":"event","name":"InitiateWETH","inputs":[{"name":"sourceChainId","type":"uint256","indexed":false,"internalType":"uint256"},{"name":"destChainId","type":"uint256","indexed":false,"internalType":"uint256"},{"name":"from","type":"address","indexed":true,"internalType":"address"},{"name":"to","type":"address","indexed":true,"internalType":"address"},{"name":"value","type":"uint256","indexed":false,"internalType":"uint256"}],"anonymous":false},{"type":"event","name":"Paused","inputs":[{"name":"account","type":"address","indexed":false,"internalType":"address"}],"anonymous":false},{"type":"event","name":"RoleAdminChanged","inputs":[{"name":"role","type":"bytes32","indexed":true,"internalType":"bytes32"},{"name":"previousAdminRole","type":"bytes32","indexed":true,"internalType":"bytes32"},{"name":"newAdminRole","type":"bytes32","indexed":true,"internalType":"bytes32"}],"anonymous":false},{"type":"event","name":"RoleGranted","inputs":[{"name":"role","type":"bytes32","indexed":true,"internalType":"bytes32"},{"name":"account","type":"address","indexed":true,"internalType":"address"},{"name":"sender","type":"address","indexed":true,"internalType":"address"}],"anonymous":false},{"type":"event","name":"RoleRevoked","inputs":[{"name":"role","type":"bytes32","indexed":true,"internalType":"bytes32"},{"name":"account","type":"address","indexed":true,"internalType":"address"},{"name":"sender","type":"address","indexed":true,"internalType":"address"}],"anonymous":false},{"type":"event","name":"Unpaused","inputs":[{"name":"account","type":"address","indexed":false,"internalType":"address"}],"anonymous":false},{"type":"event","name":"WithdrawERC20toL1Success","inputs":[{"name":"chainId","type":"uint256","indexed":false,"internalType":"uint256"},{"name":"timestamp","type":"uint256","indexed":false,"internalType":"uint256"},{"name":"token","type":"address","indexed":false,"internalType":"address"},{"name":"to","type":"address","indexed":false,"internalType":"address"},{"name":"value","type":"uint256","indexed":false,"internalType":"uint256"}],"anonymous":false},{"type":"event","name":"WithdrawETHtoL1Success","inputs":[{"name":"chainId","type":"uint256","indexed":false,"internalType":"uint256"},{"name":"timestamp","type":"uint256","indexed":false,"internalType":"uint256"},{"name":"to","type":"address","indexed":false,"internalType":"address"},{"name":"value","type":"uint256","indexed":false,"internalType":"uint256"}],"anonymous":false},{"type":"event","name":"WithdrawWETHtoL1Success","inputs":[{"name":"chainId","type":"uint256","indexed":false,"internalType":"uint256"},{"name":"timestamp","type":"uint256","indexed":false,"internalType":"uint256"},{"name":"to","type":"address","indexed":false,"internalType":"address"},{"name":"value","type":"uint256","indexed":false,"internalType":"uint256"}],"anonymous":false},{"type":"error","name":"AccessControlBadConfirmation","inputs":[]},{"type":"error","name":"AccessControlUnauthorizedAccount","inputs":[{"name":"account","type":"address","internalType":"address"},{"name":"neededRole","type":"bytes32","internalType":"bytes32"}]},{"type":"error","name":"AddressEmptyCode","inputs":[{"name":"target","type":"address","internalType":"address"}]},{"type":"error","name":"AddressInsufficientBalance","inputs":[{"name":"account","type":"address","internalType":"address"}]},{"type":"error","name":"ChainIdIsNotSupported","inputs":[{"name":"id","type":"uint256","internalType":"uint256"}]},{"type":"error","name":"ChainIdNotSupported","inputs":[{"name":"chainId","type":"uint256","internalType":"uint256"}]},{"type":"error","name":"EnforcedPause","inputs":[]},{"type":"error","name":"ErrorBlockChain","inputs":[]},{"type":"error","name":"ExpectedPause","inputs":[]},{"type":"error","name":"FailedInnerCall","inputs":[]},{"type":"error","name":"InvalidInitialization","inputs":[]},{"type":"error","name":"LessThanMinTransferAmount","inputs":[{"name":"MinTransferAmount","type":"uint256","internalType":"uint256"},{"name":"value","type":"uint256","internalType":"uint256"}]},{"type":"error","name":"NotEnoughETH","inputs":[]},{"type":"error","name":"NotEnoughToken","inputs":[{"name":"ERC20Address","type":"address","internalType":"address"}]},{"type":"error","name":"NotInitializing","inputs":[]},{"type":"error","name":"ReentrancyGuardReentrantCall","inputs":[]},{"type":"error","name":"SafeERC20FailedOperation","inputs":[{"name":"token","type":"address","internalType":"address"}]},{"type":"error","name":"StableCoinNotSupported","inputs":[{"name":"ERC20Address","type":"address","internalType":"address"}]},{"type":"error","name":"sourceChainIdError","inputs":[]}],"bytecode":{"object":"0x60806040523480156200001157600080fd5b506200001c62000022565b620000d6565b7ff0c57e16840df040f15088dc2f81fe391c3923bec73e23a9662efc9c229c6a00805468010000000000000000900460ff1615620000735760405163f92ee8a960e01b815260040160405180910390fd5b80546001600160401b0390811614620000d35780546001600160401b0319166001600160401b0390811782556040519081527fc7f505b2f371ae2175ee4913f4499e1f2633a7b5936321eed1cdaeb6115181d29060200160405180910390a15b50565b6126cd80620000e66000396000f3fe6080604052600436106101e35760003560e01c806372fe6a7e11610102578063b33280dd11610095578063d73f14e511610064578063d73f14e51461057c578063dd0c34601461059c578063ed06da87146105b2578063fa861848146105eb57600080fd5b8063b33280dd146104fc578063b92e63961461051c578063cd01c6651461053c578063d547741f1461055c57600080fd5b80639b442380116100d15780639b4423801461048d578063a217fddf146104a0578063a525ae2b146104b5578063b1887e9b146104e757600080fd5b806372fe6a7e146104085780638456cb591461043857806391d148541461044d57806392d847381461046d57600080fd5b806339891dd71161017a57806354dc027e1161014957806354dc027e146103765780635765a4eb146103a35780635c975abb146103c3578063650c2276146103e857600080fd5b806339891dd71461030e5780633b0230f0146103215780633f4ba83a14610341578063485cc9551461035657600080fd5b80632f2ff15d116101b65780632f2ff15d14610299578063325e5d43146102bb57806336568abe146102db57806338731c47146102fb57600080fd5b806301ffc9a7146101e857806309dc480c1461021d57806310875a1314610241578063248a9ca314610279575b600080fd5b3480156101f457600080fd5b506102086102033660046121ce565b610600565b60405190151581526020015b60405180910390f35b34801561022957600080fd5b5061023360015481565b604051908152602001610214565b34801561024d57600080fd5b50600054610261906001600160a01b031681565b6040516001600160a01b039091168152602001610214565b34801561028557600080fd5b506102336102943660046121f8565b610637565b3480156102a557600080fd5b506102b96102b436600461222d565b610659565b005b3480156102c757600080fd5b506102b96102d6366004612259565b61067b565b3480156102e757600080fd5b506102b96102f636600461222d565b6106db565b610208610309366004612295565b610713565b61020861031c3660046122e6565b6108f3565b34801561032d57600080fd5b5061020861033c366004612310565b610b20565b34801561034d57600080fd5b506102b9610e24565b34801561036257600080fd5b506102b961037136600461235e565b610e3a565b34801561038257600080fd5b50610233610391366004612388565b60066020526000908152604090205481565b3480156103af57600080fd5b506102086103be366004612295565b610f6e565b3480156103cf57600080fd5b506000805160206126788339815191525460ff16610208565b3480156103f457600080fd5b506102b96104033660046121f8565b6111b6565b34801561041457600080fd5b506102086104233660046121f8565b60009081526003602052604090205460ff1690565b34801561044457600080fd5b506102b96111c7565b34801561045957600080fd5b5061020861046836600461222d565b6111da565b34801561047957600080fd5b506102086104883660046123a3565b611212565b61020861049b366004612404565b61141d565b3480156104ac57600080fd5b50610233600081565b3480156104c157600080fd5b506007546104d29063ffffffff1681565b60405163ffffffff9091168152602001610214565b3480156104f357600080fd5b50610261611631565b34801561050857600080fd5b506102b9610517366004612447565b611665565b34801561052857600080fd5b506102b96105373660046121f8565b61169c565b34801561054857600080fd5b5061020861055736600461247e565b6116f0565b34801561056857600080fd5b506102b961057736600461222d565b611a85565b34801561058857600080fd5b506102b96105973660046124bb565b611aa1565b3480156105a857600080fd5b5061023360025481565b3480156105be57600080fd5b506102086105cd366004612388565b6001600160a01b031660009081526004602052604090205460ff1690565b3480156105f757600080fd5b50610233611acd565b60006001600160e01b03198216637965db0b60e01b148061063157506301ffc9a760e01b6001600160e01b03198316145b92915050565b6000908152600080516020612658833981519152602052604090206001015490565b61066282610637565b61066b81611b15565b6106758383611b1f565b50505050565b60ff1961069760016000805160206126388339815191526124f6565b6040516020016106a991815260200190565b60405160208183030381529060405280519060200120166106c981611b15565b6106d4848484611bc4565b5050505050565b6001600160a01b03811633146107045760405163334bd91960e11b815260040160405180910390fd5b61070e8282611d3c565b505050565b600060ff1961073160016000805160206126388339815191526124f6565b60405160200161074391815260200190565b604051602081830303815290604052805190602001201661076381611b15565b46881461078357604051631a26aa4d60e21b815260040160405180910390fd5b60008781526003602052604090205460ff166107ba57604051632ef6974160e11b8152600481018890526024015b60405180910390fd5b604051309086156108fc029087906000818181858888f193505050501580156107e7573d6000803e3d6000fd5b5073eeeeeeeeeeeeeeeeeeeeeeeeeeeeeeeeeeeeeeee6000908152600560205260008051602061261883398151915280548792906108269084906124f6565b9091555050600054604051631eb65ffb60e01b81526001600160a01b0390911690631eb65ffb90610865908b908b908b908b908b908b90600401612509565b600060405180830381600087803b15801561087f57600080fd5b505af1158015610893573d6000803e3d6000fd5b5050604080518b8152602081018b90529081018890526001600160a01b03891692503091507f61d99af9dd09bd984d42cc07939d4cba4388e85aa29b3cc88df954e4ca719f329060600160405180910390a3506001979650505050505050565b600060ff1961091160016000805160206126388339815191526124f6565b60405160200161092391815260200190565b604051602081830303815290604052805190602001201661094381611b15565b464784111561096557604051632c1d501360e11b815260040160405180910390fd5b806208274f036109fe57600754604051636705b1e760e11b81526001600160a01b03871660048201526024810186905263ffffffff9091166044820181905273481b20a927206af7a754db8b904b052e2781ea279163ce0b63ce919087906064016000604051808303818589803b1580156109df57600080fd5b5088f11580156109f3573d6000803e3d6000fd5b505050505050610ac7565b8062aa37dc03610aae57600754604051631474f2a960e31b815273deaddeaddeaddeaddeaddeaddeaddeaddead000060048201526001600160a01b03871660248201526044810186905263ffffffff909116606482015260a06084820152600060a48201526010602160991b019063a3a7954890869060c4016000604051808303818588803b158015610a9057600080fd5b505af1158015610aa4573d6000803e3d6000fd5b5050505050610ac7565b604051639474dee160e01b815260040160405180910390fd5b604080514681524260208201526001600160a01b038716818301526060810186905290517ff1fa6dbbb3e74f1bef249f22545b238726c1cc79c5571a1416575674c7e63f399181900360800190a1506001949350505050565b6000468614610b4257604051631a26aa4d60e21b815260040160405180910390fd5b60008581526003602052604090205460ff16610b7457604051632ef6974160e11b8152600481018690526024016107b1565b6001600160a01b03831660009081526004602052604090205460ff16610bb857604051631e859bc960e01b81526001600160a01b03841660048201526024016107b1565b6040516370a0823160e01b81523060048201526000906001600160a01b038516906370a0823190602401602060405180830381865afa158015610bff573d6000803e3d6000fd5b505050506040513d601f19601f82011682018060405250810190610c23919061253a565b9050610c3a6001600160a01b038516333086611db8565b6040516370a0823160e01b81523060048201526000906001600160a01b038616906370a0823190602401602060405180830381865afa158015610c81573d6000803e3d6000fd5b505050506040513d601f19601f82011682018060405250810190610ca5919061253a565b90506000610cb383836124f6565b73eeeeeeeeeeeeeeeeeeeeeeeeeeeeeeeeeeeeeeee6000908152600560205260008051602061261883398151915280549293508792909190610cf6908490612553565b9091555050600254600090620f424090610d109084612566565b610d1a919061257d565b9050610d2681836124f6565b6001600160a01b038816600090815260066020526040812080549294508392909190610d53908490612553565b909155505060005460405163305f478560e21b81526001600160a01b039091169063c17d1e1490610d90908d908d908d908c90889060040161259f565b600060405180830381600087803b158015610daa57600080fd5b505af1158015610dbe573d6000803e3d6000fd5b5050604080518d8152602081018d90529081018590526001600160a01b03808c1693503392508a16907fece797608c81cc46a09f9859cf8ef650ec541b5da6989f30acb30dba9b8a40a49060600160405180910390a45060019998505050505050505050565b6000610e2f81611b15565b610e37611e1f565b50565b7ff0c57e16840df040f15088dc2f81fe391c3923bec73e23a9662efc9c229c6a008054600160401b810460ff16159067ffffffffffffffff16600081158015610e805750825b905060008267ffffffffffffffff166001148015610e9d5750303b155b905081158015610eab575080155b15610ec95760405163f92ee8a960e01b815260040160405180910390fd5b845467ffffffffffffffff191660011785558315610ef357845460ff60401b1916600160401b1785555b610efb611e7f565b610f03611e89565b610f0d8787611e99565b6007805463ffffffff1916620493e01790558315610f6557845460ff60401b19168555604051600181527fc7f505b2f371ae2175ee4913f4499e1f2633a7b5936321eed1cdaeb6115181d29060200160405180910390a15b50505050505050565b600060ff19610f8c60016000805160206126388339815191526124f6565b604051602001610f9e91815260200190565b6040516020818303038152906040528051906020012016610fbe81611b15565b468814610fde57604051631a26aa4d60e21b815260040160405180910390fd5b60008781526003602052604090205460ff1661101057604051632ef6974160e11b8152600481018890526024016107b1565b600061101a611631565b6040516323b872dd60e01b81523060048201526001600160a01b03898116602483015260448201899052919250908216906323b872dd906064016020604051808303816000875af1158015611073573d6000803e3d6000fd5b505050506040513d601f19601f8201168201806040525081019061109791906125cb565b50737b79995e5f793a07bc00c21412e50ecae098e7f9600090815260056020527f829e8def660755af2885cd0c70a20faf63a23880cdec1aa4b5f0ea2eb5e45a1580548892906110e89084906124f6565b9091555050600054604051631eb65ffb60e01b81526001600160a01b0390911690631eb65ffb90611127908c908c908c908c908c908c90600401612509565b600060405180830381600087803b15801561114157600080fd5b505af1158015611155573d6000803e3d6000fd5b5050604080518c8152602081018c90529081018990526001600160a01b038a1692503091507f7dc80be13e04000533f3763be4b9359a36a0aeb0daabbf09fd96c3a275c1cc149060600160405180910390a350600198975050505050505050565b60006111c181611b15565b50600255565b60006111d281611b15565b610e37611ee2565b6000918252600080516020612658833981519152602090815260408084206001600160a01b0393909316845291905290205460ff1690565b600060ff1961123060016000805160206126388339815191526124f6565b60405160200161124291815260200190565b604051602081830303815290604052805190602001201661126281611b15565b46891461128257604051631a26aa4d60e21b815260040160405180910390fd5b60008881526003602052604090205460ff166112b457604051632ef6974160e11b8152600481018990526024016107b1565b6001600160a01b03861660009081526004602052604090205460ff166112f857604051631e859bc960e01b81526001600160a01b03871660048201526024016107b1565b61130d6001600160a01b038716308988611db8565b73eeeeeeeeeeeeeeeeeeeeeeeeeeeeeeeeeeeeeeee60009081526005602052600080516020612618833981519152805487929061134b9084906124f6565b9091555050600054604051631eb65ffb60e01b81526001600160a01b0390911690631eb65ffb9061138a908c908c908c908b908b908b90600401612509565b600060405180830381600087803b1580156113a457600080fd5b505af11580156113b8573d6000803e3d6000fd5b5050604080518c8152602081018c90529081018890526001600160a01b03808b1693503092508916907f0f50ec03884adc78b9840a90cf8805a70ffe160f18d6b83198103b6fade443fe9060600160405180910390a450600198975050505050505050565b600046841461143f57604051631a26aa4d60e21b815260040160405180910390fd5b60008381526003602052604090205460ff1661147157604051632ef6974160e11b8152600481018490526024016107b1565b6001543410156114a1576001546040516358f8331360e11b815260048101919091523460248201526044016107b1565b73eeeeeeeeeeeeeeeeeeeeeeeeeeeeeeeeeeeeeeee6000908152600560205260008051602061261883398151915280543492906114df908490612553565b9091555050600254600090620f4240906114f99034612566565b611503919061257d565b9050600061151182346124f6565b73eeeeeeeeeeeeeeeeeeeeeeeeeeeeeeeeeeeeeeee600090815260066020527fa2e5aefc6e2cbe2917a296f0fd89c5f915c487c803db1d98eccb43f14012d71180549293508492909190611566908490612553565b909155505060005460405163305f478560e21b81526001600160a01b039091169063c17d1e14906115a3904690899089903490899060040161259f565b600060405180830381600087803b1580156115bd57600080fd5b505af11580156115d1573d6000803e3d6000fd5b505060408051898152602081018990529081018490526001600160a01b03871692503391507f0b671089787b6d29f730bc690214e6a7e28064fef5a3cdbb9b930a22fac01dc59060600160405180910390a36001925050505b9392505050565b6000466208274f81900361164d576004605360981b0191505090565b8062aa37dc03610aae576006602160991b0191505090565b600061167081611b15565b506001600160a01b03919091166000908152600460205260409020805460ff1916911515919091179055565b60ff196116b860016000805160206126388339815191526124f6565b6040516020016116ca91815260200190565b60405160208183030381529060405280519060200120166116ea81611b15565b50600155565b600046851461171257604051631a26aa4d60e21b815260040160405180910390fd5b60008481526003602052604090205460ff16611744576040516363b5c9db60e01b8152600481018590526024016107b1565b600061174e611631565b6040516370a0823160e01b81523060048201529091506000906001600160a01b038316906370a0823190602401602060405180830381865afa158015611798573d6000803e3d6000fd5b505050506040513d601f19601f820116820180604052508101906117bc919061253a565b6040516323b872dd60e01b8152336004820152306024820152604481018690529091506001600160a01b038316906323b872dd906064016020604051808303816000875af1158015611812573d6000803e3d6000fd5b505050506040513d601f19601f8201168201806040525081019061183691906125cb565b506040516370a0823160e01b81523060048201526000906001600160a01b038416906370a0823190602401602060405180830381865afa15801561187e573d6000803e3d6000fd5b505050506040513d601f19601f820116820180604052508101906118a2919061253a565b905060006118b083836124f6565b90506001548110156118e3576001546040516358f8331360e11b81526004810191909152602481018290526044016107b1565b737b79995e5f793a07bc00c21412e50ecae098e7f9600090815260056020527f829e8def660755af2885cd0c70a20faf63a23880cdec1aa4b5f0ea2eb5e45a158054839290611933908490612553565b9091555050600254600090620f42409061194d9084612566565b611957919061257d565b905061196381836124f6565b737b79995e5f793a07bc00c21412e50ecae098e7f9600090815260066020527f8ef771da3f30afd94a16eb54b799a2e73a5167bb0a9e2c1c2712198516aa80dc805492945083929091906119b8908490612553565b909155505060005460405163305f478560e21b81526001600160a01b039091169063c17d1e14906119f5908d908d908d908d90889060040161259f565b600060405180830381600087803b158015611a0f57600080fd5b505af1158015611a23573d6000803e3d6000fd5b5050604080518d8152602081018d90529081018590526001600160a01b038b1692503391507fcb9e641636f35317739cff2833f1831bf3a25b930b5615ada09367c080d64a899060600160405180910390a35060019998505050505050505050565b611a8e82610637565b611a9781611b15565b6106758383611d3c565b6000611aac81611b15565b50600091825260036020526040909120805460ff1916911515919091179055565b60ff19611ae960016000805160206126388339815191526124f6565b604051602001611afb91815260200190565b604051602081830303815290604052805190602001201681565b610e378133611f2b565b6000600080516020612658833981519152611b3a84846111da565b611bba576000848152602082815260408083206001600160a01b03871684529091529020805460ff19166001179055611b703390565b6001600160a01b0316836001600160a01b0316857f2f8788117e7eff1d82e926ec794901d17c78024a50270940304540a733656f0d60405160405180910390a46001915050610631565b6000915050610631565b6001600160a01b03831660009081526004602052604081205460ff16611c0857604051631e859bc960e01b81526001600160a01b03851660048201526024016107b1565b73eeeeeeeeeeeeeeeeeeeeeeeeeeeeeeeeeeeeeeed196001600160a01b03851601611c8a5781471015611c4e57604051632c1d501360e11b815260040160405180910390fd5b6040516001600160a01b0384169083156108fc029084906000818181858888f19350505050158015611c84573d6000803e3d6000fd5b50611d32565b6040516370a0823160e01b815230600482015282906001600160a01b038616906370a0823190602401602060405180830381865afa158015611cd0573d6000803e3d6000fd5b505050506040513d601f19601f82011682018060405250810190611cf4919061253a565b1015611d1e576040516311745b6160e21b81526001600160a01b03851660048201526024016107b1565b611d326001600160a01b0385168484611f68565b5060019392505050565b6000600080516020612658833981519152611d5784846111da565b15611bba576000848152602082815260408083206001600160a01b0387168085529252808320805460ff1916905551339287917ff6391f5c32d9c69d2a47ea670b442974b53935d1edc7fd64eb21e047a839171b9190a46001915050610631565b6040516001600160a01b0384811660248301528381166044830152606482018390526106759186918216906323b872dd906084015b604051602081830303815290604052915060e01b6020820180516001600160e01b038381831617835250505050611f99565b611e27611ffc565b600080516020612678833981519152805460ff191681557f5db9ee0a495bf2e6ff9c91a7834c1ba4fdd244a5e8aa4e537bd38aeae4b073aa335b6040516001600160a01b03909116815260200160405180910390a150565b611e8761202c565b565b611e9161202c565b611e87612075565b611ea161202c565b67016345785d8a0000600155612710600255611ebe600083611b1f565b50600080546001600160a01b0319166001600160a01b039290921691909117905550565b611eea612096565b600080516020612678833981519152805460ff191660011781557f62e78cea01bee320cd4e420270b5ea74000d11b0c9f74754ebdbfc544b05a25833611e61565b611f3582826111da565b611f645760405163e2517d3f60e01b81526001600160a01b0382166004820152602481018390526044016107b1565b5050565b6040516001600160a01b0383811660248301526044820183905261070e91859182169063a9059cbb90606401611ded565b6000611fae6001600160a01b038416836120c7565b90508051600014158015611fd3575080806020019051810190611fd191906125cb565b155b1561070e57604051635274afe760e01b81526001600160a01b03841660048201526024016107b1565b6000805160206126788339815191525460ff16611e8757604051638dfc202b60e01b815260040160405180910390fd5b7ff0c57e16840df040f15088dc2f81fe391c3923bec73e23a9662efc9c229c6a0054600160401b900460ff16611e8757604051631afcd79f60e31b815260040160405180910390fd5b61207d61202c565b600080516020612678833981519152805460ff19169055565b6000805160206126788339815191525460ff1615611e875760405163d93c066560e01b815260040160405180910390fd5b606061162a8383600084600080856001600160a01b031684866040516120ed91906125e8565b60006040518083038185875af1925050503d806000811461212a576040519150601f19603f3d011682016040523d82523d6000602084013e61212f565b606091505b509150915061213f868383612149565b9695505050505050565b60608261215e57612159826121a5565b61162a565b815115801561217557506001600160a01b0384163b155b1561219e57604051639996b31560e01b81526001600160a01b03851660048201526024016107b1565b508061162a565b8051156121b55780518082602001fd5b604051630a12f52160e11b815260040160405180910390fd5b6000602082840312156121e057600080fd5b81356001600160e01b03198116811461162a57600080fd5b60006020828403121561220a57600080fd5b5035919050565b80356001600160a01b038116811461222857600080fd5b919050565b6000806040838503121561224057600080fd5b8235915061225060208401612211565b90509250929050565b60008060006060848603121561226e57600080fd5b61227784612211565b925061228560208501612211565b9150604084013590509250925092565b60008060008060008060c087890312156122ae57600080fd5b86359550602087013594506122c560408801612211565b9350606087013592506080870135915060a087013590509295509295509295565b600080604083850312156122f957600080fd5b61230283612211565b946020939093013593505050565b600080600080600060a0868803121561232857600080fd5b853594506020860135935061233f60408701612211565b925061234d60608701612211565b949793965091946080013592915050565b6000806040838503121561237157600080fd5b61237a83612211565b915061225060208401612211565b60006020828403121561239a57600080fd5b61162a82612211565b600080600080600080600060e0888a0312156123be57600080fd5b87359650602088013595506123d560408901612211565b94506123e360608901612211565b9699959850939660808101359560a0820135955060c0909101359350915050565b60008060006060848603121561241957600080fd5b833592506020840135915061243060408501612211565b90509250925092565b8015158114610e3757600080fd5b6000806040838503121561245a57600080fd5b61246383612211565b9150602083013561247381612439565b809150509250929050565b6000806000806080858703121561249457600080fd5b84359350602085013592506124ab60408601612211565b9396929550929360600135925050565b600080604083850312156124ce57600080fd5b82359150602083013561247381612439565b634e487b7160e01b600052601160045260246000fd5b81810381811115610631576106316124e0565b95865260208601949094526001600160a01b039290921660408501526060840152608083015260a082015260c00190565b60006020828403121561254c57600080fd5b5051919050565b80820180821115610631576106316124e0565b8082028115828204841417610631576106316124e0565b60008261259a57634e487b7160e01b600052601260045260246000fd5b500490565b94855260208501939093526001600160a01b039190911660408401526060830152608082015260a00190565b6000602082840312156125dd57600080fd5b815161162a81612439565b6000825160005b8181101561260957602081860181015185830152016125ef565b50600092019182525091905056fea1829a9003092132f585b6ccdd167c19fe9774dbdea4260287e8a8e8ca8185d733fe247d78fee2e7fd135c405eda4bd2911c0a73c0a81b36c3bcc967dd06e5ae02dd7bc7dec4dceedda775e58dd541e08a116c6c53815c0bd028192f7b626800cd5ed15c6e187e77e9aee88184c21f4f2182ab5827cb3b7e07fbedcd63f03300a2646970667358221220d61a2e8aa5cb76bb7e9d2d1269da3b34137612bbe31232d197183901e2afe54b64736f6c63430008140033","linkReferences":{}},"methodIdentifiers":{"BridgeFinalizeERC20(uint256,uint256,address,address,uint256,uint256,uint256)":"92d84738","BridgeFinalizeETH(uint256,uint256,address,uint256,uint256,uint256)":"38731c47","BridgeFinalizeWETH(uint256,uint256,address,uint256,uint256,uint256)":"5765a4eb","BridgeInitiateERC20(uint256,uint256,address,address,uint256)":"3b0230f0","BridgeInitiateETH(uint256,uint256,address)":"9b442380","BridgeInitiateWETH(uint256,uint256,address,uint256)":"cd01c665","DEFAULT_ADMIN_ROLE()":"a217fddf","FeePoolValue(address)":"54dc027e","IsSupportChainId(uint256)":"72fe6a7e","IsSupportStableCoin(address)":"ed06da87","L2WETH()":"b1887e9b","MAX_GAS_Limit()":"a525ae2b","MinTransferAmount()":"09dc480c","PerFee()":"dd0c3460","QuickSendAssertToUser(address,address,uint256)":"325e5d43","ReLayer()":"fa861848","WithdrawETHtoL1(address,uint256)":"39891dd7","getRoleAdmin(bytes32)":"248a9ca3","grantRole(bytes32,address)":"2f2ff15d","hasRole(bytes32,address)":"91d14854","initialize(address,address)":"485cc955","messageManager()":"10875a13","pause()":"8456cb59","paused()":"5c975abb","renounceRole(bytes32,address)":"36568abe","revokeRole(bytes32,address)":"d547741f","setMinTransferAmount(uint256)":"b92e6396","setPerFee(uint256)":"650c2276","setSupportStableCoin(address,bool)":"b33280dd","setValidChainId(uint256,bool)":"d73f14e5","supportsInterface(bytes4)":"01ffc9a7","unpause()":"3f4ba83a"},"id":50}