{
  "abi": [
    {
      "inputs": [],
      "stateMutability": "nonpayable",
      "type": "constructor"
    },
    {
      "inputs": [],
      "name": "AccessControlBadConfirmation",
      "type": "error"
    },
    {
      "inputs": [
        {
          "internalType": "address",
          "name": "account",
          "type": "address"
        },
        {
          "internalType": "bytes32",
          "name": "neededRole",
          "type": "bytes32"
        }
      ],
      "name": "AccessControlUnauthorizedAccount",
      "type": "error"
    },
    {
      "inputs": [
        {
          "internalType": "address",
          "name": "target",
          "type": "address"
        }
      ],
      "name": "AddressEmptyCode",
      "type": "error"
    },
    {
      "inputs": [
        {
          "internalType": "address",
          "name": "account",
          "type": "address"
        }
      ],
      "name": "AddressInsufficientBalance",
      "type": "error"
    },
    {
      "inputs": [
        {
          "internalType": "uint256",
          "name": "id",
          "type": "uint256"
        }
      ],
      "name": "ChainIdIsNotSupported",
      "type": "error"
    },
    {
      "inputs": [
        {
          "internalType": "uint256",
          "name": "chainId",
          "type": "uint256"
        }
      ],
      "name": "ChainIdNotSupported",
      "type": "error"
    },
    {
      "inputs": [],
      "name": "EnforcedPause",
      "type": "error"
    },
    {
      "inputs": [],
      "name": "ErrorBlockChain",
      "type": "error"
    },
    {
      "inputs": [],
      "name": "ExpectedPause",
      "type": "error"
    },
    {
      "inputs": [],
      "name": "FailedInnerCall",
      "type": "error"
    },
    {
      "inputs": [],
      "name": "InvalidInitialization",
      "type": "error"
    },
    {
      "inputs": [
        {
          "internalType": "uint256",
          "name": "MinTransferAmount",
          "type": "uint256"
        },
        {
          "internalType": "uint256",
          "name": "value",
          "type": "uint256"
        }
      ],
      "name": "LessThanMinTransferAmount",
      "type": "error"
    },
    {
      "inputs": [],
      "name": "NotEnoughETH",
      "type": "error"
    },
    {
      "inputs": [
        {
          "internalType": "address",
          "name": "ERC20Address",
          "type": "address"
        }
      ],
      "name": "NotEnoughToken",
      "type": "error"
    },
    {
      "inputs": [],
      "name": "NotInitializing",
      "type": "error"
    },
    {
      "inputs": [],
      "name": "ReentrancyGuardReentrantCall",
      "type": "error"
    },
    {
      "inputs": [
        {
          "internalType": "address",
          "name": "token",
          "type": "address"
        }
      ],
      "name": "SafeERC20FailedOperation",
      "type": "error"
    },
    {
      "inputs": [
        {
          "internalType": "address",
          "name": "ERC20Address",
          "type": "address"
        }
      ],
      "name": "StableCoinNotSupported",
      "type": "error"
    },
    {
      "inputs": [],
      "name": "sourceChainIdError",
      "type": "error"
    },
    {
      "anonymous": false,
      "inputs": [
        {
          "indexed": false,
          "internalType": "uint256",
          "name": "sourceChainId",
          "type": "uint256"
        },
        {
          "indexed": false,
          "internalType": "uint256",
          "name": "destChainId",
          "type": "uint256"
        },
        {
          "indexed": true,
          "internalType": "address",
          "name": "ERC20Address",
          "type": "address"
        },
        {
          "indexed": true,
          "internalType": "address",
          "name": "from",
          "type": "address"
        },
        {
          "indexed": true,
          "internalType": "address",
          "name": "to",
          "type": "address"
        },
        {
          "indexed": false,
          "internalType": "uint256",
          "name": "value",
          "type": "uint256"
        }
      ],
      "name": "FinalizeERC20",
      "type": "event"
    },
    {
      "anonymous": false,
      "inputs": [
        {
          "indexed": false,
          "internalType": "uint256",
          "name": "sourceChainId",
          "type": "uint256"
        },
        {
          "indexed": false,
          "internalType": "uint256",
          "name": "destChainId",
          "type": "uint256"
        },
        {
          "indexed": true,
          "internalType": "address",
          "name": "from",
          "type": "address"
        },
        {
          "indexed": true,
          "internalType": "address",
          "name": "to",
          "type": "address"
        },
        {
          "indexed": false,
          "internalType": "uint256",
          "name": "value",
          "type": "uint256"
        }
      ],
      "name": "FinalizeETH",
      "type": "event"
    },
    {
      "anonymous": false,
      "inputs": [
        {
          "indexed": false,
          "internalType": "uint256",
          "name": "sourceChainId",
          "type": "uint256"
        },
        {
          "indexed": false,
          "internalType": "uint256",
          "name": "destChainId",
          "type": "uint256"
        },
        {
          "indexed": true,
          "internalType": "address",
          "name": "from",
          "type": "address"
        },
        {
          "indexed": true,
          "internalType": "address",
          "name": "to",
          "type": "address"
        },
        {
          "indexed": false,
          "internalType": "uint256",
          "name": "value",
          "type": "uint256"
        }
      ],
      "name": "FinalizeWETH",
      "type": "event"
    },
    {
      "anonymous": false,
      "inputs": [
        {
          "indexed": false,
          "internalType": "uint64",
          "name": "version",
          "type": "uint64"
        }
      ],
      "name": "Initialized",
      "type": "event"
    },
    {
      "anonymous": false,
      "inputs": [
        {
          "indexed": false,
          "internalType": "uint256",
          "name": "sourceChainId",
          "type": "uint256"
        },
        {
          "indexed": false,
          "internalType": "uint256",
          "name": "destChainId",
          "type": "uint256"
        },
        {
          "indexed": true,
          "internalType": "address",
          "name": "ERC20Address",
          "type": "address"
        },
        {
          "indexed": true,
          "internalType": "address",
          "name": "from",
          "type": "address"
        },
        {
          "indexed": true,
          "internalType": "address",
          "name": "to",
          "type": "address"
        },
        {
          "indexed": false,
          "internalType": "uint256",
          "name": "value",
          "type": "uint256"
        }
      ],
      "name": "InitiateERC20",
      "type": "event"
    },
    {
      "anonymous": false,
      "inputs": [
        {
          "indexed": false,
          "internalType": "uint256",
          "name": "sourceChainId",
          "type": "uint256"
        },
        {
          "indexed": false,
          "internalType": "uint256",
          "name": "destChainId",
          "type": "uint256"
        },
        {
          "indexed": true,
          "internalType": "address",
          "name": "from",
          "type": "address"
        },
        {
          "indexed": true,
          "internalType": "address",
          "name": "to",
          "type": "address"
        },
        {
          "indexed": false,
          "internalType": "uint256",
          "name": "value",
          "type": "uint256"
        }
      ],
      "name": "InitiateETH",
      "type": "event"
    },
    {
      "anonymous": false,
      "inputs": [
        {
          "indexed": false,
          "internalType": "uint256",
          "name": "sourceChainId",
          "type": "uint256"
        },
        {
          "indexed": false,
          "internalType": "uint256",
          "name": "destChainId",
          "type": "uint256"
        },
        {
          "indexed": true,
          "internalType": "address",
          "name": "from",
          "type": "address"
        },
        {
          "indexed": true,
          "internalType": "address",
          "name": "to",
          "type": "address"
        },
        {
          "indexed": false,
          "internalType": "uint256",
          "name": "value",
          "type": "uint256"
        }
      ],
      "name": "InitiateWETH",
      "type": "event"
    },
    {
      "anonymous": false,
      "inputs": [
        {
          "indexed": false,
          "internalType": "address",
          "name": "account",
          "type": "address"
        }
      ],
      "name": "Paused",
      "type": "event"
    },
    {
      "anonymous": false,
      "inputs": [
        {
          "indexed": true,
          "internalType": "bytes32",
          "name": "role",
          "type": "bytes32"
        },
        {
          "indexed": true,
          "internalType": "bytes32",
          "name": "previousAdminRole",
          "type": "bytes32"
        },
        {
          "indexed": true,
          "internalType": "bytes32",
          "name": "newAdminRole",
          "type": "bytes32"
        }
      ],
      "name": "RoleAdminChanged",
      "type": "event"
    },
    {
      "anonymous": false,
      "inputs": [
        {
          "indexed": true,
          "internalType": "bytes32",
          "name": "role",
          "type": "bytes32"
        },
        {
          "indexed": true,
          "internalType": "address",
          "name": "account",
          "type": "address"
        },
        {
          "indexed": true,
          "internalType": "address",
          "name": "sender",
          "type": "address"
        }
      ],
      "name": "RoleGranted",
      "type": "event"
    },
    {
      "anonymous": false,
      "inputs": [
        {
          "indexed": true,
          "internalType": "bytes32",
          "name": "role",
          "type": "bytes32"
        },
        {
          "indexed": true,
          "internalType": "address",
          "name": "account",
          "type": "address"
        },
        {
          "indexed": true,
          "internalType": "address",
          "name": "sender",
          "type": "address"
        }
      ],
      "name": "RoleRevoked",
      "type": "event"
    },
    {
      "anonymous": false,
      "inputs": [
        {
          "indexed": false,
          "internalType": "address",
          "name": "account",
          "type": "address"
        }
      ],
      "name": "Unpaused",
      "type": "event"
    },
    {
      "anonymous": false,
      "inputs": [
        {
          "indexed": false,
          "internalType": "uint256",
          "name": "chainId",
          "type": "uint256"
        },
        {
          "indexed": false,
          "internalType": "uint256",
          "name": "timestamp",
          "type": "uint256"
        },
        {
          "indexed": false,
          "internalType": "address",
          "name": "token",
          "type": "address"
        },
        {
          "indexed": false,
          "internalType": "address",
          "name": "to",
          "type": "address"
        },
        {
          "indexed": false,
          "internalType": "uint256",
          "name": "value",
          "type": "uint256"
        }
      ],
      "name": "WithdrawERC20toL1Success",
      "type": "event"
    },
    {
      "anonymous": false,
      "inputs": [
        {
          "indexed": false,
          "internalType": "uint256",
          "name": "chainId",
          "type": "uint256"
        },
        {
          "indexed": false,
          "internalType": "uint256",
          "name": "timestamp",
          "type": "uint256"
        },
        {
          "indexed": false,
          "internalType": "address",
          "name": "to",
          "type": "address"
        },
        {
          "indexed": false,
          "internalType": "uint256",
          "name": "value",
          "type": "uint256"
        }
      ],
      "name": "WithdrawETHtoL1Success",
      "type": "event"
    },
    {
      "anonymous": false,
      "inputs": [
        {
          "indexed": false,
          "internalType": "uint256",
          "name": "chainId",
          "type": "uint256"
        },
        {
          "indexed": false,
          "internalType": "uint256",
          "name": "timestamp",
          "type": "uint256"
        },
        {
          "indexed": false,
          "internalType": "address",
          "name": "to",
          "type": "address"
        },
        {
          "indexed": false,
          "internalType": "uint256",
          "name": "value",
          "type": "uint256"
        }
      ],
      "name": "WithdrawWETHtoL1Success",
      "type": "event"
    },
    {
      "inputs": [
        {
          "internalType": "uint256",
          "name": "sourceChainId",
          "type": "uint256"
        },
        {
          "internalType": "uint256",
          "name": "destChainId",
          "type": "uint256"
        },
        {
          "internalType": "address",
          "name": "to",
          "type": "address"
        },
        {
          "internalType": "address",
          "name": "ERC20Address",
          "type": "address"
        },
        {
          "internalType": "uint256",
          "name": "amount",
          "type": "uint256"
        },
        {
          "internalType": "uint256",
          "name": "_fee",
          "type": "uint256"
        },
        {
          "internalType": "uint256",
          "name": "_nonce",
          "type": "uint256"
        }
      ],
      "name": "BridgeFinalizeERC20",
      "outputs": [
        {
          "internalType": "bool",
          "name": "",
          "type": "bool"
        }
      ],
      "stateMutability": "nonpayable",
      "type": "function"
    },
    {
      "inputs": [
        {
          "internalType": "uint256",
          "name": "sourceChainId",
          "type": "uint256"
        },
        {
          "internalType": "uint256",
          "name": "destChainId",
          "type": "uint256"
        },
        {
          "internalType": "address",
          "name": "to",
          "type": "address"
        },
        {
          "internalType": "uint256",
          "name": "amount",
          "type": "uint256"
        },
        {
          "internalType": "uint256",
          "name": "_fee",
          "type": "uint256"
        },
        {
          "internalType": "uint256",
          "name": "_nonce",
          "type": "uint256"
        }
      ],
      "name": "BridgeFinalizeETH",
      "outputs": [
        {
          "internalType": "bool",
          "name": "",
          "type": "bool"
        }
      ],
      "stateMutability": "payable",
      "type": "function"
    },
    {
      "inputs": [
        {
          "internalType": "uint256",
          "name": "sourceChainId",
          "type": "uint256"
        },
        {
          "internalType": "uint256",
          "name": "destChainId",
          "type": "uint256"
        },
        {
          "internalType": "address",
          "name": "to",
          "type": "address"
        },
        {
          "internalType": "uint256",
          "name": "amount",
          "type": "uint256"
        },
        {
          "internalType": "uint256",
          "name": "_fee",
          "type": "uint256"
        },
        {
          "internalType": "uint256",
          "name": "_nonce",
          "type": "uint256"
        }
      ],
      "name": "BridgeFinalizeWETH",
      "outputs": [
        {
          "internalType": "bool",
          "name": "",
          "type": "bool"
        }
      ],
      "stateMutability": "nonpayable",
      "type": "function"
    },
    {
      "inputs": [
        {
          "internalType": "uint256",
          "name": "sourceChainId",
          "type": "uint256"
        },
        {
          "internalType": "uint256",
          "name": "destChainId",
          "type": "uint256"
        },
        {
          "internalType": "address",
          "name": "to",
          "type": "address"
        },
        {
          "internalType": "address",
          "name": "ERC20Address",
          "type": "address"
        },
        {
          "internalType": "uint256",
          "name": "value",
          "type": "uint256"
        }
      ],
      "name": "BridgeInitiateERC20",
      "outputs": [
        {
          "internalType": "bool",
          "name": "",
          "type": "bool"
        }
      ],
      "stateMutability": "nonpayable",
      "type": "function"
    },
    {
      "inputs": [
        {
          "internalType": "uint256",
          "name": "sourceChainId",
          "type": "uint256"
        },
        {
          "internalType": "uint256",
          "name": "destChainId",
          "type": "uint256"
        },
        {
          "internalType": "address",
          "name": "to",
          "type": "address"
        }
      ],
      "name": "BridgeInitiateETH",
      "outputs": [
        {
          "internalType": "bool",
          "name": "",
          "type": "bool"
        }
      ],
      "stateMutability": "payable",
      "type": "function"
    },
    {
      "inputs": [
        {
          "internalType": "uint256",
          "name": "sourceChainId",
          "type": "uint256"
        },
        {
          "internalType": "uint256",
          "name": "destChainId",
          "type": "uint256"
        },
        {
          "internalType": "address",
          "name": "to",
          "type": "address"
        },
        {
          "internalType": "uint256",
          "name": "value",
          "type": "uint256"
        }
      ],
      "name": "BridgeInitiateWETH",
      "outputs": [
        {
          "internalType": "bool",
          "name": "",
          "type": "bool"
        }
      ],
      "stateMutability": "nonpayable",
      "type": "function"
    },
    {
      "inputs": [],
      "name": "DEFAULT_ADMIN_ROLE",
      "outputs": [
        {
          "internalType": "bytes32",
          "name": "",
          "type": "bytes32"
        }
      ],
      "stateMutability": "view",
      "type": "function"
    },
    {
      "inputs": [
        {
          "internalType": "address",
          "name": "",
          "type": "address"
        }
      ],
      "name": "FeePoolValue",
      "outputs": [
        {
          "internalType": "uint256",
          "name": "",
          "type": "uint256"
        }
      ],
      "stateMutability": "view",
      "type": "function"
    },
    {
      "inputs": [
        {
          "internalType": "uint256",
          "name": "chainId",
          "type": "uint256"
        }
      ],
      "name": "IsSupportChainId",
      "outputs": [
        {
          "internalType": "bool",
          "name": "",
          "type": "bool"
        }
      ],
      "stateMutability": "view",
      "type": "function"
    },
    {
      "inputs": [
        {
          "internalType": "address",
          "name": "ERC20Address",
          "type": "address"
        }
      ],
      "name": "IsSupportStableCoin",
      "outputs": [
        {
          "internalType": "bool",
          "name": "",
          "type": "bool"
        }
      ],
      "stateMutability": "view",
      "type": "function"
    },
    {
      "inputs": [],
      "name": "L2WETH",
      "outputs": [
        {
          "internalType": "address",
          "name": "",
          "type": "address"
        }
      ],
      "stateMutability": "view",
      "type": "function"
    },
    {
      "inputs": [],
      "name": "MAX_GAS_Limit",
      "outputs": [
        {
          "internalType": "uint32",
          "name": "",
          "type": "uint32"
        }
      ],
      "stateMutability": "view",
      "type": "function"
    },
    {
      "inputs": [],
      "name": "MinTransferAmount",
      "outputs": [
        {
          "internalType": "uint256",
          "name": "",
          "type": "uint256"
        }
      ],
      "stateMutability": "view",
      "type": "function"
    },
    {
      "inputs": [],
      "name": "PerFee",
      "outputs": [
        {
          "internalType": "uint256",
          "name": "",
          "type": "uint256"
        }
      ],
      "stateMutability": "view",
      "type": "function"
    },
    {
      "inputs": [
        {
          "internalType": "address",
          "name": "_token",
          "type": "address"
        },
        {
          "internalType": "address",
          "name": "to",
          "type": "address"
        },
        {
          "internalType": "uint256",
          "name": "_amount",
          "type": "uint256"
        }
      ],
      "name": "QuickSendAssertToUser",
      "outputs": [],
      "stateMutability": "nonpayable",
      "type": "function"
    },
    {
      "inputs": [],
      "name": "ReLayer",
      "outputs": [
        {
          "internalType": "bytes32",
          "name": "",
          "type": "bytes32"
        }
      ],
      "stateMutability": "view",
      "type": "function"
    },
    {
      "inputs": [
        {
          "internalType": "address",
          "name": "_token",
          "type": "address"
        },
        {
          "internalType": "address",
          "name": "_to",
          "type": "address"
        },
        {
          "internalType": "uint256",
          "name": "_amount",
          "type": "uint256"
        }
      ],
      "name": "WithdrawERC20ToL1",
      "outputs": [
        {
          "internalType": "bool",
          "name": "",
          "type": "bool"
        }
      ],
      "stateMutability": "payable",
      "type": "function"
    },
    {
      "inputs": [
        {
          "internalType": "address",
          "name": "_to",
          "type": "address"
        },
        {
          "internalType": "uint256",
          "name": "_amount",
          "type": "uint256"
        }
      ],
      "name": "WithdrawETHtoL1",
      "outputs": [
        {
          "internalType": "bool",
          "name": "",
          "type": "bool"
        }
      ],
      "stateMutability": "payable",
      "type": "function"
    },
    {
      "inputs": [
        {
          "internalType": "address",
          "name": "_to",
          "type": "address"
        },
        {
          "internalType": "uint256",
          "name": "_amount",
          "type": "uint256"
        }
      ],
      "name": "WithdrawWETHToL1",
      "outputs": [
        {
          "internalType": "bool",
          "name": "",
          "type": "bool"
        }
      ],
      "stateMutability": "payable",
      "type": "function"
    },
    {
      "inputs": [
        {
          "internalType": "bytes32",
          "name": "role",
          "type": "bytes32"
        }
      ],
      "name": "getRoleAdmin",
      "outputs": [
        {
          "internalType": "bytes32",
          "name": "",
          "type": "bytes32"
        }
      ],
      "stateMutability": "view",
      "type": "function"
    },
    {
      "inputs": [
        {
          "internalType": "bytes32",
          "name": "role",
          "type": "bytes32"
        },
        {
          "internalType": "address",
          "name": "account",
          "type": "address"
        }
      ],
      "name": "grantRole",
      "outputs": [],
      "stateMutability": "nonpayable",
      "type": "function"
    },
    {
      "inputs": [
        {
          "internalType": "bytes32",
          "name": "role",
          "type": "bytes32"
        },
        {
          "internalType": "address",
          "name": "account",
          "type": "address"
        }
      ],
      "name": "hasRole",
      "outputs": [
        {
          "internalType": "bool",
          "name": "",
          "type": "bool"
        }
      ],
      "stateMutability": "view",
      "type": "function"
    },
    {
      "inputs": [
        {
          "internalType": "address",
          "name": "_MultisigWallet",
          "type": "address"
        },
        {
          "internalType": "address",
          "name": "_messageManager",
          "type": "address"
        }
      ],
      "name": "initialize",
      "outputs": [],
      "stateMutability": "nonpayable",
      "type": "function"
    },
    {
      "inputs": [],
      "name": "messageManager",
      "outputs": [
        {
          "internalType": "contract IMessageManager",
          "name": "",
          "type": "address"
        }
      ],
      "stateMutability": "view",
      "type": "function"
    },
    {
      "inputs": [],
      "name": "pause",
      "outputs": [],
      "stateMutability": "nonpayable",
      "type": "function"
    },
    {
      "inputs": [],
      "name": "paused",
      "outputs": [
        {
          "internalType": "bool",
          "name": "",
          "type": "bool"
        }
      ],
      "stateMutability": "view",
      "type": "function"
    },
    {
      "inputs": [
        {
          "internalType": "bytes32",
          "name": "role",
          "type": "bytes32"
        },
        {
          "internalType": "address",
          "name": "callerConfirmation",
          "type": "address"
        }
      ],
      "name": "renounceRole",
      "outputs": [],
      "stateMutability": "nonpayable",
      "type": "function"
    },
    {
      "inputs": [
        {
          "internalType": "bytes32",
          "name": "role",
          "type": "bytes32"
        },
        {
          "internalType": "address",
          "name": "account",
          "type": "address"
        }
      ],
      "name": "revokeRole",
      "outputs": [],
      "stateMutability": "nonpayable",
      "type": "function"
    },
    {
      "inputs": [
        {
          "internalType": "uint256",
          "name": "_MinTransferAmount",
          "type": "uint256"
        }
      ],
      "name": "setMinTransferAmount",
      "outputs": [],
      "stateMutability": "nonpayable",
      "type": "function"
    },
    {
      "inputs": [
        {
          "internalType": "uint256",
          "name": "_PerFee",
          "type": "uint256"
        }
      ],
      "name": "setPerFee",
      "outputs": [],
      "stateMutability": "nonpayable",
      "type": "function"
    },
    {
      "inputs": [
        {
          "internalType": "address",
          "name": "ERC20Address",
          "type": "address"
        },
        {
          "internalType": "bool",
          "name": "isValid",
          "type": "bool"
        }
      ],
      "name": "setSupportStableCoin",
      "outputs": [],
      "stateMutability": "nonpayable",
      "type": "function"
    },
    {
      "inputs": [
        {
          "internalType": "uint256",
          "name": "chainId",
          "type": "uint256"
        },
        {
          "internalType": "bool",
          "name": "isValid",
          "type": "bool"
        }
      ],
      "name": "setValidChainId",
      "outputs": [],
      "stateMutability": "nonpayable",
      "type": "function"
    },
    {
      "inputs": [
        {
          "internalType": "bytes4",
          "name": "interfaceId",
          "type": "bytes4"
        }
      ],
      "name": "supportsInterface",
      "outputs": [
        {
          "internalType": "bool",
          "name": "",
          "type": "bool"
        }
      ],
      "stateMutability": "view",
      "type": "function"
    },
    {
      "inputs": [],
      "name": "unpause",
      "outputs": [],
      "stateMutability": "nonpayable",
      "type": "function"
    }
  ],
  "bytecode": {
    "object": "0x60806040523480156200001157600080fd5b506200001c62000022565b620000d6565b7ff0c57e16840df040f15088dc2f81fe391c3923bec73e23a9662efc9c229c6a00805468010000000000000000900460ff1615620000735760405163f92ee8a960e01b815260040160405180910390fd5b80546001600160401b0390811614620000d35780546001600160401b0319166001600160401b0390811782556040519081527fc7f505b2f371ae2175ee4913f4499e1f2633a7b5936321eed1cdaeb6115181d29060200160405180910390a15b50565b612fce80620000e66000396000f3fe6080604052600436106101f95760003560e01c806372fe6a7e1161010d578063b33280dd116100a0578063d547741f1161006f578063d547741f14610598578063d73f14e5146105b8578063dd0c3460146105d8578063ed06da87146105ee578063fa8618481461060e57600080fd5b8063b33280dd14610525578063b92e639614610545578063cd01c66514610565578063d28597f41461058557600080fd5b80639b442380116100dc5780639b442380146104b6578063a217fddf146104c9578063a525ae2b146104de578063b1887e9b1461051057600080fd5b806372fe6a7e146104315780638456cb591461046157806391d148541461047657806392d847381461049657600080fd5b806338731c4711610190578063485cc9551161015f578063485cc9551461037f57806354dc027e1461039f5780635765a4eb146103cc5780635c975abb146103ec578063650c22761461041157600080fd5b806338731c471461032457806339891dd7146103375780633b0230f01461034a5780633f4ba83a1461036a57600080fd5b8063248a9ca3116101cc578063248a9ca3146102a25780632f2ff15d146102c2578063325e5d43146102e457806336568abe1461030457600080fd5b806301ffc9a7146101fe5780630227047a1461023357806309dc480c1461024657806310875a131461026a575b600080fd5b34801561020a57600080fd5b5061021e610219366004612a4b565b610623565b60405190151581526020015b60405180910390f35b61021e610241366004612a91565b61065a565b34801561025257600080fd5b5061025c60015481565b60405190815260200161022a565b34801561027657600080fd5b5060005461028a906001600160a01b031681565b6040516001600160a01b03909116815260200161022a565b3480156102ae57600080fd5b5061025c6102bd366004612acd565b610a6f565b3480156102ce57600080fd5b506102e26102dd366004612ae6565b610a91565b005b3480156102f057600080fd5b506102e26102ff366004612a91565b610ab3565b34801561031057600080fd5b506102e261031f366004612ae6565b610b13565b61021e610332366004612b12565b610b4b565b61021e610345366004612b63565b610d2f565b34801561035657600080fd5b5061021e610365366004612b8d565b610f6b565b34801561037657600080fd5b506102e261125c565b34801561038b57600080fd5b506102e261039a366004612bdb565b611272565b3480156103ab57600080fd5b5061025c6103ba366004612c05565b60066020526000908152604090205481565b3480156103d857600080fd5b5061021e6103e7366004612b12565b6113a6565b3480156103f857600080fd5b50600080516020612f798339815191525460ff1661021e565b34801561041d57600080fd5b506102e261042c366004612acd565b6115ee565b34801561043d57600080fd5b5061021e61044c366004612acd565b60009081526003602052604090205460ff1690565b34801561046d57600080fd5b506102e26115ff565b34801561048257600080fd5b5061021e610491366004612ae6565b611612565b3480156104a257600080fd5b5061021e6104b1366004612c20565b61164a565b61021e6104c4366004612c81565b611842565b3480156104d557600080fd5b5061025c600081565b3480156104ea57600080fd5b506007546104fb9063ffffffff1681565b60405163ffffffff909116815260200161022a565b34801561051c57600080fd5b5061028a611a56565b34801561053157600080fd5b506102e2610540366004612cc4565b611aac565b34801561055157600080fd5b506102e2610560366004612acd565b611ae3565b34801561057157600080fd5b5061021e610580366004612cfb565b611b37565b61021e610593366004612b63565b611ecc565b3480156105a457600080fd5b506102e26105b3366004612ae6565b6122f5565b3480156105c457600080fd5b506102e26105d3366004612d38565b612311565b3480156105e457600080fd5b5061025c60025481565b3480156105fa57600080fd5b5061021e610609366004612c05565b61233d565b34801561061a57600080fd5b5061025c61235b565b60006001600160e01b03198216637965db0b60e01b148061065457506301ffc9a760e01b6001600160e01b03198316145b92915050565b600060ff196106786001600080516020612f39833981519152612d73565b60405160200161068a91815260200190565b60405160208183030381529060405280519060200120166106aa816123a3565b466106b48661233d565b6106e157604051631e859bc960e01b81526001600160a01b03871660048201526024015b60405180910390fd5b8062082750036108065760405163095ea7b360e01b815273d8a791fe2be73eb6e6cf1eb0cb3f36adc9b3f8f96004820152602481018590526001600160a01b0387169063095ea7b3906044016020604051808303816000875af115801561074c573d6000803e3d6000fd5b505050506040513d601f19601f820116820180604052508101906107709190612d86565b5060075460405163a93a4af960e01b81526001600160a01b038089166004830152871660248201526044810186905263ffffffff9091166064820181905273d8a791fe2be73eb6e6cf1eb0cb3f36adc9b3f8f99163a93a4af99190608401600060405180830381600088803b1580156107e857600080fd5b5087f11580156107fc573d6000803e3d6000fd5b5050505050610a0d565b8061044d0361090c5760405163095ea7b360e01b8152732a3dd3eb832af982ec71669e178424b10dca2ede6004820152602481018590526001600160a01b0387169063095ea7b3906044016020604051808303816000875af1158015610870573d6000803e3d6000fd5b505050506040513d601f19601f820116820180604052508101906108949190612d86565b5060405163cd58657960e01b8152732a3dd3eb832af982ec71669e178424b10dca2ede9063cd586579906108d590600090899089908c908490600401612da3565b600060405180830381600087803b1580156108ef57600080fd5b505af1158015610903573d6000803e3d6000fd5b50505050610a0d565b80600a036109f45760405163095ea7b360e01b81526010602160991b016004820152602481018590526001600160a01b0387169063095ea7b3906044016020604051808303816000875af1158015610968573d6000803e3d6000fd5b505050506040513d601f19601f8201168201806040525081019061098c9190612d86565b50600754604051631474f2a960e31b81526010602160991b019163a3a795489187916109c7918b918b91859163ffffffff1690600401612dea565b6000604051808303818588803b1580156109e057600080fd5b505af11580156107fc573d6000803e3d6000fd5b604051639474dee160e01b815260040160405180910390fd5b604080514681524260208201526001600160a01b0388811682840152871660608201526080810186905290517f1bc1b1207e0c319b7baad0317c09f30575218af6f5a59f1f0f15de8d217672cc9181900360a00190a150600195945050505050565b6000908152600080516020612f59833981519152602052604090206001015490565b610a9a82610a6f565b610aa3816123a3565b610aad83836123ad565b50505050565b60ff19610acf6001600080516020612f39833981519152612d73565b604051602001610ae191815260200190565b6040516020818303038152906040528051906020012016610b01816123a3565b610b0c848484612452565b5050505050565b6001600160a01b0381163314610b3c5760405163334bd91960e11b815260040160405180910390fd5b610b4682826125b9565b505050565b600060ff19610b696001600080516020612f39833981519152612d73565b604051602001610b7b91815260200190565b6040516020818303038152906040528051906020012016610b9b816123a3565b468714610bbb57604051631a26aa4d60e21b815260040160405180910390fd5b60008881526003602052604090205460ff16610bed57604051632ef6974160e11b8152600481018990526024016106d8565b6040516001600160a01b0387169086156108fc029087906000818181858888f19350505050158015610c23573d6000803e3d6000fd5b5073eeeeeeeeeeeeeeeeeeeeeeeeeeeeeeeeeeeeeeee60009081526005602052600080516020612f198339815191528054879290610c62908490612d73565b9091555050600054604051631eb65ffb60e01b81526001600160a01b0390911690631eb65ffb90610ca1908b908b908b908b908b908b90600401612e27565b600060405180830381600087803b158015610cbb57600080fd5b505af1158015610ccf573d6000803e3d6000fd5b5050604080518b8152602081018b90529081018890526001600160a01b03891692503091507f61d99af9dd09bd984d42cc07939d4cba4388e85aa29b3cc88df954e4ca719f329060600160405180910390a3506001979650505050505050565b600060ff19610d4d6001600080516020612f39833981519152612d73565b604051602001610d5f91815260200190565b6040516020818303038152906040528051906020012016610d7f816123a3565b4647841115610da157604051632c1d501360e11b815260040160405180910390fd5b806208275003610e3a57600754604051636705b1e760e11b81526001600160a01b03871660048201526024810186905263ffffffff90911660448201819052737003e7b7186f0e6601203b99f7b8decbfa391cf99163ce0b63ce919087906064016000604051808303818589803b158015610e1b57600080fd5b5088f1158015610e2f573d6000803e3d6000fd5b505050505050610f12565b8061044d03610ebc5760405163cd58657960e01b8152732a3dd3eb832af982ec71669e178424b10dca2ede9063cd586579908690610e85906000908a90849083908190600401612da3565b6000604051808303818588803b158015610e9e57600080fd5b505af1158015610eb2573d6000803e3d6000fd5b5050505050610f12565b80600a036109f457600754604051631474f2a960e31b81526010602160991b019163a3a79548918791610e859173deaddeaddeaddeaddeaddeaddeaddeaddead0000918b91859163ffffffff1690600401612dea565b604080514681524260208201526001600160a01b038716818301526060810186905290517ff1fa6dbbb3e74f1bef249f22545b238726c1cc79c5571a1416575674c7e63f399181900360800190a1506001949350505050565b6000468614610f8d57604051631a26aa4d60e21b815260040160405180910390fd5b60008581526003602052604090205460ff16610fbf57604051632ef6974160e11b8152600481018690526024016106d8565b610fc88361233d565b610ff057604051631e859bc960e01b81526001600160a01b03841660048201526024016106d8565b6040516370a0823160e01b81523060048201526000906001600160a01b038516906370a0823190602401602060405180830381865afa158015611037573d6000803e3d6000fd5b505050506040513d601f19601f8201168201806040525081019061105b9190612e58565b90506110726001600160a01b038516333086612635565b6040516370a0823160e01b81523060048201526000906001600160a01b038616906370a0823190602401602060405180830381865afa1580156110b9573d6000803e3d6000fd5b505050506040513d601f19601f820116820180604052508101906110dd9190612e58565b905060006110eb8383612d73565b73eeeeeeeeeeeeeeeeeeeeeeeeeeeeeeeeeeeeeeee60009081526005602052600080516020612f198339815191528054929350879290919061112e908490612e71565b9091555050600254600090620f4240906111489084612e84565b6111529190612e9b565b905061115e8183612d73565b6001600160a01b03881660009081526006602052604081208054929450839290919061118b908490612e71565b909155505060005460405163305f478560e21b81526001600160a01b039091169063c17d1e14906111c8908d908d908d908c908890600401612ebd565b600060405180830381600087803b1580156111e257600080fd5b505af11580156111f6573d6000803e3d6000fd5b5050604080518d8152602081018d90529081018590526001600160a01b03808c1693503392508a16907fece797608c81cc46a09f9859cf8ef650ec541b5da6989f30acb30dba9b8a40a49060600160405180910390a45060019998505050505050505050565b6000611267816123a3565b61126f61269c565b50565b7ff0c57e16840df040f15088dc2f81fe391c3923bec73e23a9662efc9c229c6a008054600160401b810460ff16159067ffffffffffffffff166000811580156112b85750825b905060008267ffffffffffffffff1660011480156112d55750303b155b9050811580156112e3575080155b156113015760405163f92ee8a960e01b815260040160405180910390fd5b845467ffffffffffffffff19166001178555831561132b57845460ff60401b1916600160401b1785555b6113336126fc565b61133b612706565b6113458787612716565b6007805463ffffffff1916620493e0179055831561139d57845460ff60401b19168555604051600181527fc7f505b2f371ae2175ee4913f4499e1f2633a7b5936321eed1cdaeb6115181d29060200160405180910390a15b50505050505050565b600060ff196113c46001600080516020612f39833981519152612d73565b6040516020016113d691815260200190565b60405160208183030381529060405280519060200120166113f6816123a3565b46871461141657604051631a26aa4d60e21b815260040160405180910390fd5b60008881526003602052604090205460ff1661144857604051632ef6974160e11b8152600481018990526024016106d8565b6000611452611a56565b6040516323b872dd60e01b81523060048201526001600160a01b03898116602483015260448201899052919250908216906323b872dd906064016020604051808303816000875af11580156114ab573d6000803e3d6000fd5b505050506040513d601f19601f820116820180604052508101906114cf9190612d86565b5073c02aaa39b223fe8d0a0e5c4f27ead9083c756cc2600090815260056020527fa550ba85c46b24b567d2e17cd597f2283877afab43603f46d5de7858f1bdb7318054889290611520908490612d73565b9091555050600054604051631eb65ffb60e01b81526001600160a01b0390911690631eb65ffb9061155f908c908c908c908c908c908c90600401612e27565b600060405180830381600087803b15801561157957600080fd5b505af115801561158d573d6000803e3d6000fd5b5050604080518c8152602081018c90529081018990526001600160a01b038a1692503091507f7dc80be13e04000533f3763be4b9359a36a0aeb0daabbf09fd96c3a275c1cc149060600160405180910390a350600198975050505050505050565b60006115f9816123a3565b50600255565b600061160a816123a3565b61126f61275f565b6000918252600080516020612f59833981519152602090815260408084206001600160a01b0393909316845291905290205460ff1690565b600060ff196116686001600080516020612f39833981519152612d73565b60405160200161167a91815260200190565b604051602081830303815290604052805190602001201661169a816123a3565b4688146116ba57604051631a26aa4d60e21b815260040160405180910390fd5b60008981526003602052604090205460ff166116ec57604051632ef6974160e11b8152600481018a90526024016106d8565b6116f58661233d565b61171d57604051631e859bc960e01b81526001600160a01b03871660048201526024016106d8565b6117326001600160a01b038716308988612635565b73eeeeeeeeeeeeeeeeeeeeeeeeeeeeeeeeeeeeeeee60009081526005602052600080516020612f198339815191528054879290611770908490612d73565b9091555050600054604051631eb65ffb60e01b81526001600160a01b0390911690631eb65ffb906117af908c908c908c908b908b908b90600401612e27565b600060405180830381600087803b1580156117c957600080fd5b505af11580156117dd573d6000803e3d6000fd5b5050604080518c8152602081018c90529081018890526001600160a01b03808b1693503092508916907f0f50ec03884adc78b9840a90cf8805a70ffe160f18d6b83198103b6fade443fe9060600160405180910390a450600198975050505050505050565b600046841461186457604051631a26aa4d60e21b815260040160405180910390fd5b60008381526003602052604090205460ff1661189657604051632ef6974160e11b8152600481018490526024016106d8565b6001543410156118c6576001546040516358f8331360e11b815260048101919091523460248201526044016106d8565b73eeeeeeeeeeeeeeeeeeeeeeeeeeeeeeeeeeeeeeee60009081526005602052600080516020612f198339815191528054349290611904908490612e71565b9091555050600254600090620f42409061191e9034612e84565b6119289190612e9b565b905060006119368234612d73565b73eeeeeeeeeeeeeeeeeeeeeeeeeeeeeeeeeeeeeeee600090815260066020527fa2e5aefc6e2cbe2917a296f0fd89c5f915c487c803db1d98eccb43f14012d7118054929350849290919061198b908490612e71565b909155505060005460405163305f478560e21b81526001600160a01b039091169063c17d1e14906119c89046908990899034908990600401612ebd565b600060405180830381600087803b1580156119e257600080fd5b505af11580156119f6573d6000803e3d6000fd5b505060408051898152602081018990529081018490526001600160a01b03871692503391507f0b671089787b6d29f730bc690214e6a7e28064fef5a3cdbb9b930a22fac01dc59060600160405180910390a36001925050505b9392505050565b60004662082750819003611a72576004605360981b0191505090565b8061044d03611a9657734f9a0e7fd2bf6067db6994cf12e4495df938e6e991505090565b80600a036109f4576006602160991b0191505090565b6000611ab7816123a3565b506001600160a01b03919091166000908152600460205260409020805460ff1916911515919091179055565b60ff19611aff6001600080516020612f39833981519152612d73565b604051602001611b1191815260200190565b6040516020818303038152906040528051906020012016611b31816123a3565b50600155565b6000468514611b5957604051631a26aa4d60e21b815260040160405180910390fd5b60008481526003602052604090205460ff16611b8b576040516363b5c9db60e01b8152600481018590526024016106d8565b6000611b95611a56565b6040516370a0823160e01b81523060048201529091506000906001600160a01b038316906370a0823190602401602060405180830381865afa158015611bdf573d6000803e3d6000fd5b505050506040513d601f19601f82011682018060405250810190611c039190612e58565b6040516323b872dd60e01b8152336004820152306024820152604481018690529091506001600160a01b038316906323b872dd906064016020604051808303816000875af1158015611c59573d6000803e3d6000fd5b505050506040513d601f19601f82011682018060405250810190611c7d9190612d86565b506040516370a0823160e01b81523060048201526000906001600160a01b038416906370a0823190602401602060405180830381865afa158015611cc5573d6000803e3d6000fd5b505050506040513d601f19601f82011682018060405250810190611ce99190612e58565b90506000611cf78383612d73565b9050600154811015611d2a576001546040516358f8331360e11b81526004810191909152602481018290526044016106d8565b73c02aaa39b223fe8d0a0e5c4f27ead9083c756cc2600090815260056020527fa550ba85c46b24b567d2e17cd597f2283877afab43603f46d5de7858f1bdb7318054839290611d7a908490612e71565b9091555050600254600090620f424090611d949084612e84565b611d9e9190612e9b565b9050611daa8183612d73565b73c02aaa39b223fe8d0a0e5c4f27ead9083c756cc2600090815260066020527f5e5777fab7622aff3c042c1ece74307c2e9d699a9da444f416c35f2e1def28a580549294508392909190611dff908490612e71565b909155505060005460405163305f478560e21b81526001600160a01b039091169063c17d1e1490611e3c908d908d908d908d908890600401612ebd565b600060405180830381600087803b158015611e5657600080fd5b505af1158015611e6a573d6000803e3d6000fd5b5050604080518d8152602081018d90529081018590526001600160a01b038b1692503391507fcb9e641636f35317739cff2833f1831bf3a25b930b5615ada09367c080d64a899060600160405180910390a35060019998505050505050505050565b600060ff19611eea6001600080516020612f39833981519152612d73565b604051602001611efc91815260200190565b6040516020818303038152906040528051906020012016611f1c816123a3565b466000611f27611a56565b6040516370a0823160e01b81523060048201529091506001600160a01b038216906370a0823190602401602060405180830381865afa158015611f6e573d6000803e3d6000fd5b505050506040513d601f19601f82011682018060405250810190611f929190612e58565b851115611fbd576040516311745b6160e21b81526001600160a01b03821660048201526024016106d8565b8162082750036120e25760405163095ea7b360e01b8152737003e7b7186f0e6601203b99f7b8decbfa391cf96004820152602481018690526001600160a01b0382169063095ea7b3906044016020604051808303816000875af1158015612028573d6000803e3d6000fd5b505050506040513d601f19601f8201168201806040525081019061204c9190612d86565b5060075460405163a93a4af960e01b81526001600160a01b038084166004830152881660248201526044810187905263ffffffff90911660648201819052737003e7b7186f0e6601203b99f7b8decbfa391cf99163a93a4af99190608401600060405180830381600088803b1580156120c457600080fd5b5087f11580156120d8573d6000803e3d6000fd5b505050505061229b565b8161044d036121e05760405163095ea7b360e01b8152732a3dd3eb832af982ec71669e178424b10dca2ede6004820152602481018690526001600160a01b0382169063095ea7b3906044016020604051808303816000875af115801561214c573d6000803e3d6000fd5b505050506040513d601f19601f820116820180604052508101906121709190612d86565b5060405163cd58657960e01b8152732a3dd3eb832af982ec71669e178424b10dca2ede9063cd5865799087906121b3906000908b90849083908190600401612da3565b6000604051808303818588803b1580156121cc57600080fd5b505af11580156120d8573d6000803e3d6000fd5b81600a036109f45760405163095ea7b360e01b81526010602160991b016004820152602481018690526001600160a01b0382169063095ea7b3906044016020604051808303816000875af115801561223c573d6000803e3d6000fd5b505050506040513d601f19601f820116820180604052508101906122609190612d86565b50600754604051631474f2a960e31b81526010602160991b019163a3a795489188916121b39186918c91859163ffffffff1690600401612dea565b604080514681524260208201526001600160a01b038816818301526060810187905290517fcb1a101498aadad4159168d719f955e559e768912e6f5f5c57b094eb047d000f9181900360800190a150600195945050505050565b6122fe82610a6f565b612307816123a3565b610aad83836125b9565b600061231c816123a3565b50600091825260036020526040909120805460ff1916911515919091179055565b6001600160a01b031660009081526004602052604090205460ff1690565b60ff196123776001600080516020612f39833981519152612d73565b60405160200161238991815260200190565b604051602081830303815290604052805190602001201681565b61126f81336127a8565b6000600080516020612f598339815191526123c88484611612565b612448576000848152602082815260408083206001600160a01b03871684529091529020805460ff191660011790556123fe3390565b6001600160a01b0316836001600160a01b0316857f2f8788117e7eff1d82e926ec794901d17c78024a50270940304540a733656f0d60405160405180910390a46001915050610654565b6000915050610654565b600061245d8461233d565b61248557604051631e859bc960e01b81526001600160a01b03851660048201526024016106d8565b73eeeeeeeeeeeeeeeeeeeeeeeeeeeeeeeeeeeeeeed196001600160a01b0385160161250757814710156124cb57604051632c1d501360e11b815260040160405180910390fd5b6040516001600160a01b0384169083156108fc029084906000818181858888f19350505050158015612501573d6000803e3d6000fd5b506125af565b6040516370a0823160e01b815230600482015282906001600160a01b038616906370a0823190602401602060405180830381865afa15801561254d573d6000803e3d6000fd5b505050506040513d601f19601f820116820180604052508101906125719190612e58565b101561259b576040516311745b6160e21b81526001600160a01b03851660048201526024016106d8565b6125af6001600160a01b03851684846127e5565b5060019392505050565b6000600080516020612f598339815191526125d48484611612565b15612448576000848152602082815260408083206001600160a01b0387168085529252808320805460ff1916905551339287917ff6391f5c32d9c69d2a47ea670b442974b53935d1edc7fd64eb21e047a839171b9190a46001915050610654565b6040516001600160a01b038481166024830152838116604483015260648201839052610aad9186918216906323b872dd906084015b604051602081830303815290604052915060e01b6020820180516001600160e01b038381831617835250505050612816565b6126a4612879565b600080516020612f79833981519152805460ff191681557f5db9ee0a495bf2e6ff9c91a7834c1ba4fdd244a5e8aa4e537bd38aeae4b073aa335b6040516001600160a01b03909116815260200160405180910390a150565b6127046128a9565b565b61270e6128a9565b6127046128f2565b61271e6128a9565b67016345785d8a000060015561271060025561273b6000836123ad565b50600080546001600160a01b0319166001600160a01b039290921691909117905550565b612767612913565b600080516020612f79833981519152805460ff191660011781557f62e78cea01bee320cd4e420270b5ea74000d11b0c9f74754ebdbfc544b05a258336126de565b6127b28282611612565b6127e15760405163e2517d3f60e01b81526001600160a01b0382166004820152602481018390526044016106d8565b5050565b6040516001600160a01b03838116602483015260448201839052610b4691859182169063a9059cbb9060640161266a565b600061282b6001600160a01b03841683612944565b9050805160001415801561285057508080602001905181019061284e9190612d86565b155b15610b4657604051635274afe760e01b81526001600160a01b03841660048201526024016106d8565b600080516020612f798339815191525460ff1661270457604051638dfc202b60e01b815260040160405180910390fd5b7ff0c57e16840df040f15088dc2f81fe391c3923bec73e23a9662efc9c229c6a0054600160401b900460ff1661270457604051631afcd79f60e31b815260040160405180910390fd5b6128fa6128a9565b600080516020612f79833981519152805460ff19169055565b600080516020612f798339815191525460ff16156127045760405163d93c066560e01b815260040160405180910390fd5b6060611a4f8383600084600080856001600160a01b0316848660405161296a9190612ee9565b60006040518083038185875af1925050503d80600081146129a7576040519150601f19603f3d011682016040523d82523d6000602084013e6129ac565b606091505b50915091506129bc8683836129c6565b9695505050505050565b6060826129db576129d682612a22565b611a4f565b81511580156129f257506001600160a01b0384163b155b15612a1b57604051639996b31560e01b81526001600160a01b03851660048201526024016106d8565b5080611a4f565b805115612a325780518082602001fd5b604051630a12f52160e11b815260040160405180910390fd5b600060208284031215612a5d57600080fd5b81356001600160e01b031981168114611a4f57600080fd5b80356001600160a01b0381168114612a8c57600080fd5b919050565b600080600060608486031215612aa657600080fd5b612aaf84612a75565b9250612abd60208501612a75565b9150604084013590509250925092565b600060208284031215612adf57600080fd5b5035919050565b60008060408385031215612af957600080fd5b82359150612b0960208401612a75565b90509250929050565b60008060008060008060c08789031215612b2b57600080fd5b8635955060208701359450612b4260408801612a75565b9350606087013592506080870135915060a087013590509295509295509295565b60008060408385031215612b7657600080fd5b612b7f83612a75565b946020939093013593505050565b600080600080600060a08688031215612ba557600080fd5b8535945060208601359350612bbc60408701612a75565b9250612bca60608701612a75565b949793965091946080013592915050565b60008060408385031215612bee57600080fd5b612bf783612a75565b9150612b0960208401612a75565b600060208284031215612c1757600080fd5b611a4f82612a75565b600080600080600080600060e0888a031215612c3b57600080fd5b8735965060208801359550612c5260408901612a75565b9450612c6060608901612a75565b9699959850939660808101359560a0820135955060c0909101359350915050565b600080600060608486031215612c9657600080fd5b8335925060208401359150612cad60408501612a75565b90509250925092565b801515811461126f57600080fd5b60008060408385031215612cd757600080fd5b612ce083612a75565b91506020830135612cf081612cb6565b809150509250929050565b60008060008060808587031215612d1157600080fd5b8435935060208501359250612d2860408601612a75565b9396929550929360600135925050565b60008060408385031215612d4b57600080fd5b823591506020830135612cf081612cb6565b634e487b7160e01b600052601160045260246000fd5b8181038181111561065457610654612d5d565b600060208284031215612d9857600080fd5b8151611a4f81612cb6565b63ffffffff9590951685526001600160a01b039384166020860152604085019290925290911660608301521515608082015260c060a0820181905260009082015260e00190565b6001600160a01b039485168152929093166020830152604082015263ffffffff909116606082015260a06080820181905260009082015260c00190565b95865260208601949094526001600160a01b039290921660408501526060840152608083015260a082015260c00190565b600060208284031215612e6a57600080fd5b5051919050565b8082018082111561065457610654612d5d565b808202811582820484141761065457610654612d5d565b600082612eb857634e487b7160e01b600052601260045260246000fd5b500490565b94855260208501939093526001600160a01b039190911660408401526060830152608082015260a00190565b6000825160005b81811015612f0a5760208186018101518583015201612ef0565b50600092019182525091905056fea1829a9003092132f585b6ccdd167c19fe9774dbdea4260287e8a8e8ca8185d733fe247d78fee2e7fd135c405eda4bd2911c0a73c0a81b36c3bcc967dd06e5ae02dd7bc7dec4dceedda775e58dd541e08a116c6c53815c0bd028192f7b626800cd5ed15c6e187e77e9aee88184c21f4f2182ab5827cb3b7e07fbedcd63f03300a2646970667358221220a0841d6f5872f8846f6d270c67c12f4dd8f195668db5d6a7064f20ef866ca26a64736f6c63430008140033",
    "linkReferences": {}
  },
  "methodIdentifiers": {
    "BridgeFinalizeERC20(uint256,uint256,address,address,uint256,uint256,uint256)": "92d84738",
    "BridgeFinalizeETH(uint256,uint256,address,uint256,uint256,uint256)": "38731c47",
    "BridgeFinalizeWETH(uint256,uint256,address,uint256,uint256,uint256)": "5765a4eb",
    "BridgeInitiateERC20(uint256,uint256,address,address,uint256)": "3b0230f0",
    "BridgeInitiateETH(uint256,uint256,address)": "9b442380",
    "BridgeInitiateWETH(uint256,uint256,address,uint256)": "cd01c665",
    "DEFAULT_ADMIN_ROLE()": "a217fddf",
    "FeePoolValue(address)": "54dc027e",
    "IsSupportChainId(uint256)": "72fe6a7e",
    "IsSupportStableCoin(address)": "ed06da87",
    "L2WETH()": "b1887e9b",
    "MAX_GAS_Limit()": "a525ae2b",
    "MinTransferAmount()": "09dc480c",
    "PerFee()": "dd0c3460",
    "QuickSendAssertToUser(address,address,uint256)": "325e5d43",
    "ReLayer()": "fa861848",
    "WithdrawERC20ToL1(address,address,uint256)": "0227047a",
    "WithdrawETHtoL1(address,uint256)": "39891dd7",
    "WithdrawWETHToL1(address,uint256)": "d28597f4",
    "getRoleAdmin(bytes32)": "248a9ca3",
    "grantRole(bytes32,address)": "2f2ff15d",
    "hasRole(bytes32,address)": "91d14854",
    "initialize(address,address)": "485cc955",
    "messageManager()": "10875a13",
    "pause()": "8456cb59",
    "paused()": "5c975abb",
    "renounceRole(bytes32,address)": "36568abe",
    "revokeRole(bytes32,address)": "d547741f",
    "setMinTransferAmount(uint256)": "b92e6396",
    "setPerFee(uint256)": "650c2276",
    "setSupportStableCoin(address,bool)": "b33280dd",
    "setValidChainId(uint256,bool)": "d73f14e5",
    "supportsInterface(bytes4)": "01ffc9a7",
    "unpause()": "3f4ba83a"
  },
  "id": 58
}