{
  "abi": [
    {
      "inputs": [],
      "stateMutability": "nonpayable",
      "type": "constructor"
    },
    {
      "inputs": [],
      "name": "AccessControlBadConfirmation",
      "type": "error"
    },
    {
      "inputs": [
        {
          "internalType": "address",
          "name": "account",
          "type": "address"
        },
        {
          "internalType": "bytes32",
          "name": "neededRole",
          "type": "bytes32"
        }
      ],
      "name": "AccessControlUnauthorizedAccount",
      "type": "error"
    },
    {
      "inputs": [
        {
          "internalType": "address",
          "name": "target",
          "type": "address"
        }
      ],
      "name": "AddressEmptyCode",
      "type": "error"
    },
    {
      "inputs": [
        {
          "internalType": "address",
          "name": "account",
          "type": "address"
        }
      ],
      "name": "AddressInsufficientBalance",
      "type": "error"
    },
    {
      "inputs": [
        {
          "internalType": "uint256",
          "name": "id",
          "type": "uint256"
        }
      ],
      "name": "ChainIdIsNotSupported",
      "type": "error"
    },
    {
      "inputs": [
        {
          "internalType": "uint256",
          "name": "chainId",
          "type": "uint256"
        }
      ],
      "name": "ChainIdNotSupported",
      "type": "error"
    },
    {
      "inputs": [],
      "name": "EnforcedPause",
      "type": "error"
    },
    {
      "inputs": [],
      "name": "ErrorBlockChain",
      "type": "error"
    },
    {
      "inputs": [],
      "name": "ExpectedPause",
      "type": "error"
    },
    {
      "inputs": [],
      "name": "FailedInnerCall",
      "type": "error"
    },
    {
      "inputs": [],
      "name": "InvalidInitialization",
      "type": "error"
    },
    {
      "inputs": [
        {
          "internalType": "uint256",
          "name": "MinTransferAmount",
          "type": "uint256"
        },
        {
          "internalType": "uint256",
          "name": "value",
          "type": "uint256"
        }
      ],
      "name": "LessThanMinTransferAmount",
      "type": "error"
    },
    {
      "inputs": [],
      "name": "NotEnoughETH",
      "type": "error"
    },
    {
      "inputs": [
        {
          "internalType": "address",
          "name": "ERC20Address",
          "type": "address"
        }
      ],
      "name": "NotEnoughToken",
      "type": "error"
    },
    {
      "inputs": [],
      "name": "NotInitializing",
      "type": "error"
    },
    {
      "inputs": [],
      "name": "ReentrancyGuardReentrantCall",
      "type": "error"
    },
    {
      "inputs": [
        {
          "internalType": "address",
          "name": "token",
          "type": "address"
        }
      ],
      "name": "SafeERC20FailedOperation",
      "type": "error"
    },
    {
      "inputs": [
        {
          "internalType": "address",
          "name": "ERC20Address",
          "type": "address"
        }
      ],
      "name": "StableCoinNotSupported",
      "type": "error"
    },
    {
      "inputs": [],
      "name": "sourceChainIdError",
      "type": "error"
    },
    {
      "anonymous": false,
      "inputs": [
        {
          "indexed": false,
          "internalType": "uint256",
          "name": "sourceChainId",
          "type": "uint256"
        },
        {
          "indexed": false,
          "internalType": "uint256",
          "name": "destChainId",
          "type": "uint256"
        },
        {
          "indexed": true,
          "internalType": "address",
          "name": "ERC20Address",
          "type": "address"
        },
        {
          "indexed": true,
          "internalType": "address",
          "name": "from",
          "type": "address"
        },
        {
          "indexed": true,
          "internalType": "address",
          "name": "to",
          "type": "address"
        },
        {
          "indexed": false,
          "internalType": "uint256",
          "name": "value",
          "type": "uint256"
        }
      ],
      "name": "FinalizeERC20",
      "type": "event"
    },
    {
      "anonymous": false,
      "inputs": [
        {
          "indexed": false,
          "internalType": "uint256",
          "name": "sourceChainId",
          "type": "uint256"
        },
        {
          "indexed": false,
          "internalType": "uint256",
          "name": "destChainId",
          "type": "uint256"
        },
        {
          "indexed": true,
          "internalType": "address",
          "name": "from",
          "type": "address"
        },
        {
          "indexed": true,
          "internalType": "address",
          "name": "to",
          "type": "address"
        },
        {
          "indexed": false,
          "internalType": "uint256",
          "name": "value",
          "type": "uint256"
        }
      ],
      "name": "FinalizeETH",
      "type": "event"
    },
    {
      "anonymous": false,
      "inputs": [
        {
          "indexed": false,
          "internalType": "uint256",
          "name": "sourceChainId",
          "type": "uint256"
        },
        {
          "indexed": false,
          "internalType": "uint256",
          "name": "destChainId",
          "type": "uint256"
        },
        {
          "indexed": true,
          "internalType": "address",
          "name": "from",
          "type": "address"
        },
        {
          "indexed": true,
          "internalType": "address",
          "name": "to",
          "type": "address"
        },
        {
          "indexed": false,
          "internalType": "uint256",
          "name": "value",
          "type": "uint256"
        }
      ],
      "name": "FinalizeWETH",
      "type": "event"
    },
    {
      "anonymous": false,
      "inputs": [
        {
          "indexed": false,
          "internalType": "uint64",
          "name": "version",
          "type": "uint64"
        }
      ],
      "name": "Initialized",
      "type": "event"
    },
    {
      "anonymous": false,
      "inputs": [
        {
          "indexed": false,
          "internalType": "uint256",
          "name": "sourceChainId",
          "type": "uint256"
        },
        {
          "indexed": false,
          "internalType": "uint256",
          "name": "destChainId",
          "type": "uint256"
        },
        {
          "indexed": true,
          "internalType": "address",
          "name": "ERC20Address",
          "type": "address"
        },
        {
          "indexed": true,
          "internalType": "address",
          "name": "from",
          "type": "address"
        },
        {
          "indexed": true,
          "internalType": "address",
          "name": "to",
          "type": "address"
        },
        {
          "indexed": false,
          "internalType": "uint256",
          "name": "value",
          "type": "uint256"
        }
      ],
      "name": "InitiateERC20",
      "type": "event"
    },
    {
      "anonymous": false,
      "inputs": [
        {
          "indexed": false,
          "internalType": "uint256",
          "name": "sourceChainId",
          "type": "uint256"
        },
        {
          "indexed": false,
          "internalType": "uint256",
          "name": "destChainId",
          "type": "uint256"
        },
        {
          "indexed": true,
          "internalType": "address",
          "name": "from",
          "type": "address"
        },
        {
          "indexed": true,
          "internalType": "address",
          "name": "to",
          "type": "address"
        },
        {
          "indexed": false,
          "internalType": "uint256",
          "name": "value",
          "type": "uint256"
        }
      ],
      "name": "InitiateETH",
      "type": "event"
    },
    {
      "anonymous": false,
      "inputs": [
        {
          "indexed": false,
          "internalType": "uint256",
          "name": "sourceChainId",
          "type": "uint256"
        },
        {
          "indexed": false,
          "internalType": "uint256",
          "name": "destChainId",
          "type": "uint256"
        },
        {
          "indexed": true,
          "internalType": "address",
          "name": "from",
          "type": "address"
        },
        {
          "indexed": true,
          "internalType": "address",
          "name": "to",
          "type": "address"
        },
        {
          "indexed": false,
          "internalType": "uint256",
          "name": "value",
          "type": "uint256"
        }
      ],
      "name": "InitiateWETH",
      "type": "event"
    },
    {
      "anonymous": false,
      "inputs": [
        {
          "indexed": false,
          "internalType": "address",
          "name": "account",
          "type": "address"
        }
      ],
      "name": "Paused",
      "type": "event"
    },
    {
      "anonymous": false,
      "inputs": [
        {
          "indexed": true,
          "internalType": "bytes32",
          "name": "role",
          "type": "bytes32"
        },
        {
          "indexed": true,
          "internalType": "bytes32",
          "name": "previousAdminRole",
          "type": "bytes32"
        },
        {
          "indexed": true,
          "internalType": "bytes32",
          "name": "newAdminRole",
          "type": "bytes32"
        }
      ],
      "name": "RoleAdminChanged",
      "type": "event"
    },
    {
      "anonymous": false,
      "inputs": [
        {
          "indexed": true,
          "internalType": "bytes32",
          "name": "role",
          "type": "bytes32"
        },
        {
          "indexed": true,
          "internalType": "address",
          "name": "account",
          "type": "address"
        },
        {
          "indexed": true,
          "internalType": "address",
          "name": "sender",
          "type": "address"
        }
      ],
      "name": "RoleGranted",
      "type": "event"
    },
    {
      "anonymous": false,
      "inputs": [
        {
          "indexed": true,
          "internalType": "bytes32",
          "name": "role",
          "type": "bytes32"
        },
        {
          "indexed": true,
          "internalType": "address",
          "name": "account",
          "type": "address"
        },
        {
          "indexed": true,
          "internalType": "address",
          "name": "sender",
          "type": "address"
        }
      ],
      "name": "RoleRevoked",
      "type": "event"
    },
    {
      "anonymous": false,
      "inputs": [
        {
          "indexed": false,
          "internalType": "address",
          "name": "account",
          "type": "address"
        }
      ],
      "name": "Unpaused",
      "type": "event"
    },
    {
      "anonymous": false,
      "inputs": [
        {
          "indexed": false,
          "internalType": "uint256",
          "name": "chainId",
          "type": "uint256"
        },
        {
          "indexed": false,
          "internalType": "uint256",
          "name": "timestamp",
          "type": "uint256"
        },
        {
          "indexed": false,
          "internalType": "address",
          "name": "token",
          "type": "address"
        },
        {
          "indexed": false,
          "internalType": "address",
          "name": "to",
          "type": "address"
        },
        {
          "indexed": false,
          "internalType": "uint256",
          "name": "value",
          "type": "uint256"
        }
      ],
      "name": "WithdrawERC20toL1Success",
      "type": "event"
    },
    {
      "anonymous": false,
      "inputs": [
        {
          "indexed": false,
          "internalType": "uint256",
          "name": "chainId",
          "type": "uint256"
        },
        {
          "indexed": false,
          "internalType": "uint256",
          "name": "timestamp",
          "type": "uint256"
        },
        {
          "indexed": false,
          "internalType": "address",
          "name": "to",
          "type": "address"
        },
        {
          "indexed": false,
          "internalType": "uint256",
          "name": "value",
          "type": "uint256"
        }
      ],
      "name": "WithdrawETHtoL1Success",
      "type": "event"
    },
    {
      "anonymous": false,
      "inputs": [
        {
          "indexed": false,
          "internalType": "uint256",
          "name": "chainId",
          "type": "uint256"
        },
        {
          "indexed": false,
          "internalType": "uint256",
          "name": "timestamp",
          "type": "uint256"
        },
        {
          "indexed": false,
          "internalType": "address",
          "name": "to",
          "type": "address"
        },
        {
          "indexed": false,
          "internalType": "uint256",
          "name": "value",
          "type": "uint256"
        }
      ],
      "name": "WithdrawWETHtoL1Success",
      "type": "event"
    },
    {
      "inputs": [
        {
          "internalType": "uint256",
          "name": "sourceChainId",
          "type": "uint256"
        },
        {
          "internalType": "uint256",
          "name": "destChainId",
          "type": "uint256"
        },
        {
          "internalType": "address",
          "name": "to",
          "type": "address"
        },
        {
          "internalType": "address",
          "name": "ERC20Address",
          "type": "address"
        },
        {
          "internalType": "uint256",
          "name": "amount",
          "type": "uint256"
        },
        {
          "internalType": "uint256",
          "name": "_fee",
          "type": "uint256"
        },
        {
          "internalType": "uint256",
          "name": "_nonce",
          "type": "uint256"
        }
      ],
      "name": "BridgeFinalizeERC20",
      "outputs": [
        {
          "internalType": "bool",
          "name": "",
          "type": "bool"
        }
      ],
      "stateMutability": "nonpayable",
      "type": "function"
    },
    {
      "inputs": [
        {
          "internalType": "uint256",
          "name": "sourceChainId",
          "type": "uint256"
        },
        {
          "internalType": "uint256",
          "name": "destChainId",
          "type": "uint256"
        },
        {
          "internalType": "address",
          "name": "to",
          "type": "address"
        },
        {
          "internalType": "uint256",
          "name": "amount",
          "type": "uint256"
        },
        {
          "internalType": "uint256",
          "name": "_fee",
          "type": "uint256"
        },
        {
          "internalType": "uint256",
          "name": "_nonce",
          "type": "uint256"
        }
      ],
      "name": "BridgeFinalizeETH",
      "outputs": [
        {
          "internalType": "bool",
          "name": "",
          "type": "bool"
        }
      ],
      "stateMutability": "payable",
      "type": "function"
    },
    {
      "inputs": [
        {
          "internalType": "uint256",
          "name": "sourceChainId",
          "type": "uint256"
        },
        {
          "internalType": "uint256",
          "name": "destChainId",
          "type": "uint256"
        },
        {
          "internalType": "address",
          "name": "to",
          "type": "address"
        },
        {
          "internalType": "uint256",
          "name": "amount",
          "type": "uint256"
        },
        {
          "internalType": "uint256",
          "name": "_fee",
          "type": "uint256"
        },
        {
          "internalType": "uint256",
          "name": "_nonce",
          "type": "uint256"
        }
      ],
      "name": "BridgeFinalizeWETH",
      "outputs": [
        {
          "internalType": "bool",
          "name": "",
          "type": "bool"
        }
      ],
      "stateMutability": "nonpayable",
      "type": "function"
    },
    {
      "inputs": [
        {
          "internalType": "uint256",
          "name": "sourceChainId",
          "type": "uint256"
        },
        {
          "internalType": "uint256",
          "name": "destChainId",
          "type": "uint256"
        },
        {
          "internalType": "address",
          "name": "to",
          "type": "address"
        },
        {
          "internalType": "address",
          "name": "ERC20Address",
          "type": "address"
        },
        {
          "internalType": "uint256",
          "name": "value",
          "type": "uint256"
        }
      ],
      "name": "BridgeInitiateERC20",
      "outputs": [
        {
          "internalType": "bool",
          "name": "",
          "type": "bool"
        }
      ],
      "stateMutability": "nonpayable",
      "type": "function"
    },
    {
      "inputs": [
        {
          "internalType": "uint256",
          "name": "sourceChainId",
          "type": "uint256"
        },
        {
          "internalType": "uint256",
          "name": "destChainId",
          "type": "uint256"
        },
        {
          "internalType": "address",
          "name": "to",
          "type": "address"
        }
      ],
      "name": "BridgeInitiateETH",
      "outputs": [
        {
          "internalType": "bool",
          "name": "",
          "type": "bool"
        }
      ],
      "stateMutability": "payable",
      "type": "function"
    },
    {
      "inputs": [
        {
          "internalType": "uint256",
          "name": "sourceChainId",
          "type": "uint256"
        },
        {
          "internalType": "uint256",
          "name": "destChainId",
          "type": "uint256"
        },
        {
          "internalType": "address",
          "name": "to",
          "type": "address"
        },
        {
          "internalType": "uint256",
          "name": "value",
          "type": "uint256"
        }
      ],
      "name": "BridgeInitiateWETH",
      "outputs": [
        {
          "internalType": "bool",
          "name": "",
          "type": "bool"
        }
      ],
      "stateMutability": "nonpayable",
      "type": "function"
    },
    {
      "inputs": [],
      "name": "DEFAULT_ADMIN_ROLE",
      "outputs": [
        {
          "internalType": "bytes32",
          "name": "",
          "type": "bytes32"
        }
      ],
      "stateMutability": "view",
      "type": "function"
    },
    {
      "inputs": [
        {
          "internalType": "address",
          "name": "",
          "type": "address"
        }
      ],
      "name": "FeePoolValue",
      "outputs": [
        {
          "internalType": "uint256",
          "name": "",
          "type": "uint256"
        }
      ],
      "stateMutability": "view",
      "type": "function"
    },
    {
      "inputs": [
        {
          "internalType": "uint256",
          "name": "chainId",
          "type": "uint256"
        }
      ],
      "name": "IsSupportChainId",
      "outputs": [
        {
          "internalType": "bool",
          "name": "",
          "type": "bool"
        }
      ],
      "stateMutability": "view",
      "type": "function"
    },
    {
      "inputs": [
        {
          "internalType": "address",
          "name": "ERC20Address",
          "type": "address"
        }
      ],
      "name": "IsSupportStableCoin",
      "outputs": [
        {
          "internalType": "bool",
          "name": "",
          "type": "bool"
        }
      ],
      "stateMutability": "view",
      "type": "function"
    },
    {
      "inputs": [],
      "name": "L2WETH",
      "outputs": [
        {
          "internalType": "address",
          "name": "",
          "type": "address"
        }
      ],
      "stateMutability": "view",
      "type": "function"
    },
    {
      "inputs": [],
      "name": "MAX_GAS_Limit",
      "outputs": [
        {
          "internalType": "uint32",
          "name": "",
          "type": "uint32"
        }
      ],
      "stateMutability": "view",
      "type": "function"
    },
    {
      "inputs": [],
      "name": "MinTransferAmount",
      "outputs": [
        {
          "internalType": "uint256",
          "name": "",
          "type": "uint256"
        }
      ],
      "stateMutability": "view",
      "type": "function"
    },
    {
      "inputs": [],
      "name": "PerFee",
      "outputs": [
        {
          "internalType": "uint256",
          "name": "",
          "type": "uint256"
        }
      ],
      "stateMutability": "view",
      "type": "function"
    },
    {
      "inputs": [
        {
          "internalType": "address",
          "name": "_token",
          "type": "address"
        },
        {
          "internalType": "address",
          "name": "to",
          "type": "address"
        },
        {
          "internalType": "uint256",
          "name": "_amount",
          "type": "uint256"
        }
      ],
      "name": "QuickSendAssertToUser",
      "outputs": [],
      "stateMutability": "nonpayable",
      "type": "function"
    },
    {
      "inputs": [],
      "name": "ReLayer",
      "outputs": [
        {
          "internalType": "bytes32",
          "name": "",
          "type": "bytes32"
        }
      ],
      "stateMutability": "view",
      "type": "function"
    },
    {
      "inputs": [
        {
          "internalType": "address",
          "name": "_token",
          "type": "address"
        },
        {
          "internalType": "address",
          "name": "_to",
          "type": "address"
        },
        {
          "internalType": "uint256",
          "name": "_amount",
          "type": "uint256"
        }
      ],
      "name": "WithdrawERC20ToL1",
      "outputs": [
        {
          "internalType": "bool",
          "name": "",
          "type": "bool"
        }
      ],
      "stateMutability": "payable",
      "type": "function"
    },
    {
      "inputs": [
        {
          "internalType": "address",
          "name": "_to",
          "type": "address"
        },
        {
          "internalType": "uint256",
          "name": "_amount",
          "type": "uint256"
        }
      ],
      "name": "WithdrawETHtoL1",
      "outputs": [
        {
          "internalType": "bool",
          "name": "",
          "type": "bool"
        }
      ],
      "stateMutability": "payable",
      "type": "function"
    },
    {
      "inputs": [
        {
          "internalType": "address",
          "name": "_to",
          "type": "address"
        },
        {
          "internalType": "uint256",
          "name": "_amount",
          "type": "uint256"
        }
      ],
      "name": "WithdrawWETHToL1",
      "outputs": [
        {
          "internalType": "bool",
          "name": "",
          "type": "bool"
        }
      ],
      "stateMutability": "payable",
      "type": "function"
    },
    {
      "inputs": [
        {
          "internalType": "bytes32",
          "name": "role",
          "type": "bytes32"
        }
      ],
      "name": "getRoleAdmin",
      "outputs": [
        {
          "internalType": "bytes32",
          "name": "",
          "type": "bytes32"
        }
      ],
      "stateMutability": "view",
      "type": "function"
    },
    {
      "inputs": [
        {
          "internalType": "bytes32",
          "name": "role",
          "type": "bytes32"
        },
        {
          "internalType": "address",
          "name": "account",
          "type": "address"
        }
      ],
      "name": "grantRole",
      "outputs": [],
      "stateMutability": "nonpayable",
      "type": "function"
    },
    {
      "inputs": [
        {
          "internalType": "bytes32",
          "name": "role",
          "type": "bytes32"
        },
        {
          "internalType": "address",
          "name": "account",
          "type": "address"
        }
      ],
      "name": "hasRole",
      "outputs": [
        {
          "internalType": "bool",
          "name": "",
          "type": "bool"
        }
      ],
      "stateMutability": "view",
      "type": "function"
    },
    {
      "inputs": [
        {
          "internalType": "address",
          "name": "_MultisigWallet",
          "type": "address"
        },
        {
          "internalType": "address",
          "name": "_messageManager",
          "type": "address"
        }
      ],
      "name": "initialize",
      "outputs": [],
      "stateMutability": "nonpayable",
      "type": "function"
    },
    {
      "inputs": [],
      "name": "messageManager",
      "outputs": [
        {
          "internalType": "contract IMessageManager",
          "name": "",
          "type": "address"
        }
      ],
      "stateMutability": "view",
      "type": "function"
    },
    {
      "inputs": [],
      "name": "pause",
      "outputs": [],
      "stateMutability": "nonpayable",
      "type": "function"
    },
    {
      "inputs": [],
      "name": "paused",
      "outputs": [
        {
          "internalType": "bool",
          "name": "",
          "type": "bool"
        }
      ],
      "stateMutability": "view",
      "type": "function"
    },
    {
      "inputs": [
        {
          "internalType": "bytes32",
          "name": "role",
          "type": "bytes32"
        },
        {
          "internalType": "address",
          "name": "callerConfirmation",
          "type": "address"
        }
      ],
      "name": "renounceRole",
      "outputs": [],
      "stateMutability": "nonpayable",
      "type": "function"
    },
    {
      "inputs": [
        {
          "internalType": "bytes32",
          "name": "role",
          "type": "bytes32"
        },
        {
          "internalType": "address",
          "name": "account",
          "type": "address"
        }
      ],
      "name": "revokeRole",
      "outputs": [],
      "stateMutability": "nonpayable",
      "type": "function"
    },
    {
      "inputs": [
        {
          "internalType": "uint256",
          "name": "_MinTransferAmount",
          "type": "uint256"
        }
      ],
      "name": "setMinTransferAmount",
      "outputs": [],
      "stateMutability": "nonpayable",
      "type": "function"
    },
    {
      "inputs": [
        {
          "internalType": "uint256",
          "name": "_PerFee",
          "type": "uint256"
        }
      ],
      "name": "setPerFee",
      "outputs": [],
      "stateMutability": "nonpayable",
      "type": "function"
    },
    {
      "inputs": [
        {
          "internalType": "address",
          "name": "ERC20Address",
          "type": "address"
        },
        {
          "internalType": "bool",
          "name": "isValid",
          "type": "bool"
        }
      ],
      "name": "setSupportStableCoin",
      "outputs": [],
      "stateMutability": "nonpayable",
      "type": "function"
    },
    {
      "inputs": [
        {
          "internalType": "uint256",
          "name": "chainId",
          "type": "uint256"
        },
        {
          "internalType": "bool",
          "name": "isValid",
          "type": "bool"
        }
      ],
      "name": "setValidChainId",
      "outputs": [],
      "stateMutability": "nonpayable",
      "type": "function"
    },
    {
      "inputs": [
        {
          "internalType": "bytes4",
          "name": "interfaceId",
          "type": "bytes4"
        }
      ],
      "name": "supportsInterface",
      "outputs": [
        {
          "internalType": "bool",
          "name": "",
          "type": "bool"
        }
      ],
      "stateMutability": "view",
      "type": "function"
    },
    {
      "inputs": [],
      "name": "unpause",
      "outputs": [],
      "stateMutability": "nonpayable",
      "type": "function"
    }
  ],
  "bytecode": {
    "object": "0x60806040523480156200001157600080fd5b506200001c62000022565b620000d6565b7ff0c57e16840df040f15088dc2f81fe391c3923bec73e23a9662efc9c229c6a00805468010000000000000000900460ff1615620000735760405163f92ee8a960e01b815260040160405180910390fd5b80546001600160401b0390811614620000d35780546001600160401b0319166001600160401b0390811782556040519081527fc7f505b2f371ae2175ee4913f4499e1f2633a7b5936321eed1cdaeb6115181d29060200160405180910390a15b50565b612efa80620000e66000396000f3fe6080604052600436106101f95760003560e01c806372fe6a7e1161010d578063b33280dd116100a0578063d547741f1161006f578063d547741f14610598578063d73f14e5146105b8578063dd0c3460146105d8578063ed06da87146105ee578063fa8618481461060e57600080fd5b8063b33280dd14610525578063b92e639614610545578063cd01c66514610565578063d28597f41461058557600080fd5b80639b442380116100dc5780639b442380146104b6578063a217fddf146104c9578063a525ae2b146104de578063b1887e9b1461051057600080fd5b806372fe6a7e146104315780638456cb591461046157806391d148541461047657806392d847381461049657600080fd5b806338731c4711610190578063485cc9551161015f578063485cc9551461037f57806354dc027e1461039f5780635765a4eb146103cc5780635c975abb146103ec578063650c22761461041157600080fd5b806338731c471461032457806339891dd7146103375780633b0230f01461034a5780633f4ba83a1461036a57600080fd5b8063248a9ca3116101cc578063248a9ca3146102a25780632f2ff15d146102c2578063325e5d43146102e457806336568abe1461030457600080fd5b806301ffc9a7146101fe5780630227047a1461023357806309dc480c1461024657806310875a131461026a575b600080fd5b34801561020a57600080fd5b5061021e610219366004612977565b610623565b60405190151581526020015b60405180910390f35b61021e6102413660046129bd565b61065a565b34801561025257600080fd5b5061025c60015481565b60405190815260200161022a565b34801561027657600080fd5b5060005461028a906001600160a01b031681565b6040516001600160a01b03909116815260200161022a565b3480156102ae57600080fd5b5061025c6102bd3660046129f9565b610990565b3480156102ce57600080fd5b506102e26102dd366004612a12565b6109b2565b005b3480156102f057600080fd5b506102e26102ff3660046129bd565b6109d4565b34801561031057600080fd5b506102e261031f366004612a12565b610a34565b61021e610332366004612a3e565b610a6c565b61021e610345366004612a8f565b610c47565b34801561035657600080fd5b5061021e610365366004612ab9565b610e83565b34801561037657600080fd5b506102e2611174565b34801561038b57600080fd5b506102e261039a366004612b07565b61118a565b3480156103ab57600080fd5b5061025c6103ba366004612b31565b60066020526000908152604090205481565b3480156103d857600080fd5b5061021e6103e7366004612a3e565b6112be565b3480156103f857600080fd5b50600080516020612ea58339815191525460ff1661021e565b34801561041d57600080fd5b506102e261042c3660046129f9565b611506565b34801561043d57600080fd5b5061021e61044c3660046129f9565b60009081526003602052604090205460ff1690565b34801561046d57600080fd5b506102e2611517565b34801561048257600080fd5b5061021e610491366004612a12565b61152a565b3480156104a257600080fd5b5061021e6104b1366004612b4c565b611562565b61021e6104c4366004612bad565b61175a565b3480156104d557600080fd5b5061025c600081565b3480156104ea57600080fd5b506007546104fb9063ffffffff1681565b60405163ffffffff909116815260200161022a565b34801561051c57600080fd5b5061028a61196e565b34801561053157600080fd5b506102e2610540366004612bf0565b6119c4565b34801561055157600080fd5b506102e26105603660046129f9565b6119fb565b34801561057157600080fd5b5061021e610580366004612c27565b611a4f565b61021e610593366004612a8f565b611de4565b3480156105a457600080fd5b506102e26105b3366004612a12565b612221565b3480156105c457600080fd5b506102e26105d3366004612c64565b61223d565b3480156105e457600080fd5b5061025c60025481565b3480156105fa57600080fd5b5061021e610609366004612b31565b612269565b34801561061a57600080fd5b5061025c612287565b60006001600160e01b03198216637965db0b60e01b148061065457506301ffc9a760e01b6001600160e01b03198316145b92915050565b600060ff196106786001600080516020612e65833981519152612c9f565b60405160200161068a91815260200190565b60405160208183030381529060405280519060200120166106aa816122cf565b466106b486612269565b6106e157604051631e859bc960e01b81526001600160a01b03871660048201526024015b60405180910390fd5b8062082750036108065760405163095ea7b360e01b815273d8a791fe2be73eb6e6cf1eb0cb3f36adc9b3f8f96004820152602481018590526001600160a01b0387169063095ea7b3906044016020604051808303816000875af115801561074c573d6000803e3d6000fd5b505050506040513d601f19601f820116820180604052508101906107709190612cb2565b5060075460405163a93a4af960e01b81526001600160a01b038089166004830152871660248201526044810186905263ffffffff9091166064820181905273d8a791fe2be73eb6e6cf1eb0cb3f36adc9b3f8f99163a93a4af99190608401600060405180830381600088803b1580156107e857600080fd5b5087f11580156107fc573d6000803e3d6000fd5b505050505061092e565b8061044d0361090c5760405163095ea7b360e01b8152732a3dd3eb832af982ec71669e178424b10dca2ede6004820152602481018590526001600160a01b0387169063095ea7b3906044016020604051808303816000875af1158015610870573d6000803e3d6000fd5b505050506040513d601f19601f820116820180604052508101906108949190612cb2565b5060405163cd58657960e01b8152732a3dd3eb832af982ec71669e178424b10dca2ede9063cd586579906108d590600090899089908c908490600401612ccf565b600060405180830381600087803b1580156108ef57600080fd5b505af1158015610903573d6000803e3d6000fd5b5050505061092e565b600a811461092e575b604051639474dee160e01b815260040160405180910390fd5b604080514681524260208201526001600160a01b0388811682840152871660608201526080810186905290517f1bc1b1207e0c319b7baad0317c09f30575218af6f5a59f1f0f15de8d217672cc9181900360a00190a150600195945050505050565b6000908152600080516020612e85833981519152602052604090206001015490565b6109bb82610990565b6109c4816122cf565b6109ce83836122d9565b50505050565b60ff196109f06001600080516020612e65833981519152612c9f565b604051602001610a0291815260200190565b6040516020818303038152906040528051906020012016610a22816122cf565b610a2d84848461237e565b5050505050565b6001600160a01b0381163314610a5d5760405163334bd91960e11b815260040160405180910390fd5b610a6782826124e5565b505050565b600060ff19610a8a6001600080516020612e65833981519152612c9f565b604051602001610a9c91815260200190565b6040516020818303038152906040528051906020012016610abc816122cf565b468814610adc57604051631a26aa4d60e21b815260040160405180910390fd5b60008781526003602052604090205460ff16610b0e57604051632ef6974160e11b8152600481018890526024016106d8565b604051309086156108fc029087906000818181858888f19350505050158015610b3b573d6000803e3d6000fd5b5073eeeeeeeeeeeeeeeeeeeeeeeeeeeeeeeeeeeeeeee60009081526005602052600080516020612e458339815191528054879290610b7a908490612c9f565b9091555050600054604051631eb65ffb60e01b81526001600160a01b0390911690631eb65ffb90610bb9908b908b908b908b908b908b90600401612d16565b600060405180830381600087803b158015610bd357600080fd5b505af1158015610be7573d6000803e3d6000fd5b5050604080518b8152602081018b90529081018890526001600160a01b03891692503091507f61d99af9dd09bd984d42cc07939d4cba4388e85aa29b3cc88df954e4ca719f329060600160405180910390a3506001979650505050505050565b600060ff19610c656001600080516020612e65833981519152612c9f565b604051602001610c7791815260200190565b6040516020818303038152906040528051906020012016610c97816122cf565b4647841115610cb957604051632c1d501360e11b815260040160405180910390fd5b806208275003610d5257600754604051636705b1e760e11b81526001600160a01b03871660048201526024810186905263ffffffff90911660448201819052737003e7b7186f0e6601203b99f7b8decbfa391cf99163ce0b63ce919087906064016000604051808303818589803b158015610d3357600080fd5b5088f1158015610d47573d6000803e3d6000fd5b505050505050610e2a565b8061044d03610dd45760405163cd58657960e01b8152732a3dd3eb832af982ec71669e178424b10dca2ede9063cd586579908690610d9d906000908a90849083908190600401612ccf565b6000604051808303818588803b158015610db657600080fd5b505af1158015610dca573d6000803e3d6000fd5b5050505050610e2a565b80600a0361091557600754604051631474f2a960e31b81526010602160991b019163a3a79548918791610d9d9173deaddeaddeaddeaddeaddeaddeaddeaddead0000918b91859163ffffffff1690600401612d47565b604080514681524260208201526001600160a01b038716818301526060810186905290517ff1fa6dbbb3e74f1bef249f22545b238726c1cc79c5571a1416575674c7e63f399181900360800190a1506001949350505050565b6000468614610ea557604051631a26aa4d60e21b815260040160405180910390fd5b60008581526003602052604090205460ff16610ed757604051632ef6974160e11b8152600481018690526024016106d8565b610ee083612269565b610f0857604051631e859bc960e01b81526001600160a01b03841660048201526024016106d8565b6040516370a0823160e01b81523060048201526000906001600160a01b038516906370a0823190602401602060405180830381865afa158015610f4f573d6000803e3d6000fd5b505050506040513d601f19601f82011682018060405250810190610f739190612d84565b9050610f8a6001600160a01b038516333086612561565b6040516370a0823160e01b81523060048201526000906001600160a01b038616906370a0823190602401602060405180830381865afa158015610fd1573d6000803e3d6000fd5b505050506040513d601f19601f82011682018060405250810190610ff59190612d84565b905060006110038383612c9f565b73eeeeeeeeeeeeeeeeeeeeeeeeeeeeeeeeeeeeeeee60009081526005602052600080516020612e4583398151915280549293508792909190611046908490612d9d565b9091555050600254600090620f4240906110609084612db0565b61106a9190612dc7565b90506110768183612c9f565b6001600160a01b0388166000908152600660205260408120805492945083929091906110a3908490612d9d565b909155505060005460405163305f478560e21b81526001600160a01b039091169063c17d1e14906110e0908d908d908d908c908890600401612de9565b600060405180830381600087803b1580156110fa57600080fd5b505af115801561110e573d6000803e3d6000fd5b5050604080518d8152602081018d90529081018590526001600160a01b03808c1693503392508a16907fece797608c81cc46a09f9859cf8ef650ec541b5da6989f30acb30dba9b8a40a49060600160405180910390a45060019998505050505050505050565b600061117f816122cf565b6111876125c8565b50565b7ff0c57e16840df040f15088dc2f81fe391c3923bec73e23a9662efc9c229c6a008054600160401b810460ff16159067ffffffffffffffff166000811580156111d05750825b905060008267ffffffffffffffff1660011480156111ed5750303b155b9050811580156111fb575080155b156112195760405163f92ee8a960e01b815260040160405180910390fd5b845467ffffffffffffffff19166001178555831561124357845460ff60401b1916600160401b1785555b61124b612628565b611253612632565b61125d8787612642565b6007805463ffffffff1916620493e017905583156112b557845460ff60401b19168555604051600181527fc7f505b2f371ae2175ee4913f4499e1f2633a7b5936321eed1cdaeb6115181d29060200160405180910390a15b50505050505050565b600060ff196112dc6001600080516020612e65833981519152612c9f565b6040516020016112ee91815260200190565b604051602081830303815290604052805190602001201661130e816122cf565b46881461132e57604051631a26aa4d60e21b815260040160405180910390fd5b60008781526003602052604090205460ff1661136057604051632ef6974160e11b8152600481018890526024016106d8565b600061136a61196e565b6040516323b872dd60e01b81523060048201526001600160a01b03898116602483015260448201899052919250908216906323b872dd906064016020604051808303816000875af11580156113c3573d6000803e3d6000fd5b505050506040513d601f19601f820116820180604052508101906113e79190612cb2565b5073c02aaa39b223fe8d0a0e5c4f27ead9083c756cc2600090815260056020527fa550ba85c46b24b567d2e17cd597f2283877afab43603f46d5de7858f1bdb7318054889290611438908490612c9f565b9091555050600054604051631eb65ffb60e01b81526001600160a01b0390911690631eb65ffb90611477908c908c908c908c908c908c90600401612d16565b600060405180830381600087803b15801561149157600080fd5b505af11580156114a5573d6000803e3d6000fd5b5050604080518c8152602081018c90529081018990526001600160a01b038a1692503091507f7dc80be13e04000533f3763be4b9359a36a0aeb0daabbf09fd96c3a275c1cc149060600160405180910390a350600198975050505050505050565b6000611511816122cf565b50600255565b6000611522816122cf565b61118761268b565b6000918252600080516020612e85833981519152602090815260408084206001600160a01b0393909316845291905290205460ff1690565b600060ff196115806001600080516020612e65833981519152612c9f565b60405160200161159291815260200190565b60405160208183030381529060405280519060200120166115b2816122cf565b4689146115d257604051631a26aa4d60e21b815260040160405180910390fd5b60008881526003602052604090205460ff1661160457604051632ef6974160e11b8152600481018990526024016106d8565b61160d86612269565b61163557604051631e859bc960e01b81526001600160a01b03871660048201526024016106d8565b61164a6001600160a01b038716308988612561565b73eeeeeeeeeeeeeeeeeeeeeeeeeeeeeeeeeeeeeeee60009081526005602052600080516020612e458339815191528054879290611688908490612c9f565b9091555050600054604051631eb65ffb60e01b81526001600160a01b0390911690631eb65ffb906116c7908c908c908c908b908b908b90600401612d16565b600060405180830381600087803b1580156116e157600080fd5b505af11580156116f5573d6000803e3d6000fd5b5050604080518c8152602081018c90529081018890526001600160a01b03808b1693503092508916907f0f50ec03884adc78b9840a90cf8805a70ffe160f18d6b83198103b6fade443fe9060600160405180910390a450600198975050505050505050565b600046841461177c57604051631a26aa4d60e21b815260040160405180910390fd5b60008381526003602052604090205460ff166117ae57604051632ef6974160e11b8152600481018490526024016106d8565b6001543410156117de576001546040516358f8331360e11b815260048101919091523460248201526044016106d8565b73eeeeeeeeeeeeeeeeeeeeeeeeeeeeeeeeeeeeeeee60009081526005602052600080516020612e45833981519152805434929061181c908490612d9d565b9091555050600254600090620f4240906118369034612db0565b6118409190612dc7565b9050600061184e8234612c9f565b73eeeeeeeeeeeeeeeeeeeeeeeeeeeeeeeeeeeeeeee600090815260066020527fa2e5aefc6e2cbe2917a296f0fd89c5f915c487c803db1d98eccb43f14012d711805492935084929091906118a3908490612d9d565b909155505060005460405163305f478560e21b81526001600160a01b039091169063c17d1e14906118e09046908990899034908990600401612de9565b600060405180830381600087803b1580156118fa57600080fd5b505af115801561190e573d6000803e3d6000fd5b505060408051898152602081018990529081018490526001600160a01b03871692503391507f0b671089787b6d29f730bc690214e6a7e28064fef5a3cdbb9b930a22fac01dc59060600160405180910390a36001925050505b9392505050565b6000466208275081900361198a576004605360981b0191505090565b8061044d036119ae57734f9a0e7fd2bf6067db6994cf12e4495df938e6e991505090565b80600a03610915576006602160991b0191505090565b60006119cf816122cf565b506001600160a01b03919091166000908152600460205260409020805460ff1916911515919091179055565b60ff19611a176001600080516020612e65833981519152612c9f565b604051602001611a2991815260200190565b6040516020818303038152906040528051906020012016611a49816122cf565b50600155565b6000468514611a7157604051631a26aa4d60e21b815260040160405180910390fd5b60008481526003602052604090205460ff16611aa3576040516363b5c9db60e01b8152600481018590526024016106d8565b6000611aad61196e565b6040516370a0823160e01b81523060048201529091506000906001600160a01b038316906370a0823190602401602060405180830381865afa158015611af7573d6000803e3d6000fd5b505050506040513d601f19601f82011682018060405250810190611b1b9190612d84565b6040516323b872dd60e01b8152336004820152306024820152604481018690529091506001600160a01b038316906323b872dd906064016020604051808303816000875af1158015611b71573d6000803e3d6000fd5b505050506040513d601f19601f82011682018060405250810190611b959190612cb2565b506040516370a0823160e01b81523060048201526000906001600160a01b038416906370a0823190602401602060405180830381865afa158015611bdd573d6000803e3d6000fd5b505050506040513d601f19601f82011682018060405250810190611c019190612d84565b90506000611c0f8383612c9f565b9050600154811015611c42576001546040516358f8331360e11b81526004810191909152602481018290526044016106d8565b73c02aaa39b223fe8d0a0e5c4f27ead9083c756cc2600090815260056020527fa550ba85c46b24b567d2e17cd597f2283877afab43603f46d5de7858f1bdb7318054839290611c92908490612d9d565b9091555050600254600090620f424090611cac9084612db0565b611cb69190612dc7565b9050611cc28183612c9f565b73c02aaa39b223fe8d0a0e5c4f27ead9083c756cc2600090815260066020527f5e5777fab7622aff3c042c1ece74307c2e9d699a9da444f416c35f2e1def28a580549294508392909190611d17908490612d9d565b909155505060005460405163305f478560e21b81526001600160a01b039091169063c17d1e1490611d54908d908d908d908d908890600401612de9565b600060405180830381600087803b158015611d6e57600080fd5b505af1158015611d82573d6000803e3d6000fd5b5050604080518d8152602081018d90529081018590526001600160a01b038b1692503391507fcb9e641636f35317739cff2833f1831bf3a25b930b5615ada09367c080d64a899060600160405180910390a35060019998505050505050505050565b600060ff19611e026001600080516020612e65833981519152612c9f565b604051602001611e1491815260200190565b6040516020818303038152906040528051906020012016611e34816122cf565b466000611e3f61196e565b6040516370a0823160e01b81523060048201529091506001600160a01b038216906370a0823190602401602060405180830381865afa158015611e86573d6000803e3d6000fd5b505050506040513d601f19601f82011682018060405250810190611eaa9190612d84565b851115611ed5576040516311745b6160e21b81526001600160a01b03821660048201526024016106d8565b816208275003611ffa5760405163095ea7b360e01b8152737003e7b7186f0e6601203b99f7b8decbfa391cf96004820152602481018690526001600160a01b0382169063095ea7b3906044016020604051808303816000875af1158015611f40573d6000803e3d6000fd5b505050506040513d601f19601f82011682018060405250810190611f649190612cb2565b5060075460405163a93a4af960e01b81526001600160a01b038084166004830152881660248201526044810187905263ffffffff90911660648201819052737003e7b7186f0e6601203b99f7b8decbfa391cf99163a93a4af99190608401600060405180830381600088803b158015611fdc57600080fd5b5087f1158015611ff0573d6000803e3d6000fd5b50505050506121c7565b8161044d036120f85760405163095ea7b360e01b8152732a3dd3eb832af982ec71669e178424b10dca2ede6004820152602481018690526001600160a01b0382169063095ea7b3906044016020604051808303816000875af1158015612064573d6000803e3d6000fd5b505050506040513d601f19601f820116820180604052508101906120889190612cb2565b5060405163cd58657960e01b8152732a3dd3eb832af982ec71669e178424b10dca2ede9063cd5865799087906120cb906000908b90849083908190600401612ccf565b6000604051808303818588803b1580156120e457600080fd5b505af1158015611ff0573d6000803e3d6000fd5b81600a036109155760405163095ea7b360e01b81526010602160991b016004820152602481018690526001600160a01b0382169063095ea7b3906044016020604051808303816000875af1158015612154573d6000803e3d6000fd5b505050506040513d601f19601f820116820180604052508101906121789190612cb2565b50600754604051631474f2a960e31b81526010602160991b019163a3a795489188916120cb9173deaddeaddeaddeaddeaddeaddeaddeaddead0000918c91859163ffffffff1690600401612d47565b604080514681524260208201526001600160a01b038816818301526060810187905290517fcb1a101498aadad4159168d719f955e559e768912e6f5f5c57b094eb047d000f9181900360800190a150600195945050505050565b61222a82610990565b612233816122cf565b6109ce83836124e5565b6000612248816122cf565b50600091825260036020526040909120805460ff1916911515919091179055565b6001600160a01b031660009081526004602052604090205460ff1690565b60ff196122a36001600080516020612e65833981519152612c9f565b6040516020016122b591815260200190565b604051602081830303815290604052805190602001201681565b61118781336126d4565b6000600080516020612e858339815191526122f4848461152a565b612374576000848152602082815260408083206001600160a01b03871684529091529020805460ff1916600117905561232a3390565b6001600160a01b0316836001600160a01b0316857f2f8788117e7eff1d82e926ec794901d17c78024a50270940304540a733656f0d60405160405180910390a46001915050610654565b6000915050610654565b600061238984612269565b6123b157604051631e859bc960e01b81526001600160a01b03851660048201526024016106d8565b73eeeeeeeeeeeeeeeeeeeeeeeeeeeeeeeeeeeeeeed196001600160a01b0385160161243357814710156123f757604051632c1d501360e11b815260040160405180910390fd5b6040516001600160a01b0384169083156108fc029084906000818181858888f1935050505015801561242d573d6000803e3d6000fd5b506124db565b6040516370a0823160e01b815230600482015282906001600160a01b038616906370a0823190602401602060405180830381865afa158015612479573d6000803e3d6000fd5b505050506040513d601f19601f8201168201806040525081019061249d9190612d84565b10156124c7576040516311745b6160e21b81526001600160a01b03851660048201526024016106d8565b6124db6001600160a01b0385168484612711565b5060019392505050565b6000600080516020612e85833981519152612500848461152a565b15612374576000848152602082815260408083206001600160a01b0387168085529252808320805460ff1916905551339287917ff6391f5c32d9c69d2a47ea670b442974b53935d1edc7fd64eb21e047a839171b9190a46001915050610654565b6040516001600160a01b0384811660248301528381166044830152606482018390526109ce9186918216906323b872dd906084015b604051602081830303815290604052915060e01b6020820180516001600160e01b038381831617835250505050612742565b6125d06127a5565b600080516020612ea5833981519152805460ff191681557f5db9ee0a495bf2e6ff9c91a7834c1ba4fdd244a5e8aa4e537bd38aeae4b073aa335b6040516001600160a01b03909116815260200160405180910390a150565b6126306127d5565b565b61263a6127d5565b61263061281e565b61264a6127d5565b67016345785d8a00006001556127106002556126676000836122d9565b50600080546001600160a01b0319166001600160a01b039290921691909117905550565b61269361283f565b600080516020612ea5833981519152805460ff191660011781557f62e78cea01bee320cd4e420270b5ea74000d11b0c9f74754ebdbfc544b05a2583361260a565b6126de828261152a565b61270d5760405163e2517d3f60e01b81526001600160a01b0382166004820152602481018390526044016106d8565b5050565b6040516001600160a01b03838116602483015260448201839052610a6791859182169063a9059cbb90606401612596565b60006127576001600160a01b03841683612870565b9050805160001415801561277c57508080602001905181019061277a9190612cb2565b155b15610a6757604051635274afe760e01b81526001600160a01b03841660048201526024016106d8565b600080516020612ea58339815191525460ff1661263057604051638dfc202b60e01b815260040160405180910390fd5b7ff0c57e16840df040f15088dc2f81fe391c3923bec73e23a9662efc9c229c6a0054600160401b900460ff1661263057604051631afcd79f60e31b815260040160405180910390fd5b6128266127d5565b600080516020612ea5833981519152805460ff19169055565b600080516020612ea58339815191525460ff16156126305760405163d93c066560e01b815260040160405180910390fd5b60606119678383600084600080856001600160a01b031684866040516128969190612e15565b60006040518083038185875af1925050503d80600081146128d3576040519150601f19603f3d011682016040523d82523d6000602084013e6128d8565b606091505b50915091506128e88683836128f2565b9695505050505050565b606082612907576129028261294e565b611967565b815115801561291e57506001600160a01b0384163b155b1561294757604051639996b31560e01b81526001600160a01b03851660048201526024016106d8565b5080611967565b80511561295e5780518082602001fd5b604051630a12f52160e11b815260040160405180910390fd5b60006020828403121561298957600080fd5b81356001600160e01b03198116811461196757600080fd5b80356001600160a01b03811681146129b857600080fd5b919050565b6000806000606084860312156129d257600080fd5b6129db846129a1565b92506129e9602085016129a1565b9150604084013590509250925092565b600060208284031215612a0b57600080fd5b5035919050565b60008060408385031215612a2557600080fd5b82359150612a35602084016129a1565b90509250929050565b60008060008060008060c08789031215612a5757600080fd5b8635955060208701359450612a6e604088016129a1565b9350606087013592506080870135915060a087013590509295509295509295565b60008060408385031215612aa257600080fd5b612aab836129a1565b946020939093013593505050565b600080600080600060a08688031215612ad157600080fd5b8535945060208601359350612ae8604087016129a1565b9250612af6606087016129a1565b949793965091946080013592915050565b60008060408385031215612b1a57600080fd5b612b23836129a1565b9150612a35602084016129a1565b600060208284031215612b4357600080fd5b611967826129a1565b600080600080600080600060e0888a031215612b6757600080fd5b8735965060208801359550612b7e604089016129a1565b9450612b8c606089016129a1565b9699959850939660808101359560a0820135955060c0909101359350915050565b600080600060608486031215612bc257600080fd5b8335925060208401359150612bd9604085016129a1565b90509250925092565b801515811461118757600080fd5b60008060408385031215612c0357600080fd5b612c0c836129a1565b91506020830135612c1c81612be2565b809150509250929050565b60008060008060808587031215612c3d57600080fd5b8435935060208501359250612c54604086016129a1565b9396929550929360600135925050565b60008060408385031215612c7757600080fd5b823591506020830135612c1c81612be2565b634e487b7160e01b600052601160045260246000fd5b8181038181111561065457610654612c89565b600060208284031215612cc457600080fd5b815161196781612be2565b63ffffffff9590951685526001600160a01b039384166020860152604085019290925290911660608301521515608082015260c060a0820181905260009082015260e00190565b95865260208601949094526001600160a01b039290921660408501526060840152608083015260a082015260c00190565b6001600160a01b039485168152929093166020830152604082015263ffffffff909116606082015260a06080820181905260009082015260c00190565b600060208284031215612d9657600080fd5b5051919050565b8082018082111561065457610654612c89565b808202811582820484141761065457610654612c89565b600082612de457634e487b7160e01b600052601260045260246000fd5b500490565b94855260208501939093526001600160a01b039190911660408401526060830152608082015260a00190565b6000825160005b81811015612e365760208186018101518583015201612e1c565b50600092019182525091905056fea1829a9003092132f585b6ccdd167c19fe9774dbdea4260287e8a8e8ca8185d733fe247d78fee2e7fd135c405eda4bd2911c0a73c0a81b36c3bcc967dd06e5ae02dd7bc7dec4dceedda775e58dd541e08a116c6c53815c0bd028192f7b626800cd5ed15c6e187e77e9aee88184c21f4f2182ab5827cb3b7e07fbedcd63f03300a2646970667358221220bb56e36648cb4e651369545528134645cd3b8a751edba0beb7e150995933ada564736f6c63430008140033",
    "linkReferences": {}
  },
  "methodIdentifiers": {
    "BridgeFinalizeERC20(uint256,uint256,address,address,uint256,uint256,uint256)": "92d84738",
    "BridgeFinalizeETH(uint256,uint256,address,uint256,uint256,uint256)": "38731c47",
    "BridgeFinalizeWETH(uint256,uint256,address,uint256,uint256,uint256)": "5765a4eb",
    "BridgeInitiateERC20(uint256,uint256,address,address,uint256)": "3b0230f0",
    "BridgeInitiateETH(uint256,uint256,address)": "9b442380",
    "BridgeInitiateWETH(uint256,uint256,address,uint256)": "cd01c665",
    "DEFAULT_ADMIN_ROLE()": "a217fddf",
    "FeePoolValue(address)": "54dc027e",
    "IsSupportChainId(uint256)": "72fe6a7e",
    "IsSupportStableCoin(address)": "ed06da87",
    "L2WETH()": "b1887e9b",
    "MAX_GAS_Limit()": "a525ae2b",
    "MinTransferAmount()": "09dc480c",
    "PerFee()": "dd0c3460",
    "QuickSendAssertToUser(address,address,uint256)": "325e5d43",
    "ReLayer()": "fa861848",
    "WithdrawERC20ToL1(address,address,uint256)": "0227047a",
    "WithdrawETHtoL1(address,uint256)": "39891dd7",
    "WithdrawWETHToL1(address,uint256)": "d28597f4",
    "getRoleAdmin(bytes32)": "248a9ca3",
    "grantRole(bytes32,address)": "2f2ff15d",
    "hasRole(bytes32,address)": "91d14854",
    "initialize(address,address)": "485cc955",
    "messageManager()": "10875a13",
    "pause()": "8456cb59",
    "paused()": "5c975abb",
    "renounceRole(bytes32,address)": "36568abe",
    "revokeRole(bytes32,address)": "d547741f",
    "setMinTransferAmount(uint256)": "b92e6396",
    "setPerFee(uint256)": "650c2276",
    "setSupportStableCoin(address,bool)": "b33280dd",
    "setValidChainId(uint256,bool)": "d73f14e5",
    "supportsInterface(bytes4)": "01ffc9a7",
    "unpause()": "3f4ba83a"
  },
  "id": 59
}